{"contracts/fractionalReal.sol":{"fractionalReal":{"abi":[{"inputs":[{"internalType":"address","name":"_owner","type":"address"},{"internalType":"string","name":"name_","type":"string"},{"internalType":"string","name":"symbol_","type":"string"}],"stateMutability":"nonpayable","type":"constructor"},{"anonymous":false,"inputs":[{"indexed":true,"internalType":"address","name":"owner","type":"address"},{"indexed":true,"internalType":"address","name":"spender","type":"address"},{"indexed":false,"internalType":"uint256","name":"value","type":"uint256"}],"name":"Approval","type":"event"},{"anonymous":false,"inputs":[{"indexed":true,"internalType":"address","name":"previousOwner","type":"address"},{"indexed":true,"internalType":"address","name":"newOwner","type":"address"}],"name":"OwnershipTransferred","type":"event"},{"anonymous":false,"inputs":[{"indexed":true,"internalType":"address","name":"from","type":"address"},{"indexed":true,"internalType":"address","name":"to","type":"address"},{"indexed":false,"internalType":"uint256","name":"value","type":"uint256"}],"name":"Transfer","type":"event"},{"inputs":[{"internalType":"uint256","name":"_index","type":"uint256"},{"internalType":"uint256","name":"_rent","type":"uint256"}],"name":"acceptRequest","outputs":[{"internalType":"bool","name":"","type":"bool"}],"stateMutability":"nonpayable","type":"function"},{"inputs":[],"name":"accumulated","outputs":[{"internalType":"uint256","name":"","type":"uint256"}],"stateMutability":"view","type":"function"},{"inputs":[{"internalType":"address","name":"owner","type":"address"},{"internalType":"address","name":"spender","type":"address"}],"name":"allowance","outputs":[{"internalType":"uint256","name":"","type":"uint256"}],"stateMutability":"view","type":"function"},{"inputs":[{"internalType":"address","name":"spender","type":"address"},{"internalType":"uint256","name":"amount","type":"uint256"}],"name":"approve","outputs":[{"internalType":"bool","name":"","type":"bool"}],"stateMutability":"nonpayable","type":"function"},{"inputs":[{"internalType":"uint256","name":"_txIndex","type":"uint256"}],"name":"approveProposal","outputs":[],"stateMutability":"nonpayable","type":"function"},{"inputs":[{"internalType":"address","name":"account","type":"address"}],"name":"balanceOf","outputs":[{"internalType":"uint256","name":"","type":"uint256"}],"stateMutability":"view","type":"function"},{"inputs":[{"internalType":"uint256","name":"_index","type":"uint256"}],"name":"buyStakeFromStakeholder","outputs":[{"internalType":"bool","name":"","type":"bool"}],"stateMutability":"payable","type":"function"},{"inputs":[],"name":"canRedeem","outputs":[{"internalType":"bool","name":"","type":"bool"}],"stateMutability":"view","type":"function"},{"inputs":[],"name":"collection","outputs":[{"internalType":"contract IERC721","name":"","type":"address"}],"stateMutability":"view","type":"function"},{"inputs":[{"internalType":"uint256","name":"_txIndex","type":"uint256"}],"name":"confirmProposal","outputs":[],"stateMutability":"nonpayable","type":"function"},{"inputs":[],"name":"decimals","outputs":[{"internalType":"uint8","name":"","type":"uint8"}],"stateMutability":"view","type":"function"},{"inputs":[{"internalType":"address","name":"spender","type":"address"},{"internalType":"uint256","name":"subtractedValue","type":"uint256"}],"name":"decreaseAllowance","outputs":[{"internalType":"bool","name":"","type":"bool"}],"stateMutability":"nonpayable","type":"function"},{"inputs":[],"name":"deposit","outputs":[],"stateMutability":"payable","type":"function"},{"inputs":[],"name":"distribute","outputs":[],"stateMutability":"nonpayable","type":"function"},{"inputs":[],"name":"forSale","outputs":[{"internalType":"bool","name":"","type":"bool"}],"stateMutability":"view","type":"function"},{"inputs":[],"name":"getStakeSales","outputs":[{"components":[{"internalType":"address","name":"stakeholder","type":"address"},{"internalType":"uint256","name":"noOfTokens","type":"uint256"},{"internalType":"uint256","name":"priceOfToken","type":"uint256"}],"internalType":"struct fractionalReal.stakeSale[]","name":"","type":"tuple[]"}],"stateMutability":"view","type":"function"},{"inputs":[{"internalType":"address","name":"spender","type":"address"},{"internalType":"uint256","name":"addedValue","type":"uint256"}],"name":"increaseAllowance","outputs":[{"internalType":"bool","name":"","type":"bool"}],"stateMutability":"nonpayable","type":"function"},{"inputs":[{"internalType":"uint256","name":"_noOfTokens","type":"uint256"}],"name":"initialize","outputs":[],"stateMutability":"nonpayable","type":"function"},{"inputs":[],"name":"initialized","outputs":[{"internalType":"bool","name":"","type":"bool"}],"stateMutability":"view","type":"function"},{"inputs":[{"internalType":"uint256","name":"","type":"uint256"},{"internalType":"address","name":"","type":"address"}],"name":"isConfirmed","outputs":[{"internalType":"bool","name":"","type":"bool"}],"stateMutability":"view","type":"function"},{"inputs":[{"internalType":"address","name":"_address","type":"address"}],"name":"isStakeholder","outputs":[{"internalType":"bool","name":"","type":"bool"},{"internalType":"uint256","name":"","type":"uint256"}],"stateMutability":"view","type":"function"},{"inputs":[],"name":"name","outputs":[{"internalType":"string","name":"","type":"string"}],"stateMutability":"view","type":"function"},{"inputs":[],"name":"numTokens","outputs":[{"internalType":"uint256","name":"","type":"uint256"}],"stateMutability":"view","type":"function"},{"inputs":[{"internalType":"address","name":"","type":"address"},{"internalType":"address","name":"","type":"address"},{"internalType":"uint256","name":"","type":"uint256"},{"internalType":"bytes","name":"","type":"bytes"}],"name":"onERC721Received","outputs":[{"internalType":"bytes4","name":"","type":"bytes4"}],"stateMutability":"nonpayable","type":"function"},{"inputs":[],"name":"owner","outputs":[{"internalType":"address","name":"","type":"address"}],"stateMutability":"view","type":"function"},{"inputs":[{"internalType":"uint256","name":"","type":"uint256"}],"name":"proposals","outputs":[{"internalType":"address","name":"buyer","type":"address"},{"internalType":"uint256","name":"proposedPrice","type":"uint256"},{"internalType":"uint256","name":"noOfConfirmations","type":"uint256"}],"stateMutability":"view","type":"function"},{"inputs":[],"name":"purchase","outputs":[],"stateMutability":"payable","type":"function"},{"inputs":[],"name":"purchaseBuyer","outputs":[],"stateMutability":"payable","type":"function"},{"inputs":[{"internalType":"uint256","name":"price","type":"uint256"}],"name":"putForSale","outputs":[],"stateMutability":"nonpayable","type":"function"},{"inputs":[],"name":"redeem","outputs":[],"stateMutability":"nonpayable","type":"function"},{"inputs":[{"internalType":"uint256","name":"_index","type":"uint256"}],"name":"rejectRequest","outputs":[{"internalType":"bool","name":"","type":"bool"}],"stateMutability":"nonpayable","type":"function"},{"inputs":[],"name":"renounceOwnership","outputs":[],"stateMutability":"nonpayable","type":"function"},{"inputs":[],"name":"rentPayment","outputs":[],"stateMutability":"payable","type":"function"},{"inputs":[],"name":"requestToRent","outputs":[{"internalType":"bool","name":"","type":"bool"}],"stateMutability":"nonpayable","type":"function"},{"inputs":[{"internalType":"address","name":"","type":"address"}],"name":"revenues","outputs":[{"internalType":"uint256","name":"","type":"uint256"}],"stateMutability":"view","type":"function"},{"inputs":[],"name":"salePrice","outputs":[{"internalType":"uint256","name":"","type":"uint256"}],"stateMutability":"view","type":"function"},{"inputs":[{"internalType":"uint256","name":"_noOfTokens","type":"uint256"},{"internalType":"uint256","name":"_priceOfToken","type":"uint256"}],"name":"sellStake","outputs":[{"internalType":"bool","name":"","type":"bool"}],"stateMutability":"nonpayable","type":"function"},{"inputs":[{"internalType":"uint256","name":"","type":"uint256"}],"name":"stakeSales","outputs":[{"internalType":"address","name":"stakeholder","type":"address"},{"internalType":"uint256","name":"noOfTokens","type":"uint256"},{"internalType":"uint256","name":"priceOfToken","type":"uint256"}],"stateMutability":"view","type":"function"},{"inputs":[{"internalType":"uint256","name":"","type":"uint256"}],"name":"stakeholders","outputs":[{"internalType":"address","name":"","type":"address"}],"stateMutability":"view","type":"function"},{"inputs":[],"name":"status","outputs":[{"internalType":"uint256","name":"","type":"uint256"}],"stateMutability":"view","type":"function"},{"inputs":[{"internalType":"uint256","name":"_value","type":"uint256"}],"name":"submitProposalToBuy","outputs":[],"stateMutability":"nonpayable","type":"function"},{"inputs":[],"name":"symbol","outputs":[{"internalType":"string","name":"","type":"string"}],"stateMutability":"view","type":"function"},{"inputs":[{"internalType":"uint256","name":"","type":"uint256"}],"name":"tenantRequests","outputs":[{"internalType":"address","name":"","type":"address"}],"stateMutability":"view","type":"function"},{"inputs":[{"internalType":"uint256","name":"","type":"uint256"}],"name":"tenants","outputs":[{"internalType":"address","name":"tenantAddress","type":"address"},{"internalType":"uint256","name":"rent","type":"uint256"}],"stateMutability":"view","type":"function"},{"inputs":[],"name":"tokenId","outputs":[{"internalType":"uint256","name":"","type":"uint256"}],"stateMutability":"view","type":"function"},{"inputs":[],"name":"totalSupply","outputs":[{"internalType":"uint256","name":"","type":"uint256"}],"stateMutability":"view","type":"function"},{"inputs":[{"internalType":"address","name":"to","type":"address"},{"internalType":"uint256","name":"amount","type":"uint256"}],"name":"transfer","outputs":[{"internalType":"bool","name":"","type":"bool"}],"stateMutability":"nonpayable","type":"function"},{"inputs":[{"internalType":"address","name":"from","type":"address"},{"internalType":"address","name":"to","type":"address"},{"internalType":"uint256","name":"amount","type":"uint256"}],"name":"transferFrom","outputs":[{"internalType":"bool","name":"","type":"bool"}],"stateMutability":"nonpayable","type":"function"},{"inputs":[{"internalType":"address","name":"newOwner","type":"address"}],"name":"transferOwnership","outputs":[],"stateMutability":"nonpayable","type":"function"}],"evm":{"bytecode":{"linkReferences":{},"object":"60806040526000600d60006101000a81548160ff0219169083151502179055506000600d60016101000a81548160ff0219169083151502179055506000600f60006101000a81548160ff0219169083151502179055506000601560006101000a81548160ff0219169083151502179055503480156200007d57600080fd5b5060405162005eb838038062005eb88339818101604052810190620000a391906200041d565b81818160039081620000b6919062000702565b508060049081620000c8919062000702565b505050620000eb620000df6200015760201b60201c565b6200015f60201b60201c565b6007839080600181540180825580915050600190039060005260206000200160009091909190916101000a81548173ffffffffffffffffffffffffffffffffffffffff021916908373ffffffffffffffffffffffffffffffffffffffff160217905550505050620007e9565b600033905090565b6000600560009054906101000a900473ffffffffffffffffffffffffffffffffffffffff16905081600560006101000a81548173ffffffffffffffffffffffffffffffffffffffff021916908373ffffffffffffffffffffffffffffffffffffffff1602179055508173ffffffffffffffffffffffffffffffffffffffff168173ffffffffffffffffffffffffffffffffffffffff167f8be0079c531659141344cd1fd0a4f28419497f9722a3daafe3b4186f6b6457e060405160405180910390a35050565b6000604051905090565b600080fd5b600080fd5b600073ffffffffffffffffffffffffffffffffffffffff82169050919050565b6000620002668262000239565b9050919050565b620002788162000259565b81146200028457600080fd5b50565b60008151905062000298816200026d565b92915050565b600080fd5b600080fd5b6000601f19601f8301169050919050565b7f4e487b7100000000000000000000000000000000000000000000000000000000600052604160045260246000fd5b620002f382620002a8565b810181811067ffffffffffffffff82111715620003155762000314620002b9565b5b80604052505050565b60006200032a62000225565b9050620003388282620002e8565b919050565b600067ffffffffffffffff8211156200035b576200035a620002b9565b5b6200036682620002a8565b9050602081019050919050565b60005b838110156200039357808201518184015260208101905062000376565b60008484015250505050565b6000620003b6620003b0846200033d565b6200031e565b905082815260208101848484011115620003d557620003d4620002a3565b5b620003e284828562000373565b509392505050565b600082601f8301126200040257620004016200029e565b5b8151620004148482602086016200039f565b91505092915050565b6000806000606084860312156200043957620004386200022f565b5b6000620004498682870162000287565b935050602084015167ffffffffffffffff8111156200046d576200046c62000234565b5b6200047b86828701620003ea565b925050604084015167ffffffffffffffff8111156200049f576200049e62000234565b5b620004ad86828701620003ea565b9150509250925092565b600081519050919050565b7f4e487b7100000000000000000000000000000000000000000000000000000000600052602260045260246000fd5b600060028204905060018216806200050a57607f821691505b60208210810362000520576200051f620004c2565b5b50919050565b60008190508160005260206000209050919050565b60006020601f8301049050919050565b600082821b905092915050565b6000600883026200058a7fffffffffffffffffffffffffffffffffffffffffffffffffffffffffffffffff826200054b565b6200059686836200054b565b95508019841693508086168417925050509392505050565b6000819050919050565b6000819050919050565b6000620005e3620005dd620005d784620005ae565b620005b8565b620005ae565b9050919050565b6000819050919050565b620005ff83620005c2565b620006176200060e82620005ea565b84845462000558565b825550505050565b600090565b6200062e6200061f565b6200063b818484620005f4565b505050565b5b8181101562000663576200065760008262000624565b60018101905062000641565b5050565b601f821115620006b2576200067c8162000526565b62000687846200053b565b8101602085101562000697578190505b620006af620006a6856200053b565b83018262000640565b50505b505050565b600082821c905092915050565b6000620006d760001984600802620006b7565b1980831691505092915050565b6000620006f28383620006c4565b9150826002028217905092915050565b6200070d82620004b7565b67ffffffffffffffff811115620007295762000728620002b9565b5b620007358254620004f1565b6200074282828562000667565b600060209050601f8311600181146200077a576000841562000765578287015190505b620007718582620006e4565b865550620007e1565b601f1984166200078a8662000526565b60005b82811015620007b4578489015182556001820191506020850194506020810190506200078d565b86831015620007d45784890151620007d0601f891682620006c4565b8355505b6001600288020188555050505b505050505050565b6156bf80620007f96000396000f3fe6080604052600436106102ae5760003560e01c80637a04432311610175578063d0e30db0116100dc578063f2fde38b11610095578063f97ed5091161006f578063f97ed50914610b1b578063fdb5866a14610b46578063fe4b84df14610b50578063ff4c848214610b79576102ae565b8063f2fde38b14610a9e578063f4a4f4d214610ac7578063f51f96dd14610af0576102ae565b8063d0e30db01461099c578063dd62ed3e146109a6578063de673888146109e3578063e4fc6b6d14610a20578063ea0cb51e14610a37578063ef037b9014610a60576102ae565b806398951b561161012e57806398951b5614610865578063a457c2d71461088e578063a9059cbb146108cb578063b6b6dd8f14610908578063bd2ba85d14610947578063be040fb014610985576102ae565b80637a044323146107515780637de1e5361461077c57806380f59a65146107a75780638da5cb5b146107e45780638e499bcf1461080f57806395d89b411461083a576102ae565b80632d7788db116102195780634cc1eba5116101d25780634cc1eba51461064e578063581162271461067957806364edfbf0146106b657806370a08231146106c0578063715018a6146106fd57806378ae98c814610714576102ae565b80632d7788db14610523578063313ce56714610560578063395093511461058b5780633ab26198146105c85780633fb95e27146105f8578063466ccac014610623576102ae565b806317d70f7c1161026b57806317d70f7c146103ff57806318160ddd1461042a5780631d6b8b72146104555780631f078ced14610492578063200d2ed2146104bb57806323b872dd146104e6576102ae565b8063013cf08b146102b357806306fdde03146102f2578063095ea7b31461031d5780630e62bbae1461035a578063150b7a0214610397578063158ef93e146103d4575b600080fd5b3480156102bf57600080fd5b506102da60048036038101906102d59190613c7f565b610b83565b6040516102e993929190613cfc565b60405180910390f35b3480156102fe57600080fd5b50610307610bdd565b6040516103149190613dc3565b60405180910390f35b34801561032957600080fd5b50610344600480360381019061033f9190613e11565b610c6f565b6040516103519190613e6c565b60405180910390f35b34801561036657600080fd5b50610381600480360381019061037c9190613c7f565b610c92565b60405161038e9190613e87565b60405180910390f35b3480156103a357600080fd5b506103be60048036038101906103b99190613fd7565b610cd1565b6040516103cb9190614095565b60405180910390f35b3480156103e057600080fd5b506103e9610ce5565b6040516103f69190613e6c565b60405180910390f35b34801561040b57600080fd5b50610414610cf8565b60405161042191906140b0565b60405180910390f35b34801561043657600080fd5b5061043f610cfe565b60405161044c91906140b0565b60405180910390f35b34801561046157600080fd5b5061047c60048036038101906104779190613c7f565b610d08565b6040516104899190613e87565b60405180910390f35b34801561049e57600080fd5b506104b960048036038101906104b49190613c7f565b610d47565b005b3480156104c757600080fd5b506104d0610d87565b6040516104dd91906140b0565b60405180910390f35b3480156104f257600080fd5b5061050d600480360381019061050891906140cb565b610d8d565b60405161051a9190613e6c565b60405180910390f35b34801561052f57600080fd5b5061054a60048036038101906105459190613c7f565b610dbc565b6040516105579190613e6c565b60405180910390f35b34801561056c57600080fd5b50610575610f09565b604051610582919061413a565b60405180910390f35b34801561059757600080fd5b506105b260048036038101906105ad9190613e11565b610f12565b6040516105bf9190613e6c565b60405180910390f35b6105e260048036038101906105dd9190613c7f565b610f49565b6040516105ef9190613e6c565b60405180910390f35b34801561060457600080fd5b5061060d61132f565b60405161061a9190614264565b60405180910390f35b34801561062f57600080fd5b506106386113f8565b6040516106459190613e6c565b60405180910390f35b34801561065a57600080fd5b5061066361140b565b6040516106709190613e6c565b60405180910390f35b34801561068557600080fd5b506106a0600480360381019061069b9190614286565b611477565b6040516106ad9190613e6c565b60405180910390f35b6106be61160c565b005b3480156106cc57600080fd5b506106e760048036038101906106e291906142c6565b611977565b6040516106f491906140b0565b60405180910390f35b34801561070957600080fd5b506107126119bf565b005b34801561072057600080fd5b5061073b600480360381019061073691906142c6565b6119d3565b60405161074891906140b0565b60405180910390f35b34801561075d57600080fd5b506107666119eb565b60405161077391906140b0565b60405180910390f35b34801561078857600080fd5b506107916119f1565b60405161079e9190614352565b60405180910390f35b3480156107b357600080fd5b506107ce60048036038101906107c9919061436d565b611a17565b6040516107db9190613e6c565b60405180910390f35b3480156107f057600080fd5b506107f9611a46565b6040516108069190613e87565b60405180910390f35b34801561081b57600080fd5b50610824611a70565b60405161083191906140b0565b60405180910390f35b34801561084657600080fd5b5061084f611a76565b60405161085c9190613dc3565b60405180910390f35b34801561087157600080fd5b5061088c60048036038101906108879190613c7f565b611b08565b005b34801561089a57600080fd5b506108b560048036038101906108b09190613e11565b611cc2565b6040516108c29190613e6c565b60405180910390f35b3480156108d757600080fd5b506108f260048036038101906108ed9190613e11565b611d39565b6040516108ff9190613e6c565b60405180910390f35b34801561091457600080fd5b5061092f600480360381019061092a9190613c7f565b611d5c565b60405161093e93929190613cfc565b60405180910390f35b34801561095357600080fd5b5061096e60048036038101906109699190613c7f565b611db6565b60405161097c9291906143ad565b60405180910390f35b34801561099157600080fd5b5061099a611e0a565b005b6109a4612062565b005b3480156109b257600080fd5b506109cd60048036038101906109c891906143d6565b6121f5565b6040516109da91906140b0565b60405180910390f35b3480156109ef57600080fd5b50610a0a6004803603810190610a059190614286565b61227c565b604051610a179190613e6c565b60405180910390f35b348015610a2c57600080fd5b50610a356124b1565b005b348015610a4357600080fd5b50610a5e6004803603810190610a599190613c7f565b61271e565b005b348015610a6c57600080fd5b50610a876004803603810190610a8291906142c6565b6128b3565b604051610a95929190614416565b60405180910390f35b348015610aaa57600080fd5b50610ac56004803603810190610ac091906142c6565b612966565b005b348015610ad357600080fd5b50610aee6004803603810190610ae99190613c7f565b6129e9565b005b348015610afc57600080fd5b50610b05612c22565b604051610b1291906140b0565b60405180910390f35b348015610b2757600080fd5b50610b30612c28565b604051610b3d9190613e6c565b60405180910390f35b610b4e612c3b565b005b348015610b5c57600080fd5b50610b776004803603810190610b729190613c7f565b61308d565b005b610b8161315f565b005b60168181548110610b9357600080fd5b90600052602060002090600302016000915090508060000160009054906101000a900473ffffffffffffffffffffffffffffffffffffffff16908060010154908060020154905083565b606060038054610bec9061446e565b80601f0160208091040260200160405190810160405280929190818152602001828054610c189061446e565b8015610c655780601f10610c3a57610100808354040283529160200191610c65565b820191906000526020600020905b815481529060010190602001808311610c4857829003601f168201915b5050505050905090565b600080610c7a6132db565b9050610c878185856132e3565b600191505092915050565b60128181548110610ca257600080fd5b906000526020600020016000915054906101000a900473ffffffffffffffffffffffffffffffffffffffff1681565b600063150b7a0260e01b9050949350505050565b600d60009054906101000a900460ff1681565b600c5481565b6000600254905090565b60078181548110610d1857600080fd5b906000526020600020016000915054906101000a900473ffffffffffffffffffffffffffffffffffffffff1681565b610d4f6134ac565b670de0b6b3a764000081610d6391906144ce565b600e819055506001600d60016101000a81548160ff02191690831515021790555050565b60085481565b600080610d986132db565b9050610da585828561352a565b610db08585856135b6565b60019150509392505050565b6000610dc66134ac565b6012805490508210610e0d576040517f08c379a0000000000000000000000000000000000000000000000000000000008152600401610e049061455c565b60405180910390fd5b60126001601280549050610e21919061457c565b81548110610e3257610e316145b0565b5b9060005260206000200160009054906101000a900473ffffffffffffffffffffffffffffffffffffffff1660128381548110610e7157610e706145b0565b5b9060005260206000200160006101000a81548173ffffffffffffffffffffffffffffffffffffffff021916908373ffffffffffffffffffffffffffffffffffffffff1602179055506012805480610ecb57610eca6145df565b5b6001900381819060005260206000200160006101000a81549073ffffffffffffffffffffffffffffffffffffffff0219169055905560019050919050565b60006012905090565b600080610f1d6132db565b9050610f3e818585610f2f85896121f5565b610f39919061460e565b6132e3565b600191505092915050565b60006011805490508210610f92576040517f08c379a0000000000000000000000000000000000000000000000000000000008152600401610f899061455c565b60405180910390fd5b60118281548110610fa657610fa56145b0565b5b90600052602060002090600302016001015460118381548110610fcc57610fcb6145b0565b5b906000526020600020906003020160020154610fe891906144ce565b34101561102a576040517f08c379a00000000000000000000000000000000000000000000000000000000081526004016110219061468e565b60405180910390fd5b6011828154811061103e5761103d6145b0565b5b90600052602060002090600302016001015461109e60118481548110611067576110666145b0565b5b906000526020600020906003020160000160009054906101000a900473ffffffffffffffffffffffffffffffffffffffff16611977565b10156110df576040517f08c379a00000000000000000000000000000000000000000000000000000000081526004016110d6906146fa565b60405180910390fd5b611154601183815481106110f6576110f56145b0565b5b906000526020600020906003020160000160009054906101000a900473ffffffffffffffffffffffffffffffffffffffff16336011858154811061113d5761113c6145b0565b5b9060005260206000209060030201600101546135b6565b60006011838154811061116a576111696145b0565b5b906000526020600020906003020160000160009054906101000a900473ffffffffffffffffffffffffffffffffffffffff16905060008173ffffffffffffffffffffffffffffffffffffffff16346040516111c49061474b565b60006040518083038185875af1925050503d8060008114611201576040519150601f19603f3d011682016040523d82523d6000602084013e611206565b606091505b505090508061124a576040517f08c379a0000000000000000000000000000000000000000000000000000000008152600401611241906147ac565b60405180910390fd5b601180548061125c5761125b6145df565b5b6001900381819060005260206000209060030201600080820160006101000a81549073ffffffffffffffffffffffffffffffffffffffff0219169055600182016000905560028201600090555050905560006112b7336128b3565b50905080611323576007339080600181540180825580915050600190039060005260206000200160009091909190916101000a81548173ffffffffffffffffffffffffffffffffffffffff021916908373ffffffffffffffffffffffffffffffffffffffff1602179055505b60019350505050919050565b60606011805480602002602001604051908101604052809291908181526020016000905b828210156113ef57838290600052602060002090600302016040518060600160405290816000820160009054906101000a900473ffffffffffffffffffffffffffffffffffffffff1673ffffffffffffffffffffffffffffffffffffffff1673ffffffffffffffffffffffffffffffffffffffff1681526020016001820154815260200160028201548152505081526020019060010190611353565b50505050905090565b600d60019054906101000a900460ff1681565b60006012339080600181540180825580915050600190039060005260206000200160009091909190916101000a81548173ffffffffffffffffffffffffffffffffffffffff021916908373ffffffffffffffffffffffffffffffffffffffff1602179055506001905090565b60008083116114bb576040517f08c379a00000000000000000000000000000000000000000000000000000000081526004016114b290614818565b60405180910390fd5b600082116114fe576040517f08c379a00000000000000000000000000000000000000000000000000000000081526004016114f590614884565b60405180910390fd5b8261150833611977565b1015611549576040517f08c379a0000000000000000000000000000000000000000000000000000000008152600401611540906146fa565b60405180910390fd5b601160405180606001604052803373ffffffffffffffffffffffffffffffffffffffff16815260200185815260200184815250908060018154018082558091505060019003906000526020600020906003020160009091909190915060008201518160000160006101000a81548173ffffffffffffffffffffffffffffffffffffffff021916908373ffffffffffffffffffffffffffffffffffffffff160217905550602082015181600101556040820151816002015550506001905092915050565b600d60019054906101000a900460ff1661165b576040517f08c379a0000000000000000000000000000000000000000000000000000000008152600401611652906148f0565b60405180910390fd5b600e543410156116a0576040517f08c379a00000000000000000000000000000000000000000000000000000000081526004016116979061495c565b60405180910390fd5b6116a8610cfe565b6116f060076000815481106116c0576116bf6145b0565b5b9060005260206000200160009054906101000a900473ffffffffffffffffffffffffffffffffffffffff16611977565b14611730576040517f08c379a0000000000000000000000000000000000000000000000000000000008152600401611727906149ee565b60405180910390fd5b600b60009054906101000a900473ffffffffffffffffffffffffffffffffffffffff1673ffffffffffffffffffffffffffffffffffffffff166323b872dd3033600c546040518463ffffffff1660e01b815260040161179193929190614a0e565b600060405180830381600087803b1580156117ab57600080fd5b505af11580156117bf573d6000803e3d6000fd5b5050505061185360076000815481106117db576117da6145b0565b5b9060005260206000200160009054906101000a900473ffffffffffffffffffffffffffffffffffffffff1661184e600760008154811061181e5761181d6145b0565b5b9060005260206000200160009054906101000a900473ffffffffffffffffffffffffffffffffffffffff16611977565b61382c565b6000600760008154811061186a576118696145b0565b5b9060005260206000200160009054906101000a900473ffffffffffffffffffffffffffffffffffffffff1673ffffffffffffffffffffffffffffffffffffffff16346040516118b89061474b565b60006040518083038185875af1925050503d80600081146118f5576040519150601f19603f3d011682016040523d82523d6000602084013e6118fa565b606091505b505090508061193e576040517f08c379a0000000000000000000000000000000000000000000000000000000008152600401611935906147ac565b60405180910390fd5b6000600d60016101000a81548160ff0219169083151502179055506000600f60006101000a81548160ff02191690831515021790555050565b60008060008373ffffffffffffffffffffffffffffffffffffffff1673ffffffffffffffffffffffffffffffffffffffff168152602001908152602001600020549050919050565b6119c76134ac565b6119d160006139f9565b565b60096020528060005260406000206000915090505481565b600a5481565b600b60009054906101000a900473ffffffffffffffffffffffffffffffffffffffff1681565b60176020528160005260406000206020528060005260406000206000915091509054906101000a900460ff1681565b6000600560009054906101000a900473ffffffffffffffffffffffffffffffffffffffff16905090565b60065481565b606060048054611a859061446e565b80601f0160208091040260200160405190810160405280929190818152602001828054611ab19061446e565b8015611afe5780601f10611ad357610100808354040283529160200191611afe565b820191906000526020600020905b815481529060010190602001808311611ae157829003601f168201915b5050505050905090565b611b106134ac565b600d60019054906101000a900460ff16611b5f576040517f08c379a0000000000000000000000000000000000000000000000000000000008152600401611b5690614a91565b60405180910390fd5b6016805490508110611ba6576040517f08c379a0000000000000000000000000000000000000000000000000000000008152600401611b9d90614afd565b60405180910390fd5b600060168281548110611bbc57611bbb6145b0565b5b9060005260206000209060030201905060078054905081600201541015611c18576040517f08c379a0000000000000000000000000000000000000000000000000000000008152600401611c0f90614b69565b60405180910390fd5b6001601560006101000a81548160ff0219169083151502179055506000600d60016101000a81548160ff02191690831515021790555080600101546014819055508060000160009054906101000a900473ffffffffffffffffffffffffffffffffffffffff16601360006101000a81548173ffffffffffffffffffffffffffffffffffffffff021916908373ffffffffffffffffffffffffffffffffffffffff1602179055505050565b600080611ccd6132db565b90506000611cdb82866121f5565b905083811015611d20576040517f08c379a0000000000000000000000000000000000000000000000000000000008152600401611d1790614bfb565b60405180910390fd5b611d2d82868684036132e3565b60019250505092915050565b600080611d446132db565b9050611d518185856135b6565b600191505092915050565b60118181548110611d6c57600080fd5b90600052602060002090600302016000915090508060000160009054906101000a900473ffffffffffffffffffffffffffffffffffffffff16908060010154908060020154905083565b60108181548110611dc657600080fd5b90600052602060002090600202016000915090508060000160009054906101000a900473ffffffffffffffffffffffffffffffffffffffff16908060010154905082565b600f60009054906101000a900460ff16611e59576040517f08c379a0000000000000000000000000000000000000000000000000000000008152600401611e5090614c67565b60405180910390fd5b600080600090505b600780549050811015611ef7573373ffffffffffffffffffffffffffffffffffffffff1660078281548110611e9957611e986145b0565b5b9060005260206000200160009054906101000a900473ffffffffffffffffffffffffffffffffffffffff1673ffffffffffffffffffffffffffffffffffffffff1603611ee3578091505b600181611ef0919061460e565b9050611e61565b50600060078281548110611f0e57611f0d6145b0565b5b9060005260206000200160009054906101000a900473ffffffffffffffffffffffffffffffffffffffff1690506000600960008373ffffffffffffffffffffffffffffffffffffffff1673ffffffffffffffffffffffffffffffffffffffff1681526020019081526020016000205490506000600960008473ffffffffffffffffffffffffffffffffffffffff1673ffffffffffffffffffffffffffffffffffffffff168152602001908152602001600020819055508173ffffffffffffffffffffffffffffffffffffffff166108fc829081150290604051600060405180830381858888f1935050505015801561200a573d6000803e3d6000fd5b5061205d336007600081548110612024576120236145b0565b5b9060005260206000200160009054906101000a900473ffffffffffffffffffffffffffffffffffffffff1661205885611977565b6135b6565b505050565b61206a6134ac565b600e543410156120af576040517f08c379a00000000000000000000000000000000000000000000000000000000081526004016120a69061495c565b60405180910390fd5b60005b6007805490508110156121d7576000600782815481106120d5576120d46145b0565b5b9060005260206000200160009054906101000a900473ffffffffffffffffffffffffffffffffffffffff169050600061210c610cfe565b61211583611977565b4761212091906144ce565b61212a9190614cb6565b905061217e81600960008573ffffffffffffffffffffffffffffffffffffffff1673ffffffffffffffffffffffffffffffffffffffff16815260200190815260200160002054613abf90919063ffffffff16565b600960008473ffffffffffffffffffffffffffffffffffffffff1673ffffffffffffffffffffffffffffffffffffffff1681526020019081526020016000208190555050506001816121d0919061460e565b90506120b2565b506001600f60006101000a81548160ff021916908315150217905550565b6000600160008473ffffffffffffffffffffffffffffffffffffffff1673ffffffffffffffffffffffffffffffffffffffff16815260200190815260200160002060008373ffffffffffffffffffffffffffffffffffffffff1673ffffffffffffffffffffffffffffffffffffffff16815260200190815260200160002054905092915050565b60006122866134ac565b60128054905083106122cd576040517f08c379a00000000000000000000000000000000000000000000000000000000081526004016122c49061455c565b60405180910390fd5b60106040518060400160405280601286815481106122ee576122ed6145b0565b5b9060005260206000200160009054906101000a900473ffffffffffffffffffffffffffffffffffffffff1673ffffffffffffffffffffffffffffffffffffffff16815260200184815250908060018154018082558091505060019003906000526020600020906002020160009091909190915060008201518160000160006101000a81548173ffffffffffffffffffffffffffffffffffffffff021916908373ffffffffffffffffffffffffffffffffffffffff160217905550602082015181600101555050601260016012805490506123c8919061457c565b815481106123d9576123d86145b0565b5b9060005260206000200160009054906101000a900473ffffffffffffffffffffffffffffffffffffffff1660128481548110612418576124176145b0565b5b9060005260206000200160006101000a81548173ffffffffffffffffffffffffffffffffffffffff021916908373ffffffffffffffffffffffffffffffffffffffff1602179055506012805480612472576124716145df565b5b6001900381819060005260206000200160006101000a81549073ffffffffffffffffffffffffffffffffffffffff021916905590556001905092915050565b6124b96134ac565b60005b6007805490508110156125e1576000600782815481106124df576124de6145b0565b5b9060005260206000200160009054906101000a900473ffffffffffffffffffffffffffffffffffffffff1690506000612516610cfe565b61251f83611977565b4761252a91906144ce565b6125349190614cb6565b905061258881600960008573ffffffffffffffffffffffffffffffffffffffff1673ffffffffffffffffffffffffffffffffffffffff16815260200190815260200160002054613abf90919063ffffffff16565b600960008473ffffffffffffffffffffffffffffffffffffffff1673ffffffffffffffffffffffffffffffffffffffff1681526020019081526020016000208190555050506001816125da919061460e565b90506124bc565b5060005b60078054905081101561271b57600060078281548110612608576126076145b0565b5b9060005260206000200160009054906101000a900473ffffffffffffffffffffffffffffffffffffffff1690506000600960008373ffffffffffffffffffffffffffffffffffffffff1673ffffffffffffffffffffffffffffffffffffffff1681526020019081526020016000205490506000600960008473ffffffffffffffffffffffffffffffffffffffff1673ffffffffffffffffffffffffffffffffffffffff168152602001908152602001600020819055508173ffffffffffffffffffffffffffffffffffffffff166108fc829081150290604051600060405180830381858888f19350505050158015612704573d6000803e3d6000fd5b505050600181612714919061460e565b90506125e5565b50565b600d60019054906101000a900460ff1661276d576040517f08c379a0000000000000000000000000000000000000000000000000000000008152600401612764906148f0565b60405180910390fd5b6000670de0b6b3a76400008261278391906144ce565b9050600e548110156127ca576040517f08c379a00000000000000000000000000000000000000000000000000000000081526004016127c190614d59565b60405180910390fd5b60011515600d60019054906101000a900460ff1615151480156127ef5750600e548110155b156128af57601660405180606001604052803373ffffffffffffffffffffffffffffffffffffffff1681526020018381526020016000815250908060018154018082558091505060019003906000526020600020906003020160009091909190915060008201518160000160006101000a81548173ffffffffffffffffffffffffffffffffffffffff021916908373ffffffffffffffffffffffffffffffffffffffff160217905550602082015181600101556040820151816002015550505b5050565b60008060005b60078054905081101561295857600781815481106128da576128d96145b0565b5b9060005260206000200160009054906101000a900473ffffffffffffffffffffffffffffffffffffffff1673ffffffffffffffffffffffffffffffffffffffff168473ffffffffffffffffffffffffffffffffffffffff1603612944576001819250925050612961565b600181612951919061460e565b90506128b9565b50600080915091505b915091565b61296e6134ac565b600073ffffffffffffffffffffffffffffffffffffffff168173ffffffffffffffffffffffffffffffffffffffff16036129dd576040517f08c379a00000000000000000000000000000000000000000000000000000000081526004016129d490614deb565b60405180910390fd5b6129e6816139f9565b50565b600d60019054906101000a900460ff16612a38576040517f08c379a0000000000000000000000000000000000000000000000000000000008152600401612a2f90614a91565b60405180910390fd5b6016805490508110612a7f576040517f08c379a0000000000000000000000000000000000000000000000000000000008152600401612a7690614afd565b60405180910390fd5b600080612a8b336128b3565b9150915081612acf576040517f08c379a0000000000000000000000000000000000000000000000000000000008152600401612ac690614e57565b60405180910390fd5b600015156017600085815260200190815260200160002060003373ffffffffffffffffffffffffffffffffffffffff1673ffffffffffffffffffffffffffffffffffffffff16815260200190815260200160002060009054906101000a900460ff16151514612b73576040517f08c379a0000000000000000000000000000000000000000000000000000000008152600401612b6a90614ec3565b60405180910390fd5b600060168481548110612b8957612b886145b0565b5b9060005260206000209060030201905060016017600086815260200190815260200160002060003373ffffffffffffffffffffffffffffffffffffffff1673ffffffffffffffffffffffffffffffffffffffff16815260200190815260200160002060006101000a81548160ff021916908315150217905550806002016000815480929190612c1790614ee3565b919050555050505050565b600e5481565b600f60009054906101000a900460ff1681565b601560009054906101000a900460ff16612c8a576040517f08c379a0000000000000000000000000000000000000000000000000000000008152600401612c8190614f77565b60405180910390fd5b601360009054906101000a900473ffffffffffffffffffffffffffffffffffffffff1673ffffffffffffffffffffffffffffffffffffffff163373ffffffffffffffffffffffffffffffffffffffff1614612d1a576040517f08c379a0000000000000000000000000000000000000000000000000000000008152600401612d1190614fe3565b60405180910390fd5b601454341015612d5f576040517f08c379a0000000000000000000000000000000000000000000000000000000008152600401612d569061495c565b60405180910390fd5b600b60009054906101000a900473ffffffffffffffffffffffffffffffffffffffff1673ffffffffffffffffffffffffffffffffffffffff166323b872dd3033600c546040518463ffffffff1660e01b8152600401612dc093929190614a0e565b600060405180830381600087803b158015612dda57600080fd5b505af1158015612dee573d6000803e3d6000fd5b5050505060005b600780549050811015612f1a57600060078281548110612e1857612e176145b0565b5b9060005260206000200160009054906101000a900473ffffffffffffffffffffffffffffffffffffffff1690506000612e4f610cfe565b612e5883611977565b47612e6391906144ce565b612e6d9190614cb6565b9050612ec181600960008573ffffffffffffffffffffffffffffffffffffffff1673ffffffffffffffffffffffffffffffffffffffff16815260200190815260200160002054613abf90919063ffffffff16565b600960008473ffffffffffffffffffffffffffffffffffffffff1673ffffffffffffffffffffffffffffffffffffffff168152602001908152602001600020819055505050600181612f13919061460e565b9050612df5565b5060005b60078054905081101561305457600060078281548110612f4157612f406145b0565b5b9060005260206000200160009054906101000a900473ffffffffffffffffffffffffffffffffffffffff1690506000600960008373ffffffffffffffffffffffffffffffffffffffff1673ffffffffffffffffffffffffffffffffffffffff1681526020019081526020016000205490506000600960008473ffffffffffffffffffffffffffffffffffffffff1673ffffffffffffffffffffffffffffffffffffffff168152602001908152602001600020819055508173ffffffffffffffffffffffffffffffffffffffff166108fc829081150290604051600060405180830381858888f1935050505015801561303d573d6000803e3d6000fd5b50505060018161304d919061460e565b9050612f1e565b506000600d60016101000a81548160ff0219169083151502179055506001600f60006101000a81548160ff021916908315150217905550565b6130956134ac565b600d60009054906101000a900460ff16156130e5576040517f08c379a00000000000000000000000000000000000000000000000000000000081526004016130dc9061504f565b60405180910390fd5b60008111613128576040517f08c379a000000000000000000000000000000000000000000000000000000000815260040161311f90614818565b60405180910390fd5b6001600d60006101000a81548160ff02191690831515021790555060006008819055508060068190555061315c3382613ad5565b50565b60003490506000806000905060005b601080549050811015613233576010818154811061318f5761318e6145b0565b5b906000526020600020906002020160000160009054906101000a900473ffffffffffffffffffffffffffffffffffffffff1673ffffffffffffffffffffffffffffffffffffffff163373ffffffffffffffffffffffffffffffffffffffff160361322057600191506010818154811061320b5761320a6145b0565b5b90600052602060002090600202016001015492505b808061322b90614ee3565b91505061316e565b50600115158115151461327b576040517f08c379a0000000000000000000000000000000000000000000000000000000008152600401613272906150bb565b60405180910390fd5b8183146132bd576040517f08c379a00000000000000000000000000000000000000000000000000000000081526004016132b490615127565b60405180910390fd5b82600a60008282546132cf919061460e565b92505081905550505050565b600033905090565b600073ffffffffffffffffffffffffffffffffffffffff168373ffffffffffffffffffffffffffffffffffffffff1603613352576040517f08c379a0000000000000000000000000000000000000000000000000000000008152600401613349906151b9565b60405180910390fd5b600073ffffffffffffffffffffffffffffffffffffffff168273ffffffffffffffffffffffffffffffffffffffff16036133c1576040517f08c379a00000000000000000000000000000000000000000000000000000000081526004016133b89061524b565b60405180910390fd5b80600160008573ffffffffffffffffffffffffffffffffffffffff1673ffffffffffffffffffffffffffffffffffffffff16815260200190815260200160002060008473ffffffffffffffffffffffffffffffffffffffff1673ffffffffffffffffffffffffffffffffffffffff168152602001908152602001600020819055508173ffffffffffffffffffffffffffffffffffffffff168373ffffffffffffffffffffffffffffffffffffffff167f8c5be1e5ebec7d5bd14f71427d1e84f3dd0314c0f7b2291e5b200ac8c7c3b9258360405161349f91906140b0565b60405180910390a3505050565b6134b46132db565b73ffffffffffffffffffffffffffffffffffffffff166134d2611a46565b73ffffffffffffffffffffffffffffffffffffffff1614613528576040517f08c379a000000000000000000000000000000000000000000000000000000000815260040161351f906152b7565b60405180910390fd5b565b600061353684846121f5565b90507fffffffffffffffffffffffffffffffffffffffffffffffffffffffffffffffff81146135b057818110156135a2576040517f08c379a000000000000000000000000000000000000000000000000000000000815260040161359990615323565b60405180910390fd5b6135af84848484036132e3565b5b50505050565b600073ffffffffffffffffffffffffffffffffffffffff168373ffffffffffffffffffffffffffffffffffffffff1603613625576040517f08c379a000000000000000000000000000000000000000000000000000000000815260040161361c906153b5565b60405180910390fd5b600073ffffffffffffffffffffffffffffffffffffffff168273ffffffffffffffffffffffffffffffffffffffff1603613694576040517f08c379a000000000000000000000000000000000000000000000000000000000815260040161368b90615447565b60405180910390fd5b61369f838383613c2b565b60008060008573ffffffffffffffffffffffffffffffffffffffff1673ffffffffffffffffffffffffffffffffffffffff16815260200190815260200160002054905081811015613725576040517f08c379a000000000000000000000000000000000000000000000000000000000815260040161371c906154d9565b60405180910390fd5b8181036000808673ffffffffffffffffffffffffffffffffffffffff1673ffffffffffffffffffffffffffffffffffffffff16815260200190815260200160002081905550816000808573ffffffffffffffffffffffffffffffffffffffff1673ffffffffffffffffffffffffffffffffffffffff168152602001908152602001600020600082825401925050819055508273ffffffffffffffffffffffffffffffffffffffff168473ffffffffffffffffffffffffffffffffffffffff167fddf252ad1be2c89b69c2b068fc378daa952ba7f163c4a11628f55a4df523b3ef8460405161381391906140b0565b60405180910390a3613826848484613c30565b50505050565b600073ffffffffffffffffffffffffffffffffffffffff168273ffffffffffffffffffffffffffffffffffffffff160361389b576040517f08c379a00000000000000000000000000000000000000000000000000000000081526004016138929061556b565b60405180910390fd5b6138a782600083613c2b565b60008060008473ffffffffffffffffffffffffffffffffffffffff1673ffffffffffffffffffffffffffffffffffffffff1681526020019081526020016000205490508181101561392d576040517f08c379a0000000000000000000000000000000000000000000000000000000008152600401613924906155fd565b60405180910390fd5b8181036000808573ffffffffffffffffffffffffffffffffffffffff1673ffffffffffffffffffffffffffffffffffffffff1681526020019081526020016000208190555081600260008282540392505081905550600073ffffffffffffffffffffffffffffffffffffffff168373ffffffffffffffffffffffffffffffffffffffff167fddf252ad1be2c89b69c2b068fc378daa952ba7f163c4a11628f55a4df523b3ef846040516139e091906140b0565b60405180910390a36139f483600084613c30565b505050565b6000600560009054906101000a900473ffffffffffffffffffffffffffffffffffffffff16905081600560006101000a81548173ffffffffffffffffffffffffffffffffffffffff021916908373ffffffffffffffffffffffffffffffffffffffff1602179055508173ffffffffffffffffffffffffffffffffffffffff168173ffffffffffffffffffffffffffffffffffffffff167f8be0079c531659141344cd1fd0a4f28419497f9722a3daafe3b4186f6b6457e060405160405180910390a35050565b60008183613acd919061460e565b905092915050565b600073ffffffffffffffffffffffffffffffffffffffff168273ffffffffffffffffffffffffffffffffffffffff1603613b44576040517f08c379a0000000000000000000000000000000000000000000000000000000008152600401613b3b90615669565b60405180910390fd5b613b5060008383613c2b565b8060026000828254613b62919061460e565b92505081905550806000808473ffffffffffffffffffffffffffffffffffffffff1673ffffffffffffffffffffffffffffffffffffffff168152602001908152602001600020600082825401925050819055508173ffffffffffffffffffffffffffffffffffffffff16600073ffffffffffffffffffffffffffffffffffffffff167fddf252ad1be2c89b69c2b068fc378daa952ba7f163c4a11628f55a4df523b3ef83604051613c1391906140b0565b60405180910390a3613c2760008383613c30565b5050565b505050565b505050565b6000604051905090565b600080fd5b600080fd5b6000819050919050565b613c5c81613c49565b8114613c6757600080fd5b50565b600081359050613c7981613c53565b92915050565b600060208284031215613c9557613c94613c3f565b5b6000613ca384828501613c6a565b91505092915050565b600073ffffffffffffffffffffffffffffffffffffffff82169050919050565b6000613cd782613cac565b9050919050565b613ce781613ccc565b82525050565b613cf681613c49565b82525050565b6000606082019050613d116000830186613cde565b613d1e6020830185613ced565b613d2b6040830184613ced565b949350505050565b600081519050919050565b600082825260208201905092915050565b60005b83811015613d6d578082015181840152602081019050613d52565b60008484015250505050565b6000601f19601f8301169050919050565b6000613d9582613d33565b613d9f8185613d3e565b9350613daf818560208601613d4f565b613db881613d79565b840191505092915050565b60006020820190508181036000830152613ddd8184613d8a565b905092915050565b613dee81613ccc565b8114613df957600080fd5b50565b600081359050613e0b81613de5565b92915050565b60008060408385031215613e2857613e27613c3f565b5b6000613e3685828601613dfc565b9250506020613e4785828601613c6a565b9150509250929050565b60008115159050919050565b613e6681613e51565b82525050565b6000602082019050613e816000830184613e5d565b92915050565b6000602082019050613e9c6000830184613cde565b92915050565b600080fd5b600080fd5b7f4e487b7100000000000000000000000000000000000000000000000000000000600052604160045260246000fd5b613ee482613d79565b810181811067ffffffffffffffff82111715613f0357613f02613eac565b5b80604052505050565b6000613f16613c35565b9050613f228282613edb565b919050565b600067ffffffffffffffff821115613f4257613f41613eac565b5b613f4b82613d79565b9050602081019050919050565b82818337600083830152505050565b6000613f7a613f7584613f27565b613f0c565b905082815260208101848484011115613f9657613f95613ea7565b5b613fa1848285613f58565b509392505050565b600082601f830112613fbe57613fbd613ea2565b5b8135613fce848260208601613f67565b91505092915050565b60008060008060808587031215613ff157613ff0613c3f565b5b6000613fff87828801613dfc565b945050602061401087828801613dfc565b935050604061402187828801613c6a565b925050606085013567ffffffffffffffff81111561404257614041613c44565b5b61404e87828801613fa9565b91505092959194509250565b60007fffffffff0000000000000000000000000000000000000000000000000000000082169050919050565b61408f8161405a565b82525050565b60006020820190506140aa6000830184614086565b92915050565b60006020820190506140c56000830184613ced565b92915050565b6000806000606084860312156140e4576140e3613c3f565b5b60006140f286828701613dfc565b935050602061410386828701613dfc565b925050604061411486828701613c6a565b9150509250925092565b600060ff82169050919050565b6141348161411e565b82525050565b600060208201905061414f600083018461412b565b92915050565b600081519050919050565b600082825260208201905092915050565b6000819050602082019050919050565b61418a81613ccc565b82525050565b61419981613c49565b82525050565b6060820160008201516141b56000850182614181565b5060208201516141c86020850182614190565b5060408201516141db6040850182614190565b50505050565b60006141ed838361419f565b60608301905092915050565b6000602082019050919050565b600061421182614155565b61421b8185614160565b935061422683614171565b8060005b8381101561425757815161423e88826141e1565b9750614249836141f9565b92505060018101905061422a565b5085935050505092915050565b6000602082019050818103600083015261427e8184614206565b905092915050565b6000806040838503121561429d5761429c613c3f565b5b60006142ab85828601613c6a565b92505060206142bc85828601613c6a565b9150509250929050565b6000602082840312156142dc576142db613c3f565b5b60006142ea84828501613dfc565b91505092915050565b6000819050919050565b600061431861431361430e84613cac565b6142f3565b613cac565b9050919050565b600061432a826142fd565b9050919050565b600061433c8261431f565b9050919050565b61434c81614331565b82525050565b60006020820190506143676000830184614343565b92915050565b6000806040838503121561438457614383613c3f565b5b600061439285828601613c6a565b92505060206143a385828601613dfc565b9150509250929050565b60006040820190506143c26000830185613cde565b6143cf6020830184613ced565b9392505050565b600080604083850312156143ed576143ec613c3f565b5b60006143fb85828601613dfc565b925050602061440c85828601613dfc565b9150509250929050565b600060408201905061442b6000830185613e5d565b6144386020830184613ced565b9392505050565b7f4e487b7100000000000000000000000000000000000000000000000000000000600052602260045260246000fd5b6000600282049050600182168061448657607f821691505b6020821081036144995761449861443f565b5b50919050565b7f4e487b7100000000000000000000000000000000000000000000000000000000600052601160045260246000fd5b60006144d982613c49565b91506144e483613c49565b92508282026144f281613c49565b915082820484148315176145095761450861449f565b5b5092915050565b7f496e646578206f7574206f6620626f756e647300000000000000000000000000600082015250565b6000614546601383613d3e565b915061455182614510565b602082019050919050565b6000602082019050818103600083015261457581614539565b9050919050565b600061458782613c49565b915061459283613c49565b92508282039050818111156145aa576145a961449f565b5b92915050565b7f4e487b7100000000000000000000000000000000000000000000000000000000600052603260045260246000fd5b7f4e487b7100000000000000000000000000000000000000000000000000000000600052603160045260246000fd5b600061461982613c49565b915061462483613c49565b925082820190508082111561463c5761463b61449f565b5b92915050565b7f4e6f7420656e6f756768206d6f6e657900000000000000000000000000000000600082015250565b6000614678601083613d3e565b915061468382614642565b602082019050919050565b600060208201905081810360008301526146a78161466b565b9050919050565b7f4e6f7420656e6f75676820746f6b656e7320746f2073656c6c00000000000000600082015250565b60006146e4601983613d3e565b91506146ef826146ae565b602082019050919050565b60006020820190508181036000830152614713816146d7565b9050919050565b600081905092915050565b50565b600061473560008361471a565b915061474082614725565b600082019050919050565b600061475682614728565b9150819050919050565b7f4661696c656420746f2073656e64204574686572000000000000000000000000600082015250565b6000614796601483613d3e565b91506147a182614760565b602082019050919050565b600060208201905081810360008301526147c581614789565b9050919050565b7f416d6f756e74206e6565647320746f206265206d6f7265207468616e20300000600082015250565b6000614802601e83613d3e565b915061480d826147cc565b602082019050919050565b60006020820190508181036000830152614831816147f5565b9050919050565b7f5072696365206e6565647320746f206265206d6f7265207468616e2030000000600082015250565b600061486e601d83613d3e565b915061487982614838565b602082019050919050565b6000602082019050818103600083015261489d81614861565b9050919050565b7f4e6f7420666f722073616c650000000000000000000000000000000000000000600082015250565b60006148da600c83613d3e565b91506148e5826148a4565b602082019050919050565b60006020820190508181036000830152614909816148cd565b9050919050565b7f4e6f7420656e6f7567682065746865722073656e740000000000000000000000600082015250565b6000614946601583613d3e565b915061495182614910565b602082019050919050565b6000602082019050818103600083015261497581614939565b9050919050565b7f4f776e6572207374696c6c20646f6573206e6f74206861766520616c6c20746f60008201527f6b656e7300000000000000000000000000000000000000000000000000000000602082015250565b60006149d8602483613d3e565b91506149e38261497c565b604082019050919050565b60006020820190508181036000830152614a07816149cb565b9050919050565b6000606082019050614a236000830186613cde565b614a306020830185613cde565b614a3d6040830184613ced565b949350505050565b7f4e6f7420666f722053616c650000000000000000000000000000000000000000600082015250565b6000614a7b600c83613d3e565b9150614a8682614a45565b602082019050919050565b60006020820190508181036000830152614aaa81614a6e565b9050919050565b7f496e76616c6964205472616e73616374696f6e20496e64657800000000000000600082015250565b6000614ae7601983613d3e565b9150614af282614ab1565b602082019050919050565b60006020820190508181036000830152614b1681614ada565b9050919050565b7f4e6f7420656e6f75676820636f6e6669726d6174696f6e730000000000000000600082015250565b6000614b53601883613d3e565b9150614b5e82614b1d565b602082019050919050565b60006020820190508181036000830152614b8281614b46565b9050919050565b7f45524332303a2064656372656173656420616c6c6f77616e63652062656c6f7760008201527f207a65726f000000000000000000000000000000000000000000000000000000602082015250565b6000614be5602583613d3e565b9150614bf082614b89565b604082019050919050565b60006020820190508181036000830152614c1481614bd8565b9050919050565b7f526564656d7074696f6e206e6f7420617661696c61626c650000000000000000600082015250565b6000614c51601883613d3e565b9150614c5c82614c1b565b602082019050919050565b60006020820190508181036000830152614c8081614c44565b9050919050565b7f4e487b7100000000000000000000000000000000000000000000000000000000600052601260045260246000fd5b6000614cc182613c49565b9150614ccc83613c49565b925082614cdc57614cdb614c87565b5b828204905092915050565b7f50726f706f736564207072696365206c65737320746861742073616c6520707260008201527f6963650000000000000000000000000000000000000000000000000000000000602082015250565b6000614d43602383613d3e565b9150614d4e82614ce7565b604082019050919050565b60006020820190508181036000830152614d7281614d36565b9050919050565b7f4f776e61626c653a206e6577206f776e657220697320746865207a65726f206160008201527f6464726573730000000000000000000000000000000000000000000000000000602082015250565b6000614dd5602683613d3e565b9150614de082614d79565b604082019050919050565b60006020820190508181036000830152614e0481614dc8565b9050919050565b7f4e6f742061207374616b65686f6c646572000000000000000000000000000000600082015250565b6000614e41601183613d3e565b9150614e4c82614e0b565b602082019050919050565b60006020820190508181036000830152614e7081614e34565b9050919050565b7f416c726561647920436f6e6669726d6564000000000000000000000000000000600082015250565b6000614ead601183613d3e565b9150614eb882614e77565b602082019050919050565b60006020820190508181036000830152614edc81614ea0565b9050919050565b6000614eee82613c49565b91507fffffffffffffffffffffffffffffffffffffffffffffffffffffffffffffffff8203614f2057614f1f61449f565b5b600182019050919050565b7f4e6f7420536f6c64205965740000000000000000000000000000000000000000600082015250565b6000614f61600c83613d3e565b9150614f6c82614f2b565b602082019050919050565b60006020820190508181036000830152614f9081614f54565b9050919050565b7f4e6f74207468652066696e616c20627579657200000000000000000000000000600082015250565b6000614fcd601383613d3e565b9150614fd882614f97565b602082019050919050565b60006020820190508181036000830152614ffc81614fc0565b9050919050565b7f416c726561647920696e697469616c697a656400000000000000000000000000600082015250565b6000615039601383613d3e565b915061504482615003565b602082019050919050565b600060208201905081810360008301526150688161502c565b9050919050565b7f4f6e6c792054656e616e742063616e207061792072656e740000000000000000600082015250565b60006150a5601883613d3e565b91506150b08261506f565b602082019050919050565b600060208201905081810360008301526150d481615098565b9050919050565b7f53656e642045786163742052656e740000000000000000000000000000000000600082015250565b6000615111600f83613d3e565b915061511c826150db565b602082019050919050565b6000602082019050818103600083015261514081615104565b9050919050565b7f45524332303a20617070726f76652066726f6d20746865207a65726f2061646460008201527f7265737300000000000000000000000000000000000000000000000000000000602082015250565b60006151a3602483613d3e565b91506151ae82615147565b604082019050919050565b600060208201905081810360008301526151d281615196565b9050919050565b7f45524332303a20617070726f766520746f20746865207a65726f20616464726560008201527f7373000000000000000000000000000000000000000000000000000000000000602082015250565b6000615235602283613d3e565b9150615240826151d9565b604082019050919050565b6000602082019050818103600083015261526481615228565b9050919050565b7f4f776e61626c653a2063616c6c6572206973206e6f7420746865206f776e6572600082015250565b60006152a1602083613d3e565b91506152ac8261526b565b602082019050919050565b600060208201905081810360008301526152d081615294565b9050919050565b7f45524332303a20696e73756666696369656e7420616c6c6f77616e6365000000600082015250565b600061530d601d83613d3e565b9150615318826152d7565b602082019050919050565b6000602082019050818103600083015261533c81615300565b9050919050565b7f45524332303a207472616e736665722066726f6d20746865207a65726f20616460008201527f6472657373000000000000000000000000000000000000000000000000000000602082015250565b600061539f602583613d3e565b91506153aa82615343565b604082019050919050565b600060208201905081810360008301526153ce81615392565b9050919050565b7f45524332303a207472616e7366657220746f20746865207a65726f206164647260008201527f6573730000000000000000000000000000000000000000000000000000000000602082015250565b6000615431602383613d3e565b915061543c826153d5565b604082019050919050565b6000602082019050818103600083015261546081615424565b9050919050565b7f45524332303a207472616e7366657220616d6f756e742065786365656473206260008201527f616c616e63650000000000000000000000000000000000000000000000000000602082015250565b60006154c3602683613d3e565b91506154ce82615467565b604082019050919050565b600060208201905081810360008301526154f2816154b6565b9050919050565b7f45524332303a206275726e2066726f6d20746865207a65726f2061646472657360008201527f7300000000000000000000000000000000000000000000000000000000000000602082015250565b6000615555602183613d3e565b9150615560826154f9565b604082019050919050565b6000602082019050818103600083015261558481615548565b9050919050565b7f45524332303a206275726e20616d6f756e7420657863656564732062616c616e60008201527f6365000000000000000000000000000000000000000000000000000000000000602082015250565b60006155e7602283613d3e565b91506155f28261558b565b604082019050919050565b60006020820190508181036000830152615616816155da565b9050919050565b7f45524332303a206d696e7420746f20746865207a65726f206164647265737300600082015250565b6000615653601f83613d3e565b915061565e8261561d565b602082019050919050565b6000602082019050818103600083015261568281615646565b905091905056fea264697066735822122077ca16732c3346d992ed91a33098dab82a5833d5a06deb91cc327407d5e63be264736f6c63430008110033","opcodes":"PUSH1 0x80 PUSH1 0x40 MSTORE PUSH1 0x0 PUSH1 0xD PUSH1 0x0 PUSH2 0x100 EXP DUP2 SLOAD DUP2 PUSH1 0xFF MUL NOT AND SWAP1 DUP4 ISZERO ISZERO MUL OR SWAP1 SSTORE POP PUSH1 0x0 PUSH1 0xD PUSH1 0x1 PUSH2 0x100 EXP DUP2 SLOAD DUP2 PUSH1 0xFF MUL NOT AND SWAP1 DUP4 ISZERO ISZERO MUL OR SWAP1 SSTORE POP PUSH1 0x0 PUSH1 0xF PUSH1 0x0 PUSH2 0x100 EXP DUP2 SLOAD DUP2 PUSH1 0xFF MUL NOT AND SWAP1 DUP4 ISZERO ISZERO MUL OR SWAP1 SSTORE POP PUSH1 0x0 PUSH1 0x15 PUSH1 0x0 PUSH2 0x100 EXP DUP2 SLOAD DUP2 PUSH1 0xFF MUL NOT AND SWAP1 DUP4 ISZERO ISZERO MUL OR SWAP1 SSTORE POP CALLVALUE DUP1 ISZERO PUSH3 0x7D JUMPI PUSH1 0x0 DUP1 REVERT JUMPDEST POP PUSH1 0x40 MLOAD PUSH3 0x5EB8 CODESIZE SUB DUP1 PUSH3 0x5EB8 DUP4 CODECOPY DUP2 DUP2 ADD PUSH1 0x40 MSTORE DUP2 ADD SWAP1 PUSH3 0xA3 SWAP2 SWAP1 PUSH3 0x41D JUMP JUMPDEST DUP2 DUP2 DUP2 PUSH1 0x3 SWAP1 DUP2 PUSH3 0xB6 SWAP2 SWAP1 PUSH3 0x702 JUMP JUMPDEST POP DUP1 PUSH1 0x4 SWAP1 DUP2 PUSH3 0xC8 SWAP2 SWAP1 PUSH3 0x702 JUMP JUMPDEST POP POP POP PUSH3 0xEB PUSH3 0xDF PUSH3 0x157 PUSH1 0x20 SHL PUSH1 0x20 SHR JUMP JUMPDEST PUSH3 0x15F PUSH1 0x20 SHL PUSH1 0x20 SHR JUMP JUMPDEST PUSH1 0x7 DUP4 SWAP1 DUP1 PUSH1 0x1 DUP2 SLOAD ADD DUP1 DUP3 SSTORE DUP1 SWAP2 POP POP PUSH1 0x1 SWAP1 SUB SWAP1 PUSH1 0x0 MSTORE PUSH1 0x20 PUSH1 0x0 KECCAK256 ADD PUSH1 0x0 SWAP1 SWAP2 SWAP1 SWAP2 SWAP1 SWAP2 PUSH2 0x100 EXP DUP2 SLOAD DUP2 PUSH20 0xFFFFFFFFFFFFFFFFFFFFFFFFFFFFFFFFFFFFFFFF MUL NOT AND SWAP1 DUP4 PUSH20 0xFFFFFFFFFFFFFFFFFFFFFFFFFFFFFFFFFFFFFFFF AND MUL OR SWAP1 SSTORE POP POP POP POP PUSH3 0x7E9 JUMP JUMPDEST PUSH1 0x0 CALLER SWAP1 POP SWAP1 JUMP JUMPDEST PUSH1 0x0 PUSH1 0x5 PUSH1 0x0 SWAP1 SLOAD SWAP1 PUSH2 0x100 EXP SWAP1 DIV PUSH20 0xFFFFFFFFFFFFFFFFFFFFFFFFFFFFFFFFFFFFFFFF AND SWAP1 POP DUP2 PUSH1 0x5 PUSH1 0x0 PUSH2 0x100 EXP DUP2 SLOAD DUP2 PUSH20 0xFFFFFFFFFFFFFFFFFFFFFFFFFFFFFFFFFFFFFFFF MUL NOT AND SWAP1 DUP4 PUSH20 0xFFFFFFFFFFFFFFFFFFFFFFFFFFFFFFFFFFFFFFFF AND MUL OR SWAP1 SSTORE POP DUP2 PUSH20 0xFFFFFFFFFFFFFFFFFFFFFFFFFFFFFFFFFFFFFFFF AND DUP2 PUSH20 0xFFFFFFFFFFFFFFFFFFFFFFFFFFFFFFFFFFFFFFFF AND PUSH32 0x8BE0079C531659141344CD1FD0A4F28419497F9722A3DAAFE3B4186F6B6457E0 PUSH1 0x40 MLOAD PUSH1 0x40 MLOAD DUP1 SWAP2 SUB SWAP1 LOG3 POP POP JUMP JUMPDEST PUSH1 0x0 PUSH1 0x40 MLOAD SWAP1 POP SWAP1 JUMP JUMPDEST PUSH1 0x0 DUP1 REVERT JUMPDEST PUSH1 0x0 DUP1 REVERT JUMPDEST PUSH1 0x0 PUSH20 0xFFFFFFFFFFFFFFFFFFFFFFFFFFFFFFFFFFFFFFFF DUP3 AND SWAP1 POP SWAP2 SWAP1 POP JUMP JUMPDEST PUSH1 0x0 PUSH3 0x266 DUP3 PUSH3 0x239 JUMP JUMPDEST SWAP1 POP SWAP2 SWAP1 POP JUMP JUMPDEST PUSH3 0x278 DUP2 PUSH3 0x259 JUMP JUMPDEST DUP2 EQ PUSH3 0x284 JUMPI PUSH1 0x0 DUP1 REVERT JUMPDEST POP JUMP JUMPDEST PUSH1 0x0 DUP2 MLOAD SWAP1 POP PUSH3 0x298 DUP2 PUSH3 0x26D JUMP JUMPDEST SWAP3 SWAP2 POP POP JUMP JUMPDEST PUSH1 0x0 DUP1 REVERT JUMPDEST PUSH1 0x0 DUP1 REVERT JUMPDEST PUSH1 0x0 PUSH1 0x1F NOT PUSH1 0x1F DUP4 ADD AND SWAP1 POP SWAP2 SWAP1 POP JUMP JUMPDEST PUSH32 0x4E487B7100000000000000000000000000000000000000000000000000000000 PUSH1 0x0 MSTORE PUSH1 0x41 PUSH1 0x4 MSTORE PUSH1 0x24 PUSH1 0x0 REVERT JUMPDEST PUSH3 0x2F3 DUP3 PUSH3 0x2A8 JUMP JUMPDEST DUP2 ADD DUP2 DUP2 LT PUSH8 0xFFFFFFFFFFFFFFFF DUP3 GT OR ISZERO PUSH3 0x315 JUMPI PUSH3 0x314 PUSH3 0x2B9 JUMP JUMPDEST JUMPDEST DUP1 PUSH1 0x40 MSTORE POP POP POP JUMP JUMPDEST PUSH1 0x0 PUSH3 0x32A PUSH3 0x225 JUMP JUMPDEST SWAP1 POP PUSH3 0x338 DUP3 DUP3 PUSH3 0x2E8 JUMP JUMPDEST SWAP2 SWAP1 POP JUMP JUMPDEST PUSH1 0x0 PUSH8 0xFFFFFFFFFFFFFFFF DUP3 GT ISZERO PUSH3 0x35B JUMPI PUSH3 0x35A PUSH3 0x2B9 JUMP JUMPDEST JUMPDEST PUSH3 0x366 DUP3 PUSH3 0x2A8 JUMP JUMPDEST SWAP1 POP PUSH1 0x20 DUP2 ADD SWAP1 POP SWAP2 SWAP1 POP JUMP JUMPDEST PUSH1 0x0 JUMPDEST DUP4 DUP2 LT ISZERO PUSH3 0x393 JUMPI DUP1 DUP3 ADD MLOAD DUP2 DUP5 ADD MSTORE PUSH1 0x20 DUP2 ADD SWAP1 POP PUSH3 0x376 JUMP JUMPDEST PUSH1 0x0 DUP5 DUP5 ADD MSTORE POP POP POP POP JUMP JUMPDEST PUSH1 0x0 PUSH3 0x3B6 PUSH3 0x3B0 DUP5 PUSH3 0x33D JUMP JUMPDEST PUSH3 0x31E JUMP JUMPDEST SWAP1 POP DUP3 DUP2 MSTORE PUSH1 0x20 DUP2 ADD DUP5 DUP5 DUP5 ADD GT ISZERO PUSH3 0x3D5 JUMPI PUSH3 0x3D4 PUSH3 0x2A3 JUMP JUMPDEST JUMPDEST PUSH3 0x3E2 DUP5 DUP3 DUP6 PUSH3 0x373 JUMP JUMPDEST POP SWAP4 SWAP3 POP POP POP JUMP JUMPDEST PUSH1 0x0 DUP3 PUSH1 0x1F DUP4 ADD SLT PUSH3 0x402 JUMPI PUSH3 0x401 PUSH3 0x29E JUMP JUMPDEST JUMPDEST DUP2 MLOAD PUSH3 0x414 DUP5 DUP3 PUSH1 0x20 DUP7 ADD PUSH3 0x39F JUMP JUMPDEST SWAP2 POP POP SWAP3 SWAP2 POP POP JUMP JUMPDEST PUSH1 0x0 DUP1 PUSH1 0x0 PUSH1 0x60 DUP5 DUP7 SUB SLT ISZERO PUSH3 0x439 JUMPI PUSH3 0x438 PUSH3 0x22F JUMP JUMPDEST JUMPDEST PUSH1 0x0 PUSH3 0x449 DUP7 DUP3 DUP8 ADD PUSH3 0x287 JUMP JUMPDEST SWAP4 POP POP PUSH1 0x20 DUP5 ADD MLOAD PUSH8 0xFFFFFFFFFFFFFFFF DUP2 GT ISZERO PUSH3 0x46D JUMPI PUSH3 0x46C PUSH3 0x234 JUMP JUMPDEST JUMPDEST PUSH3 0x47B DUP7 DUP3 DUP8 ADD PUSH3 0x3EA JUMP JUMPDEST SWAP3 POP POP PUSH1 0x40 DUP5 ADD MLOAD PUSH8 0xFFFFFFFFFFFFFFFF DUP2 GT ISZERO PUSH3 0x49F JUMPI PUSH3 0x49E PUSH3 0x234 JUMP JUMPDEST JUMPDEST PUSH3 0x4AD DUP7 DUP3 DUP8 ADD PUSH3 0x3EA JUMP JUMPDEST SWAP2 POP POP SWAP3 POP SWAP3 POP SWAP3 JUMP JUMPDEST PUSH1 0x0 DUP2 MLOAD SWAP1 POP SWAP2 SWAP1 POP JUMP JUMPDEST PUSH32 0x4E487B7100000000000000000000000000000000000000000000000000000000 PUSH1 0x0 MSTORE PUSH1 0x22 PUSH1 0x4 MSTORE PUSH1 0x24 PUSH1 0x0 REVERT JUMPDEST PUSH1 0x0 PUSH1 0x2 DUP3 DIV SWAP1 POP PUSH1 0x1 DUP3 AND DUP1 PUSH3 0x50A JUMPI PUSH1 0x7F DUP3 AND SWAP2 POP JUMPDEST PUSH1 0x20 DUP3 LT DUP2 SUB PUSH3 0x520 JUMPI PUSH3 0x51F PUSH3 0x4C2 JUMP JUMPDEST JUMPDEST POP SWAP2 SWAP1 POP JUMP JUMPDEST PUSH1 0x0 DUP2 SWAP1 POP DUP2 PUSH1 0x0 MSTORE PUSH1 0x20 PUSH1 0x0 KECCAK256 SWAP1 POP SWAP2 SWAP1 POP JUMP JUMPDEST PUSH1 0x0 PUSH1 0x20 PUSH1 0x1F DUP4 ADD DIV SWAP1 POP SWAP2 SWAP1 POP JUMP JUMPDEST PUSH1 0x0 DUP3 DUP3 SHL SWAP1 POP SWAP3 SWAP2 POP POP JUMP JUMPDEST PUSH1 0x0 PUSH1 0x8 DUP4 MUL PUSH3 0x58A PUSH32 0xFFFFFFFFFFFFFFFFFFFFFFFFFFFFFFFFFFFFFFFFFFFFFFFFFFFFFFFFFFFFFFFF DUP3 PUSH3 0x54B JUMP JUMPDEST PUSH3 0x596 DUP7 DUP4 PUSH3 0x54B JUMP JUMPDEST SWAP6 POP DUP1 NOT DUP5 AND SWAP4 POP DUP1 DUP7 AND DUP5 OR SWAP3 POP POP POP SWAP4 SWAP3 POP POP POP JUMP JUMPDEST PUSH1 0x0 DUP2 SWAP1 POP SWAP2 SWAP1 POP JUMP JUMPDEST PUSH1 0x0 DUP2 SWAP1 POP SWAP2 SWAP1 POP JUMP JUMPDEST PUSH1 0x0 PUSH3 0x5E3 PUSH3 0x5DD PUSH3 0x5D7 DUP5 PUSH3 0x5AE JUMP JUMPDEST PUSH3 0x5B8 JUMP JUMPDEST PUSH3 0x5AE JUMP JUMPDEST SWAP1 POP SWAP2 SWAP1 POP JUMP JUMPDEST PUSH1 0x0 DUP2 SWAP1 POP SWAP2 SWAP1 POP JUMP JUMPDEST PUSH3 0x5FF DUP4 PUSH3 0x5C2 JUMP JUMPDEST PUSH3 0x617 PUSH3 0x60E DUP3 PUSH3 0x5EA JUMP JUMPDEST DUP5 DUP5 SLOAD PUSH3 0x558 JUMP JUMPDEST DUP3 SSTORE POP POP POP POP JUMP JUMPDEST PUSH1 0x0 SWAP1 JUMP JUMPDEST PUSH3 0x62E PUSH3 0x61F JUMP JUMPDEST PUSH3 0x63B DUP2 DUP5 DUP5 PUSH3 0x5F4 JUMP JUMPDEST POP POP POP JUMP JUMPDEST JUMPDEST DUP2 DUP2 LT ISZERO PUSH3 0x663 JUMPI PUSH3 0x657 PUSH1 0x0 DUP3 PUSH3 0x624 JUMP JUMPDEST PUSH1 0x1 DUP2 ADD SWAP1 POP PUSH3 0x641 JUMP JUMPDEST POP POP JUMP JUMPDEST PUSH1 0x1F DUP3 GT ISZERO PUSH3 0x6B2 JUMPI PUSH3 0x67C DUP2 PUSH3 0x526 JUMP JUMPDEST PUSH3 0x687 DUP5 PUSH3 0x53B JUMP JUMPDEST DUP2 ADD PUSH1 0x20 DUP6 LT ISZERO PUSH3 0x697 JUMPI DUP2 SWAP1 POP JUMPDEST PUSH3 0x6AF PUSH3 0x6A6 DUP6 PUSH3 0x53B JUMP JUMPDEST DUP4 ADD DUP3 PUSH3 0x640 JUMP JUMPDEST POP POP JUMPDEST POP POP POP JUMP JUMPDEST PUSH1 0x0 DUP3 DUP3 SHR SWAP1 POP SWAP3 SWAP2 POP POP JUMP JUMPDEST PUSH1 0x0 PUSH3 0x6D7 PUSH1 0x0 NOT DUP5 PUSH1 0x8 MUL PUSH3 0x6B7 JUMP JUMPDEST NOT DUP1 DUP4 AND SWAP2 POP POP SWAP3 SWAP2 POP POP JUMP JUMPDEST PUSH1 0x0 PUSH3 0x6F2 DUP4 DUP4 PUSH3 0x6C4 JUMP JUMPDEST SWAP2 POP DUP3 PUSH1 0x2 MUL DUP3 OR SWAP1 POP SWAP3 SWAP2 POP POP JUMP JUMPDEST PUSH3 0x70D DUP3 PUSH3 0x4B7 JUMP JUMPDEST PUSH8 0xFFFFFFFFFFFFFFFF DUP2 GT ISZERO PUSH3 0x729 JUMPI PUSH3 0x728 PUSH3 0x2B9 JUMP JUMPDEST JUMPDEST PUSH3 0x735 DUP3 SLOAD PUSH3 0x4F1 JUMP JUMPDEST PUSH3 0x742 DUP3 DUP3 DUP6 PUSH3 0x667 JUMP JUMPDEST PUSH1 0x0 PUSH1 0x20 SWAP1 POP PUSH1 0x1F DUP4 GT PUSH1 0x1 DUP2 EQ PUSH3 0x77A JUMPI PUSH1 0x0 DUP5 ISZERO PUSH3 0x765 JUMPI DUP3 DUP8 ADD MLOAD SWAP1 POP JUMPDEST PUSH3 0x771 DUP6 DUP3 PUSH3 0x6E4 JUMP JUMPDEST DUP7 SSTORE POP PUSH3 0x7E1 JUMP JUMPDEST PUSH1 0x1F NOT DUP5 AND PUSH3 0x78A DUP7 PUSH3 0x526 JUMP JUMPDEST PUSH1 0x0 JUMPDEST DUP3 DUP2 LT ISZERO PUSH3 0x7B4 JUMPI DUP5 DUP10 ADD MLOAD DUP3 SSTORE PUSH1 0x1 DUP3 ADD SWAP2 POP PUSH1 0x20 DUP6 ADD SWAP5 POP PUSH1 0x20 DUP2 ADD SWAP1 POP PUSH3 0x78D JUMP JUMPDEST DUP7 DUP4 LT ISZERO PUSH3 0x7D4 JUMPI DUP5 DUP10 ADD MLOAD PUSH3 0x7D0 PUSH1 0x1F DUP10 AND DUP3 PUSH3 0x6C4 JUMP JUMPDEST DUP4 SSTORE POP JUMPDEST PUSH1 0x1 PUSH1 0x2 DUP9 MUL ADD DUP9 SSTORE POP POP POP JUMPDEST POP POP POP POP POP POP JUMP JUMPDEST PUSH2 0x56BF DUP1 PUSH3 0x7F9 PUSH1 0x0 CODECOPY PUSH1 0x0 RETURN INVALID PUSH1 0x80 PUSH1 0x40 MSTORE PUSH1 0x4 CALLDATASIZE LT PUSH2 0x2AE JUMPI PUSH1 0x0 CALLDATALOAD PUSH1 0xE0 SHR DUP1 PUSH4 0x7A044323 GT PUSH2 0x175 JUMPI DUP1 PUSH4 0xD0E30DB0 GT PUSH2 0xDC JUMPI DUP1 PUSH4 0xF2FDE38B GT PUSH2 0x95 JUMPI DUP1 PUSH4 0xF97ED509 GT PUSH2 0x6F JUMPI DUP1 PUSH4 0xF97ED509 EQ PUSH2 0xB1B JUMPI DUP1 PUSH4 0xFDB5866A EQ PUSH2 0xB46 JUMPI DUP1 PUSH4 0xFE4B84DF EQ PUSH2 0xB50 JUMPI DUP1 PUSH4 0xFF4C8482 EQ PUSH2 0xB79 JUMPI PUSH2 0x2AE JUMP JUMPDEST DUP1 PUSH4 0xF2FDE38B EQ PUSH2 0xA9E JUMPI DUP1 PUSH4 0xF4A4F4D2 EQ PUSH2 0xAC7 JUMPI DUP1 PUSH4 0xF51F96DD EQ PUSH2 0xAF0 JUMPI PUSH2 0x2AE JUMP JUMPDEST DUP1 PUSH4 0xD0E30DB0 EQ PUSH2 0x99C JUMPI DUP1 PUSH4 0xDD62ED3E EQ PUSH2 0x9A6 JUMPI DUP1 PUSH4 0xDE673888 EQ PUSH2 0x9E3 JUMPI DUP1 PUSH4 0xE4FC6B6D EQ PUSH2 0xA20 JUMPI DUP1 PUSH4 0xEA0CB51E EQ PUSH2 0xA37 JUMPI DUP1 PUSH4 0xEF037B90 EQ PUSH2 0xA60 JUMPI PUSH2 0x2AE JUMP JUMPDEST DUP1 PUSH4 0x98951B56 GT PUSH2 0x12E JUMPI DUP1 PUSH4 0x98951B56 EQ PUSH2 0x865 JUMPI DUP1 PUSH4 0xA457C2D7 EQ PUSH2 0x88E JUMPI DUP1 PUSH4 0xA9059CBB EQ PUSH2 0x8CB JUMPI DUP1 PUSH4 0xB6B6DD8F EQ PUSH2 0x908 JUMPI DUP1 PUSH4 0xBD2BA85D EQ PUSH2 0x947 JUMPI DUP1 PUSH4 0xBE040FB0 EQ PUSH2 0x985 JUMPI PUSH2 0x2AE JUMP JUMPDEST DUP1 PUSH4 0x7A044323 EQ PUSH2 0x751 JUMPI DUP1 PUSH4 0x7DE1E536 EQ PUSH2 0x77C JUMPI DUP1 PUSH4 0x80F59A65 EQ PUSH2 0x7A7 JUMPI DUP1 PUSH4 0x8DA5CB5B EQ PUSH2 0x7E4 JUMPI DUP1 PUSH4 0x8E499BCF EQ PUSH2 0x80F JUMPI DUP1 PUSH4 0x95D89B41 EQ PUSH2 0x83A JUMPI PUSH2 0x2AE JUMP JUMPDEST DUP1 PUSH4 0x2D7788DB GT PUSH2 0x219 JUMPI DUP1 PUSH4 0x4CC1EBA5 GT PUSH2 0x1D2 JUMPI DUP1 PUSH4 0x4CC1EBA5 EQ PUSH2 0x64E JUMPI DUP1 PUSH4 0x58116227 EQ PUSH2 0x679 JUMPI DUP1 PUSH4 0x64EDFBF0 EQ PUSH2 0x6B6 JUMPI DUP1 PUSH4 0x70A08231 EQ PUSH2 0x6C0 JUMPI DUP1 PUSH4 0x715018A6 EQ PUSH2 0x6FD JUMPI DUP1 PUSH4 0x78AE98C8 EQ PUSH2 0x714 JUMPI PUSH2 0x2AE JUMP JUMPDEST DUP1 PUSH4 0x2D7788DB EQ PUSH2 0x523 JUMPI DUP1 PUSH4 0x313CE567 EQ PUSH2 0x560 JUMPI DUP1 PUSH4 0x39509351 EQ PUSH2 0x58B JUMPI DUP1 PUSH4 0x3AB26198 EQ PUSH2 0x5C8 JUMPI DUP1 PUSH4 0x3FB95E27 EQ PUSH2 0x5F8 JUMPI DUP1 PUSH4 0x466CCAC0 EQ PUSH2 0x623 JUMPI PUSH2 0x2AE JUMP JUMPDEST DUP1 PUSH4 0x17D70F7C GT PUSH2 0x26B JUMPI DUP1 PUSH4 0x17D70F7C EQ PUSH2 0x3FF JUMPI DUP1 PUSH4 0x18160DDD EQ PUSH2 0x42A JUMPI DUP1 PUSH4 0x1D6B8B72 EQ PUSH2 0x455 JUMPI DUP1 PUSH4 0x1F078CED EQ PUSH2 0x492 JUMPI DUP1 PUSH4 0x200D2ED2 EQ PUSH2 0x4BB JUMPI DUP1 PUSH4 0x23B872DD EQ PUSH2 0x4E6 JUMPI PUSH2 0x2AE JUMP JUMPDEST DUP1 PUSH4 0x13CF08B EQ PUSH2 0x2B3 JUMPI DUP1 PUSH4 0x6FDDE03 EQ PUSH2 0x2F2 JUMPI DUP1 PUSH4 0x95EA7B3 EQ PUSH2 0x31D JUMPI DUP1 PUSH4 0xE62BBAE EQ PUSH2 0x35A JUMPI DUP1 PUSH4 0x150B7A02 EQ PUSH2 0x397 JUMPI DUP1 PUSH4 0x158EF93E EQ PUSH2 0x3D4 JUMPI JUMPDEST PUSH1 0x0 DUP1 REVERT JUMPDEST CALLVALUE DUP1 ISZERO PUSH2 0x2BF JUMPI PUSH1 0x0 DUP1 REVERT JUMPDEST POP PUSH2 0x2DA PUSH1 0x4 DUP1 CALLDATASIZE SUB DUP2 ADD SWAP1 PUSH2 0x2D5 SWAP2 SWAP1 PUSH2 0x3C7F JUMP JUMPDEST PUSH2 0xB83 JUMP JUMPDEST PUSH1 0x40 MLOAD PUSH2 0x2E9 SWAP4 SWAP3 SWAP2 SWAP1 PUSH2 0x3CFC JUMP JUMPDEST PUSH1 0x40 MLOAD DUP1 SWAP2 SUB SWAP1 RETURN JUMPDEST CALLVALUE DUP1 ISZERO PUSH2 0x2FE JUMPI PUSH1 0x0 DUP1 REVERT JUMPDEST POP PUSH2 0x307 PUSH2 0xBDD JUMP JUMPDEST PUSH1 0x40 MLOAD PUSH2 0x314 SWAP2 SWAP1 PUSH2 0x3DC3 JUMP JUMPDEST PUSH1 0x40 MLOAD DUP1 SWAP2 SUB SWAP1 RETURN JUMPDEST CALLVALUE DUP1 ISZERO PUSH2 0x329 JUMPI PUSH1 0x0 DUP1 REVERT JUMPDEST POP PUSH2 0x344 PUSH1 0x4 DUP1 CALLDATASIZE SUB DUP2 ADD SWAP1 PUSH2 0x33F SWAP2 SWAP1 PUSH2 0x3E11 JUMP JUMPDEST PUSH2 0xC6F JUMP JUMPDEST PUSH1 0x40 MLOAD PUSH2 0x351 SWAP2 SWAP1 PUSH2 0x3E6C JUMP JUMPDEST PUSH1 0x40 MLOAD DUP1 SWAP2 SUB SWAP1 RETURN JUMPDEST CALLVALUE DUP1 ISZERO PUSH2 0x366 JUMPI PUSH1 0x0 DUP1 REVERT JUMPDEST POP PUSH2 0x381 PUSH1 0x4 DUP1 CALLDATASIZE SUB DUP2 ADD SWAP1 PUSH2 0x37C SWAP2 SWAP1 PUSH2 0x3C7F JUMP JUMPDEST PUSH2 0xC92 JUMP JUMPDEST PUSH1 0x40 MLOAD PUSH2 0x38E SWAP2 SWAP1 PUSH2 0x3E87 JUMP JUMPDEST PUSH1 0x40 MLOAD DUP1 SWAP2 SUB SWAP1 RETURN JUMPDEST CALLVALUE DUP1 ISZERO PUSH2 0x3A3 JUMPI PUSH1 0x0 DUP1 REVERT JUMPDEST POP PUSH2 0x3BE PUSH1 0x4 DUP1 CALLDATASIZE SUB DUP2 ADD SWAP1 PUSH2 0x3B9 SWAP2 SWAP1 PUSH2 0x3FD7 JUMP JUMPDEST PUSH2 0xCD1 JUMP JUMPDEST PUSH1 0x40 MLOAD PUSH2 0x3CB SWAP2 SWAP1 PUSH2 0x4095 JUMP JUMPDEST PUSH1 0x40 MLOAD DUP1 SWAP2 SUB SWAP1 RETURN JUMPDEST CALLVALUE DUP1 ISZERO PUSH2 0x3E0 JUMPI PUSH1 0x0 DUP1 REVERT JUMPDEST POP PUSH2 0x3E9 PUSH2 0xCE5 JUMP JUMPDEST PUSH1 0x40 MLOAD PUSH2 0x3F6 SWAP2 SWAP1 PUSH2 0x3E6C JUMP JUMPDEST PUSH1 0x40 MLOAD DUP1 SWAP2 SUB SWAP1 RETURN JUMPDEST CALLVALUE DUP1 ISZERO PUSH2 0x40B JUMPI PUSH1 0x0 DUP1 REVERT JUMPDEST POP PUSH2 0x414 PUSH2 0xCF8 JUMP JUMPDEST PUSH1 0x40 MLOAD PUSH2 0x421 SWAP2 SWAP1 PUSH2 0x40B0 JUMP JUMPDEST PUSH1 0x40 MLOAD DUP1 SWAP2 SUB SWAP1 RETURN JUMPDEST CALLVALUE DUP1 ISZERO PUSH2 0x436 JUMPI PUSH1 0x0 DUP1 REVERT JUMPDEST POP PUSH2 0x43F PUSH2 0xCFE JUMP JUMPDEST PUSH1 0x40 MLOAD PUSH2 0x44C SWAP2 SWAP1 PUSH2 0x40B0 JUMP JUMPDEST PUSH1 0x40 MLOAD DUP1 SWAP2 SUB SWAP1 RETURN JUMPDEST CALLVALUE DUP1 ISZERO PUSH2 0x461 JUMPI PUSH1 0x0 DUP1 REVERT JUMPDEST POP PUSH2 0x47C PUSH1 0x4 DUP1 CALLDATASIZE SUB DUP2 ADD SWAP1 PUSH2 0x477 SWAP2 SWAP1 PUSH2 0x3C7F JUMP JUMPDEST PUSH2 0xD08 JUMP JUMPDEST PUSH1 0x40 MLOAD PUSH2 0x489 SWAP2 SWAP1 PUSH2 0x3E87 JUMP JUMPDEST PUSH1 0x40 MLOAD DUP1 SWAP2 SUB SWAP1 RETURN JUMPDEST CALLVALUE DUP1 ISZERO PUSH2 0x49E JUMPI PUSH1 0x0 DUP1 REVERT JUMPDEST POP PUSH2 0x4B9 PUSH1 0x4 DUP1 CALLDATASIZE SUB DUP2 ADD SWAP1 PUSH2 0x4B4 SWAP2 SWAP1 PUSH2 0x3C7F JUMP JUMPDEST PUSH2 0xD47 JUMP JUMPDEST STOP JUMPDEST CALLVALUE DUP1 ISZERO PUSH2 0x4C7 JUMPI PUSH1 0x0 DUP1 REVERT JUMPDEST POP PUSH2 0x4D0 PUSH2 0xD87 JUMP JUMPDEST PUSH1 0x40 MLOAD PUSH2 0x4DD SWAP2 SWAP1 PUSH2 0x40B0 JUMP JUMPDEST PUSH1 0x40 MLOAD DUP1 SWAP2 SUB SWAP1 RETURN JUMPDEST CALLVALUE DUP1 ISZERO PUSH2 0x4F2 JUMPI PUSH1 0x0 DUP1 REVERT JUMPDEST POP PUSH2 0x50D PUSH1 0x4 DUP1 CALLDATASIZE SUB DUP2 ADD SWAP1 PUSH2 0x508 SWAP2 SWAP1 PUSH2 0x40CB JUMP JUMPDEST PUSH2 0xD8D JUMP JUMPDEST PUSH1 0x40 MLOAD PUSH2 0x51A SWAP2 SWAP1 PUSH2 0x3E6C JUMP JUMPDEST PUSH1 0x40 MLOAD DUP1 SWAP2 SUB SWAP1 RETURN JUMPDEST CALLVALUE DUP1 ISZERO PUSH2 0x52F JUMPI PUSH1 0x0 DUP1 REVERT JUMPDEST POP PUSH2 0x54A PUSH1 0x4 DUP1 CALLDATASIZE SUB DUP2 ADD SWAP1 PUSH2 0x545 SWAP2 SWAP1 PUSH2 0x3C7F JUMP JUMPDEST PUSH2 0xDBC JUMP JUMPDEST PUSH1 0x40 MLOAD PUSH2 0x557 SWAP2 SWAP1 PUSH2 0x3E6C JUMP JUMPDEST PUSH1 0x40 MLOAD DUP1 SWAP2 SUB SWAP1 RETURN JUMPDEST CALLVALUE DUP1 ISZERO PUSH2 0x56C JUMPI PUSH1 0x0 DUP1 REVERT JUMPDEST POP PUSH2 0x575 PUSH2 0xF09 JUMP JUMPDEST PUSH1 0x40 MLOAD PUSH2 0x582 SWAP2 SWAP1 PUSH2 0x413A JUMP JUMPDEST PUSH1 0x40 MLOAD DUP1 SWAP2 SUB SWAP1 RETURN JUMPDEST CALLVALUE DUP1 ISZERO PUSH2 0x597 JUMPI PUSH1 0x0 DUP1 REVERT JUMPDEST POP PUSH2 0x5B2 PUSH1 0x4 DUP1 CALLDATASIZE SUB DUP2 ADD SWAP1 PUSH2 0x5AD SWAP2 SWAP1 PUSH2 0x3E11 JUMP JUMPDEST PUSH2 0xF12 JUMP JUMPDEST PUSH1 0x40 MLOAD PUSH2 0x5BF SWAP2 SWAP1 PUSH2 0x3E6C JUMP JUMPDEST PUSH1 0x40 MLOAD DUP1 SWAP2 SUB SWAP1 RETURN JUMPDEST PUSH2 0x5E2 PUSH1 0x4 DUP1 CALLDATASIZE SUB DUP2 ADD SWAP1 PUSH2 0x5DD SWAP2 SWAP1 PUSH2 0x3C7F JUMP JUMPDEST PUSH2 0xF49 JUMP JUMPDEST PUSH1 0x40 MLOAD PUSH2 0x5EF SWAP2 SWAP1 PUSH2 0x3E6C JUMP JUMPDEST PUSH1 0x40 MLOAD DUP1 SWAP2 SUB SWAP1 RETURN JUMPDEST CALLVALUE DUP1 ISZERO PUSH2 0x604 JUMPI PUSH1 0x0 DUP1 REVERT JUMPDEST POP PUSH2 0x60D PUSH2 0x132F JUMP JUMPDEST PUSH1 0x40 MLOAD PUSH2 0x61A SWAP2 SWAP1 PUSH2 0x4264 JUMP JUMPDEST PUSH1 0x40 MLOAD DUP1 SWAP2 SUB SWAP1 RETURN JUMPDEST CALLVALUE DUP1 ISZERO PUSH2 0x62F JUMPI PUSH1 0x0 DUP1 REVERT JUMPDEST POP PUSH2 0x638 PUSH2 0x13F8 JUMP JUMPDEST PUSH1 0x40 MLOAD PUSH2 0x645 SWAP2 SWAP1 PUSH2 0x3E6C JUMP JUMPDEST PUSH1 0x40 MLOAD DUP1 SWAP2 SUB SWAP1 RETURN JUMPDEST CALLVALUE DUP1 ISZERO PUSH2 0x65A JUMPI PUSH1 0x0 DUP1 REVERT JUMPDEST POP PUSH2 0x663 PUSH2 0x140B JUMP JUMPDEST PUSH1 0x40 MLOAD PUSH2 0x670 SWAP2 SWAP1 PUSH2 0x3E6C JUMP JUMPDEST PUSH1 0x40 MLOAD DUP1 SWAP2 SUB SWAP1 RETURN JUMPDEST CALLVALUE DUP1 ISZERO PUSH2 0x685 JUMPI PUSH1 0x0 DUP1 REVERT JUMPDEST POP PUSH2 0x6A0 PUSH1 0x4 DUP1 CALLDATASIZE SUB DUP2 ADD SWAP1 PUSH2 0x69B SWAP2 SWAP1 PUSH2 0x4286 JUMP JUMPDEST PUSH2 0x1477 JUMP JUMPDEST PUSH1 0x40 MLOAD PUSH2 0x6AD SWAP2 SWAP1 PUSH2 0x3E6C JUMP JUMPDEST PUSH1 0x40 MLOAD DUP1 SWAP2 SUB SWAP1 RETURN JUMPDEST PUSH2 0x6BE PUSH2 0x160C JUMP JUMPDEST STOP JUMPDEST CALLVALUE DUP1 ISZERO PUSH2 0x6CC JUMPI PUSH1 0x0 DUP1 REVERT JUMPDEST POP PUSH2 0x6E7 PUSH1 0x4 DUP1 CALLDATASIZE SUB DUP2 ADD SWAP1 PUSH2 0x6E2 SWAP2 SWAP1 PUSH2 0x42C6 JUMP JUMPDEST PUSH2 0x1977 JUMP JUMPDEST PUSH1 0x40 MLOAD PUSH2 0x6F4 SWAP2 SWAP1 PUSH2 0x40B0 JUMP JUMPDEST PUSH1 0x40 MLOAD DUP1 SWAP2 SUB SWAP1 RETURN JUMPDEST CALLVALUE DUP1 ISZERO PUSH2 0x709 JUMPI PUSH1 0x0 DUP1 REVERT JUMPDEST POP PUSH2 0x712 PUSH2 0x19BF JUMP JUMPDEST STOP JUMPDEST CALLVALUE DUP1 ISZERO PUSH2 0x720 JUMPI PUSH1 0x0 DUP1 REVERT JUMPDEST POP PUSH2 0x73B PUSH1 0x4 DUP1 CALLDATASIZE SUB DUP2 ADD SWAP1 PUSH2 0x736 SWAP2 SWAP1 PUSH2 0x42C6 JUMP JUMPDEST PUSH2 0x19D3 JUMP JUMPDEST PUSH1 0x40 MLOAD PUSH2 0x748 SWAP2 SWAP1 PUSH2 0x40B0 JUMP JUMPDEST PUSH1 0x40 MLOAD DUP1 SWAP2 SUB SWAP1 RETURN JUMPDEST CALLVALUE DUP1 ISZERO PUSH2 0x75D JUMPI PUSH1 0x0 DUP1 REVERT JUMPDEST POP PUSH2 0x766 PUSH2 0x19EB JUMP JUMPDEST PUSH1 0x40 MLOAD PUSH2 0x773 SWAP2 SWAP1 PUSH2 0x40B0 JUMP JUMPDEST PUSH1 0x40 MLOAD DUP1 SWAP2 SUB SWAP1 RETURN JUMPDEST CALLVALUE DUP1 ISZERO PUSH2 0x788 JUMPI PUSH1 0x0 DUP1 REVERT JUMPDEST POP PUSH2 0x791 PUSH2 0x19F1 JUMP JUMPDEST PUSH1 0x40 MLOAD PUSH2 0x79E SWAP2 SWAP1 PUSH2 0x4352 JUMP JUMPDEST PUSH1 0x40 MLOAD DUP1 SWAP2 SUB SWAP1 RETURN JUMPDEST CALLVALUE DUP1 ISZERO PUSH2 0x7B3 JUMPI PUSH1 0x0 DUP1 REVERT JUMPDEST POP PUSH2 0x7CE PUSH1 0x4 DUP1 CALLDATASIZE SUB DUP2 ADD SWAP1 PUSH2 0x7C9 SWAP2 SWAP1 PUSH2 0x436D JUMP JUMPDEST PUSH2 0x1A17 JUMP JUMPDEST PUSH1 0x40 MLOAD PUSH2 0x7DB SWAP2 SWAP1 PUSH2 0x3E6C JUMP JUMPDEST PUSH1 0x40 MLOAD DUP1 SWAP2 SUB SWAP1 RETURN JUMPDEST CALLVALUE DUP1 ISZERO PUSH2 0x7F0 JUMPI PUSH1 0x0 DUP1 REVERT JUMPDEST POP PUSH2 0x7F9 PUSH2 0x1A46 JUMP JUMPDEST PUSH1 0x40 MLOAD PUSH2 0x806 SWAP2 SWAP1 PUSH2 0x3E87 JUMP JUMPDEST PUSH1 0x40 MLOAD DUP1 SWAP2 SUB SWAP1 RETURN JUMPDEST CALLVALUE DUP1 ISZERO PUSH2 0x81B JUMPI PUSH1 0x0 DUP1 REVERT JUMPDEST POP PUSH2 0x824 PUSH2 0x1A70 JUMP JUMPDEST PUSH1 0x40 MLOAD PUSH2 0x831 SWAP2 SWAP1 PUSH2 0x40B0 JUMP JUMPDEST PUSH1 0x40 MLOAD DUP1 SWAP2 SUB SWAP1 RETURN JUMPDEST CALLVALUE DUP1 ISZERO PUSH2 0x846 JUMPI PUSH1 0x0 DUP1 REVERT JUMPDEST POP PUSH2 0x84F PUSH2 0x1A76 JUMP JUMPDEST PUSH1 0x40 MLOAD PUSH2 0x85C SWAP2 SWAP1 PUSH2 0x3DC3 JUMP JUMPDEST PUSH1 0x40 MLOAD DUP1 SWAP2 SUB SWAP1 RETURN JUMPDEST CALLVALUE DUP1 ISZERO PUSH2 0x871 JUMPI PUSH1 0x0 DUP1 REVERT JUMPDEST POP PUSH2 0x88C PUSH1 0x4 DUP1 CALLDATASIZE SUB DUP2 ADD SWAP1 PUSH2 0x887 SWAP2 SWAP1 PUSH2 0x3C7F JUMP JUMPDEST PUSH2 0x1B08 JUMP JUMPDEST STOP JUMPDEST CALLVALUE DUP1 ISZERO PUSH2 0x89A JUMPI PUSH1 0x0 DUP1 REVERT JUMPDEST POP PUSH2 0x8B5 PUSH1 0x4 DUP1 CALLDATASIZE SUB DUP2 ADD SWAP1 PUSH2 0x8B0 SWAP2 SWAP1 PUSH2 0x3E11 JUMP JUMPDEST PUSH2 0x1CC2 JUMP JUMPDEST PUSH1 0x40 MLOAD PUSH2 0x8C2 SWAP2 SWAP1 PUSH2 0x3E6C JUMP JUMPDEST PUSH1 0x40 MLOAD DUP1 SWAP2 SUB SWAP1 RETURN JUMPDEST CALLVALUE DUP1 ISZERO PUSH2 0x8D7 JUMPI PUSH1 0x0 DUP1 REVERT JUMPDEST POP PUSH2 0x8F2 PUSH1 0x4 DUP1 CALLDATASIZE SUB DUP2 ADD SWAP1 PUSH2 0x8ED SWAP2 SWAP1 PUSH2 0x3E11 JUMP JUMPDEST PUSH2 0x1D39 JUMP JUMPDEST PUSH1 0x40 MLOAD PUSH2 0x8FF SWAP2 SWAP1 PUSH2 0x3E6C JUMP JUMPDEST PUSH1 0x40 MLOAD DUP1 SWAP2 SUB SWAP1 RETURN JUMPDEST CALLVALUE DUP1 ISZERO PUSH2 0x914 JUMPI PUSH1 0x0 DUP1 REVERT JUMPDEST POP PUSH2 0x92F PUSH1 0x4 DUP1 CALLDATASIZE SUB DUP2 ADD SWAP1 PUSH2 0x92A SWAP2 SWAP1 PUSH2 0x3C7F JUMP JUMPDEST PUSH2 0x1D5C JUMP JUMPDEST PUSH1 0x40 MLOAD PUSH2 0x93E SWAP4 SWAP3 SWAP2 SWAP1 PUSH2 0x3CFC JUMP JUMPDEST PUSH1 0x40 MLOAD DUP1 SWAP2 SUB SWAP1 RETURN JUMPDEST CALLVALUE DUP1 ISZERO PUSH2 0x953 JUMPI PUSH1 0x0 DUP1 REVERT JUMPDEST POP PUSH2 0x96E PUSH1 0x4 DUP1 CALLDATASIZE SUB DUP2 ADD SWAP1 PUSH2 0x969 SWAP2 SWAP1 PUSH2 0x3C7F JUMP JUMPDEST PUSH2 0x1DB6 JUMP JUMPDEST PUSH1 0x40 MLOAD PUSH2 0x97C SWAP3 SWAP2 SWAP1 PUSH2 0x43AD JUMP JUMPDEST PUSH1 0x40 MLOAD DUP1 SWAP2 SUB SWAP1 RETURN JUMPDEST CALLVALUE DUP1 ISZERO PUSH2 0x991 JUMPI PUSH1 0x0 DUP1 REVERT JUMPDEST POP PUSH2 0x99A PUSH2 0x1E0A JUMP JUMPDEST STOP JUMPDEST PUSH2 0x9A4 PUSH2 0x2062 JUMP JUMPDEST STOP JUMPDEST CALLVALUE DUP1 ISZERO PUSH2 0x9B2 JUMPI PUSH1 0x0 DUP1 REVERT JUMPDEST POP PUSH2 0x9CD PUSH1 0x4 DUP1 CALLDATASIZE SUB DUP2 ADD SWAP1 PUSH2 0x9C8 SWAP2 SWAP1 PUSH2 0x43D6 JUMP JUMPDEST PUSH2 0x21F5 JUMP JUMPDEST PUSH1 0x40 MLOAD PUSH2 0x9DA SWAP2 SWAP1 PUSH2 0x40B0 JUMP JUMPDEST PUSH1 0x40 MLOAD DUP1 SWAP2 SUB SWAP1 RETURN JUMPDEST CALLVALUE DUP1 ISZERO PUSH2 0x9EF JUMPI PUSH1 0x0 DUP1 REVERT JUMPDEST POP PUSH2 0xA0A PUSH1 0x4 DUP1 CALLDATASIZE SUB DUP2 ADD SWAP1 PUSH2 0xA05 SWAP2 SWAP1 PUSH2 0x4286 JUMP JUMPDEST PUSH2 0x227C JUMP JUMPDEST PUSH1 0x40 MLOAD PUSH2 0xA17 SWAP2 SWAP1 PUSH2 0x3E6C JUMP JUMPDEST PUSH1 0x40 MLOAD DUP1 SWAP2 SUB SWAP1 RETURN JUMPDEST CALLVALUE DUP1 ISZERO PUSH2 0xA2C JUMPI PUSH1 0x0 DUP1 REVERT JUMPDEST POP PUSH2 0xA35 PUSH2 0x24B1 JUMP JUMPDEST STOP JUMPDEST CALLVALUE DUP1 ISZERO PUSH2 0xA43 JUMPI PUSH1 0x0 DUP1 REVERT JUMPDEST POP PUSH2 0xA5E PUSH1 0x4 DUP1 CALLDATASIZE SUB DUP2 ADD SWAP1 PUSH2 0xA59 SWAP2 SWAP1 PUSH2 0x3C7F JUMP JUMPDEST PUSH2 0x271E JUMP JUMPDEST STOP JUMPDEST CALLVALUE DUP1 ISZERO PUSH2 0xA6C JUMPI PUSH1 0x0 DUP1 REVERT JUMPDEST POP PUSH2 0xA87 PUSH1 0x4 DUP1 CALLDATASIZE SUB DUP2 ADD SWAP1 PUSH2 0xA82 SWAP2 SWAP1 PUSH2 0x42C6 JUMP JUMPDEST PUSH2 0x28B3 JUMP JUMPDEST PUSH1 0x40 MLOAD PUSH2 0xA95 SWAP3 SWAP2 SWAP1 PUSH2 0x4416 JUMP JUMPDEST PUSH1 0x40 MLOAD DUP1 SWAP2 SUB SWAP1 RETURN JUMPDEST CALLVALUE DUP1 ISZERO PUSH2 0xAAA JUMPI PUSH1 0x0 DUP1 REVERT JUMPDEST POP PUSH2 0xAC5 PUSH1 0x4 DUP1 CALLDATASIZE SUB DUP2 ADD SWAP1 PUSH2 0xAC0 SWAP2 SWAP1 PUSH2 0x42C6 JUMP JUMPDEST PUSH2 0x2966 JUMP JUMPDEST STOP JUMPDEST CALLVALUE DUP1 ISZERO PUSH2 0xAD3 JUMPI PUSH1 0x0 DUP1 REVERT JUMPDEST POP PUSH2 0xAEE PUSH1 0x4 DUP1 CALLDATASIZE SUB DUP2 ADD SWAP1 PUSH2 0xAE9 SWAP2 SWAP1 PUSH2 0x3C7F JUMP JUMPDEST PUSH2 0x29E9 JUMP JUMPDEST STOP JUMPDEST CALLVALUE DUP1 ISZERO PUSH2 0xAFC JUMPI PUSH1 0x0 DUP1 REVERT JUMPDEST POP PUSH2 0xB05 PUSH2 0x2C22 JUMP JUMPDEST PUSH1 0x40 MLOAD PUSH2 0xB12 SWAP2 SWAP1 PUSH2 0x40B0 JUMP JUMPDEST PUSH1 0x40 MLOAD DUP1 SWAP2 SUB SWAP1 RETURN JUMPDEST CALLVALUE DUP1 ISZERO PUSH2 0xB27 JUMPI PUSH1 0x0 DUP1 REVERT JUMPDEST POP PUSH2 0xB30 PUSH2 0x2C28 JUMP JUMPDEST PUSH1 0x40 MLOAD PUSH2 0xB3D SWAP2 SWAP1 PUSH2 0x3E6C JUMP JUMPDEST PUSH1 0x40 MLOAD DUP1 SWAP2 SUB SWAP1 RETURN JUMPDEST PUSH2 0xB4E PUSH2 0x2C3B JUMP JUMPDEST STOP JUMPDEST CALLVALUE DUP1 ISZERO PUSH2 0xB5C JUMPI PUSH1 0x0 DUP1 REVERT JUMPDEST POP PUSH2 0xB77 PUSH1 0x4 DUP1 CALLDATASIZE SUB DUP2 ADD SWAP1 PUSH2 0xB72 SWAP2 SWAP1 PUSH2 0x3C7F JUMP JUMPDEST PUSH2 0x308D JUMP JUMPDEST STOP JUMPDEST PUSH2 0xB81 PUSH2 0x315F JUMP JUMPDEST STOP JUMPDEST PUSH1 0x16 DUP2 DUP2 SLOAD DUP2 LT PUSH2 0xB93 JUMPI PUSH1 0x0 DUP1 REVERT JUMPDEST SWAP1 PUSH1 0x0 MSTORE PUSH1 0x20 PUSH1 0x0 KECCAK256 SWAP1 PUSH1 0x3 MUL ADD PUSH1 0x0 SWAP2 POP SWAP1 POP DUP1 PUSH1 0x0 ADD PUSH1 0x0 SWAP1 SLOAD SWAP1 PUSH2 0x100 EXP SWAP1 DIV PUSH20 0xFFFFFFFFFFFFFFFFFFFFFFFFFFFFFFFFFFFFFFFF AND SWAP1 DUP1 PUSH1 0x1 ADD SLOAD SWAP1 DUP1 PUSH1 0x2 ADD SLOAD SWAP1 POP DUP4 JUMP JUMPDEST PUSH1 0x60 PUSH1 0x3 DUP1 SLOAD PUSH2 0xBEC SWAP1 PUSH2 0x446E JUMP JUMPDEST DUP1 PUSH1 0x1F ADD PUSH1 0x20 DUP1 SWAP2 DIV MUL PUSH1 0x20 ADD PUSH1 0x40 MLOAD SWAP1 DUP2 ADD PUSH1 0x40 MSTORE DUP1 SWAP3 SWAP2 SWAP1 DUP2 DUP2 MSTORE PUSH1 0x20 ADD DUP3 DUP1 SLOAD PUSH2 0xC18 SWAP1 PUSH2 0x446E JUMP JUMPDEST DUP1 ISZERO PUSH2 0xC65 JUMPI DUP1 PUSH1 0x1F LT PUSH2 0xC3A JUMPI PUSH2 0x100 DUP1 DUP4 SLOAD DIV MUL DUP4 MSTORE SWAP2 PUSH1 0x20 ADD SWAP2 PUSH2 0xC65 JUMP JUMPDEST DUP3 ADD SWAP2 SWAP1 PUSH1 0x0 MSTORE PUSH1 0x20 PUSH1 0x0 KECCAK256 SWAP1 JUMPDEST DUP2 SLOAD DUP2 MSTORE SWAP1 PUSH1 0x1 ADD SWAP1 PUSH1 0x20 ADD DUP1 DUP4 GT PUSH2 0xC48 JUMPI DUP3 SWAP1 SUB PUSH1 0x1F AND DUP3 ADD SWAP2 JUMPDEST POP POP POP POP POP SWAP1 POP SWAP1 JUMP JUMPDEST PUSH1 0x0 DUP1 PUSH2 0xC7A PUSH2 0x32DB JUMP JUMPDEST SWAP1 POP PUSH2 0xC87 DUP2 DUP6 DUP6 PUSH2 0x32E3 JUMP JUMPDEST PUSH1 0x1 SWAP2 POP POP SWAP3 SWAP2 POP POP JUMP JUMPDEST PUSH1 0x12 DUP2 DUP2 SLOAD DUP2 LT PUSH2 0xCA2 JUMPI PUSH1 0x0 DUP1 REVERT JUMPDEST SWAP1 PUSH1 0x0 MSTORE PUSH1 0x20 PUSH1 0x0 KECCAK256 ADD PUSH1 0x0 SWAP2 POP SLOAD SWAP1 PUSH2 0x100 EXP SWAP1 DIV PUSH20 0xFFFFFFFFFFFFFFFFFFFFFFFFFFFFFFFFFFFFFFFF AND DUP2 JUMP JUMPDEST PUSH1 0x0 PUSH4 0x150B7A02 PUSH1 0xE0 SHL SWAP1 POP SWAP5 SWAP4 POP POP POP POP JUMP JUMPDEST PUSH1 0xD PUSH1 0x0 SWAP1 SLOAD SWAP1 PUSH2 0x100 EXP SWAP1 DIV PUSH1 0xFF AND DUP2 JUMP JUMPDEST PUSH1 0xC SLOAD DUP2 JUMP JUMPDEST PUSH1 0x0 PUSH1 0x2 SLOAD SWAP1 POP SWAP1 JUMP JUMPDEST PUSH1 0x7 DUP2 DUP2 SLOAD DUP2 LT PUSH2 0xD18 JUMPI PUSH1 0x0 DUP1 REVERT JUMPDEST SWAP1 PUSH1 0x0 MSTORE PUSH1 0x20 PUSH1 0x0 KECCAK256 ADD PUSH1 0x0 SWAP2 POP SLOAD SWAP1 PUSH2 0x100 EXP SWAP1 DIV PUSH20 0xFFFFFFFFFFFFFFFFFFFFFFFFFFFFFFFFFFFFFFFF AND DUP2 JUMP JUMPDEST PUSH2 0xD4F PUSH2 0x34AC JUMP JUMPDEST PUSH8 0xDE0B6B3A7640000 DUP2 PUSH2 0xD63 SWAP2 SWAP1 PUSH2 0x44CE JUMP JUMPDEST PUSH1 0xE DUP2 SWAP1 SSTORE POP PUSH1 0x1 PUSH1 0xD PUSH1 0x1 PUSH2 0x100 EXP DUP2 SLOAD DUP2 PUSH1 0xFF MUL NOT AND SWAP1 DUP4 ISZERO ISZERO MUL OR SWAP1 SSTORE POP POP JUMP JUMPDEST PUSH1 0x8 SLOAD DUP2 JUMP JUMPDEST PUSH1 0x0 DUP1 PUSH2 0xD98 PUSH2 0x32DB JUMP JUMPDEST SWAP1 POP PUSH2 0xDA5 DUP6 DUP3 DUP6 PUSH2 0x352A JUMP JUMPDEST PUSH2 0xDB0 DUP6 DUP6 DUP6 PUSH2 0x35B6 JUMP JUMPDEST PUSH1 0x1 SWAP2 POP POP SWAP4 SWAP3 POP POP POP JUMP JUMPDEST PUSH1 0x0 PUSH2 0xDC6 PUSH2 0x34AC JUMP JUMPDEST PUSH1 0x12 DUP1 SLOAD SWAP1 POP DUP3 LT PUSH2 0xE0D JUMPI PUSH1 0x40 MLOAD PUSH32 0x8C379A000000000000000000000000000000000000000000000000000000000 DUP2 MSTORE PUSH1 0x4 ADD PUSH2 0xE04 SWAP1 PUSH2 0x455C JUMP JUMPDEST PUSH1 0x40 MLOAD DUP1 SWAP2 SUB SWAP1 REVERT JUMPDEST PUSH1 0x12 PUSH1 0x1 PUSH1 0x12 DUP1 SLOAD SWAP1 POP PUSH2 0xE21 SWAP2 SWAP1 PUSH2 0x457C JUMP JUMPDEST DUP2 SLOAD DUP2 LT PUSH2 0xE32 JUMPI PUSH2 0xE31 PUSH2 0x45B0 JUMP JUMPDEST JUMPDEST SWAP1 PUSH1 0x0 MSTORE PUSH1 0x20 PUSH1 0x0 KECCAK256 ADD PUSH1 0x0 SWAP1 SLOAD SWAP1 PUSH2 0x100 EXP SWAP1 DIV PUSH20 0xFFFFFFFFFFFFFFFFFFFFFFFFFFFFFFFFFFFFFFFF AND PUSH1 0x12 DUP4 DUP2 SLOAD DUP2 LT PUSH2 0xE71 JUMPI PUSH2 0xE70 PUSH2 0x45B0 JUMP JUMPDEST JUMPDEST SWAP1 PUSH1 0x0 MSTORE PUSH1 0x20 PUSH1 0x0 KECCAK256 ADD PUSH1 0x0 PUSH2 0x100 EXP DUP2 SLOAD DUP2 PUSH20 0xFFFFFFFFFFFFFFFFFFFFFFFFFFFFFFFFFFFFFFFF MUL NOT AND SWAP1 DUP4 PUSH20 0xFFFFFFFFFFFFFFFFFFFFFFFFFFFFFFFFFFFFFFFF AND MUL OR SWAP1 SSTORE POP PUSH1 0x12 DUP1 SLOAD DUP1 PUSH2 0xECB JUMPI PUSH2 0xECA PUSH2 0x45DF JUMP JUMPDEST JUMPDEST PUSH1 0x1 SWAP1 SUB DUP2 DUP2 SWAP1 PUSH1 0x0 MSTORE PUSH1 0x20 PUSH1 0x0 KECCAK256 ADD PUSH1 0x0 PUSH2 0x100 EXP DUP2 SLOAD SWAP1 PUSH20 0xFFFFFFFFFFFFFFFFFFFFFFFFFFFFFFFFFFFFFFFF MUL NOT AND SWAP1 SSTORE SWAP1 SSTORE PUSH1 0x1 SWAP1 POP SWAP2 SWAP1 POP JUMP JUMPDEST PUSH1 0x0 PUSH1 0x12 SWAP1 POP SWAP1 JUMP JUMPDEST PUSH1 0x0 DUP1 PUSH2 0xF1D PUSH2 0x32DB JUMP JUMPDEST SWAP1 POP PUSH2 0xF3E DUP2 DUP6 DUP6 PUSH2 0xF2F DUP6 DUP10 PUSH2 0x21F5 JUMP JUMPDEST PUSH2 0xF39 SWAP2 SWAP1 PUSH2 0x460E JUMP JUMPDEST PUSH2 0x32E3 JUMP JUMPDEST PUSH1 0x1 SWAP2 POP POP SWAP3 SWAP2 POP POP JUMP JUMPDEST PUSH1 0x0 PUSH1 0x11 DUP1 SLOAD SWAP1 POP DUP3 LT PUSH2 0xF92 JUMPI PUSH1 0x40 MLOAD PUSH32 0x8C379A000000000000000000000000000000000000000000000000000000000 DUP2 MSTORE PUSH1 0x4 ADD PUSH2 0xF89 SWAP1 PUSH2 0x455C JUMP JUMPDEST PUSH1 0x40 MLOAD DUP1 SWAP2 SUB SWAP1 REVERT JUMPDEST PUSH1 0x11 DUP3 DUP2 SLOAD DUP2 LT PUSH2 0xFA6 JUMPI PUSH2 0xFA5 PUSH2 0x45B0 JUMP JUMPDEST JUMPDEST SWAP1 PUSH1 0x0 MSTORE PUSH1 0x20 PUSH1 0x0 KECCAK256 SWAP1 PUSH1 0x3 MUL ADD PUSH1 0x1 ADD SLOAD PUSH1 0x11 DUP4 DUP2 SLOAD DUP2 LT PUSH2 0xFCC JUMPI PUSH2 0xFCB PUSH2 0x45B0 JUMP JUMPDEST JUMPDEST SWAP1 PUSH1 0x0 MSTORE PUSH1 0x20 PUSH1 0x0 KECCAK256 SWAP1 PUSH1 0x3 MUL ADD PUSH1 0x2 ADD SLOAD PUSH2 0xFE8 SWAP2 SWAP1 PUSH2 0x44CE JUMP JUMPDEST CALLVALUE LT ISZERO PUSH2 0x102A JUMPI PUSH1 0x40 MLOAD PUSH32 0x8C379A000000000000000000000000000000000000000000000000000000000 DUP2 MSTORE PUSH1 0x4 ADD PUSH2 0x1021 SWAP1 PUSH2 0x468E JUMP JUMPDEST PUSH1 0x40 MLOAD DUP1 SWAP2 SUB SWAP1 REVERT JUMPDEST PUSH1 0x11 DUP3 DUP2 SLOAD DUP2 LT PUSH2 0x103E JUMPI PUSH2 0x103D PUSH2 0x45B0 JUMP JUMPDEST JUMPDEST SWAP1 PUSH1 0x0 MSTORE PUSH1 0x20 PUSH1 0x0 KECCAK256 SWAP1 PUSH1 0x3 MUL ADD PUSH1 0x1 ADD SLOAD PUSH2 0x109E PUSH1 0x11 DUP5 DUP2 SLOAD DUP2 LT PUSH2 0x1067 JUMPI PUSH2 0x1066 PUSH2 0x45B0 JUMP JUMPDEST JUMPDEST SWAP1 PUSH1 0x0 MSTORE PUSH1 0x20 PUSH1 0x0 KECCAK256 SWAP1 PUSH1 0x3 MUL ADD PUSH1 0x0 ADD PUSH1 0x0 SWAP1 SLOAD SWAP1 PUSH2 0x100 EXP SWAP1 DIV PUSH20 0xFFFFFFFFFFFFFFFFFFFFFFFFFFFFFFFFFFFFFFFF AND PUSH2 0x1977 JUMP JUMPDEST LT ISZERO PUSH2 0x10DF JUMPI PUSH1 0x40 MLOAD PUSH32 0x8C379A000000000000000000000000000000000000000000000000000000000 DUP2 MSTORE PUSH1 0x4 ADD PUSH2 0x10D6 SWAP1 PUSH2 0x46FA JUMP JUMPDEST PUSH1 0x40 MLOAD DUP1 SWAP2 SUB SWAP1 REVERT JUMPDEST PUSH2 0x1154 PUSH1 0x11 DUP4 DUP2 SLOAD DUP2 LT PUSH2 0x10F6 JUMPI PUSH2 0x10F5 PUSH2 0x45B0 JUMP JUMPDEST JUMPDEST SWAP1 PUSH1 0x0 MSTORE PUSH1 0x20 PUSH1 0x0 KECCAK256 SWAP1 PUSH1 0x3 MUL ADD PUSH1 0x0 ADD PUSH1 0x0 SWAP1 SLOAD SWAP1 PUSH2 0x100 EXP SWAP1 DIV PUSH20 0xFFFFFFFFFFFFFFFFFFFFFFFFFFFFFFFFFFFFFFFF AND CALLER PUSH1 0x11 DUP6 DUP2 SLOAD DUP2 LT PUSH2 0x113D JUMPI PUSH2 0x113C PUSH2 0x45B0 JUMP JUMPDEST JUMPDEST SWAP1 PUSH1 0x0 MSTORE PUSH1 0x20 PUSH1 0x0 KECCAK256 SWAP1 PUSH1 0x3 MUL ADD PUSH1 0x1 ADD SLOAD PUSH2 0x35B6 JUMP JUMPDEST PUSH1 0x0 PUSH1 0x11 DUP4 DUP2 SLOAD DUP2 LT PUSH2 0x116A JUMPI PUSH2 0x1169 PUSH2 0x45B0 JUMP JUMPDEST JUMPDEST SWAP1 PUSH1 0x0 MSTORE PUSH1 0x20 PUSH1 0x0 KECCAK256 SWAP1 PUSH1 0x3 MUL ADD PUSH1 0x0 ADD PUSH1 0x0 SWAP1 SLOAD SWAP1 PUSH2 0x100 EXP SWAP1 DIV PUSH20 0xFFFFFFFFFFFFFFFFFFFFFFFFFFFFFFFFFFFFFFFF AND SWAP1 POP PUSH1 0x0 DUP2 PUSH20 0xFFFFFFFFFFFFFFFFFFFFFFFFFFFFFFFFFFFFFFFF AND CALLVALUE PUSH1 0x40 MLOAD PUSH2 0x11C4 SWAP1 PUSH2 0x474B JUMP JUMPDEST PUSH1 0x0 PUSH1 0x40 MLOAD DUP1 DUP4 SUB DUP2 DUP6 DUP8 GAS CALL SWAP3 POP POP POP RETURNDATASIZE DUP1 PUSH1 0x0 DUP2 EQ PUSH2 0x1201 JUMPI PUSH1 0x40 MLOAD SWAP2 POP PUSH1 0x1F NOT PUSH1 0x3F RETURNDATASIZE ADD AND DUP3 ADD PUSH1 0x40 MSTORE RETURNDATASIZE DUP3 MSTORE RETURNDATASIZE PUSH1 0x0 PUSH1 0x20 DUP5 ADD RETURNDATACOPY PUSH2 0x1206 JUMP JUMPDEST PUSH1 0x60 SWAP2 POP JUMPDEST POP POP SWAP1 POP DUP1 PUSH2 0x124A JUMPI PUSH1 0x40 MLOAD PUSH32 0x8C379A000000000000000000000000000000000000000000000000000000000 DUP2 MSTORE PUSH1 0x4 ADD PUSH2 0x1241 SWAP1 PUSH2 0x47AC JUMP JUMPDEST PUSH1 0x40 MLOAD DUP1 SWAP2 SUB SWAP1 REVERT JUMPDEST PUSH1 0x11 DUP1 SLOAD DUP1 PUSH2 0x125C JUMPI PUSH2 0x125B PUSH2 0x45DF JUMP JUMPDEST JUMPDEST PUSH1 0x1 SWAP1 SUB DUP2 DUP2 SWAP1 PUSH1 0x0 MSTORE PUSH1 0x20 PUSH1 0x0 KECCAK256 SWAP1 PUSH1 0x3 MUL ADD PUSH1 0x0 DUP1 DUP3 ADD PUSH1 0x0 PUSH2 0x100 EXP DUP2 SLOAD SWAP1 PUSH20 0xFFFFFFFFFFFFFFFFFFFFFFFFFFFFFFFFFFFFFFFF MUL NOT AND SWAP1 SSTORE PUSH1 0x1 DUP3 ADD PUSH1 0x0 SWAP1 SSTORE PUSH1 0x2 DUP3 ADD PUSH1 0x0 SWAP1 SSTORE POP POP SWAP1 SSTORE PUSH1 0x0 PUSH2 0x12B7 CALLER PUSH2 0x28B3 JUMP JUMPDEST POP SWAP1 POP DUP1 PUSH2 0x1323 JUMPI PUSH1 0x7 CALLER SWAP1 DUP1 PUSH1 0x1 DUP2 SLOAD ADD DUP1 DUP3 SSTORE DUP1 SWAP2 POP POP PUSH1 0x1 SWAP1 SUB SWAP1 PUSH1 0x0 MSTORE PUSH1 0x20 PUSH1 0x0 KECCAK256 ADD PUSH1 0x0 SWAP1 SWAP2 SWAP1 SWAP2 SWAP1 SWAP2 PUSH2 0x100 EXP DUP2 SLOAD DUP2 PUSH20 0xFFFFFFFFFFFFFFFFFFFFFFFFFFFFFFFFFFFFFFFF MUL NOT AND SWAP1 DUP4 PUSH20 0xFFFFFFFFFFFFFFFFFFFFFFFFFFFFFFFFFFFFFFFF AND MUL OR SWAP1 SSTORE POP JUMPDEST PUSH1 0x1 SWAP4 POP POP POP POP SWAP2 SWAP1 POP JUMP JUMPDEST PUSH1 0x60 PUSH1 0x11 DUP1 SLOAD DUP1 PUSH1 0x20 MUL PUSH1 0x20 ADD PUSH1 0x40 MLOAD SWAP1 DUP2 ADD PUSH1 0x40 MSTORE DUP1 SWAP3 SWAP2 SWAP1 DUP2 DUP2 MSTORE PUSH1 0x20 ADD PUSH1 0x0 SWAP1 JUMPDEST DUP3 DUP3 LT ISZERO PUSH2 0x13EF JUMPI DUP4 DUP3 SWAP1 PUSH1 0x0 MSTORE PUSH1 0x20 PUSH1 0x0 KECCAK256 SWAP1 PUSH1 0x3 MUL ADD PUSH1 0x40 MLOAD DUP1 PUSH1 0x60 ADD PUSH1 0x40 MSTORE SWAP1 DUP2 PUSH1 0x0 DUP3 ADD PUSH1 0x0 SWAP1 SLOAD SWAP1 PUSH2 0x100 EXP SWAP1 DIV PUSH20 0xFFFFFFFFFFFFFFFFFFFFFFFFFFFFFFFFFFFFFFFF AND PUSH20 0xFFFFFFFFFFFFFFFFFFFFFFFFFFFFFFFFFFFFFFFF AND PUSH20 0xFFFFFFFFFFFFFFFFFFFFFFFFFFFFFFFFFFFFFFFF AND DUP2 MSTORE PUSH1 0x20 ADD PUSH1 0x1 DUP3 ADD SLOAD DUP2 MSTORE PUSH1 0x20 ADD PUSH1 0x2 DUP3 ADD SLOAD DUP2 MSTORE POP POP DUP2 MSTORE PUSH1 0x20 ADD SWAP1 PUSH1 0x1 ADD SWAP1 PUSH2 0x1353 JUMP JUMPDEST POP POP POP POP SWAP1 POP SWAP1 JUMP JUMPDEST PUSH1 0xD PUSH1 0x1 SWAP1 SLOAD SWAP1 PUSH2 0x100 EXP SWAP1 DIV PUSH1 0xFF AND DUP2 JUMP JUMPDEST PUSH1 0x0 PUSH1 0x12 CALLER SWAP1 DUP1 PUSH1 0x1 DUP2 SLOAD ADD DUP1 DUP3 SSTORE DUP1 SWAP2 POP POP PUSH1 0x1 SWAP1 SUB SWAP1 PUSH1 0x0 MSTORE PUSH1 0x20 PUSH1 0x0 KECCAK256 ADD PUSH1 0x0 SWAP1 SWAP2 SWAP1 SWAP2 SWAP1 SWAP2 PUSH2 0x100 EXP DUP2 SLOAD DUP2 PUSH20 0xFFFFFFFFFFFFFFFFFFFFFFFFFFFFFFFFFFFFFFFF MUL NOT AND SWAP1 DUP4 PUSH20 0xFFFFFFFFFFFFFFFFFFFFFFFFFFFFFFFFFFFFFFFF AND MUL OR SWAP1 SSTORE POP PUSH1 0x1 SWAP1 POP SWAP1 JUMP JUMPDEST PUSH1 0x0 DUP1 DUP4 GT PUSH2 0x14BB JUMPI PUSH1 0x40 MLOAD PUSH32 0x8C379A000000000000000000000000000000000000000000000000000000000 DUP2 MSTORE PUSH1 0x4 ADD PUSH2 0x14B2 SWAP1 PUSH2 0x4818 JUMP JUMPDEST PUSH1 0x40 MLOAD DUP1 SWAP2 SUB SWAP1 REVERT JUMPDEST PUSH1 0x0 DUP3 GT PUSH2 0x14FE JUMPI PUSH1 0x40 MLOAD PUSH32 0x8C379A000000000000000000000000000000000000000000000000000000000 DUP2 MSTORE PUSH1 0x4 ADD PUSH2 0x14F5 SWAP1 PUSH2 0x4884 JUMP JUMPDEST PUSH1 0x40 MLOAD DUP1 SWAP2 SUB SWAP1 REVERT JUMPDEST DUP3 PUSH2 0x1508 CALLER PUSH2 0x1977 JUMP JUMPDEST LT ISZERO PUSH2 0x1549 JUMPI PUSH1 0x40 MLOAD PUSH32 0x8C379A000000000000000000000000000000000000000000000000000000000 DUP2 MSTORE PUSH1 0x4 ADD PUSH2 0x1540 SWAP1 PUSH2 0x46FA JUMP JUMPDEST PUSH1 0x40 MLOAD DUP1 SWAP2 SUB SWAP1 REVERT JUMPDEST PUSH1 0x11 PUSH1 0x40 MLOAD DUP1 PUSH1 0x60 ADD PUSH1 0x40 MSTORE DUP1 CALLER PUSH20 0xFFFFFFFFFFFFFFFFFFFFFFFFFFFFFFFFFFFFFFFF AND DUP2 MSTORE PUSH1 0x20 ADD DUP6 DUP2 MSTORE PUSH1 0x20 ADD DUP5 DUP2 MSTORE POP SWAP1 DUP1 PUSH1 0x1 DUP2 SLOAD ADD DUP1 DUP3 SSTORE DUP1 SWAP2 POP POP PUSH1 0x1 SWAP1 SUB SWAP1 PUSH1 0x0 MSTORE PUSH1 0x20 PUSH1 0x0 KECCAK256 SWAP1 PUSH1 0x3 MUL ADD PUSH1 0x0 SWAP1 SWAP2 SWAP1 SWAP2 SWAP1 SWAP2 POP PUSH1 0x0 DUP3 ADD MLOAD DUP2 PUSH1 0x0 ADD PUSH1 0x0 PUSH2 0x100 EXP DUP2 SLOAD DUP2 PUSH20 0xFFFFFFFFFFFFFFFFFFFFFFFFFFFFFFFFFFFFFFFF MUL NOT AND SWAP1 DUP4 PUSH20 0xFFFFFFFFFFFFFFFFFFFFFFFFFFFFFFFFFFFFFFFF AND MUL OR SWAP1 SSTORE POP PUSH1 0x20 DUP3 ADD MLOAD DUP2 PUSH1 0x1 ADD SSTORE PUSH1 0x40 DUP3 ADD MLOAD DUP2 PUSH1 0x2 ADD SSTORE POP POP PUSH1 0x1 SWAP1 POP SWAP3 SWAP2 POP POP JUMP JUMPDEST PUSH1 0xD PUSH1 0x1 SWAP1 SLOAD SWAP1 PUSH2 0x100 EXP SWAP1 DIV PUSH1 0xFF AND PUSH2 0x165B JUMPI PUSH1 0x40 MLOAD PUSH32 0x8C379A000000000000000000000000000000000000000000000000000000000 DUP2 MSTORE PUSH1 0x4 ADD PUSH2 0x1652 SWAP1 PUSH2 0x48F0 JUMP JUMPDEST PUSH1 0x40 MLOAD DUP1 SWAP2 SUB SWAP1 REVERT JUMPDEST PUSH1 0xE SLOAD CALLVALUE LT ISZERO PUSH2 0x16A0 JUMPI PUSH1 0x40 MLOAD PUSH32 0x8C379A000000000000000000000000000000000000000000000000000000000 DUP2 MSTORE PUSH1 0x4 ADD PUSH2 0x1697 SWAP1 PUSH2 0x495C JUMP JUMPDEST PUSH1 0x40 MLOAD DUP1 SWAP2 SUB SWAP1 REVERT JUMPDEST PUSH2 0x16A8 PUSH2 0xCFE JUMP JUMPDEST PUSH2 0x16F0 PUSH1 0x7 PUSH1 0x0 DUP2 SLOAD DUP2 LT PUSH2 0x16C0 JUMPI PUSH2 0x16BF PUSH2 0x45B0 JUMP JUMPDEST JUMPDEST SWAP1 PUSH1 0x0 MSTORE PUSH1 0x20 PUSH1 0x0 KECCAK256 ADD PUSH1 0x0 SWAP1 SLOAD SWAP1 PUSH2 0x100 EXP SWAP1 DIV PUSH20 0xFFFFFFFFFFFFFFFFFFFFFFFFFFFFFFFFFFFFFFFF AND PUSH2 0x1977 JUMP JUMPDEST EQ PUSH2 0x1730 JUMPI PUSH1 0x40 MLOAD PUSH32 0x8C379A000000000000000000000000000000000000000000000000000000000 DUP2 MSTORE PUSH1 0x4 ADD PUSH2 0x1727 SWAP1 PUSH2 0x49EE JUMP JUMPDEST PUSH1 0x40 MLOAD DUP1 SWAP2 SUB SWAP1 REVERT JUMPDEST PUSH1 0xB PUSH1 0x0 SWAP1 SLOAD SWAP1 PUSH2 0x100 EXP SWAP1 DIV PUSH20 0xFFFFFFFFFFFFFFFFFFFFFFFFFFFFFFFFFFFFFFFF AND PUSH20 0xFFFFFFFFFFFFFFFFFFFFFFFFFFFFFFFFFFFFFFFF AND PUSH4 0x23B872DD ADDRESS CALLER PUSH1 0xC SLOAD PUSH1 0x40 MLOAD DUP5 PUSH4 0xFFFFFFFF AND PUSH1 0xE0 SHL DUP2 MSTORE PUSH1 0x4 ADD PUSH2 0x1791 SWAP4 SWAP3 SWAP2 SWAP1 PUSH2 0x4A0E JUMP JUMPDEST PUSH1 0x0 PUSH1 0x40 MLOAD DUP1 DUP4 SUB DUP2 PUSH1 0x0 DUP8 DUP1 EXTCODESIZE ISZERO DUP1 ISZERO PUSH2 0x17AB JUMPI PUSH1 0x0 DUP1 REVERT JUMPDEST POP GAS CALL ISZERO DUP1 ISZERO PUSH2 0x17BF JUMPI RETURNDATASIZE PUSH1 0x0 DUP1 RETURNDATACOPY RETURNDATASIZE PUSH1 0x0 REVERT JUMPDEST POP POP POP POP PUSH2 0x1853 PUSH1 0x7 PUSH1 0x0 DUP2 SLOAD DUP2 LT PUSH2 0x17DB JUMPI PUSH2 0x17DA PUSH2 0x45B0 JUMP JUMPDEST JUMPDEST SWAP1 PUSH1 0x0 MSTORE PUSH1 0x20 PUSH1 0x0 KECCAK256 ADD PUSH1 0x0 SWAP1 SLOAD SWAP1 PUSH2 0x100 EXP SWAP1 DIV PUSH20 0xFFFFFFFFFFFFFFFFFFFFFFFFFFFFFFFFFFFFFFFF AND PUSH2 0x184E PUSH1 0x7 PUSH1 0x0 DUP2 SLOAD DUP2 LT PUSH2 0x181E JUMPI PUSH2 0x181D PUSH2 0x45B0 JUMP JUMPDEST JUMPDEST SWAP1 PUSH1 0x0 MSTORE PUSH1 0x20 PUSH1 0x0 KECCAK256 ADD PUSH1 0x0 SWAP1 SLOAD SWAP1 PUSH2 0x100 EXP SWAP1 DIV PUSH20 0xFFFFFFFFFFFFFFFFFFFFFFFFFFFFFFFFFFFFFFFF AND PUSH2 0x1977 JUMP JUMPDEST PUSH2 0x382C JUMP JUMPDEST PUSH1 0x0 PUSH1 0x7 PUSH1 0x0 DUP2 SLOAD DUP2 LT PUSH2 0x186A JUMPI PUSH2 0x1869 PUSH2 0x45B0 JUMP JUMPDEST JUMPDEST SWAP1 PUSH1 0x0 MSTORE PUSH1 0x20 PUSH1 0x0 KECCAK256 ADD PUSH1 0x0 SWAP1 SLOAD SWAP1 PUSH2 0x100 EXP SWAP1 DIV PUSH20 0xFFFFFFFFFFFFFFFFFFFFFFFFFFFFFFFFFFFFFFFF AND PUSH20 0xFFFFFFFFFFFFFFFFFFFFFFFFFFFFFFFFFFFFFFFF AND CALLVALUE PUSH1 0x40 MLOAD PUSH2 0x18B8 SWAP1 PUSH2 0x474B JUMP JUMPDEST PUSH1 0x0 PUSH1 0x40 MLOAD DUP1 DUP4 SUB DUP2 DUP6 DUP8 GAS CALL SWAP3 POP POP POP RETURNDATASIZE DUP1 PUSH1 0x0 DUP2 EQ PUSH2 0x18F5 JUMPI PUSH1 0x40 MLOAD SWAP2 POP PUSH1 0x1F NOT PUSH1 0x3F RETURNDATASIZE ADD AND DUP3 ADD PUSH1 0x40 MSTORE RETURNDATASIZE DUP3 MSTORE RETURNDATASIZE PUSH1 0x0 PUSH1 0x20 DUP5 ADD RETURNDATACOPY PUSH2 0x18FA JUMP JUMPDEST PUSH1 0x60 SWAP2 POP JUMPDEST POP POP SWAP1 POP DUP1 PUSH2 0x193E JUMPI PUSH1 0x40 MLOAD PUSH32 0x8C379A000000000000000000000000000000000000000000000000000000000 DUP2 MSTORE PUSH1 0x4 ADD PUSH2 0x1935 SWAP1 PUSH2 0x47AC JUMP JUMPDEST PUSH1 0x40 MLOAD DUP1 SWAP2 SUB SWAP1 REVERT JUMPDEST PUSH1 0x0 PUSH1 0xD PUSH1 0x1 PUSH2 0x100 EXP DUP2 SLOAD DUP2 PUSH1 0xFF MUL NOT AND SWAP1 DUP4 ISZERO ISZERO MUL OR SWAP1 SSTORE POP PUSH1 0x0 PUSH1 0xF PUSH1 0x0 PUSH2 0x100 EXP DUP2 SLOAD DUP2 PUSH1 0xFF MUL NOT AND SWAP1 DUP4 ISZERO ISZERO MUL OR SWAP1 SSTORE POP POP JUMP JUMPDEST PUSH1 0x0 DUP1 PUSH1 0x0 DUP4 PUSH20 0xFFFFFFFFFFFFFFFFFFFFFFFFFFFFFFFFFFFFFFFF AND PUSH20 0xFFFFFFFFFFFFFFFFFFFFFFFFFFFFFFFFFFFFFFFF AND DUP2 MSTORE PUSH1 0x20 ADD SWAP1 DUP2 MSTORE PUSH1 0x20 ADD PUSH1 0x0 KECCAK256 SLOAD SWAP1 POP SWAP2 SWAP1 POP JUMP JUMPDEST PUSH2 0x19C7 PUSH2 0x34AC JUMP JUMPDEST PUSH2 0x19D1 PUSH1 0x0 PUSH2 0x39F9 JUMP JUMPDEST JUMP JUMPDEST PUSH1 0x9 PUSH1 0x20 MSTORE DUP1 PUSH1 0x0 MSTORE PUSH1 0x40 PUSH1 0x0 KECCAK256 PUSH1 0x0 SWAP2 POP SWAP1 POP SLOAD DUP2 JUMP JUMPDEST PUSH1 0xA SLOAD DUP2 JUMP JUMPDEST PUSH1 0xB PUSH1 0x0 SWAP1 SLOAD SWAP1 PUSH2 0x100 EXP SWAP1 DIV PUSH20 0xFFFFFFFFFFFFFFFFFFFFFFFFFFFFFFFFFFFFFFFF AND DUP2 JUMP JUMPDEST PUSH1 0x17 PUSH1 0x20 MSTORE DUP2 PUSH1 0x0 MSTORE PUSH1 0x40 PUSH1 0x0 KECCAK256 PUSH1 0x20 MSTORE DUP1 PUSH1 0x0 MSTORE PUSH1 0x40 PUSH1 0x0 KECCAK256 PUSH1 0x0 SWAP2 POP SWAP2 POP SWAP1 SLOAD SWAP1 PUSH2 0x100 EXP SWAP1 DIV PUSH1 0xFF AND DUP2 JUMP JUMPDEST PUSH1 0x0 PUSH1 0x5 PUSH1 0x0 SWAP1 SLOAD SWAP1 PUSH2 0x100 EXP SWAP1 DIV PUSH20 0xFFFFFFFFFFFFFFFFFFFFFFFFFFFFFFFFFFFFFFFF AND SWAP1 POP SWAP1 JUMP JUMPDEST PUSH1 0x6 SLOAD DUP2 JUMP JUMPDEST PUSH1 0x60 PUSH1 0x4 DUP1 SLOAD PUSH2 0x1A85 SWAP1 PUSH2 0x446E JUMP JUMPDEST DUP1 PUSH1 0x1F ADD PUSH1 0x20 DUP1 SWAP2 DIV MUL PUSH1 0x20 ADD PUSH1 0x40 MLOAD SWAP1 DUP2 ADD PUSH1 0x40 MSTORE DUP1 SWAP3 SWAP2 SWAP1 DUP2 DUP2 MSTORE PUSH1 0x20 ADD DUP3 DUP1 SLOAD PUSH2 0x1AB1 SWAP1 PUSH2 0x446E JUMP JUMPDEST DUP1 ISZERO PUSH2 0x1AFE JUMPI DUP1 PUSH1 0x1F LT PUSH2 0x1AD3 JUMPI PUSH2 0x100 DUP1 DUP4 SLOAD DIV MUL DUP4 MSTORE SWAP2 PUSH1 0x20 ADD SWAP2 PUSH2 0x1AFE JUMP JUMPDEST DUP3 ADD SWAP2 SWAP1 PUSH1 0x0 MSTORE PUSH1 0x20 PUSH1 0x0 KECCAK256 SWAP1 JUMPDEST DUP2 SLOAD DUP2 MSTORE SWAP1 PUSH1 0x1 ADD SWAP1 PUSH1 0x20 ADD DUP1 DUP4 GT PUSH2 0x1AE1 JUMPI DUP3 SWAP1 SUB PUSH1 0x1F AND DUP3 ADD SWAP2 JUMPDEST POP POP POP POP POP SWAP1 POP SWAP1 JUMP JUMPDEST PUSH2 0x1B10 PUSH2 0x34AC JUMP JUMPDEST PUSH1 0xD PUSH1 0x1 SWAP1 SLOAD SWAP1 PUSH2 0x100 EXP SWAP1 DIV PUSH1 0xFF AND PUSH2 0x1B5F JUMPI PUSH1 0x40 MLOAD PUSH32 0x8C379A000000000000000000000000000000000000000000000000000000000 DUP2 MSTORE PUSH1 0x4 ADD PUSH2 0x1B56 SWAP1 PUSH2 0x4A91 JUMP JUMPDEST PUSH1 0x40 MLOAD DUP1 SWAP2 SUB SWAP1 REVERT JUMPDEST PUSH1 0x16 DUP1 SLOAD SWAP1 POP DUP2 LT PUSH2 0x1BA6 JUMPI PUSH1 0x40 MLOAD PUSH32 0x8C379A000000000000000000000000000000000000000000000000000000000 DUP2 MSTORE PUSH1 0x4 ADD PUSH2 0x1B9D SWAP1 PUSH2 0x4AFD JUMP JUMPDEST PUSH1 0x40 MLOAD DUP1 SWAP2 SUB SWAP1 REVERT JUMPDEST PUSH1 0x0 PUSH1 0x16 DUP3 DUP2 SLOAD DUP2 LT PUSH2 0x1BBC JUMPI PUSH2 0x1BBB PUSH2 0x45B0 JUMP JUMPDEST JUMPDEST SWAP1 PUSH1 0x0 MSTORE PUSH1 0x20 PUSH1 0x0 KECCAK256 SWAP1 PUSH1 0x3 MUL ADD SWAP1 POP PUSH1 0x7 DUP1 SLOAD SWAP1 POP DUP2 PUSH1 0x2 ADD SLOAD LT ISZERO PUSH2 0x1C18 JUMPI PUSH1 0x40 MLOAD PUSH32 0x8C379A000000000000000000000000000000000000000000000000000000000 DUP2 MSTORE PUSH1 0x4 ADD PUSH2 0x1C0F SWAP1 PUSH2 0x4B69 JUMP JUMPDEST PUSH1 0x40 MLOAD DUP1 SWAP2 SUB SWAP1 REVERT JUMPDEST PUSH1 0x1 PUSH1 0x15 PUSH1 0x0 PUSH2 0x100 EXP DUP2 SLOAD DUP2 PUSH1 0xFF MUL NOT AND SWAP1 DUP4 ISZERO ISZERO MUL OR SWAP1 SSTORE POP PUSH1 0x0 PUSH1 0xD PUSH1 0x1 PUSH2 0x100 EXP DUP2 SLOAD DUP2 PUSH1 0xFF MUL NOT AND SWAP1 DUP4 ISZERO ISZERO MUL OR SWAP1 SSTORE POP DUP1 PUSH1 0x1 ADD SLOAD PUSH1 0x14 DUP2 SWAP1 SSTORE POP DUP1 PUSH1 0x0 ADD PUSH1 0x0 SWAP1 SLOAD SWAP1 PUSH2 0x100 EXP SWAP1 DIV PUSH20 0xFFFFFFFFFFFFFFFFFFFFFFFFFFFFFFFFFFFFFFFF AND PUSH1 0x13 PUSH1 0x0 PUSH2 0x100 EXP DUP2 SLOAD DUP2 PUSH20 0xFFFFFFFFFFFFFFFFFFFFFFFFFFFFFFFFFFFFFFFF MUL NOT AND SWAP1 DUP4 PUSH20 0xFFFFFFFFFFFFFFFFFFFFFFFFFFFFFFFFFFFFFFFF AND MUL OR SWAP1 SSTORE POP POP POP JUMP JUMPDEST PUSH1 0x0 DUP1 PUSH2 0x1CCD PUSH2 0x32DB JUMP JUMPDEST SWAP1 POP PUSH1 0x0 PUSH2 0x1CDB DUP3 DUP7 PUSH2 0x21F5 JUMP JUMPDEST SWAP1 POP DUP4 DUP2 LT ISZERO PUSH2 0x1D20 JUMPI PUSH1 0x40 MLOAD PUSH32 0x8C379A000000000000000000000000000000000000000000000000000000000 DUP2 MSTORE PUSH1 0x4 ADD PUSH2 0x1D17 SWAP1 PUSH2 0x4BFB JUMP JUMPDEST PUSH1 0x40 MLOAD DUP1 SWAP2 SUB SWAP1 REVERT JUMPDEST PUSH2 0x1D2D DUP3 DUP7 DUP7 DUP5 SUB PUSH2 0x32E3 JUMP JUMPDEST PUSH1 0x1 SWAP3 POP POP POP SWAP3 SWAP2 POP POP JUMP JUMPDEST PUSH1 0x0 DUP1 PUSH2 0x1D44 PUSH2 0x32DB JUMP JUMPDEST SWAP1 POP PUSH2 0x1D51 DUP2 DUP6 DUP6 PUSH2 0x35B6 JUMP JUMPDEST PUSH1 0x1 SWAP2 POP POP SWAP3 SWAP2 POP POP JUMP JUMPDEST PUSH1 0x11 DUP2 DUP2 SLOAD DUP2 LT PUSH2 0x1D6C JUMPI PUSH1 0x0 DUP1 REVERT JUMPDEST SWAP1 PUSH1 0x0 MSTORE PUSH1 0x20 PUSH1 0x0 KECCAK256 SWAP1 PUSH1 0x3 MUL ADD PUSH1 0x0 SWAP2 POP SWAP1 POP DUP1 PUSH1 0x0 ADD PUSH1 0x0 SWAP1 SLOAD SWAP1 PUSH2 0x100 EXP SWAP1 DIV PUSH20 0xFFFFFFFFFFFFFFFFFFFFFFFFFFFFFFFFFFFFFFFF AND SWAP1 DUP1 PUSH1 0x1 ADD SLOAD SWAP1 DUP1 PUSH1 0x2 ADD SLOAD SWAP1 POP DUP4 JUMP JUMPDEST PUSH1 0x10 DUP2 DUP2 SLOAD DUP2 LT PUSH2 0x1DC6 JUMPI PUSH1 0x0 DUP1 REVERT JUMPDEST SWAP1 PUSH1 0x0 MSTORE PUSH1 0x20 PUSH1 0x0 KECCAK256 SWAP1 PUSH1 0x2 MUL ADD PUSH1 0x0 SWAP2 POP SWAP1 POP DUP1 PUSH1 0x0 ADD PUSH1 0x0 SWAP1 SLOAD SWAP1 PUSH2 0x100 EXP SWAP1 DIV PUSH20 0xFFFFFFFFFFFFFFFFFFFFFFFFFFFFFFFFFFFFFFFF AND SWAP1 DUP1 PUSH1 0x1 ADD SLOAD SWAP1 POP DUP3 JUMP JUMPDEST PUSH1 0xF PUSH1 0x0 SWAP1 SLOAD SWAP1 PUSH2 0x100 EXP SWAP1 DIV PUSH1 0xFF AND PUSH2 0x1E59 JUMPI PUSH1 0x40 MLOAD PUSH32 0x8C379A000000000000000000000000000000000000000000000000000000000 DUP2 MSTORE PUSH1 0x4 ADD PUSH2 0x1E50 SWAP1 PUSH2 0x4C67 JUMP JUMPDEST PUSH1 0x40 MLOAD DUP1 SWAP2 SUB SWAP1 REVERT JUMPDEST PUSH1 0x0 DUP1 PUSH1 0x0 SWAP1 POP JUMPDEST PUSH1 0x7 DUP1 SLOAD SWAP1 POP DUP2 LT ISZERO PUSH2 0x1EF7 JUMPI CALLER PUSH20 0xFFFFFFFFFFFFFFFFFFFFFFFFFFFFFFFFFFFFFFFF AND PUSH1 0x7 DUP3 DUP2 SLOAD DUP2 LT PUSH2 0x1E99 JUMPI PUSH2 0x1E98 PUSH2 0x45B0 JUMP JUMPDEST JUMPDEST SWAP1 PUSH1 0x0 MSTORE PUSH1 0x20 PUSH1 0x0 KECCAK256 ADD PUSH1 0x0 SWAP1 SLOAD SWAP1 PUSH2 0x100 EXP SWAP1 DIV PUSH20 0xFFFFFFFFFFFFFFFFFFFFFFFFFFFFFFFFFFFFFFFF AND PUSH20 0xFFFFFFFFFFFFFFFFFFFFFFFFFFFFFFFFFFFFFFFF AND SUB PUSH2 0x1EE3 JUMPI DUP1 SWAP2 POP JUMPDEST PUSH1 0x1 DUP2 PUSH2 0x1EF0 SWAP2 SWAP1 PUSH2 0x460E JUMP JUMPDEST SWAP1 POP PUSH2 0x1E61 JUMP JUMPDEST POP PUSH1 0x0 PUSH1 0x7 DUP3 DUP2 SLOAD DUP2 LT PUSH2 0x1F0E JUMPI PUSH2 0x1F0D PUSH2 0x45B0 JUMP JUMPDEST JUMPDEST SWAP1 PUSH1 0x0 MSTORE PUSH1 0x20 PUSH1 0x0 KECCAK256 ADD PUSH1 0x0 SWAP1 SLOAD SWAP1 PUSH2 0x100 EXP SWAP1 DIV PUSH20 0xFFFFFFFFFFFFFFFFFFFFFFFFFFFFFFFFFFFFFFFF AND SWAP1 POP PUSH1 0x0 PUSH1 0x9 PUSH1 0x0 DUP4 PUSH20 0xFFFFFFFFFFFFFFFFFFFFFFFFFFFFFFFFFFFFFFFF AND PUSH20 0xFFFFFFFFFFFFFFFFFFFFFFFFFFFFFFFFFFFFFFFF AND DUP2 MSTORE PUSH1 0x20 ADD SWAP1 DUP2 MSTORE PUSH1 0x20 ADD PUSH1 0x0 KECCAK256 SLOAD SWAP1 POP PUSH1 0x0 PUSH1 0x9 PUSH1 0x0 DUP5 PUSH20 0xFFFFFFFFFFFFFFFFFFFFFFFFFFFFFFFFFFFFFFFF AND PUSH20 0xFFFFFFFFFFFFFFFFFFFFFFFFFFFFFFFFFFFFFFFF AND DUP2 MSTORE PUSH1 0x20 ADD SWAP1 DUP2 MSTORE PUSH1 0x20 ADD PUSH1 0x0 KECCAK256 DUP2 SWAP1 SSTORE POP DUP2 PUSH20 0xFFFFFFFFFFFFFFFFFFFFFFFFFFFFFFFFFFFFFFFF AND PUSH2 0x8FC DUP3 SWAP1 DUP2 ISZERO MUL SWAP1 PUSH1 0x40 MLOAD PUSH1 0x0 PUSH1 0x40 MLOAD DUP1 DUP4 SUB DUP2 DUP6 DUP9 DUP9 CALL SWAP4 POP POP POP POP ISZERO DUP1 ISZERO PUSH2 0x200A JUMPI RETURNDATASIZE PUSH1 0x0 DUP1 RETURNDATACOPY RETURNDATASIZE PUSH1 0x0 REVERT JUMPDEST POP PUSH2 0x205D CALLER PUSH1 0x7 PUSH1 0x0 DUP2 SLOAD DUP2 LT PUSH2 0x2024 JUMPI PUSH2 0x2023 PUSH2 0x45B0 JUMP JUMPDEST JUMPDEST SWAP1 PUSH1 0x0 MSTORE PUSH1 0x20 PUSH1 0x0 KECCAK256 ADD PUSH1 0x0 SWAP1 SLOAD SWAP1 PUSH2 0x100 EXP SWAP1 DIV PUSH20 0xFFFFFFFFFFFFFFFFFFFFFFFFFFFFFFFFFFFFFFFF AND PUSH2 0x2058 DUP6 PUSH2 0x1977 JUMP JUMPDEST PUSH2 0x35B6 JUMP JUMPDEST POP POP POP JUMP JUMPDEST PUSH2 0x206A PUSH2 0x34AC JUMP JUMPDEST PUSH1 0xE SLOAD CALLVALUE LT ISZERO PUSH2 0x20AF JUMPI PUSH1 0x40 MLOAD PUSH32 0x8C379A000000000000000000000000000000000000000000000000000000000 DUP2 MSTORE PUSH1 0x4 ADD PUSH2 0x20A6 SWAP1 PUSH2 0x495C JUMP JUMPDEST PUSH1 0x40 MLOAD DUP1 SWAP2 SUB SWAP1 REVERT JUMPDEST PUSH1 0x0 JUMPDEST PUSH1 0x7 DUP1 SLOAD SWAP1 POP DUP2 LT ISZERO PUSH2 0x21D7 JUMPI PUSH1 0x0 PUSH1 0x7 DUP3 DUP2 SLOAD DUP2 LT PUSH2 0x20D5 JUMPI PUSH2 0x20D4 PUSH2 0x45B0 JUMP JUMPDEST JUMPDEST SWAP1 PUSH1 0x0 MSTORE PUSH1 0x20 PUSH1 0x0 KECCAK256 ADD PUSH1 0x0 SWAP1 SLOAD SWAP1 PUSH2 0x100 EXP SWAP1 DIV PUSH20 0xFFFFFFFFFFFFFFFFFFFFFFFFFFFFFFFFFFFFFFFF AND SWAP1 POP PUSH1 0x0 PUSH2 0x210C PUSH2 0xCFE JUMP JUMPDEST PUSH2 0x2115 DUP4 PUSH2 0x1977 JUMP JUMPDEST SELFBALANCE PUSH2 0x2120 SWAP2 SWAP1 PUSH2 0x44CE JUMP JUMPDEST PUSH2 0x212A SWAP2 SWAP1 PUSH2 0x4CB6 JUMP JUMPDEST SWAP1 POP PUSH2 0x217E DUP2 PUSH1 0x9 PUSH1 0x0 DUP6 PUSH20 0xFFFFFFFFFFFFFFFFFFFFFFFFFFFFFFFFFFFFFFFF AND PUSH20 0xFFFFFFFFFFFFFFFFFFFFFFFFFFFFFFFFFFFFFFFF AND DUP2 MSTORE PUSH1 0x20 ADD SWAP1 DUP2 MSTORE PUSH1 0x20 ADD PUSH1 0x0 KECCAK256 SLOAD PUSH2 0x3ABF SWAP1 SWAP2 SWAP1 PUSH4 0xFFFFFFFF AND JUMP JUMPDEST PUSH1 0x9 PUSH1 0x0 DUP5 PUSH20 0xFFFFFFFFFFFFFFFFFFFFFFFFFFFFFFFFFFFFFFFF AND PUSH20 0xFFFFFFFFFFFFFFFFFFFFFFFFFFFFFFFFFFFFFFFF AND DUP2 MSTORE PUSH1 0x20 ADD SWAP1 DUP2 MSTORE PUSH1 0x20 ADD PUSH1 0x0 KECCAK256 DUP2 SWAP1 SSTORE POP POP POP PUSH1 0x1 DUP2 PUSH2 0x21D0 SWAP2 SWAP1 PUSH2 0x460E JUMP JUMPDEST SWAP1 POP PUSH2 0x20B2 JUMP JUMPDEST POP PUSH1 0x1 PUSH1 0xF PUSH1 0x0 PUSH2 0x100 EXP DUP2 SLOAD DUP2 PUSH1 0xFF MUL NOT AND SWAP1 DUP4 ISZERO ISZERO MUL OR SWAP1 SSTORE POP JUMP JUMPDEST PUSH1 0x0 PUSH1 0x1 PUSH1 0x0 DUP5 PUSH20 0xFFFFFFFFFFFFFFFFFFFFFFFFFFFFFFFFFFFFFFFF AND PUSH20 0xFFFFFFFFFFFFFFFFFFFFFFFFFFFFFFFFFFFFFFFF AND DUP2 MSTORE PUSH1 0x20 ADD SWAP1 DUP2 MSTORE PUSH1 0x20 ADD PUSH1 0x0 KECCAK256 PUSH1 0x0 DUP4 PUSH20 0xFFFFFFFFFFFFFFFFFFFFFFFFFFFFFFFFFFFFFFFF AND PUSH20 0xFFFFFFFFFFFFFFFFFFFFFFFFFFFFFFFFFFFFFFFF AND DUP2 MSTORE PUSH1 0x20 ADD SWAP1 DUP2 MSTORE PUSH1 0x20 ADD PUSH1 0x0 KECCAK256 SLOAD SWAP1 POP SWAP3 SWAP2 POP POP JUMP JUMPDEST PUSH1 0x0 PUSH2 0x2286 PUSH2 0x34AC JUMP JUMPDEST PUSH1 0x12 DUP1 SLOAD SWAP1 POP DUP4 LT PUSH2 0x22CD JUMPI PUSH1 0x40 MLOAD PUSH32 0x8C379A000000000000000000000000000000000000000000000000000000000 DUP2 MSTORE PUSH1 0x4 ADD PUSH2 0x22C4 SWAP1 PUSH2 0x455C JUMP JUMPDEST PUSH1 0x40 MLOAD DUP1 SWAP2 SUB SWAP1 REVERT JUMPDEST PUSH1 0x10 PUSH1 0x40 MLOAD DUP1 PUSH1 0x40 ADD PUSH1 0x40 MSTORE DUP1 PUSH1 0x12 DUP7 DUP2 SLOAD DUP2 LT PUSH2 0x22EE JUMPI PUSH2 0x22ED PUSH2 0x45B0 JUMP JUMPDEST JUMPDEST SWAP1 PUSH1 0x0 MSTORE PUSH1 0x20 PUSH1 0x0 KECCAK256 ADD PUSH1 0x0 SWAP1 SLOAD SWAP1 PUSH2 0x100 EXP SWAP1 DIV PUSH20 0xFFFFFFFFFFFFFFFFFFFFFFFFFFFFFFFFFFFFFFFF AND PUSH20 0xFFFFFFFFFFFFFFFFFFFFFFFFFFFFFFFFFFFFFFFF AND DUP2 MSTORE PUSH1 0x20 ADD DUP5 DUP2 MSTORE POP SWAP1 DUP1 PUSH1 0x1 DUP2 SLOAD ADD DUP1 DUP3 SSTORE DUP1 SWAP2 POP POP PUSH1 0x1 SWAP1 SUB SWAP1 PUSH1 0x0 MSTORE PUSH1 0x20 PUSH1 0x0 KECCAK256 SWAP1 PUSH1 0x2 MUL ADD PUSH1 0x0 SWAP1 SWAP2 SWAP1 SWAP2 SWAP1 SWAP2 POP PUSH1 0x0 DUP3 ADD MLOAD DUP2 PUSH1 0x0 ADD PUSH1 0x0 PUSH2 0x100 EXP DUP2 SLOAD DUP2 PUSH20 0xFFFFFFFFFFFFFFFFFFFFFFFFFFFFFFFFFFFFFFFF MUL NOT AND SWAP1 DUP4 PUSH20 0xFFFFFFFFFFFFFFFFFFFFFFFFFFFFFFFFFFFFFFFF AND MUL OR SWAP1 SSTORE POP PUSH1 0x20 DUP3 ADD MLOAD DUP2 PUSH1 0x1 ADD SSTORE POP POP PUSH1 0x12 PUSH1 0x1 PUSH1 0x12 DUP1 SLOAD SWAP1 POP PUSH2 0x23C8 SWAP2 SWAP1 PUSH2 0x457C JUMP JUMPDEST DUP2 SLOAD DUP2 LT PUSH2 0x23D9 JUMPI PUSH2 0x23D8 PUSH2 0x45B0 JUMP JUMPDEST JUMPDEST SWAP1 PUSH1 0x0 MSTORE PUSH1 0x20 PUSH1 0x0 KECCAK256 ADD PUSH1 0x0 SWAP1 SLOAD SWAP1 PUSH2 0x100 EXP SWAP1 DIV PUSH20 0xFFFFFFFFFFFFFFFFFFFFFFFFFFFFFFFFFFFFFFFF AND PUSH1 0x12 DUP5 DUP2 SLOAD DUP2 LT PUSH2 0x2418 JUMPI PUSH2 0x2417 PUSH2 0x45B0 JUMP JUMPDEST JUMPDEST SWAP1 PUSH1 0x0 MSTORE PUSH1 0x20 PUSH1 0x0 KECCAK256 ADD PUSH1 0x0 PUSH2 0x100 EXP DUP2 SLOAD DUP2 PUSH20 0xFFFFFFFFFFFFFFFFFFFFFFFFFFFFFFFFFFFFFFFF MUL NOT AND SWAP1 DUP4 PUSH20 0xFFFFFFFFFFFFFFFFFFFFFFFFFFFFFFFFFFFFFFFF AND MUL OR SWAP1 SSTORE POP PUSH1 0x12 DUP1 SLOAD DUP1 PUSH2 0x2472 JUMPI PUSH2 0x2471 PUSH2 0x45DF JUMP JUMPDEST JUMPDEST PUSH1 0x1 SWAP1 SUB DUP2 DUP2 SWAP1 PUSH1 0x0 MSTORE PUSH1 0x20 PUSH1 0x0 KECCAK256 ADD PUSH1 0x0 PUSH2 0x100 EXP DUP2 SLOAD SWAP1 PUSH20 0xFFFFFFFFFFFFFFFFFFFFFFFFFFFFFFFFFFFFFFFF MUL NOT AND SWAP1 SSTORE SWAP1 SSTORE PUSH1 0x1 SWAP1 POP SWAP3 SWAP2 POP POP JUMP JUMPDEST PUSH2 0x24B9 PUSH2 0x34AC JUMP JUMPDEST PUSH1 0x0 JUMPDEST PUSH1 0x7 DUP1 SLOAD SWAP1 POP DUP2 LT ISZERO PUSH2 0x25E1 JUMPI PUSH1 0x0 PUSH1 0x7 DUP3 DUP2 SLOAD DUP2 LT PUSH2 0x24DF JUMPI PUSH2 0x24DE PUSH2 0x45B0 JUMP JUMPDEST JUMPDEST SWAP1 PUSH1 0x0 MSTORE PUSH1 0x20 PUSH1 0x0 KECCAK256 ADD PUSH1 0x0 SWAP1 SLOAD SWAP1 PUSH2 0x100 EXP SWAP1 DIV PUSH20 0xFFFFFFFFFFFFFFFFFFFFFFFFFFFFFFFFFFFFFFFF AND SWAP1 POP PUSH1 0x0 PUSH2 0x2516 PUSH2 0xCFE JUMP JUMPDEST PUSH2 0x251F DUP4 PUSH2 0x1977 JUMP JUMPDEST SELFBALANCE PUSH2 0x252A SWAP2 SWAP1 PUSH2 0x44CE JUMP JUMPDEST PUSH2 0x2534 SWAP2 SWAP1 PUSH2 0x4CB6 JUMP JUMPDEST SWAP1 POP PUSH2 0x2588 DUP2 PUSH1 0x9 PUSH1 0x0 DUP6 PUSH20 0xFFFFFFFFFFFFFFFFFFFFFFFFFFFFFFFFFFFFFFFF AND PUSH20 0xFFFFFFFFFFFFFFFFFFFFFFFFFFFFFFFFFFFFFFFF AND DUP2 MSTORE PUSH1 0x20 ADD SWAP1 DUP2 MSTORE PUSH1 0x20 ADD PUSH1 0x0 KECCAK256 SLOAD PUSH2 0x3ABF SWAP1 SWAP2 SWAP1 PUSH4 0xFFFFFFFF AND JUMP JUMPDEST PUSH1 0x9 PUSH1 0x0 DUP5 PUSH20 0xFFFFFFFFFFFFFFFFFFFFFFFFFFFFFFFFFFFFFFFF AND PUSH20 0xFFFFFFFFFFFFFFFFFFFFFFFFFFFFFFFFFFFFFFFF AND DUP2 MSTORE PUSH1 0x20 ADD SWAP1 DUP2 MSTORE PUSH1 0x20 ADD PUSH1 0x0 KECCAK256 DUP2 SWAP1 SSTORE POP POP POP PUSH1 0x1 DUP2 PUSH2 0x25DA SWAP2 SWAP1 PUSH2 0x460E JUMP JUMPDEST SWAP1 POP PUSH2 0x24BC JUMP JUMPDEST POP PUSH1 0x0 JUMPDEST PUSH1 0x7 DUP1 SLOAD SWAP1 POP DUP2 LT ISZERO PUSH2 0x271B JUMPI PUSH1 0x0 PUSH1 0x7 DUP3 DUP2 SLOAD DUP2 LT PUSH2 0x2608 JUMPI PUSH2 0x2607 PUSH2 0x45B0 JUMP JUMPDEST JUMPDEST SWAP1 PUSH1 0x0 MSTORE PUSH1 0x20 PUSH1 0x0 KECCAK256 ADD PUSH1 0x0 SWAP1 SLOAD SWAP1 PUSH2 0x100 EXP SWAP1 DIV PUSH20 0xFFFFFFFFFFFFFFFFFFFFFFFFFFFFFFFFFFFFFFFF AND SWAP1 POP PUSH1 0x0 PUSH1 0x9 PUSH1 0x0 DUP4 PUSH20 0xFFFFFFFFFFFFFFFFFFFFFFFFFFFFFFFFFFFFFFFF AND PUSH20 0xFFFFFFFFFFFFFFFFFFFFFFFFFFFFFFFFFFFFFFFF AND DUP2 MSTORE PUSH1 0x20 ADD SWAP1 DUP2 MSTORE PUSH1 0x20 ADD PUSH1 0x0 KECCAK256 SLOAD SWAP1 POP PUSH1 0x0 PUSH1 0x9 PUSH1 0x0 DUP5 PUSH20 0xFFFFFFFFFFFFFFFFFFFFFFFFFFFFFFFFFFFFFFFF AND PUSH20 0xFFFFFFFFFFFFFFFFFFFFFFFFFFFFFFFFFFFFFFFF AND DUP2 MSTORE PUSH1 0x20 ADD SWAP1 DUP2 MSTORE PUSH1 0x20 ADD PUSH1 0x0 KECCAK256 DUP2 SWAP1 SSTORE POP DUP2 PUSH20 0xFFFFFFFFFFFFFFFFFFFFFFFFFFFFFFFFFFFFFFFF AND PUSH2 0x8FC DUP3 SWAP1 DUP2 ISZERO MUL SWAP1 PUSH1 0x40 MLOAD PUSH1 0x0 PUSH1 0x40 MLOAD DUP1 DUP4 SUB DUP2 DUP6 DUP9 DUP9 CALL SWAP4 POP POP POP POP ISZERO DUP1 ISZERO PUSH2 0x2704 JUMPI RETURNDATASIZE PUSH1 0x0 DUP1 RETURNDATACOPY RETURNDATASIZE PUSH1 0x0 REVERT JUMPDEST POP POP POP PUSH1 0x1 DUP2 PUSH2 0x2714 SWAP2 SWAP1 PUSH2 0x460E JUMP JUMPDEST SWAP1 POP PUSH2 0x25E5 JUMP JUMPDEST POP JUMP JUMPDEST PUSH1 0xD PUSH1 0x1 SWAP1 SLOAD SWAP1 PUSH2 0x100 EXP SWAP1 DIV PUSH1 0xFF AND PUSH2 0x276D JUMPI PUSH1 0x40 MLOAD PUSH32 0x8C379A000000000000000000000000000000000000000000000000000000000 DUP2 MSTORE PUSH1 0x4 ADD PUSH2 0x2764 SWAP1 PUSH2 0x48F0 JUMP JUMPDEST PUSH1 0x40 MLOAD DUP1 SWAP2 SUB SWAP1 REVERT JUMPDEST PUSH1 0x0 PUSH8 0xDE0B6B3A7640000 DUP3 PUSH2 0x2783 SWAP2 SWAP1 PUSH2 0x44CE JUMP JUMPDEST SWAP1 POP PUSH1 0xE SLOAD DUP2 LT ISZERO PUSH2 0x27CA JUMPI PUSH1 0x40 MLOAD PUSH32 0x8C379A000000000000000000000000000000000000000000000000000000000 DUP2 MSTORE PUSH1 0x4 ADD PUSH2 0x27C1 SWAP1 PUSH2 0x4D59 JUMP JUMPDEST PUSH1 0x40 MLOAD DUP1 SWAP2 SUB SWAP1 REVERT JUMPDEST PUSH1 0x1 ISZERO ISZERO PUSH1 0xD PUSH1 0x1 SWAP1 SLOAD SWAP1 PUSH2 0x100 EXP SWAP1 DIV PUSH1 0xFF AND ISZERO ISZERO EQ DUP1 ISZERO PUSH2 0x27EF JUMPI POP PUSH1 0xE SLOAD DUP2 LT ISZERO JUMPDEST ISZERO PUSH2 0x28AF JUMPI PUSH1 0x16 PUSH1 0x40 MLOAD DUP1 PUSH1 0x60 ADD PUSH1 0x40 MSTORE DUP1 CALLER PUSH20 0xFFFFFFFFFFFFFFFFFFFFFFFFFFFFFFFFFFFFFFFF AND DUP2 MSTORE PUSH1 0x20 ADD DUP4 DUP2 MSTORE PUSH1 0x20 ADD PUSH1 0x0 DUP2 MSTORE POP SWAP1 DUP1 PUSH1 0x1 DUP2 SLOAD ADD DUP1 DUP3 SSTORE DUP1 SWAP2 POP POP PUSH1 0x1 SWAP1 SUB SWAP1 PUSH1 0x0 MSTORE PUSH1 0x20 PUSH1 0x0 KECCAK256 SWAP1 PUSH1 0x3 MUL ADD PUSH1 0x0 SWAP1 SWAP2 SWAP1 SWAP2 SWAP1 SWAP2 POP PUSH1 0x0 DUP3 ADD MLOAD DUP2 PUSH1 0x0 ADD PUSH1 0x0 PUSH2 0x100 EXP DUP2 SLOAD DUP2 PUSH20 0xFFFFFFFFFFFFFFFFFFFFFFFFFFFFFFFFFFFFFFFF MUL NOT AND SWAP1 DUP4 PUSH20 0xFFFFFFFFFFFFFFFFFFFFFFFFFFFFFFFFFFFFFFFF AND MUL OR SWAP1 SSTORE POP PUSH1 0x20 DUP3 ADD MLOAD DUP2 PUSH1 0x1 ADD SSTORE PUSH1 0x40 DUP3 ADD MLOAD DUP2 PUSH1 0x2 ADD SSTORE POP POP JUMPDEST POP POP JUMP JUMPDEST PUSH1 0x0 DUP1 PUSH1 0x0 JUMPDEST PUSH1 0x7 DUP1 SLOAD SWAP1 POP DUP2 LT ISZERO PUSH2 0x2958 JUMPI PUSH1 0x7 DUP2 DUP2 SLOAD DUP2 LT PUSH2 0x28DA JUMPI PUSH2 0x28D9 PUSH2 0x45B0 JUMP JUMPDEST JUMPDEST SWAP1 PUSH1 0x0 MSTORE PUSH1 0x20 PUSH1 0x0 KECCAK256 ADD PUSH1 0x0 SWAP1 SLOAD SWAP1 PUSH2 0x100 EXP SWAP1 DIV PUSH20 0xFFFFFFFFFFFFFFFFFFFFFFFFFFFFFFFFFFFFFFFF AND PUSH20 0xFFFFFFFFFFFFFFFFFFFFFFFFFFFFFFFFFFFFFFFF AND DUP5 PUSH20 0xFFFFFFFFFFFFFFFFFFFFFFFFFFFFFFFFFFFFFFFF AND SUB PUSH2 0x2944 JUMPI PUSH1 0x1 DUP2 SWAP3 POP SWAP3 POP POP PUSH2 0x2961 JUMP JUMPDEST PUSH1 0x1 DUP2 PUSH2 0x2951 SWAP2 SWAP1 PUSH2 0x460E JUMP JUMPDEST SWAP1 POP PUSH2 0x28B9 JUMP JUMPDEST POP PUSH1 0x0 DUP1 SWAP2 POP SWAP2 POP JUMPDEST SWAP2 POP SWAP2 JUMP JUMPDEST PUSH2 0x296E PUSH2 0x34AC JUMP JUMPDEST PUSH1 0x0 PUSH20 0xFFFFFFFFFFFFFFFFFFFFFFFFFFFFFFFFFFFFFFFF AND DUP2 PUSH20 0xFFFFFFFFFFFFFFFFFFFFFFFFFFFFFFFFFFFFFFFF AND SUB PUSH2 0x29DD JUMPI PUSH1 0x40 MLOAD PUSH32 0x8C379A000000000000000000000000000000000000000000000000000000000 DUP2 MSTORE PUSH1 0x4 ADD PUSH2 0x29D4 SWAP1 PUSH2 0x4DEB JUMP JUMPDEST PUSH1 0x40 MLOAD DUP1 SWAP2 SUB SWAP1 REVERT JUMPDEST PUSH2 0x29E6 DUP2 PUSH2 0x39F9 JUMP JUMPDEST POP JUMP JUMPDEST PUSH1 0xD PUSH1 0x1 SWAP1 SLOAD SWAP1 PUSH2 0x100 EXP SWAP1 DIV PUSH1 0xFF AND PUSH2 0x2A38 JUMPI PUSH1 0x40 MLOAD PUSH32 0x8C379A000000000000000000000000000000000000000000000000000000000 DUP2 MSTORE PUSH1 0x4 ADD PUSH2 0x2A2F SWAP1 PUSH2 0x4A91 JUMP JUMPDEST PUSH1 0x40 MLOAD DUP1 SWAP2 SUB SWAP1 REVERT JUMPDEST PUSH1 0x16 DUP1 SLOAD SWAP1 POP DUP2 LT PUSH2 0x2A7F JUMPI PUSH1 0x40 MLOAD PUSH32 0x8C379A000000000000000000000000000000000000000000000000000000000 DUP2 MSTORE PUSH1 0x4 ADD PUSH2 0x2A76 SWAP1 PUSH2 0x4AFD JUMP JUMPDEST PUSH1 0x40 MLOAD DUP1 SWAP2 SUB SWAP1 REVERT JUMPDEST PUSH1 0x0 DUP1 PUSH2 0x2A8B CALLER PUSH2 0x28B3 JUMP JUMPDEST SWAP2 POP SWAP2 POP DUP2 PUSH2 0x2ACF JUMPI PUSH1 0x40 MLOAD PUSH32 0x8C379A000000000000000000000000000000000000000000000000000000000 DUP2 MSTORE PUSH1 0x4 ADD PUSH2 0x2AC6 SWAP1 PUSH2 0x4E57 JUMP JUMPDEST PUSH1 0x40 MLOAD DUP1 SWAP2 SUB SWAP1 REVERT JUMPDEST PUSH1 0x0 ISZERO ISZERO PUSH1 0x17 PUSH1 0x0 DUP6 DUP2 MSTORE PUSH1 0x20 ADD SWAP1 DUP2 MSTORE PUSH1 0x20 ADD PUSH1 0x0 KECCAK256 PUSH1 0x0 CALLER PUSH20 0xFFFFFFFFFFFFFFFFFFFFFFFFFFFFFFFFFFFFFFFF AND PUSH20 0xFFFFFFFFFFFFFFFFFFFFFFFFFFFFFFFFFFFFFFFF AND DUP2 MSTORE PUSH1 0x20 ADD SWAP1 DUP2 MSTORE PUSH1 0x20 ADD PUSH1 0x0 KECCAK256 PUSH1 0x0 SWAP1 SLOAD SWAP1 PUSH2 0x100 EXP SWAP1 DIV PUSH1 0xFF AND ISZERO ISZERO EQ PUSH2 0x2B73 JUMPI PUSH1 0x40 MLOAD PUSH32 0x8C379A000000000000000000000000000000000000000000000000000000000 DUP2 MSTORE PUSH1 0x4 ADD PUSH2 0x2B6A SWAP1 PUSH2 0x4EC3 JUMP JUMPDEST PUSH1 0x40 MLOAD DUP1 SWAP2 SUB SWAP1 REVERT JUMPDEST PUSH1 0x0 PUSH1 0x16 DUP5 DUP2 SLOAD DUP2 LT PUSH2 0x2B89 JUMPI PUSH2 0x2B88 PUSH2 0x45B0 JUMP JUMPDEST JUMPDEST SWAP1 PUSH1 0x0 MSTORE PUSH1 0x20 PUSH1 0x0 KECCAK256 SWAP1 PUSH1 0x3 MUL ADD SWAP1 POP PUSH1 0x1 PUSH1 0x17 PUSH1 0x0 DUP7 DUP2 MSTORE PUSH1 0x20 ADD SWAP1 DUP2 MSTORE PUSH1 0x20 ADD PUSH1 0x0 KECCAK256 PUSH1 0x0 CALLER PUSH20 0xFFFFFFFFFFFFFFFFFFFFFFFFFFFFFFFFFFFFFFFF AND PUSH20 0xFFFFFFFFFFFFFFFFFFFFFFFFFFFFFFFFFFFFFFFF AND DUP2 MSTORE PUSH1 0x20 ADD SWAP1 DUP2 MSTORE PUSH1 0x20 ADD PUSH1 0x0 KECCAK256 PUSH1 0x0 PUSH2 0x100 EXP DUP2 SLOAD DUP2 PUSH1 0xFF MUL NOT AND SWAP1 DUP4 ISZERO ISZERO MUL OR SWAP1 SSTORE POP DUP1 PUSH1 0x2 ADD PUSH1 0x0 DUP2 SLOAD DUP1 SWAP3 SWAP2 SWAP1 PUSH2 0x2C17 SWAP1 PUSH2 0x4EE3 JUMP JUMPDEST SWAP2 SWAP1 POP SSTORE POP POP POP POP POP JUMP JUMPDEST PUSH1 0xE SLOAD DUP2 JUMP JUMPDEST PUSH1 0xF PUSH1 0x0 SWAP1 SLOAD SWAP1 PUSH2 0x100 EXP SWAP1 DIV PUSH1 0xFF AND DUP2 JUMP JUMPDEST PUSH1 0x15 PUSH1 0x0 SWAP1 SLOAD SWAP1 PUSH2 0x100 EXP SWAP1 DIV PUSH1 0xFF AND PUSH2 0x2C8A JUMPI PUSH1 0x40 MLOAD PUSH32 0x8C379A000000000000000000000000000000000000000000000000000000000 DUP2 MSTORE PUSH1 0x4 ADD PUSH2 0x2C81 SWAP1 PUSH2 0x4F77 JUMP JUMPDEST PUSH1 0x40 MLOAD DUP1 SWAP2 SUB SWAP1 REVERT JUMPDEST PUSH1 0x13 PUSH1 0x0 SWAP1 SLOAD SWAP1 PUSH2 0x100 EXP SWAP1 DIV PUSH20 0xFFFFFFFFFFFFFFFFFFFFFFFFFFFFFFFFFFFFFFFF AND PUSH20 0xFFFFFFFFFFFFFFFFFFFFFFFFFFFFFFFFFFFFFFFF AND CALLER PUSH20 0xFFFFFFFFFFFFFFFFFFFFFFFFFFFFFFFFFFFFFFFF AND EQ PUSH2 0x2D1A JUMPI PUSH1 0x40 MLOAD PUSH32 0x8C379A000000000000000000000000000000000000000000000000000000000 DUP2 MSTORE PUSH1 0x4 ADD PUSH2 0x2D11 SWAP1 PUSH2 0x4FE3 JUMP JUMPDEST PUSH1 0x40 MLOAD DUP1 SWAP2 SUB SWAP1 REVERT JUMPDEST PUSH1 0x14 SLOAD CALLVALUE LT ISZERO PUSH2 0x2D5F JUMPI PUSH1 0x40 MLOAD PUSH32 0x8C379A000000000000000000000000000000000000000000000000000000000 DUP2 MSTORE PUSH1 0x4 ADD PUSH2 0x2D56 SWAP1 PUSH2 0x495C JUMP JUMPDEST PUSH1 0x40 MLOAD DUP1 SWAP2 SUB SWAP1 REVERT JUMPDEST PUSH1 0xB PUSH1 0x0 SWAP1 SLOAD SWAP1 PUSH2 0x100 EXP SWAP1 DIV PUSH20 0xFFFFFFFFFFFFFFFFFFFFFFFFFFFFFFFFFFFFFFFF AND PUSH20 0xFFFFFFFFFFFFFFFFFFFFFFFFFFFFFFFFFFFFFFFF AND PUSH4 0x23B872DD ADDRESS CALLER PUSH1 0xC SLOAD PUSH1 0x40 MLOAD DUP5 PUSH4 0xFFFFFFFF AND PUSH1 0xE0 SHL DUP2 MSTORE PUSH1 0x4 ADD PUSH2 0x2DC0 SWAP4 SWAP3 SWAP2 SWAP1 PUSH2 0x4A0E JUMP JUMPDEST PUSH1 0x0 PUSH1 0x40 MLOAD DUP1 DUP4 SUB DUP2 PUSH1 0x0 DUP8 DUP1 EXTCODESIZE ISZERO DUP1 ISZERO PUSH2 0x2DDA JUMPI PUSH1 0x0 DUP1 REVERT JUMPDEST POP GAS CALL ISZERO DUP1 ISZERO PUSH2 0x2DEE JUMPI RETURNDATASIZE PUSH1 0x0 DUP1 RETURNDATACOPY RETURNDATASIZE PUSH1 0x0 REVERT JUMPDEST POP POP POP POP PUSH1 0x0 JUMPDEST PUSH1 0x7 DUP1 SLOAD SWAP1 POP DUP2 LT ISZERO PUSH2 0x2F1A JUMPI PUSH1 0x0 PUSH1 0x7 DUP3 DUP2 SLOAD DUP2 LT PUSH2 0x2E18 JUMPI PUSH2 0x2E17 PUSH2 0x45B0 JUMP JUMPDEST JUMPDEST SWAP1 PUSH1 0x0 MSTORE PUSH1 0x20 PUSH1 0x0 KECCAK256 ADD PUSH1 0x0 SWAP1 SLOAD SWAP1 PUSH2 0x100 EXP SWAP1 DIV PUSH20 0xFFFFFFFFFFFFFFFFFFFFFFFFFFFFFFFFFFFFFFFF AND SWAP1 POP PUSH1 0x0 PUSH2 0x2E4F PUSH2 0xCFE JUMP JUMPDEST PUSH2 0x2E58 DUP4 PUSH2 0x1977 JUMP JUMPDEST SELFBALANCE PUSH2 0x2E63 SWAP2 SWAP1 PUSH2 0x44CE JUMP JUMPDEST PUSH2 0x2E6D SWAP2 SWAP1 PUSH2 0x4CB6 JUMP JUMPDEST SWAP1 POP PUSH2 0x2EC1 DUP2 PUSH1 0x9 PUSH1 0x0 DUP6 PUSH20 0xFFFFFFFFFFFFFFFFFFFFFFFFFFFFFFFFFFFFFFFF AND PUSH20 0xFFFFFFFFFFFFFFFFFFFFFFFFFFFFFFFFFFFFFFFF AND DUP2 MSTORE PUSH1 0x20 ADD SWAP1 DUP2 MSTORE PUSH1 0x20 ADD PUSH1 0x0 KECCAK256 SLOAD PUSH2 0x3ABF SWAP1 SWAP2 SWAP1 PUSH4 0xFFFFFFFF AND JUMP JUMPDEST PUSH1 0x9 PUSH1 0x0 DUP5 PUSH20 0xFFFFFFFFFFFFFFFFFFFFFFFFFFFFFFFFFFFFFFFF AND PUSH20 0xFFFFFFFFFFFFFFFFFFFFFFFFFFFFFFFFFFFFFFFF AND DUP2 MSTORE PUSH1 0x20 ADD SWAP1 DUP2 MSTORE PUSH1 0x20 ADD PUSH1 0x0 KECCAK256 DUP2 SWAP1 SSTORE POP POP POP PUSH1 0x1 DUP2 PUSH2 0x2F13 SWAP2 SWAP1 PUSH2 0x460E JUMP JUMPDEST SWAP1 POP PUSH2 0x2DF5 JUMP JUMPDEST POP PUSH1 0x0 JUMPDEST PUSH1 0x7 DUP1 SLOAD SWAP1 POP DUP2 LT ISZERO PUSH2 0x3054 JUMPI PUSH1 0x0 PUSH1 0x7 DUP3 DUP2 SLOAD DUP2 LT PUSH2 0x2F41 JUMPI PUSH2 0x2F40 PUSH2 0x45B0 JUMP JUMPDEST JUMPDEST SWAP1 PUSH1 0x0 MSTORE PUSH1 0x20 PUSH1 0x0 KECCAK256 ADD PUSH1 0x0 SWAP1 SLOAD SWAP1 PUSH2 0x100 EXP SWAP1 DIV PUSH20 0xFFFFFFFFFFFFFFFFFFFFFFFFFFFFFFFFFFFFFFFF AND SWAP1 POP PUSH1 0x0 PUSH1 0x9 PUSH1 0x0 DUP4 PUSH20 0xFFFFFFFFFFFFFFFFFFFFFFFFFFFFFFFFFFFFFFFF AND PUSH20 0xFFFFFFFFFFFFFFFFFFFFFFFFFFFFFFFFFFFFFFFF AND DUP2 MSTORE PUSH1 0x20 ADD SWAP1 DUP2 MSTORE PUSH1 0x20 ADD PUSH1 0x0 KECCAK256 SLOAD SWAP1 POP PUSH1 0x0 PUSH1 0x9 PUSH1 0x0 DUP5 PUSH20 0xFFFFFFFFFFFFFFFFFFFFFFFFFFFFFFFFFFFFFFFF AND PUSH20 0xFFFFFFFFFFFFFFFFFFFFFFFFFFFFFFFFFFFFFFFF AND DUP2 MSTORE PUSH1 0x20 ADD SWAP1 DUP2 MSTORE PUSH1 0x20 ADD PUSH1 0x0 KECCAK256 DUP2 SWAP1 SSTORE POP DUP2 PUSH20 0xFFFFFFFFFFFFFFFFFFFFFFFFFFFFFFFFFFFFFFFF AND PUSH2 0x8FC DUP3 SWAP1 DUP2 ISZERO MUL SWAP1 PUSH1 0x40 MLOAD PUSH1 0x0 PUSH1 0x40 MLOAD DUP1 DUP4 SUB DUP2 DUP6 DUP9 DUP9 CALL SWAP4 POP POP POP POP ISZERO DUP1 ISZERO PUSH2 0x303D JUMPI RETURNDATASIZE PUSH1 0x0 DUP1 RETURNDATACOPY RETURNDATASIZE PUSH1 0x0 REVERT JUMPDEST POP POP POP PUSH1 0x1 DUP2 PUSH2 0x304D SWAP2 SWAP1 PUSH2 0x460E JUMP JUMPDEST SWAP1 POP PUSH2 0x2F1E JUMP JUMPDEST POP PUSH1 0x0 PUSH1 0xD PUSH1 0x1 PUSH2 0x100 EXP DUP2 SLOAD DUP2 PUSH1 0xFF MUL NOT AND SWAP1 DUP4 ISZERO ISZERO MUL OR SWAP1 SSTORE POP PUSH1 0x1 PUSH1 0xF PUSH1 0x0 PUSH2 0x100 EXP DUP2 SLOAD DUP2 PUSH1 0xFF MUL NOT AND SWAP1 DUP4 ISZERO ISZERO MUL OR SWAP1 SSTORE POP JUMP JUMPDEST PUSH2 0x3095 PUSH2 0x34AC JUMP JUMPDEST PUSH1 0xD PUSH1 0x0 SWAP1 SLOAD SWAP1 PUSH2 0x100 EXP SWAP1 DIV PUSH1 0xFF AND ISZERO PUSH2 0x30E5 JUMPI PUSH1 0x40 MLOAD PUSH32 0x8C379A000000000000000000000000000000000000000000000000000000000 DUP2 MSTORE PUSH1 0x4 ADD PUSH2 0x30DC SWAP1 PUSH2 0x504F JUMP JUMPDEST PUSH1 0x40 MLOAD DUP1 SWAP2 SUB SWAP1 REVERT JUMPDEST PUSH1 0x0 DUP2 GT PUSH2 0x3128 JUMPI PUSH1 0x40 MLOAD PUSH32 0x8C379A000000000000000000000000000000000000000000000000000000000 DUP2 MSTORE PUSH1 0x4 ADD PUSH2 0x311F SWAP1 PUSH2 0x4818 JUMP JUMPDEST PUSH1 0x40 MLOAD DUP1 SWAP2 SUB SWAP1 REVERT JUMPDEST PUSH1 0x1 PUSH1 0xD PUSH1 0x0 PUSH2 0x100 EXP DUP2 SLOAD DUP2 PUSH1 0xFF MUL NOT AND SWAP1 DUP4 ISZERO ISZERO MUL OR SWAP1 SSTORE POP PUSH1 0x0 PUSH1 0x8 DUP2 SWAP1 SSTORE POP DUP1 PUSH1 0x6 DUP2 SWAP1 SSTORE POP PUSH2 0x315C CALLER DUP3 PUSH2 0x3AD5 JUMP JUMPDEST POP JUMP JUMPDEST PUSH1 0x0 CALLVALUE SWAP1 POP PUSH1 0x0 DUP1 PUSH1 0x0 SWAP1 POP PUSH1 0x0 JUMPDEST PUSH1 0x10 DUP1 SLOAD SWAP1 POP DUP2 LT ISZERO PUSH2 0x3233 JUMPI PUSH1 0x10 DUP2 DUP2 SLOAD DUP2 LT PUSH2 0x318F JUMPI PUSH2 0x318E PUSH2 0x45B0 JUMP JUMPDEST JUMPDEST SWAP1 PUSH1 0x0 MSTORE PUSH1 0x20 PUSH1 0x0 KECCAK256 SWAP1 PUSH1 0x2 MUL ADD PUSH1 0x0 ADD PUSH1 0x0 SWAP1 SLOAD SWAP1 PUSH2 0x100 EXP SWAP1 DIV PUSH20 0xFFFFFFFFFFFFFFFFFFFFFFFFFFFFFFFFFFFFFFFF AND PUSH20 0xFFFFFFFFFFFFFFFFFFFFFFFFFFFFFFFFFFFFFFFF AND CALLER PUSH20 0xFFFFFFFFFFFFFFFFFFFFFFFFFFFFFFFFFFFFFFFF AND SUB PUSH2 0x3220 JUMPI PUSH1 0x1 SWAP2 POP PUSH1 0x10 DUP2 DUP2 SLOAD DUP2 LT PUSH2 0x320B JUMPI PUSH2 0x320A PUSH2 0x45B0 JUMP JUMPDEST JUMPDEST SWAP1 PUSH1 0x0 MSTORE PUSH1 0x20 PUSH1 0x0 KECCAK256 SWAP1 PUSH1 0x2 MUL ADD PUSH1 0x1 ADD SLOAD SWAP3 POP JUMPDEST DUP1 DUP1 PUSH2 0x322B SWAP1 PUSH2 0x4EE3 JUMP JUMPDEST SWAP2 POP POP PUSH2 0x316E JUMP JUMPDEST POP PUSH1 0x1 ISZERO ISZERO DUP2 ISZERO ISZERO EQ PUSH2 0x327B JUMPI PUSH1 0x40 MLOAD PUSH32 0x8C379A000000000000000000000000000000000000000000000000000000000 DUP2 MSTORE PUSH1 0x4 ADD PUSH2 0x3272 SWAP1 PUSH2 0x50BB JUMP JUMPDEST PUSH1 0x40 MLOAD DUP1 SWAP2 SUB SWAP1 REVERT JUMPDEST DUP2 DUP4 EQ PUSH2 0x32BD JUMPI PUSH1 0x40 MLOAD PUSH32 0x8C379A000000000000000000000000000000000000000000000000000000000 DUP2 MSTORE PUSH1 0x4 ADD PUSH2 0x32B4 SWAP1 PUSH2 0x5127 JUMP JUMPDEST PUSH1 0x40 MLOAD DUP1 SWAP2 SUB SWAP1 REVERT JUMPDEST DUP3 PUSH1 0xA PUSH1 0x0 DUP3 DUP3 SLOAD PUSH2 0x32CF SWAP2 SWAP1 PUSH2 0x460E JUMP JUMPDEST SWAP3 POP POP DUP2 SWAP1 SSTORE POP POP POP POP JUMP JUMPDEST PUSH1 0x0 CALLER SWAP1 POP SWAP1 JUMP JUMPDEST PUSH1 0x0 PUSH20 0xFFFFFFFFFFFFFFFFFFFFFFFFFFFFFFFFFFFFFFFF AND DUP4 PUSH20 0xFFFFFFFFFFFFFFFFFFFFFFFFFFFFFFFFFFFFFFFF AND SUB PUSH2 0x3352 JUMPI PUSH1 0x40 MLOAD PUSH32 0x8C379A000000000000000000000000000000000000000000000000000000000 DUP2 MSTORE PUSH1 0x4 ADD PUSH2 0x3349 SWAP1 PUSH2 0x51B9 JUMP JUMPDEST PUSH1 0x40 MLOAD DUP1 SWAP2 SUB SWAP1 REVERT JUMPDEST PUSH1 0x0 PUSH20 0xFFFFFFFFFFFFFFFFFFFFFFFFFFFFFFFFFFFFFFFF AND DUP3 PUSH20 0xFFFFFFFFFFFFFFFFFFFFFFFFFFFFFFFFFFFFFFFF AND SUB PUSH2 0x33C1 JUMPI PUSH1 0x40 MLOAD PUSH32 0x8C379A000000000000000000000000000000000000000000000000000000000 DUP2 MSTORE PUSH1 0x4 ADD PUSH2 0x33B8 SWAP1 PUSH2 0x524B JUMP JUMPDEST PUSH1 0x40 MLOAD DUP1 SWAP2 SUB SWAP1 REVERT JUMPDEST DUP1 PUSH1 0x1 PUSH1 0x0 DUP6 PUSH20 0xFFFFFFFFFFFFFFFFFFFFFFFFFFFFFFFFFFFFFFFF AND PUSH20 0xFFFFFFFFFFFFFFFFFFFFFFFFFFFFFFFFFFFFFFFF AND DUP2 MSTORE PUSH1 0x20 ADD SWAP1 DUP2 MSTORE PUSH1 0x20 ADD PUSH1 0x0 KECCAK256 PUSH1 0x0 DUP5 PUSH20 0xFFFFFFFFFFFFFFFFFFFFFFFFFFFFFFFFFFFFFFFF AND PUSH20 0xFFFFFFFFFFFFFFFFFFFFFFFFFFFFFFFFFFFFFFFF AND DUP2 MSTORE PUSH1 0x20 ADD SWAP1 DUP2 MSTORE PUSH1 0x20 ADD PUSH1 0x0 KECCAK256 DUP2 SWAP1 SSTORE POP DUP2 PUSH20 0xFFFFFFFFFFFFFFFFFFFFFFFFFFFFFFFFFFFFFFFF AND DUP4 PUSH20 0xFFFFFFFFFFFFFFFFFFFFFFFFFFFFFFFFFFFFFFFF AND PUSH32 0x8C5BE1E5EBEC7D5BD14F71427D1E84F3DD0314C0F7B2291E5B200AC8C7C3B925 DUP4 PUSH1 0x40 MLOAD PUSH2 0x349F SWAP2 SWAP1 PUSH2 0x40B0 JUMP JUMPDEST PUSH1 0x40 MLOAD DUP1 SWAP2 SUB SWAP1 LOG3 POP POP POP JUMP JUMPDEST PUSH2 0x34B4 PUSH2 0x32DB JUMP JUMPDEST PUSH20 0xFFFFFFFFFFFFFFFFFFFFFFFFFFFFFFFFFFFFFFFF AND PUSH2 0x34D2 PUSH2 0x1A46 JUMP JUMPDEST PUSH20 0xFFFFFFFFFFFFFFFFFFFFFFFFFFFFFFFFFFFFFFFF AND EQ PUSH2 0x3528 JUMPI PUSH1 0x40 MLOAD PUSH32 0x8C379A000000000000000000000000000000000000000000000000000000000 DUP2 MSTORE PUSH1 0x4 ADD PUSH2 0x351F SWAP1 PUSH2 0x52B7 JUMP JUMPDEST PUSH1 0x40 MLOAD DUP1 SWAP2 SUB SWAP1 REVERT JUMPDEST JUMP JUMPDEST PUSH1 0x0 PUSH2 0x3536 DUP5 DUP5 PUSH2 0x21F5 JUMP JUMPDEST SWAP1 POP PUSH32 0xFFFFFFFFFFFFFFFFFFFFFFFFFFFFFFFFFFFFFFFFFFFFFFFFFFFFFFFFFFFFFFFF DUP2 EQ PUSH2 0x35B0 JUMPI DUP2 DUP2 LT ISZERO PUSH2 0x35A2 JUMPI PUSH1 0x40 MLOAD PUSH32 0x8C379A000000000000000000000000000000000000000000000000000000000 DUP2 MSTORE PUSH1 0x4 ADD PUSH2 0x3599 SWAP1 PUSH2 0x5323 JUMP JUMPDEST PUSH1 0x40 MLOAD DUP1 SWAP2 SUB SWAP1 REVERT JUMPDEST PUSH2 0x35AF DUP5 DUP5 DUP5 DUP5 SUB PUSH2 0x32E3 JUMP JUMPDEST JUMPDEST POP POP POP POP JUMP JUMPDEST PUSH1 0x0 PUSH20 0xFFFFFFFFFFFFFFFFFFFFFFFFFFFFFFFFFFFFFFFF AND DUP4 PUSH20 0xFFFFFFFFFFFFFFFFFFFFFFFFFFFFFFFFFFFFFFFF AND SUB PUSH2 0x3625 JUMPI PUSH1 0x40 MLOAD PUSH32 0x8C379A000000000000000000000000000000000000000000000000000000000 DUP2 MSTORE PUSH1 0x4 ADD PUSH2 0x361C SWAP1 PUSH2 0x53B5 JUMP JUMPDEST PUSH1 0x40 MLOAD DUP1 SWAP2 SUB SWAP1 REVERT JUMPDEST PUSH1 0x0 PUSH20 0xFFFFFFFFFFFFFFFFFFFFFFFFFFFFFFFFFFFFFFFF AND DUP3 PUSH20 0xFFFFFFFFFFFFFFFFFFFFFFFFFFFFFFFFFFFFFFFF AND SUB PUSH2 0x3694 JUMPI PUSH1 0x40 MLOAD PUSH32 0x8C379A000000000000000000000000000000000000000000000000000000000 DUP2 MSTORE PUSH1 0x4 ADD PUSH2 0x368B SWAP1 PUSH2 0x5447 JUMP JUMPDEST PUSH1 0x40 MLOAD DUP1 SWAP2 SUB SWAP1 REVERT JUMPDEST PUSH2 0x369F DUP4 DUP4 DUP4 PUSH2 0x3C2B JUMP JUMPDEST PUSH1 0x0 DUP1 PUSH1 0x0 DUP6 PUSH20 0xFFFFFFFFFFFFFFFFFFFFFFFFFFFFFFFFFFFFFFFF AND PUSH20 0xFFFFFFFFFFFFFFFFFFFFFFFFFFFFFFFFFFFFFFFF AND DUP2 MSTORE PUSH1 0x20 ADD SWAP1 DUP2 MSTORE PUSH1 0x20 ADD PUSH1 0x0 KECCAK256 SLOAD SWAP1 POP DUP2 DUP2 LT ISZERO PUSH2 0x3725 JUMPI PUSH1 0x40 MLOAD PUSH32 0x8C379A000000000000000000000000000000000000000000000000000000000 DUP2 MSTORE PUSH1 0x4 ADD PUSH2 0x371C SWAP1 PUSH2 0x54D9 JUMP JUMPDEST PUSH1 0x40 MLOAD DUP1 SWAP2 SUB SWAP1 REVERT JUMPDEST DUP2 DUP2 SUB PUSH1 0x0 DUP1 DUP7 PUSH20 0xFFFFFFFFFFFFFFFFFFFFFFFFFFFFFFFFFFFFFFFF AND PUSH20 0xFFFFFFFFFFFFFFFFFFFFFFFFFFFFFFFFFFFFFFFF AND DUP2 MSTORE PUSH1 0x20 ADD SWAP1 DUP2 MSTORE PUSH1 0x20 ADD PUSH1 0x0 KECCAK256 DUP2 SWAP1 SSTORE POP DUP2 PUSH1 0x0 DUP1 DUP6 PUSH20 0xFFFFFFFFFFFFFFFFFFFFFFFFFFFFFFFFFFFFFFFF AND PUSH20 0xFFFFFFFFFFFFFFFFFFFFFFFFFFFFFFFFFFFFFFFF AND DUP2 MSTORE PUSH1 0x20 ADD SWAP1 DUP2 MSTORE PUSH1 0x20 ADD PUSH1 0x0 KECCAK256 PUSH1 0x0 DUP3 DUP3 SLOAD ADD SWAP3 POP POP DUP2 SWAP1 SSTORE POP DUP3 PUSH20 0xFFFFFFFFFFFFFFFFFFFFFFFFFFFFFFFFFFFFFFFF AND DUP5 PUSH20 0xFFFFFFFFFFFFFFFFFFFFFFFFFFFFFFFFFFFFFFFF AND PUSH32 0xDDF252AD1BE2C89B69C2B068FC378DAA952BA7F163C4A11628F55A4DF523B3EF DUP5 PUSH1 0x40 MLOAD PUSH2 0x3813 SWAP2 SWAP1 PUSH2 0x40B0 JUMP JUMPDEST PUSH1 0x40 MLOAD DUP1 SWAP2 SUB SWAP1 LOG3 PUSH2 0x3826 DUP5 DUP5 DUP5 PUSH2 0x3C30 JUMP JUMPDEST POP POP POP POP JUMP JUMPDEST PUSH1 0x0 PUSH20 0xFFFFFFFFFFFFFFFFFFFFFFFFFFFFFFFFFFFFFFFF AND DUP3 PUSH20 0xFFFFFFFFFFFFFFFFFFFFFFFFFFFFFFFFFFFFFFFF AND SUB PUSH2 0x389B JUMPI PUSH1 0x40 MLOAD PUSH32 0x8C379A000000000000000000000000000000000000000000000000000000000 DUP2 MSTORE PUSH1 0x4 ADD PUSH2 0x3892 SWAP1 PUSH2 0x556B JUMP JUMPDEST PUSH1 0x40 MLOAD DUP1 SWAP2 SUB SWAP1 REVERT JUMPDEST PUSH2 0x38A7 DUP3 PUSH1 0x0 DUP4 PUSH2 0x3C2B JUMP JUMPDEST PUSH1 0x0 DUP1 PUSH1 0x0 DUP5 PUSH20 0xFFFFFFFFFFFFFFFFFFFFFFFFFFFFFFFFFFFFFFFF AND PUSH20 0xFFFFFFFFFFFFFFFFFFFFFFFFFFFFFFFFFFFFFFFF AND DUP2 MSTORE PUSH1 0x20 ADD SWAP1 DUP2 MSTORE PUSH1 0x20 ADD PUSH1 0x0 KECCAK256 SLOAD SWAP1 POP DUP2 DUP2 LT ISZERO PUSH2 0x392D JUMPI PUSH1 0x40 MLOAD PUSH32 0x8C379A000000000000000000000000000000000000000000000000000000000 DUP2 MSTORE PUSH1 0x4 ADD PUSH2 0x3924 SWAP1 PUSH2 0x55FD JUMP JUMPDEST PUSH1 0x40 MLOAD DUP1 SWAP2 SUB SWAP1 REVERT JUMPDEST DUP2 DUP2 SUB PUSH1 0x0 DUP1 DUP6 PUSH20 0xFFFFFFFFFFFFFFFFFFFFFFFFFFFFFFFFFFFFFFFF AND PUSH20 0xFFFFFFFFFFFFFFFFFFFFFFFFFFFFFFFFFFFFFFFF AND DUP2 MSTORE PUSH1 0x20 ADD SWAP1 DUP2 MSTORE PUSH1 0x20 ADD PUSH1 0x0 KECCAK256 DUP2 SWAP1 SSTORE POP DUP2 PUSH1 0x2 PUSH1 0x0 DUP3 DUP3 SLOAD SUB SWAP3 POP POP DUP2 SWAP1 SSTORE POP PUSH1 0x0 PUSH20 0xFFFFFFFFFFFFFFFFFFFFFFFFFFFFFFFFFFFFFFFF AND DUP4 PUSH20 0xFFFFFFFFFFFFFFFFFFFFFFFFFFFFFFFFFFFFFFFF AND PUSH32 0xDDF252AD1BE2C89B69C2B068FC378DAA952BA7F163C4A11628F55A4DF523B3EF DUP5 PUSH1 0x40 MLOAD PUSH2 0x39E0 SWAP2 SWAP1 PUSH2 0x40B0 JUMP JUMPDEST PUSH1 0x40 MLOAD DUP1 SWAP2 SUB SWAP1 LOG3 PUSH2 0x39F4 DUP4 PUSH1 0x0 DUP5 PUSH2 0x3C30 JUMP JUMPDEST POP POP POP JUMP JUMPDEST PUSH1 0x0 PUSH1 0x5 PUSH1 0x0 SWAP1 SLOAD SWAP1 PUSH2 0x100 EXP SWAP1 DIV PUSH20 0xFFFFFFFFFFFFFFFFFFFFFFFFFFFFFFFFFFFFFFFF AND SWAP1 POP DUP2 PUSH1 0x5 PUSH1 0x0 PUSH2 0x100 EXP DUP2 SLOAD DUP2 PUSH20 0xFFFFFFFFFFFFFFFFFFFFFFFFFFFFFFFFFFFFFFFF MUL NOT AND SWAP1 DUP4 PUSH20 0xFFFFFFFFFFFFFFFFFFFFFFFFFFFFFFFFFFFFFFFF AND MUL OR SWAP1 SSTORE POP DUP2 PUSH20 0xFFFFFFFFFFFFFFFFFFFFFFFFFFFFFFFFFFFFFFFF AND DUP2 PUSH20 0xFFFFFFFFFFFFFFFFFFFFFFFFFFFFFFFFFFFFFFFF AND PUSH32 0x8BE0079C531659141344CD1FD0A4F28419497F9722A3DAAFE3B4186F6B6457E0 PUSH1 0x40 MLOAD PUSH1 0x40 MLOAD DUP1 SWAP2 SUB SWAP1 LOG3 POP POP JUMP JUMPDEST PUSH1 0x0 DUP2 DUP4 PUSH2 0x3ACD SWAP2 SWAP1 PUSH2 0x460E JUMP JUMPDEST SWAP1 POP SWAP3 SWAP2 POP POP JUMP JUMPDEST PUSH1 0x0 PUSH20 0xFFFFFFFFFFFFFFFFFFFFFFFFFFFFFFFFFFFFFFFF AND DUP3 PUSH20 0xFFFFFFFFFFFFFFFFFFFFFFFFFFFFFFFFFFFFFFFF AND SUB PUSH2 0x3B44 JUMPI PUSH1 0x40 MLOAD PUSH32 0x8C379A000000000000000000000000000000000000000000000000000000000 DUP2 MSTORE PUSH1 0x4 ADD PUSH2 0x3B3B SWAP1 PUSH2 0x5669 JUMP JUMPDEST PUSH1 0x40 MLOAD DUP1 SWAP2 SUB SWAP1 REVERT JUMPDEST PUSH2 0x3B50 PUSH1 0x0 DUP4 DUP4 PUSH2 0x3C2B JUMP JUMPDEST DUP1 PUSH1 0x2 PUSH1 0x0 DUP3 DUP3 SLOAD PUSH2 0x3B62 SWAP2 SWAP1 PUSH2 0x460E JUMP JUMPDEST SWAP3 POP POP DUP2 SWAP1 SSTORE POP DUP1 PUSH1 0x0 DUP1 DUP5 PUSH20 0xFFFFFFFFFFFFFFFFFFFFFFFFFFFFFFFFFFFFFFFF AND PUSH20 0xFFFFFFFFFFFFFFFFFFFFFFFFFFFFFFFFFFFFFFFF AND DUP2 MSTORE PUSH1 0x20 ADD SWAP1 DUP2 MSTORE PUSH1 0x20 ADD PUSH1 0x0 KECCAK256 PUSH1 0x0 DUP3 DUP3 SLOAD ADD SWAP3 POP POP DUP2 SWAP1 SSTORE POP DUP2 PUSH20 0xFFFFFFFFFFFFFFFFFFFFFFFFFFFFFFFFFFFFFFFF AND PUSH1 0x0 PUSH20 0xFFFFFFFFFFFFFFFFFFFFFFFFFFFFFFFFFFFFFFFF AND PUSH32 0xDDF252AD1BE2C89B69C2B068FC378DAA952BA7F163C4A11628F55A4DF523B3EF DUP4 PUSH1 0x40 MLOAD PUSH2 0x3C13 SWAP2 SWAP1 PUSH2 0x40B0 JUMP JUMPDEST PUSH1 0x40 MLOAD DUP1 SWAP2 SUB SWAP1 LOG3 PUSH2 0x3C27 PUSH1 0x0 DUP4 DUP4 PUSH2 0x3C30 JUMP JUMPDEST POP POP JUMP JUMPDEST POP POP POP JUMP JUMPDEST POP POP POP JUMP JUMPDEST PUSH1 0x0 PUSH1 0x40 MLOAD SWAP1 POP SWAP1 JUMP JUMPDEST PUSH1 0x0 DUP1 REVERT JUMPDEST PUSH1 0x0 DUP1 REVERT JUMPDEST PUSH1 0x0 DUP2 SWAP1 POP SWAP2 SWAP1 POP JUMP JUMPDEST PUSH2 0x3C5C DUP2 PUSH2 0x3C49 JUMP JUMPDEST DUP2 EQ PUSH2 0x3C67 JUMPI PUSH1 0x0 DUP1 REVERT JUMPDEST POP JUMP JUMPDEST PUSH1 0x0 DUP2 CALLDATALOAD SWAP1 POP PUSH2 0x3C79 DUP2 PUSH2 0x3C53 JUMP JUMPDEST SWAP3 SWAP2 POP POP JUMP JUMPDEST PUSH1 0x0 PUSH1 0x20 DUP3 DUP5 SUB SLT ISZERO PUSH2 0x3C95 JUMPI PUSH2 0x3C94 PUSH2 0x3C3F JUMP JUMPDEST JUMPDEST PUSH1 0x0 PUSH2 0x3CA3 DUP5 DUP3 DUP6 ADD PUSH2 0x3C6A JUMP JUMPDEST SWAP2 POP POP SWAP3 SWAP2 POP POP JUMP JUMPDEST PUSH1 0x0 PUSH20 0xFFFFFFFFFFFFFFFFFFFFFFFFFFFFFFFFFFFFFFFF DUP3 AND SWAP1 POP SWAP2 SWAP1 POP JUMP JUMPDEST PUSH1 0x0 PUSH2 0x3CD7 DUP3 PUSH2 0x3CAC JUMP JUMPDEST SWAP1 POP SWAP2 SWAP1 POP JUMP JUMPDEST PUSH2 0x3CE7 DUP2 PUSH2 0x3CCC JUMP JUMPDEST DUP3 MSTORE POP POP JUMP JUMPDEST PUSH2 0x3CF6 DUP2 PUSH2 0x3C49 JUMP JUMPDEST DUP3 MSTORE POP POP JUMP JUMPDEST PUSH1 0x0 PUSH1 0x60 DUP3 ADD SWAP1 POP PUSH2 0x3D11 PUSH1 0x0 DUP4 ADD DUP7 PUSH2 0x3CDE JUMP JUMPDEST PUSH2 0x3D1E PUSH1 0x20 DUP4 ADD DUP6 PUSH2 0x3CED JUMP JUMPDEST PUSH2 0x3D2B PUSH1 0x40 DUP4 ADD DUP5 PUSH2 0x3CED JUMP JUMPDEST SWAP5 SWAP4 POP POP POP POP JUMP JUMPDEST PUSH1 0x0 DUP2 MLOAD SWAP1 POP SWAP2 SWAP1 POP JUMP JUMPDEST PUSH1 0x0 DUP3 DUP3 MSTORE PUSH1 0x20 DUP3 ADD SWAP1 POP SWAP3 SWAP2 POP POP JUMP JUMPDEST PUSH1 0x0 JUMPDEST DUP4 DUP2 LT ISZERO PUSH2 0x3D6D JUMPI DUP1 DUP3 ADD MLOAD DUP2 DUP5 ADD MSTORE PUSH1 0x20 DUP2 ADD SWAP1 POP PUSH2 0x3D52 JUMP JUMPDEST PUSH1 0x0 DUP5 DUP5 ADD MSTORE POP POP POP POP JUMP JUMPDEST PUSH1 0x0 PUSH1 0x1F NOT PUSH1 0x1F DUP4 ADD AND SWAP1 POP SWAP2 SWAP1 POP JUMP JUMPDEST PUSH1 0x0 PUSH2 0x3D95 DUP3 PUSH2 0x3D33 JUMP JUMPDEST PUSH2 0x3D9F DUP2 DUP6 PUSH2 0x3D3E JUMP JUMPDEST SWAP4 POP PUSH2 0x3DAF DUP2 DUP6 PUSH1 0x20 DUP7 ADD PUSH2 0x3D4F JUMP JUMPDEST PUSH2 0x3DB8 DUP2 PUSH2 0x3D79 JUMP JUMPDEST DUP5 ADD SWAP2 POP POP SWAP3 SWAP2 POP POP JUMP JUMPDEST PUSH1 0x0 PUSH1 0x20 DUP3 ADD SWAP1 POP DUP2 DUP2 SUB PUSH1 0x0 DUP4 ADD MSTORE PUSH2 0x3DDD DUP2 DUP5 PUSH2 0x3D8A JUMP JUMPDEST SWAP1 POP SWAP3 SWAP2 POP POP JUMP JUMPDEST PUSH2 0x3DEE DUP2 PUSH2 0x3CCC JUMP JUMPDEST DUP2 EQ PUSH2 0x3DF9 JUMPI PUSH1 0x0 DUP1 REVERT JUMPDEST POP JUMP JUMPDEST PUSH1 0x0 DUP2 CALLDATALOAD SWAP1 POP PUSH2 0x3E0B DUP2 PUSH2 0x3DE5 JUMP JUMPDEST SWAP3 SWAP2 POP POP JUMP JUMPDEST PUSH1 0x0 DUP1 PUSH1 0x40 DUP4 DUP6 SUB SLT ISZERO PUSH2 0x3E28 JUMPI PUSH2 0x3E27 PUSH2 0x3C3F JUMP JUMPDEST JUMPDEST PUSH1 0x0 PUSH2 0x3E36 DUP6 DUP3 DUP7 ADD PUSH2 0x3DFC JUMP JUMPDEST SWAP3 POP POP PUSH1 0x20 PUSH2 0x3E47 DUP6 DUP3 DUP7 ADD PUSH2 0x3C6A JUMP JUMPDEST SWAP2 POP POP SWAP3 POP SWAP3 SWAP1 POP JUMP JUMPDEST PUSH1 0x0 DUP2 ISZERO ISZERO SWAP1 POP SWAP2 SWAP1 POP JUMP JUMPDEST PUSH2 0x3E66 DUP2 PUSH2 0x3E51 JUMP JUMPDEST DUP3 MSTORE POP POP JUMP JUMPDEST PUSH1 0x0 PUSH1 0x20 DUP3 ADD SWAP1 POP PUSH2 0x3E81 PUSH1 0x0 DUP4 ADD DUP5 PUSH2 0x3E5D JUMP JUMPDEST SWAP3 SWAP2 POP POP JUMP JUMPDEST PUSH1 0x0 PUSH1 0x20 DUP3 ADD SWAP1 POP PUSH2 0x3E9C PUSH1 0x0 DUP4 ADD DUP5 PUSH2 0x3CDE JUMP JUMPDEST SWAP3 SWAP2 POP POP JUMP JUMPDEST PUSH1 0x0 DUP1 REVERT JUMPDEST PUSH1 0x0 DUP1 REVERT JUMPDEST PUSH32 0x4E487B7100000000000000000000000000000000000000000000000000000000 PUSH1 0x0 MSTORE PUSH1 0x41 PUSH1 0x4 MSTORE PUSH1 0x24 PUSH1 0x0 REVERT JUMPDEST PUSH2 0x3EE4 DUP3 PUSH2 0x3D79 JUMP JUMPDEST DUP2 ADD DUP2 DUP2 LT PUSH8 0xFFFFFFFFFFFFFFFF DUP3 GT OR ISZERO PUSH2 0x3F03 JUMPI PUSH2 0x3F02 PUSH2 0x3EAC JUMP JUMPDEST JUMPDEST DUP1 PUSH1 0x40 MSTORE POP POP POP JUMP JUMPDEST PUSH1 0x0 PUSH2 0x3F16 PUSH2 0x3C35 JUMP JUMPDEST SWAP1 POP PUSH2 0x3F22 DUP3 DUP3 PUSH2 0x3EDB JUMP JUMPDEST SWAP2 SWAP1 POP JUMP JUMPDEST PUSH1 0x0 PUSH8 0xFFFFFFFFFFFFFFFF DUP3 GT ISZERO PUSH2 0x3F42 JUMPI PUSH2 0x3F41 PUSH2 0x3EAC JUMP JUMPDEST JUMPDEST PUSH2 0x3F4B DUP3 PUSH2 0x3D79 JUMP JUMPDEST SWAP1 POP PUSH1 0x20 DUP2 ADD SWAP1 POP SWAP2 SWAP1 POP JUMP JUMPDEST DUP3 DUP2 DUP4 CALLDATACOPY PUSH1 0x0 DUP4 DUP4 ADD MSTORE POP POP POP JUMP JUMPDEST PUSH1 0x0 PUSH2 0x3F7A PUSH2 0x3F75 DUP5 PUSH2 0x3F27 JUMP JUMPDEST PUSH2 0x3F0C JUMP JUMPDEST SWAP1 POP DUP3 DUP2 MSTORE PUSH1 0x20 DUP2 ADD DUP5 DUP5 DUP5 ADD GT ISZERO PUSH2 0x3F96 JUMPI PUSH2 0x3F95 PUSH2 0x3EA7 JUMP JUMPDEST JUMPDEST PUSH2 0x3FA1 DUP5 DUP3 DUP6 PUSH2 0x3F58 JUMP JUMPDEST POP SWAP4 SWAP3 POP POP POP JUMP JUMPDEST PUSH1 0x0 DUP3 PUSH1 0x1F DUP4 ADD SLT PUSH2 0x3FBE JUMPI PUSH2 0x3FBD PUSH2 0x3EA2 JUMP JUMPDEST JUMPDEST DUP2 CALLDATALOAD PUSH2 0x3FCE DUP5 DUP3 PUSH1 0x20 DUP7 ADD PUSH2 0x3F67 JUMP JUMPDEST SWAP2 POP POP SWAP3 SWAP2 POP POP JUMP JUMPDEST PUSH1 0x0 DUP1 PUSH1 0x0 DUP1 PUSH1 0x80 DUP6 DUP8 SUB SLT ISZERO PUSH2 0x3FF1 JUMPI PUSH2 0x3FF0 PUSH2 0x3C3F JUMP JUMPDEST JUMPDEST PUSH1 0x0 PUSH2 0x3FFF DUP8 DUP3 DUP9 ADD PUSH2 0x3DFC JUMP JUMPDEST SWAP5 POP POP PUSH1 0x20 PUSH2 0x4010 DUP8 DUP3 DUP9 ADD PUSH2 0x3DFC JUMP JUMPDEST SWAP4 POP POP PUSH1 0x40 PUSH2 0x4021 DUP8 DUP3 DUP9 ADD PUSH2 0x3C6A JUMP JUMPDEST SWAP3 POP POP PUSH1 0x60 DUP6 ADD CALLDATALOAD PUSH8 0xFFFFFFFFFFFFFFFF DUP2 GT ISZERO PUSH2 0x4042 JUMPI PUSH2 0x4041 PUSH2 0x3C44 JUMP JUMPDEST JUMPDEST PUSH2 0x404E DUP8 DUP3 DUP9 ADD PUSH2 0x3FA9 JUMP JUMPDEST SWAP2 POP POP SWAP3 SWAP6 SWAP2 SWAP5 POP SWAP3 POP JUMP JUMPDEST PUSH1 0x0 PUSH32 0xFFFFFFFF00000000000000000000000000000000000000000000000000000000 DUP3 AND SWAP1 POP SWAP2 SWAP1 POP JUMP JUMPDEST PUSH2 0x408F DUP2 PUSH2 0x405A JUMP JUMPDEST DUP3 MSTORE POP POP JUMP JUMPDEST PUSH1 0x0 PUSH1 0x20 DUP3 ADD SWAP1 POP PUSH2 0x40AA PUSH1 0x0 DUP4 ADD DUP5 PUSH2 0x4086 JUMP JUMPDEST SWAP3 SWAP2 POP POP JUMP JUMPDEST PUSH1 0x0 PUSH1 0x20 DUP3 ADD SWAP1 POP PUSH2 0x40C5 PUSH1 0x0 DUP4 ADD DUP5 PUSH2 0x3CED JUMP JUMPDEST SWAP3 SWAP2 POP POP JUMP JUMPDEST PUSH1 0x0 DUP1 PUSH1 0x0 PUSH1 0x60 DUP5 DUP7 SUB SLT ISZERO PUSH2 0x40E4 JUMPI PUSH2 0x40E3 PUSH2 0x3C3F JUMP JUMPDEST JUMPDEST PUSH1 0x0 PUSH2 0x40F2 DUP7 DUP3 DUP8 ADD PUSH2 0x3DFC JUMP JUMPDEST SWAP4 POP POP PUSH1 0x20 PUSH2 0x4103 DUP7 DUP3 DUP8 ADD PUSH2 0x3DFC JUMP JUMPDEST SWAP3 POP POP PUSH1 0x40 PUSH2 0x4114 DUP7 DUP3 DUP8 ADD PUSH2 0x3C6A JUMP JUMPDEST SWAP2 POP POP SWAP3 POP SWAP3 POP SWAP3 JUMP JUMPDEST PUSH1 0x0 PUSH1 0xFF DUP3 AND SWAP1 POP SWAP2 SWAP1 POP JUMP JUMPDEST PUSH2 0x4134 DUP2 PUSH2 0x411E JUMP JUMPDEST DUP3 MSTORE POP POP JUMP JUMPDEST PUSH1 0x0 PUSH1 0x20 DUP3 ADD SWAP1 POP PUSH2 0x414F PUSH1 0x0 DUP4 ADD DUP5 PUSH2 0x412B JUMP JUMPDEST SWAP3 SWAP2 POP POP JUMP JUMPDEST PUSH1 0x0 DUP2 MLOAD SWAP1 POP SWAP2 SWAP1 POP JUMP JUMPDEST PUSH1 0x0 DUP3 DUP3 MSTORE PUSH1 0x20 DUP3 ADD SWAP1 POP SWAP3 SWAP2 POP POP JUMP JUMPDEST PUSH1 0x0 DUP2 SWAP1 POP PUSH1 0x20 DUP3 ADD SWAP1 POP SWAP2 SWAP1 POP JUMP JUMPDEST PUSH2 0x418A DUP2 PUSH2 0x3CCC JUMP JUMPDEST DUP3 MSTORE POP POP JUMP JUMPDEST PUSH2 0x4199 DUP2 PUSH2 0x3C49 JUMP JUMPDEST DUP3 MSTORE POP POP JUMP JUMPDEST PUSH1 0x60 DUP3 ADD PUSH1 0x0 DUP3 ADD MLOAD PUSH2 0x41B5 PUSH1 0x0 DUP6 ADD DUP3 PUSH2 0x4181 JUMP JUMPDEST POP PUSH1 0x20 DUP3 ADD MLOAD PUSH2 0x41C8 PUSH1 0x20 DUP6 ADD DUP3 PUSH2 0x4190 JUMP JUMPDEST POP PUSH1 0x40 DUP3 ADD MLOAD PUSH2 0x41DB PUSH1 0x40 DUP6 ADD DUP3 PUSH2 0x4190 JUMP JUMPDEST POP POP POP POP JUMP JUMPDEST PUSH1 0x0 PUSH2 0x41ED DUP4 DUP4 PUSH2 0x419F JUMP JUMPDEST PUSH1 0x60 DUP4 ADD SWAP1 POP SWAP3 SWAP2 POP POP JUMP JUMPDEST PUSH1 0x0 PUSH1 0x20 DUP3 ADD SWAP1 POP SWAP2 SWAP1 POP JUMP JUMPDEST PUSH1 0x0 PUSH2 0x4211 DUP3 PUSH2 0x4155 JUMP JUMPDEST PUSH2 0x421B DUP2 DUP6 PUSH2 0x4160 JUMP JUMPDEST SWAP4 POP PUSH2 0x4226 DUP4 PUSH2 0x4171 JUMP JUMPDEST DUP1 PUSH1 0x0 JUMPDEST DUP4 DUP2 LT ISZERO PUSH2 0x4257 JUMPI DUP2 MLOAD PUSH2 0x423E DUP9 DUP3 PUSH2 0x41E1 JUMP JUMPDEST SWAP8 POP PUSH2 0x4249 DUP4 PUSH2 0x41F9 JUMP JUMPDEST SWAP3 POP POP PUSH1 0x1 DUP2 ADD SWAP1 POP PUSH2 0x422A JUMP JUMPDEST POP DUP6 SWAP4 POP POP POP POP SWAP3 SWAP2 POP POP JUMP JUMPDEST PUSH1 0x0 PUSH1 0x20 DUP3 ADD SWAP1 POP DUP2 DUP2 SUB PUSH1 0x0 DUP4 ADD MSTORE PUSH2 0x427E DUP2 DUP5 PUSH2 0x4206 JUMP JUMPDEST SWAP1 POP SWAP3 SWAP2 POP POP JUMP JUMPDEST PUSH1 0x0 DUP1 PUSH1 0x40 DUP4 DUP6 SUB SLT ISZERO PUSH2 0x429D JUMPI PUSH2 0x429C PUSH2 0x3C3F JUMP JUMPDEST JUMPDEST PUSH1 0x0 PUSH2 0x42AB DUP6 DUP3 DUP7 ADD PUSH2 0x3C6A JUMP JUMPDEST SWAP3 POP POP PUSH1 0x20 PUSH2 0x42BC DUP6 DUP3 DUP7 ADD PUSH2 0x3C6A JUMP JUMPDEST SWAP2 POP POP SWAP3 POP SWAP3 SWAP1 POP JUMP JUMPDEST PUSH1 0x0 PUSH1 0x20 DUP3 DUP5 SUB SLT ISZERO PUSH2 0x42DC JUMPI PUSH2 0x42DB PUSH2 0x3C3F JUMP JUMPDEST JUMPDEST PUSH1 0x0 PUSH2 0x42EA DUP5 DUP3 DUP6 ADD PUSH2 0x3DFC JUMP JUMPDEST SWAP2 POP POP SWAP3 SWAP2 POP POP JUMP JUMPDEST PUSH1 0x0 DUP2 SWAP1 POP SWAP2 SWAP1 POP JUMP JUMPDEST PUSH1 0x0 PUSH2 0x4318 PUSH2 0x4313 PUSH2 0x430E DUP5 PUSH2 0x3CAC JUMP JUMPDEST PUSH2 0x42F3 JUMP JUMPDEST PUSH2 0x3CAC JUMP JUMPDEST SWAP1 POP SWAP2 SWAP1 POP JUMP JUMPDEST PUSH1 0x0 PUSH2 0x432A DUP3 PUSH2 0x42FD JUMP JUMPDEST SWAP1 POP SWAP2 SWAP1 POP JUMP JUMPDEST PUSH1 0x0 PUSH2 0x433C DUP3 PUSH2 0x431F JUMP JUMPDEST SWAP1 POP SWAP2 SWAP1 POP JUMP JUMPDEST PUSH2 0x434C DUP2 PUSH2 0x4331 JUMP JUMPDEST DUP3 MSTORE POP POP JUMP JUMPDEST PUSH1 0x0 PUSH1 0x20 DUP3 ADD SWAP1 POP PUSH2 0x4367 PUSH1 0x0 DUP4 ADD DUP5 PUSH2 0x4343 JUMP JUMPDEST SWAP3 SWAP2 POP POP JUMP JUMPDEST PUSH1 0x0 DUP1 PUSH1 0x40 DUP4 DUP6 SUB SLT ISZERO PUSH2 0x4384 JUMPI PUSH2 0x4383 PUSH2 0x3C3F JUMP JUMPDEST JUMPDEST PUSH1 0x0 PUSH2 0x4392 DUP6 DUP3 DUP7 ADD PUSH2 0x3C6A JUMP JUMPDEST SWAP3 POP POP PUSH1 0x20 PUSH2 0x43A3 DUP6 DUP3 DUP7 ADD PUSH2 0x3DFC JUMP JUMPDEST SWAP2 POP POP SWAP3 POP SWAP3 SWAP1 POP JUMP JUMPDEST PUSH1 0x0 PUSH1 0x40 DUP3 ADD SWAP1 POP PUSH2 0x43C2 PUSH1 0x0 DUP4 ADD DUP6 PUSH2 0x3CDE JUMP JUMPDEST PUSH2 0x43CF PUSH1 0x20 DUP4 ADD DUP5 PUSH2 0x3CED JUMP JUMPDEST SWAP4 SWAP3 POP POP POP JUMP JUMPDEST PUSH1 0x0 DUP1 PUSH1 0x40 DUP4 DUP6 SUB SLT ISZERO PUSH2 0x43ED JUMPI PUSH2 0x43EC PUSH2 0x3C3F JUMP JUMPDEST JUMPDEST PUSH1 0x0 PUSH2 0x43FB DUP6 DUP3 DUP7 ADD PUSH2 0x3DFC JUMP JUMPDEST SWAP3 POP POP PUSH1 0x20 PUSH2 0x440C DUP6 DUP3 DUP7 ADD PUSH2 0x3DFC JUMP JUMPDEST SWAP2 POP POP SWAP3 POP SWAP3 SWAP1 POP JUMP JUMPDEST PUSH1 0x0 PUSH1 0x40 DUP3 ADD SWAP1 POP PUSH2 0x442B PUSH1 0x0 DUP4 ADD DUP6 PUSH2 0x3E5D JUMP JUMPDEST PUSH2 0x4438 PUSH1 0x20 DUP4 ADD DUP5 PUSH2 0x3CED JUMP JUMPDEST SWAP4 SWAP3 POP POP POP JUMP JUMPDEST PUSH32 0x4E487B7100000000000000000000000000000000000000000000000000000000 PUSH1 0x0 MSTORE PUSH1 0x22 PUSH1 0x4 MSTORE PUSH1 0x24 PUSH1 0x0 REVERT JUMPDEST PUSH1 0x0 PUSH1 0x2 DUP3 DIV SWAP1 POP PUSH1 0x1 DUP3 AND DUP1 PUSH2 0x4486 JUMPI PUSH1 0x7F DUP3 AND SWAP2 POP JUMPDEST PUSH1 0x20 DUP3 LT DUP2 SUB PUSH2 0x4499 JUMPI PUSH2 0x4498 PUSH2 0x443F JUMP JUMPDEST JUMPDEST POP SWAP2 SWAP1 POP JUMP JUMPDEST PUSH32 0x4E487B7100000000000000000000000000000000000000000000000000000000 PUSH1 0x0 MSTORE PUSH1 0x11 PUSH1 0x4 MSTORE PUSH1 0x24 PUSH1 0x0 REVERT JUMPDEST PUSH1 0x0 PUSH2 0x44D9 DUP3 PUSH2 0x3C49 JUMP JUMPDEST SWAP2 POP PUSH2 0x44E4 DUP4 PUSH2 0x3C49 JUMP JUMPDEST SWAP3 POP DUP3 DUP3 MUL PUSH2 0x44F2 DUP2 PUSH2 0x3C49 JUMP JUMPDEST SWAP2 POP DUP3 DUP3 DIV DUP5 EQ DUP4 ISZERO OR PUSH2 0x4509 JUMPI PUSH2 0x4508 PUSH2 0x449F JUMP JUMPDEST JUMPDEST POP SWAP3 SWAP2 POP POP JUMP JUMPDEST PUSH32 0x496E646578206F7574206F6620626F756E647300000000000000000000000000 PUSH1 0x0 DUP3 ADD MSTORE POP JUMP JUMPDEST PUSH1 0x0 PUSH2 0x4546 PUSH1 0x13 DUP4 PUSH2 0x3D3E JUMP JUMPDEST SWAP2 POP PUSH2 0x4551 DUP3 PUSH2 0x4510 JUMP JUMPDEST PUSH1 0x20 DUP3 ADD SWAP1 POP SWAP2 SWAP1 POP JUMP JUMPDEST PUSH1 0x0 PUSH1 0x20 DUP3 ADD SWAP1 POP DUP2 DUP2 SUB PUSH1 0x0 DUP4 ADD MSTORE PUSH2 0x4575 DUP2 PUSH2 0x4539 JUMP JUMPDEST SWAP1 POP SWAP2 SWAP1 POP JUMP JUMPDEST PUSH1 0x0 PUSH2 0x4587 DUP3 PUSH2 0x3C49 JUMP JUMPDEST SWAP2 POP PUSH2 0x4592 DUP4 PUSH2 0x3C49 JUMP JUMPDEST SWAP3 POP DUP3 DUP3 SUB SWAP1 POP DUP2 DUP2 GT ISZERO PUSH2 0x45AA JUMPI PUSH2 0x45A9 PUSH2 0x449F JUMP JUMPDEST JUMPDEST SWAP3 SWAP2 POP POP JUMP JUMPDEST PUSH32 0x4E487B7100000000000000000000000000000000000000000000000000000000 PUSH1 0x0 MSTORE PUSH1 0x32 PUSH1 0x4 MSTORE PUSH1 0x24 PUSH1 0x0 REVERT JUMPDEST PUSH32 0x4E487B7100000000000000000000000000000000000000000000000000000000 PUSH1 0x0 MSTORE PUSH1 0x31 PUSH1 0x4 MSTORE PUSH1 0x24 PUSH1 0x0 REVERT JUMPDEST PUSH1 0x0 PUSH2 0x4619 DUP3 PUSH2 0x3C49 JUMP JUMPDEST SWAP2 POP PUSH2 0x4624 DUP4 PUSH2 0x3C49 JUMP JUMPDEST SWAP3 POP DUP3 DUP3 ADD SWAP1 POP DUP1 DUP3 GT ISZERO PUSH2 0x463C JUMPI PUSH2 0x463B PUSH2 0x449F JUMP JUMPDEST JUMPDEST SWAP3 SWAP2 POP POP JUMP JUMPDEST PUSH32 0x4E6F7420656E6F756768206D6F6E657900000000000000000000000000000000 PUSH1 0x0 DUP3 ADD MSTORE POP JUMP JUMPDEST PUSH1 0x0 PUSH2 0x4678 PUSH1 0x10 DUP4 PUSH2 0x3D3E JUMP JUMPDEST SWAP2 POP PUSH2 0x4683 DUP3 PUSH2 0x4642 JUMP JUMPDEST PUSH1 0x20 DUP3 ADD SWAP1 POP SWAP2 SWAP1 POP JUMP JUMPDEST PUSH1 0x0 PUSH1 0x20 DUP3 ADD SWAP1 POP DUP2 DUP2 SUB PUSH1 0x0 DUP4 ADD MSTORE PUSH2 0x46A7 DUP2 PUSH2 0x466B JUMP JUMPDEST SWAP1 POP SWAP2 SWAP1 POP JUMP JUMPDEST PUSH32 0x4E6F7420656E6F75676820746F6B656E7320746F2073656C6C00000000000000 PUSH1 0x0 DUP3 ADD MSTORE POP JUMP JUMPDEST PUSH1 0x0 PUSH2 0x46E4 PUSH1 0x19 DUP4 PUSH2 0x3D3E JUMP JUMPDEST SWAP2 POP PUSH2 0x46EF DUP3 PUSH2 0x46AE JUMP JUMPDEST PUSH1 0x20 DUP3 ADD SWAP1 POP SWAP2 SWAP1 POP JUMP JUMPDEST PUSH1 0x0 PUSH1 0x20 DUP3 ADD SWAP1 POP DUP2 DUP2 SUB PUSH1 0x0 DUP4 ADD MSTORE PUSH2 0x4713 DUP2 PUSH2 0x46D7 JUMP JUMPDEST SWAP1 POP SWAP2 SWAP1 POP JUMP JUMPDEST PUSH1 0x0 DUP2 SWAP1 POP SWAP3 SWAP2 POP POP JUMP JUMPDEST POP JUMP JUMPDEST PUSH1 0x0 PUSH2 0x4735 PUSH1 0x0 DUP4 PUSH2 0x471A JUMP JUMPDEST SWAP2 POP PUSH2 0x4740 DUP3 PUSH2 0x4725 JUMP JUMPDEST PUSH1 0x0 DUP3 ADD SWAP1 POP SWAP2 SWAP1 POP JUMP JUMPDEST PUSH1 0x0 PUSH2 0x4756 DUP3 PUSH2 0x4728 JUMP JUMPDEST SWAP2 POP DUP2 SWAP1 POP SWAP2 SWAP1 POP JUMP JUMPDEST PUSH32 0x4661696C656420746F2073656E64204574686572000000000000000000000000 PUSH1 0x0 DUP3 ADD MSTORE POP JUMP JUMPDEST PUSH1 0x0 PUSH2 0x4796 PUSH1 0x14 DUP4 PUSH2 0x3D3E JUMP JUMPDEST SWAP2 POP PUSH2 0x47A1 DUP3 PUSH2 0x4760 JUMP JUMPDEST PUSH1 0x20 DUP3 ADD SWAP1 POP SWAP2 SWAP1 POP JUMP JUMPDEST PUSH1 0x0 PUSH1 0x20 DUP3 ADD SWAP1 POP DUP2 DUP2 SUB PUSH1 0x0 DUP4 ADD MSTORE PUSH2 0x47C5 DUP2 PUSH2 0x4789 JUMP JUMPDEST SWAP1 POP SWAP2 SWAP1 POP JUMP JUMPDEST PUSH32 0x416D6F756E74206E6565647320746F206265206D6F7265207468616E20300000 PUSH1 0x0 DUP3 ADD MSTORE POP JUMP JUMPDEST PUSH1 0x0 PUSH2 0x4802 PUSH1 0x1E DUP4 PUSH2 0x3D3E JUMP JUMPDEST SWAP2 POP PUSH2 0x480D DUP3 PUSH2 0x47CC JUMP JUMPDEST PUSH1 0x20 DUP3 ADD SWAP1 POP SWAP2 SWAP1 POP JUMP JUMPDEST PUSH1 0x0 PUSH1 0x20 DUP3 ADD SWAP1 POP DUP2 DUP2 SUB PUSH1 0x0 DUP4 ADD MSTORE PUSH2 0x4831 DUP2 PUSH2 0x47F5 JUMP JUMPDEST SWAP1 POP SWAP2 SWAP1 POP JUMP JUMPDEST PUSH32 0x5072696365206E6565647320746F206265206D6F7265207468616E2030000000 PUSH1 0x0 DUP3 ADD MSTORE POP JUMP JUMPDEST PUSH1 0x0 PUSH2 0x486E PUSH1 0x1D DUP4 PUSH2 0x3D3E JUMP JUMPDEST SWAP2 POP PUSH2 0x4879 DUP3 PUSH2 0x4838 JUMP JUMPDEST PUSH1 0x20 DUP3 ADD SWAP1 POP SWAP2 SWAP1 POP JUMP JUMPDEST PUSH1 0x0 PUSH1 0x20 DUP3 ADD SWAP1 POP DUP2 DUP2 SUB PUSH1 0x0 DUP4 ADD MSTORE PUSH2 0x489D DUP2 PUSH2 0x4861 JUMP JUMPDEST SWAP1 POP SWAP2 SWAP1 POP JUMP JUMPDEST PUSH32 0x4E6F7420666F722073616C650000000000000000000000000000000000000000 PUSH1 0x0 DUP3 ADD MSTORE POP JUMP JUMPDEST PUSH1 0x0 PUSH2 0x48DA PUSH1 0xC DUP4 PUSH2 0x3D3E JUMP JUMPDEST SWAP2 POP PUSH2 0x48E5 DUP3 PUSH2 0x48A4 JUMP JUMPDEST PUSH1 0x20 DUP3 ADD SWAP1 POP SWAP2 SWAP1 POP JUMP JUMPDEST PUSH1 0x0 PUSH1 0x20 DUP3 ADD SWAP1 POP DUP2 DUP2 SUB PUSH1 0x0 DUP4 ADD MSTORE PUSH2 0x4909 DUP2 PUSH2 0x48CD JUMP JUMPDEST SWAP1 POP SWAP2 SWAP1 POP JUMP JUMPDEST PUSH32 0x4E6F7420656E6F7567682065746865722073656E740000000000000000000000 PUSH1 0x0 DUP3 ADD MSTORE POP JUMP JUMPDEST PUSH1 0x0 PUSH2 0x4946 PUSH1 0x15 DUP4 PUSH2 0x3D3E JUMP JUMPDEST SWAP2 POP PUSH2 0x4951 DUP3 PUSH2 0x4910 JUMP JUMPDEST PUSH1 0x20 DUP3 ADD SWAP1 POP SWAP2 SWAP1 POP JUMP JUMPDEST PUSH1 0x0 PUSH1 0x20 DUP3 ADD SWAP1 POP DUP2 DUP2 SUB PUSH1 0x0 DUP4 ADD MSTORE PUSH2 0x4975 DUP2 PUSH2 0x4939 JUMP JUMPDEST SWAP1 POP SWAP2 SWAP1 POP JUMP JUMPDEST PUSH32 0x4F776E6572207374696C6C20646F6573206E6F74206861766520616C6C20746F PUSH1 0x0 DUP3 ADD MSTORE PUSH32 0x6B656E7300000000000000000000000000000000000000000000000000000000 PUSH1 0x20 DUP3 ADD MSTORE POP JUMP JUMPDEST PUSH1 0x0 PUSH2 0x49D8 PUSH1 0x24 DUP4 PUSH2 0x3D3E JUMP JUMPDEST SWAP2 POP PUSH2 0x49E3 DUP3 PUSH2 0x497C JUMP JUMPDEST PUSH1 0x40 DUP3 ADD SWAP1 POP SWAP2 SWAP1 POP JUMP JUMPDEST PUSH1 0x0 PUSH1 0x20 DUP3 ADD SWAP1 POP DUP2 DUP2 SUB PUSH1 0x0 DUP4 ADD MSTORE PUSH2 0x4A07 DUP2 PUSH2 0x49CB JUMP JUMPDEST SWAP1 POP SWAP2 SWAP1 POP JUMP JUMPDEST PUSH1 0x0 PUSH1 0x60 DUP3 ADD SWAP1 POP PUSH2 0x4A23 PUSH1 0x0 DUP4 ADD DUP7 PUSH2 0x3CDE JUMP JUMPDEST PUSH2 0x4A30 PUSH1 0x20 DUP4 ADD DUP6 PUSH2 0x3CDE JUMP JUMPDEST PUSH2 0x4A3D PUSH1 0x40 DUP4 ADD DUP5 PUSH2 0x3CED JUMP JUMPDEST SWAP5 SWAP4 POP POP POP POP JUMP JUMPDEST PUSH32 0x4E6F7420666F722053616C650000000000000000000000000000000000000000 PUSH1 0x0 DUP3 ADD MSTORE POP JUMP JUMPDEST PUSH1 0x0 PUSH2 0x4A7B PUSH1 0xC DUP4 PUSH2 0x3D3E JUMP JUMPDEST SWAP2 POP PUSH2 0x4A86 DUP3 PUSH2 0x4A45 JUMP JUMPDEST PUSH1 0x20 DUP3 ADD SWAP1 POP SWAP2 SWAP1 POP JUMP JUMPDEST PUSH1 0x0 PUSH1 0x20 DUP3 ADD SWAP1 POP DUP2 DUP2 SUB PUSH1 0x0 DUP4 ADD MSTORE PUSH2 0x4AAA DUP2 PUSH2 0x4A6E JUMP JUMPDEST SWAP1 POP SWAP2 SWAP1 POP JUMP JUMPDEST PUSH32 0x496E76616C6964205472616E73616374696F6E20496E64657800000000000000 PUSH1 0x0 DUP3 ADD MSTORE POP JUMP JUMPDEST PUSH1 0x0 PUSH2 0x4AE7 PUSH1 0x19 DUP4 PUSH2 0x3D3E JUMP JUMPDEST SWAP2 POP PUSH2 0x4AF2 DUP3 PUSH2 0x4AB1 JUMP JUMPDEST PUSH1 0x20 DUP3 ADD SWAP1 POP SWAP2 SWAP1 POP JUMP JUMPDEST PUSH1 0x0 PUSH1 0x20 DUP3 ADD SWAP1 POP DUP2 DUP2 SUB PUSH1 0x0 DUP4 ADD MSTORE PUSH2 0x4B16 DUP2 PUSH2 0x4ADA JUMP JUMPDEST SWAP1 POP SWAP2 SWAP1 POP JUMP JUMPDEST PUSH32 0x4E6F7420656E6F75676820636F6E6669726D6174696F6E730000000000000000 PUSH1 0x0 DUP3 ADD MSTORE POP JUMP JUMPDEST PUSH1 0x0 PUSH2 0x4B53 PUSH1 0x18 DUP4 PUSH2 0x3D3E JUMP JUMPDEST SWAP2 POP PUSH2 0x4B5E DUP3 PUSH2 0x4B1D JUMP JUMPDEST PUSH1 0x20 DUP3 ADD SWAP1 POP SWAP2 SWAP1 POP JUMP JUMPDEST PUSH1 0x0 PUSH1 0x20 DUP3 ADD SWAP1 POP DUP2 DUP2 SUB PUSH1 0x0 DUP4 ADD MSTORE PUSH2 0x4B82 DUP2 PUSH2 0x4B46 JUMP JUMPDEST SWAP1 POP SWAP2 SWAP1 POP JUMP JUMPDEST PUSH32 0x45524332303A2064656372656173656420616C6C6F77616E63652062656C6F77 PUSH1 0x0 DUP3 ADD MSTORE PUSH32 0x207A65726F000000000000000000000000000000000000000000000000000000 PUSH1 0x20 DUP3 ADD MSTORE POP JUMP JUMPDEST PUSH1 0x0 PUSH2 0x4BE5 PUSH1 0x25 DUP4 PUSH2 0x3D3E JUMP JUMPDEST SWAP2 POP PUSH2 0x4BF0 DUP3 PUSH2 0x4B89 JUMP JUMPDEST PUSH1 0x40 DUP3 ADD SWAP1 POP SWAP2 SWAP1 POP JUMP JUMPDEST PUSH1 0x0 PUSH1 0x20 DUP3 ADD SWAP1 POP DUP2 DUP2 SUB PUSH1 0x0 DUP4 ADD MSTORE PUSH2 0x4C14 DUP2 PUSH2 0x4BD8 JUMP JUMPDEST SWAP1 POP SWAP2 SWAP1 POP JUMP JUMPDEST PUSH32 0x526564656D7074696F6E206E6F7420617661696C61626C650000000000000000 PUSH1 0x0 DUP3 ADD MSTORE POP JUMP JUMPDEST PUSH1 0x0 PUSH2 0x4C51 PUSH1 0x18 DUP4 PUSH2 0x3D3E JUMP JUMPDEST SWAP2 POP PUSH2 0x4C5C DUP3 PUSH2 0x4C1B JUMP JUMPDEST PUSH1 0x20 DUP3 ADD SWAP1 POP SWAP2 SWAP1 POP JUMP JUMPDEST PUSH1 0x0 PUSH1 0x20 DUP3 ADD SWAP1 POP DUP2 DUP2 SUB PUSH1 0x0 DUP4 ADD MSTORE PUSH2 0x4C80 DUP2 PUSH2 0x4C44 JUMP JUMPDEST SWAP1 POP SWAP2 SWAP1 POP JUMP JUMPDEST PUSH32 0x4E487B7100000000000000000000000000000000000000000000000000000000 PUSH1 0x0 MSTORE PUSH1 0x12 PUSH1 0x4 MSTORE PUSH1 0x24 PUSH1 0x0 REVERT JUMPDEST PUSH1 0x0 PUSH2 0x4CC1 DUP3 PUSH2 0x3C49 JUMP JUMPDEST SWAP2 POP PUSH2 0x4CCC DUP4 PUSH2 0x3C49 JUMP JUMPDEST SWAP3 POP DUP3 PUSH2 0x4CDC JUMPI PUSH2 0x4CDB PUSH2 0x4C87 JUMP JUMPDEST JUMPDEST DUP3 DUP3 DIV SWAP1 POP SWAP3 SWAP2 POP POP JUMP JUMPDEST PUSH32 0x50726F706F736564207072696365206C65737320746861742073616C65207072 PUSH1 0x0 DUP3 ADD MSTORE PUSH32 0x6963650000000000000000000000000000000000000000000000000000000000 PUSH1 0x20 DUP3 ADD MSTORE POP JUMP JUMPDEST PUSH1 0x0 PUSH2 0x4D43 PUSH1 0x23 DUP4 PUSH2 0x3D3E JUMP JUMPDEST SWAP2 POP PUSH2 0x4D4E DUP3 PUSH2 0x4CE7 JUMP JUMPDEST PUSH1 0x40 DUP3 ADD SWAP1 POP SWAP2 SWAP1 POP JUMP JUMPDEST PUSH1 0x0 PUSH1 0x20 DUP3 ADD SWAP1 POP DUP2 DUP2 SUB PUSH1 0x0 DUP4 ADD MSTORE PUSH2 0x4D72 DUP2 PUSH2 0x4D36 JUMP JUMPDEST SWAP1 POP SWAP2 SWAP1 POP JUMP JUMPDEST PUSH32 0x4F776E61626C653A206E6577206F776E657220697320746865207A65726F2061 PUSH1 0x0 DUP3 ADD MSTORE PUSH32 0x6464726573730000000000000000000000000000000000000000000000000000 PUSH1 0x20 DUP3 ADD MSTORE POP JUMP JUMPDEST PUSH1 0x0 PUSH2 0x4DD5 PUSH1 0x26 DUP4 PUSH2 0x3D3E JUMP JUMPDEST SWAP2 POP PUSH2 0x4DE0 DUP3 PUSH2 0x4D79 JUMP JUMPDEST PUSH1 0x40 DUP3 ADD SWAP1 POP SWAP2 SWAP1 POP JUMP JUMPDEST PUSH1 0x0 PUSH1 0x20 DUP3 ADD SWAP1 POP DUP2 DUP2 SUB PUSH1 0x0 DUP4 ADD MSTORE PUSH2 0x4E04 DUP2 PUSH2 0x4DC8 JUMP JUMPDEST SWAP1 POP SWAP2 SWAP1 POP JUMP JUMPDEST PUSH32 0x4E6F742061207374616B65686F6C646572000000000000000000000000000000 PUSH1 0x0 DUP3 ADD MSTORE POP JUMP JUMPDEST PUSH1 0x0 PUSH2 0x4E41 PUSH1 0x11 DUP4 PUSH2 0x3D3E JUMP JUMPDEST SWAP2 POP PUSH2 0x4E4C DUP3 PUSH2 0x4E0B JUMP JUMPDEST PUSH1 0x20 DUP3 ADD SWAP1 POP SWAP2 SWAP1 POP JUMP JUMPDEST PUSH1 0x0 PUSH1 0x20 DUP3 ADD SWAP1 POP DUP2 DUP2 SUB PUSH1 0x0 DUP4 ADD MSTORE PUSH2 0x4E70 DUP2 PUSH2 0x4E34 JUMP JUMPDEST SWAP1 POP SWAP2 SWAP1 POP JUMP JUMPDEST PUSH32 0x416C726561647920436F6E6669726D6564000000000000000000000000000000 PUSH1 0x0 DUP3 ADD MSTORE POP JUMP JUMPDEST PUSH1 0x0 PUSH2 0x4EAD PUSH1 0x11 DUP4 PUSH2 0x3D3E JUMP JUMPDEST SWAP2 POP PUSH2 0x4EB8 DUP3 PUSH2 0x4E77 JUMP JUMPDEST PUSH1 0x20 DUP3 ADD SWAP1 POP SWAP2 SWAP1 POP JUMP JUMPDEST PUSH1 0x0 PUSH1 0x20 DUP3 ADD SWAP1 POP DUP2 DUP2 SUB PUSH1 0x0 DUP4 ADD MSTORE PUSH2 0x4EDC DUP2 PUSH2 0x4EA0 JUMP JUMPDEST SWAP1 POP SWAP2 SWAP1 POP JUMP JUMPDEST PUSH1 0x0 PUSH2 0x4EEE DUP3 PUSH2 0x3C49 JUMP JUMPDEST SWAP2 POP PUSH32 0xFFFFFFFFFFFFFFFFFFFFFFFFFFFFFFFFFFFFFFFFFFFFFFFFFFFFFFFFFFFFFFFF DUP3 SUB PUSH2 0x4F20 JUMPI PUSH2 0x4F1F PUSH2 0x449F JUMP JUMPDEST JUMPDEST PUSH1 0x1 DUP3 ADD SWAP1 POP SWAP2 SWAP1 POP JUMP JUMPDEST PUSH32 0x4E6F7420536F6C64205965740000000000000000000000000000000000000000 PUSH1 0x0 DUP3 ADD MSTORE POP JUMP JUMPDEST PUSH1 0x0 PUSH2 0x4F61 PUSH1 0xC DUP4 PUSH2 0x3D3E JUMP JUMPDEST SWAP2 POP PUSH2 0x4F6C DUP3 PUSH2 0x4F2B JUMP JUMPDEST PUSH1 0x20 DUP3 ADD SWAP1 POP SWAP2 SWAP1 POP JUMP JUMPDEST PUSH1 0x0 PUSH1 0x20 DUP3 ADD SWAP1 POP DUP2 DUP2 SUB PUSH1 0x0 DUP4 ADD MSTORE PUSH2 0x4F90 DUP2 PUSH2 0x4F54 JUMP JUMPDEST SWAP1 POP SWAP2 SWAP1 POP JUMP JUMPDEST PUSH32 0x4E6F74207468652066696E616C20627579657200000000000000000000000000 PUSH1 0x0 DUP3 ADD MSTORE POP JUMP JUMPDEST PUSH1 0x0 PUSH2 0x4FCD PUSH1 0x13 DUP4 PUSH2 0x3D3E JUMP JUMPDEST SWAP2 POP PUSH2 0x4FD8 DUP3 PUSH2 0x4F97 JUMP JUMPDEST PUSH1 0x20 DUP3 ADD SWAP1 POP SWAP2 SWAP1 POP JUMP JUMPDEST PUSH1 0x0 PUSH1 0x20 DUP3 ADD SWAP1 POP DUP2 DUP2 SUB PUSH1 0x0 DUP4 ADD MSTORE PUSH2 0x4FFC DUP2 PUSH2 0x4FC0 JUMP JUMPDEST SWAP1 POP SWAP2 SWAP1 POP JUMP JUMPDEST PUSH32 0x416C726561647920696E697469616C697A656400000000000000000000000000 PUSH1 0x0 DUP3 ADD MSTORE POP JUMP JUMPDEST PUSH1 0x0 PUSH2 0x5039 PUSH1 0x13 DUP4 PUSH2 0x3D3E JUMP JUMPDEST SWAP2 POP PUSH2 0x5044 DUP3 PUSH2 0x5003 JUMP JUMPDEST PUSH1 0x20 DUP3 ADD SWAP1 POP SWAP2 SWAP1 POP JUMP JUMPDEST PUSH1 0x0 PUSH1 0x20 DUP3 ADD SWAP1 POP DUP2 DUP2 SUB PUSH1 0x0 DUP4 ADD MSTORE PUSH2 0x5068 DUP2 PUSH2 0x502C JUMP JUMPDEST SWAP1 POP SWAP2 SWAP1 POP JUMP JUMPDEST PUSH32 0x4F6E6C792054656E616E742063616E207061792072656E740000000000000000 PUSH1 0x0 DUP3 ADD MSTORE POP JUMP JUMPDEST PUSH1 0x0 PUSH2 0x50A5 PUSH1 0x18 DUP4 PUSH2 0x3D3E JUMP JUMPDEST SWAP2 POP PUSH2 0x50B0 DUP3 PUSH2 0x506F JUMP JUMPDEST PUSH1 0x20 DUP3 ADD SWAP1 POP SWAP2 SWAP1 POP JUMP JUMPDEST PUSH1 0x0 PUSH1 0x20 DUP3 ADD SWAP1 POP DUP2 DUP2 SUB PUSH1 0x0 DUP4 ADD MSTORE PUSH2 0x50D4 DUP2 PUSH2 0x5098 JUMP JUMPDEST SWAP1 POP SWAP2 SWAP1 POP JUMP JUMPDEST PUSH32 0x53656E642045786163742052656E740000000000000000000000000000000000 PUSH1 0x0 DUP3 ADD MSTORE POP JUMP JUMPDEST PUSH1 0x0 PUSH2 0x5111 PUSH1 0xF DUP4 PUSH2 0x3D3E JUMP JUMPDEST SWAP2 POP PUSH2 0x511C DUP3 PUSH2 0x50DB JUMP JUMPDEST PUSH1 0x20 DUP3 ADD SWAP1 POP SWAP2 SWAP1 POP JUMP JUMPDEST PUSH1 0x0 PUSH1 0x20 DUP3 ADD SWAP1 POP DUP2 DUP2 SUB PUSH1 0x0 DUP4 ADD MSTORE PUSH2 0x5140 DUP2 PUSH2 0x5104 JUMP JUMPDEST SWAP1 POP SWAP2 SWAP1 POP JUMP JUMPDEST PUSH32 0x45524332303A20617070726F76652066726F6D20746865207A65726F20616464 PUSH1 0x0 DUP3 ADD MSTORE PUSH32 0x7265737300000000000000000000000000000000000000000000000000000000 PUSH1 0x20 DUP3 ADD MSTORE POP JUMP JUMPDEST PUSH1 0x0 PUSH2 0x51A3 PUSH1 0x24 DUP4 PUSH2 0x3D3E JUMP JUMPDEST SWAP2 POP PUSH2 0x51AE DUP3 PUSH2 0x5147 JUMP JUMPDEST PUSH1 0x40 DUP3 ADD SWAP1 POP SWAP2 SWAP1 POP JUMP JUMPDEST PUSH1 0x0 PUSH1 0x20 DUP3 ADD SWAP1 POP DUP2 DUP2 SUB PUSH1 0x0 DUP4 ADD MSTORE PUSH2 0x51D2 DUP2 PUSH2 0x5196 JUMP JUMPDEST SWAP1 POP SWAP2 SWAP1 POP JUMP JUMPDEST PUSH32 0x45524332303A20617070726F766520746F20746865207A65726F206164647265 PUSH1 0x0 DUP3 ADD MSTORE PUSH32 0x7373000000000000000000000000000000000000000000000000000000000000 PUSH1 0x20 DUP3 ADD MSTORE POP JUMP JUMPDEST PUSH1 0x0 PUSH2 0x5235 PUSH1 0x22 DUP4 PUSH2 0x3D3E JUMP JUMPDEST SWAP2 POP PUSH2 0x5240 DUP3 PUSH2 0x51D9 JUMP JUMPDEST PUSH1 0x40 DUP3 ADD SWAP1 POP SWAP2 SWAP1 POP JUMP JUMPDEST PUSH1 0x0 PUSH1 0x20 DUP3 ADD SWAP1 POP DUP2 DUP2 SUB PUSH1 0x0 DUP4 ADD MSTORE PUSH2 0x5264 DUP2 PUSH2 0x5228 JUMP JUMPDEST SWAP1 POP SWAP2 SWAP1 POP JUMP JUMPDEST PUSH32 0x4F776E61626C653A2063616C6C6572206973206E6F7420746865206F776E6572 PUSH1 0x0 DUP3 ADD MSTORE POP JUMP JUMPDEST PUSH1 0x0 PUSH2 0x52A1 PUSH1 0x20 DUP4 PUSH2 0x3D3E JUMP JUMPDEST SWAP2 POP PUSH2 0x52AC DUP3 PUSH2 0x526B JUMP JUMPDEST PUSH1 0x20 DUP3 ADD SWAP1 POP SWAP2 SWAP1 POP JUMP JUMPDEST PUSH1 0x0 PUSH1 0x20 DUP3 ADD SWAP1 POP DUP2 DUP2 SUB PUSH1 0x0 DUP4 ADD MSTORE PUSH2 0x52D0 DUP2 PUSH2 0x5294 JUMP JUMPDEST SWAP1 POP SWAP2 SWAP1 POP JUMP JUMPDEST PUSH32 0x45524332303A20696E73756666696369656E7420616C6C6F77616E6365000000 PUSH1 0x0 DUP3 ADD MSTORE POP JUMP JUMPDEST PUSH1 0x0 PUSH2 0x530D PUSH1 0x1D DUP4 PUSH2 0x3D3E JUMP JUMPDEST SWAP2 POP PUSH2 0x5318 DUP3 PUSH2 0x52D7 JUMP JUMPDEST PUSH1 0x20 DUP3 ADD SWAP1 POP SWAP2 SWAP1 POP JUMP JUMPDEST PUSH1 0x0 PUSH1 0x20 DUP3 ADD SWAP1 POP DUP2 DUP2 SUB PUSH1 0x0 DUP4 ADD MSTORE PUSH2 0x533C DUP2 PUSH2 0x5300 JUMP JUMPDEST SWAP1 POP SWAP2 SWAP1 POP JUMP JUMPDEST PUSH32 0x45524332303A207472616E736665722066726F6D20746865207A65726F206164 PUSH1 0x0 DUP3 ADD MSTORE PUSH32 0x6472657373000000000000000000000000000000000000000000000000000000 PUSH1 0x20 DUP3 ADD MSTORE POP JUMP JUMPDEST PUSH1 0x0 PUSH2 0x539F PUSH1 0x25 DUP4 PUSH2 0x3D3E JUMP JUMPDEST SWAP2 POP PUSH2 0x53AA DUP3 PUSH2 0x5343 JUMP JUMPDEST PUSH1 0x40 DUP3 ADD SWAP1 POP SWAP2 SWAP1 POP JUMP JUMPDEST PUSH1 0x0 PUSH1 0x20 DUP3 ADD SWAP1 POP DUP2 DUP2 SUB PUSH1 0x0 DUP4 ADD MSTORE PUSH2 0x53CE DUP2 PUSH2 0x5392 JUMP JUMPDEST SWAP1 POP SWAP2 SWAP1 POP JUMP JUMPDEST PUSH32 0x45524332303A207472616E7366657220746F20746865207A65726F2061646472 PUSH1 0x0 DUP3 ADD MSTORE PUSH32 0x6573730000000000000000000000000000000000000000000000000000000000 PUSH1 0x20 DUP3 ADD MSTORE POP JUMP JUMPDEST PUSH1 0x0 PUSH2 0x5431 PUSH1 0x23 DUP4 PUSH2 0x3D3E JUMP JUMPDEST SWAP2 POP PUSH2 0x543C DUP3 PUSH2 0x53D5 JUMP JUMPDEST PUSH1 0x40 DUP3 ADD SWAP1 POP SWAP2 SWAP1 POP JUMP JUMPDEST PUSH1 0x0 PUSH1 0x20 DUP3 ADD SWAP1 POP DUP2 DUP2 SUB PUSH1 0x0 DUP4 ADD MSTORE PUSH2 0x5460 DUP2 PUSH2 0x5424 JUMP JUMPDEST SWAP1 POP SWAP2 SWAP1 POP JUMP JUMPDEST PUSH32 0x45524332303A207472616E7366657220616D6F756E7420657863656564732062 PUSH1 0x0 DUP3 ADD MSTORE PUSH32 0x616C616E63650000000000000000000000000000000000000000000000000000 PUSH1 0x20 DUP3 ADD MSTORE POP JUMP JUMPDEST PUSH1 0x0 PUSH2 0x54C3 PUSH1 0x26 DUP4 PUSH2 0x3D3E JUMP JUMPDEST SWAP2 POP PUSH2 0x54CE DUP3 PUSH2 0x5467 JUMP JUMPDEST PUSH1 0x40 DUP3 ADD SWAP1 POP SWAP2 SWAP1 POP JUMP JUMPDEST PUSH1 0x0 PUSH1 0x20 DUP3 ADD SWAP1 POP DUP2 DUP2 SUB PUSH1 0x0 DUP4 ADD MSTORE PUSH2 0x54F2 DUP2 PUSH2 0x54B6 JUMP JUMPDEST SWAP1 POP SWAP2 SWAP1 POP JUMP JUMPDEST PUSH32 0x45524332303A206275726E2066726F6D20746865207A65726F20616464726573 PUSH1 0x0 DUP3 ADD MSTORE PUSH32 0x7300000000000000000000000000000000000000000000000000000000000000 PUSH1 0x20 DUP3 ADD MSTORE POP JUMP JUMPDEST PUSH1 0x0 PUSH2 0x5555 PUSH1 0x21 DUP4 PUSH2 0x3D3E JUMP JUMPDEST SWAP2 POP PUSH2 0x5560 DUP3 PUSH2 0x54F9 JUMP JUMPDEST PUSH1 0x40 DUP3 ADD SWAP1 POP SWAP2 SWAP1 POP JUMP JUMPDEST PUSH1 0x0 PUSH1 0x20 DUP3 ADD SWAP1 POP DUP2 DUP2 SUB PUSH1 0x0 DUP4 ADD MSTORE PUSH2 0x5584 DUP2 PUSH2 0x5548 JUMP JUMPDEST SWAP1 POP SWAP2 SWAP1 POP JUMP JUMPDEST PUSH32 0x45524332303A206275726E20616D6F756E7420657863656564732062616C616E PUSH1 0x0 DUP3 ADD MSTORE PUSH32 0x6365000000000000000000000000000000000000000000000000000000000000 PUSH1 0x20 DUP3 ADD MSTORE POP JUMP JUMPDEST PUSH1 0x0 PUSH2 0x55E7 PUSH1 0x22 DUP4 PUSH2 0x3D3E JUMP JUMPDEST SWAP2 POP PUSH2 0x55F2 DUP3 PUSH2 0x558B JUMP JUMPDEST PUSH1 0x40 DUP3 ADD SWAP1 POP SWAP2 SWAP1 POP JUMP JUMPDEST PUSH1 0x0 PUSH1 0x20 DUP3 ADD SWAP1 POP DUP2 DUP2 SUB PUSH1 0x0 DUP4 ADD MSTORE PUSH2 0x5616 DUP2 PUSH2 0x55DA JUMP JUMPDEST SWAP1 POP SWAP2 SWAP1 POP JUMP JUMPDEST PUSH32 0x45524332303A206D696E7420746F20746865207A65726F206164647265737300 PUSH1 0x0 DUP3 ADD MSTORE POP JUMP JUMPDEST PUSH1 0x0 PUSH2 0x5653 PUSH1 0x1F DUP4 PUSH2 0x3D3E JUMP JUMPDEST SWAP2 POP PUSH2 0x565E DUP3 PUSH2 0x561D JUMP JUMPDEST PUSH1 0x20 DUP3 ADD SWAP1 POP SWAP2 SWAP1 POP JUMP JUMPDEST PUSH1 0x0 PUSH1 0x20 DUP3 ADD SWAP1 POP DUP2 DUP2 SUB PUSH1 0x0 DUP4 ADD MSTORE PUSH2 0x5682 DUP2 PUSH2 0x5646 JUMP JUMPDEST SWAP1 POP SWAP2 SWAP1 POP JUMP INVALID LOG2 PUSH5 0x6970667358 0x22 SLT KECCAK256 PUSH24 0xCA16732C3346D992ED91A33098DAB82A5833D5A06DEB91CC ORIGIN PUSH21 0x7D5E63BE264736F6C634300081100330000000000 "},"methodIdentifiers":{"acceptRequest(uint256,uint256)":"de673888","accumulated()":"7a044323","allowance(address,address)":"dd62ed3e","approve(address,uint256)":"095ea7b3","approveProposal(uint256)":"98951b56","balanceOf(address)":"70a08231","buyStakeFromStakeholder(uint256)":"3ab26198","canRedeem()":"f97ed509","collection()":"7de1e536","confirmProposal(uint256)":"f4a4f4d2","decimals()":"313ce567","decreaseAllowance(address,uint256)":"a457c2d7","deposit()":"d0e30db0","distribute()":"e4fc6b6d","forSale()":"466ccac0","getStakeSales()":"3fb95e27","increaseAllowance(address,uint256)":"39509351","initialize(uint256)":"fe4b84df","initialized()":"158ef93e","isConfirmed(uint256,address)":"80f59a65","isStakeholder(address)":"ef037b90","name()":"06fdde03","numTokens()":"8e499bcf","onERC721Received(address,address,uint256,bytes)":"150b7a02","owner()":"8da5cb5b","proposals(uint256)":"013cf08b","purchase()":"64edfbf0","purchaseBuyer()":"fdb5866a","putForSale(uint256)":"1f078ced","redeem()":"be040fb0","rejectRequest(uint256)":"2d7788db","renounceOwnership()":"715018a6","rentPayment()":"ff4c8482","requestToRent()":"4cc1eba5","revenues(address)":"78ae98c8","salePrice()":"f51f96dd","sellStake(uint256,uint256)":"58116227","stakeSales(uint256)":"b6b6dd8f","stakeholders(uint256)":"1d6b8b72","status()":"200d2ed2","submitProposalToBuy(uint256)":"ea0cb51e","symbol()":"95d89b41","tenantRequests(uint256)":"0e62bbae","tenants(uint256)":"bd2ba85d","tokenId()":"17d70f7c","totalSupply()":"18160ddd","transfer(address,uint256)":"a9059cbb","transferFrom(address,address,uint256)":"23b872dd","transferOwnership(address)":"f2fde38b"}}}}}