{
  "_format": "hh-sol-artifact-1",
  "contractName": "fractionalReal",
  "sourceName": "contracts/fractionalReal.sol",
  "abi": [
    {
      "inputs": [
        {
          "internalType": "address",
          "name": "_owner",
          "type": "address"
        },
        {
          "internalType": "string",
          "name": "name_",
          "type": "string"
        },
        {
          "internalType": "string",
          "name": "symbol_",
          "type": "string"
        }
      ],
      "stateMutability": "nonpayable",
      "type": "constructor"
    },
    {
      "anonymous": false,
      "inputs": [
        {
          "indexed": true,
          "internalType": "address",
          "name": "owner",
          "type": "address"
        },
        {
          "indexed": true,
          "internalType": "address",
          "name": "spender",
          "type": "address"
        },
        {
          "indexed": false,
          "internalType": "uint256",
          "name": "value",
          "type": "uint256"
        }
      ],
      "name": "Approval",
      "type": "event"
    },
    {
      "anonymous": false,
      "inputs": [
        {
          "indexed": true,
          "internalType": "address",
          "name": "previousOwner",
          "type": "address"
        },
        {
          "indexed": true,
          "internalType": "address",
          "name": "newOwner",
          "type": "address"
        }
      ],
      "name": "OwnershipTransferred",
      "type": "event"
    },
    {
      "anonymous": false,
      "inputs": [
        {
          "indexed": true,
          "internalType": "address",
          "name": "from",
          "type": "address"
        },
        {
          "indexed": true,
          "internalType": "address",
          "name": "to",
          "type": "address"
        },
        {
          "indexed": false,
          "internalType": "uint256",
          "name": "value",
          "type": "uint256"
        }
      ],
      "name": "Transfer",
      "type": "event"
    },
    {
      "inputs": [
        {
          "internalType": "uint256",
          "name": "_index",
          "type": "uint256"
        },
        {
          "internalType": "uint256",
          "name": "_rent",
          "type": "uint256"
        }
      ],
      "name": "acceptRequest",
      "outputs": [
        {
          "internalType": "bool",
          "name": "",
          "type": "bool"
        }
      ],
      "stateMutability": "nonpayable",
      "type": "function"
    },
    {
      "inputs": [],
      "name": "accumulated",
      "outputs": [
        {
          "internalType": "uint256",
          "name": "",
          "type": "uint256"
        }
      ],
      "stateMutability": "view",
      "type": "function"
    },
    {
      "inputs": [
        {
          "internalType": "address",
          "name": "owner",
          "type": "address"
        },
        {
          "internalType": "address",
          "name": "spender",
          "type": "address"
        }
      ],
      "name": "allowance",
      "outputs": [
        {
          "internalType": "uint256",
          "name": "",
          "type": "uint256"
        }
      ],
      "stateMutability": "view",
      "type": "function"
    },
    {
      "inputs": [
        {
          "internalType": "address",
          "name": "spender",
          "type": "address"
        },
        {
          "internalType": "uint256",
          "name": "amount",
          "type": "uint256"
        }
      ],
      "name": "approve",
      "outputs": [
        {
          "internalType": "bool",
          "name": "",
          "type": "bool"
        }
      ],
      "stateMutability": "nonpayable",
      "type": "function"
    },
    {
      "inputs": [
        {
          "internalType": "uint256",
          "name": "_txIndex",
          "type": "uint256"
        }
      ],
      "name": "approveProposal",
      "outputs": [],
      "stateMutability": "nonpayable",
      "type": "function"
    },
    {
      "inputs": [
        {
          "internalType": "address",
          "name": "account",
          "type": "address"
        }
      ],
      "name": "balanceOf",
      "outputs": [
        {
          "internalType": "uint256",
          "name": "",
          "type": "uint256"
        }
      ],
      "stateMutability": "view",
      "type": "function"
    },
    {
      "inputs": [
        {
          "internalType": "uint256",
          "name": "_index",
          "type": "uint256"
        }
      ],
      "name": "buyStakeFromStakeholder",
      "outputs": [
        {
          "internalType": "bool",
          "name": "",
          "type": "bool"
        }
      ],
      "stateMutability": "payable",
      "type": "function"
    },
    {
      "inputs": [],
      "name": "canRedeem",
      "outputs": [
        {
          "internalType": "bool",
          "name": "",
          "type": "bool"
        }
      ],
      "stateMutability": "view",
      "type": "function"
    },
    {
      "inputs": [],
      "name": "collection",
      "outputs": [
        {
          "internalType": "contract IERC721",
          "name": "",
          "type": "address"
        }
      ],
      "stateMutability": "view",
      "type": "function"
    },
    {
      "inputs": [
        {
          "internalType": "uint256",
          "name": "_txIndex",
          "type": "uint256"
        }
      ],
      "name": "confirmProposal",
      "outputs": [],
      "stateMutability": "nonpayable",
      "type": "function"
    },
    {
      "inputs": [],
      "name": "decimals",
      "outputs": [
        {
          "internalType": "uint8",
          "name": "",
          "type": "uint8"
        }
      ],
      "stateMutability": "view",
      "type": "function"
    },
    {
      "inputs": [
        {
          "internalType": "address",
          "name": "spender",
          "type": "address"
        },
        {
          "internalType": "uint256",
          "name": "subtractedValue",
          "type": "uint256"
        }
      ],
      "name": "decreaseAllowance",
      "outputs": [
        {
          "internalType": "bool",
          "name": "",
          "type": "bool"
        }
      ],
      "stateMutability": "nonpayable",
      "type": "function"
    },
    {
      "inputs": [],
      "name": "deposit",
      "outputs": [],
      "stateMutability": "payable",
      "type": "function"
    },
    {
      "inputs": [],
      "name": "distribute",
      "outputs": [],
      "stateMutability": "nonpayable",
      "type": "function"
    },
    {
      "inputs": [],
      "name": "forSale",
      "outputs": [
        {
          "internalType": "bool",
          "name": "",
          "type": "bool"
        }
      ],
      "stateMutability": "view",
      "type": "function"
    },
    {
      "inputs": [],
      "name": "getStakeSales",
      "outputs": [
        {
          "components": [
            {
              "internalType": "address",
              "name": "stakeholder",
              "type": "address"
            },
            {
              "internalType": "uint256",
              "name": "noOfTokens",
              "type": "uint256"
            },
            {
              "internalType": "uint256",
              "name": "priceOfToken",
              "type": "uint256"
            }
          ],
          "internalType": "struct fractionalReal.stakeSale[]",
          "name": "",
          "type": "tuple[]"
        }
      ],
      "stateMutability": "view",
      "type": "function"
    },
    {
      "inputs": [
        {
          "internalType": "address",
          "name": "spender",
          "type": "address"
        },
        {
          "internalType": "uint256",
          "name": "addedValue",
          "type": "uint256"
        }
      ],
      "name": "increaseAllowance",
      "outputs": [
        {
          "internalType": "bool",
          "name": "",
          "type": "bool"
        }
      ],
      "stateMutability": "nonpayable",
      "type": "function"
    },
    {
      "inputs": [
        {
          "internalType": "uint256",
          "name": "_noOfTokens",
          "type": "uint256"
        }
      ],
      "name": "initialize",
      "outputs": [],
      "stateMutability": "nonpayable",
      "type": "function"
    },
    {
      "inputs": [],
      "name": "initialized",
      "outputs": [
        {
          "internalType": "bool",
          "name": "",
          "type": "bool"
        }
      ],
      "stateMutability": "view",
      "type": "function"
    },
    {
      "inputs": [
        {
          "internalType": "uint256",
          "name": "",
          "type": "uint256"
        },
        {
          "internalType": "address",
          "name": "",
          "type": "address"
        }
      ],
      "name": "isConfirmed",
      "outputs": [
        {
          "internalType": "bool",
          "name": "",
          "type": "bool"
        }
      ],
      "stateMutability": "view",
      "type": "function"
    },
    {
      "inputs": [
        {
          "internalType": "address",
          "name": "_address",
          "type": "address"
        }
      ],
      "name": "isStakeholder",
      "outputs": [
        {
          "internalType": "bool",
          "name": "",
          "type": "bool"
        },
        {
          "internalType": "uint256",
          "name": "",
          "type": "uint256"
        }
      ],
      "stateMutability": "view",
      "type": "function"
    },
    {
      "inputs": [],
      "name": "name",
      "outputs": [
        {
          "internalType": "string",
          "name": "",
          "type": "string"
        }
      ],
      "stateMutability": "view",
      "type": "function"
    },
    {
      "inputs": [],
      "name": "numTokens",
      "outputs": [
        {
          "internalType": "uint256",
          "name": "",
          "type": "uint256"
        }
      ],
      "stateMutability": "view",
      "type": "function"
    },
    {
      "inputs": [
        {
          "internalType": "address",
          "name": "",
          "type": "address"
        },
        {
          "internalType": "address",
          "name": "",
          "type": "address"
        },
        {
          "internalType": "uint256",
          "name": "",
          "type": "uint256"
        },
        {
          "internalType": "bytes",
          "name": "",
          "type": "bytes"
        }
      ],
      "name": "onERC721Received",
      "outputs": [
        {
          "internalType": "bytes4",
          "name": "",
          "type": "bytes4"
        }
      ],
      "stateMutability": "nonpayable",
      "type": "function"
    },
    {
      "inputs": [],
      "name": "owner",
      "outputs": [
        {
          "internalType": "address",
          "name": "",
          "type": "address"
        }
      ],
      "stateMutability": "view",
      "type": "function"
    },
    {
      "inputs": [
        {
          "internalType": "uint256",
          "name": "",
          "type": "uint256"
        }
      ],
      "name": "proposals",
      "outputs": [
        {
          "internalType": "address",
          "name": "buyer",
          "type": "address"
        },
        {
          "internalType": "uint256",
          "name": "proposedPrice",
          "type": "uint256"
        },
        {
          "internalType": "uint256",
          "name": "noOfConfirmations",
          "type": "uint256"
        }
      ],
      "stateMutability": "view",
      "type": "function"
    },
    {
      "inputs": [],
      "name": "purchase",
      "outputs": [],
      "stateMutability": "payable",
      "type": "function"
    },
    {
      "inputs": [],
      "name": "purchaseBuyer",
      "outputs": [],
      "stateMutability": "payable",
      "type": "function"
    },
    {
      "inputs": [
        {
          "internalType": "uint256",
          "name": "price",
          "type": "uint256"
        }
      ],
      "name": "putForSale",
      "outputs": [],
      "stateMutability": "nonpayable",
      "type": "function"
    },
    {
      "inputs": [],
      "name": "redeem",
      "outputs": [],
      "stateMutability": "nonpayable",
      "type": "function"
    },
    {
      "inputs": [
        {
          "internalType": "uint256",
          "name": "_index",
          "type": "uint256"
        }
      ],
      "name": "rejectRequest",
      "outputs": [
        {
          "internalType": "bool",
          "name": "",
          "type": "bool"
        }
      ],
      "stateMutability": "nonpayable",
      "type": "function"
    },
    {
      "inputs": [],
      "name": "renounceOwnership",
      "outputs": [],
      "stateMutability": "nonpayable",
      "type": "function"
    },
    {
      "inputs": [],
      "name": "rentPayment",
      "outputs": [],
      "stateMutability": "payable",
      "type": "function"
    },
    {
      "inputs": [],
      "name": "requestToRent",
      "outputs": [
        {
          "internalType": "bool",
          "name": "",
          "type": "bool"
        }
      ],
      "stateMutability": "nonpayable",
      "type": "function"
    },
    {
      "inputs": [
        {
          "internalType": "address",
          "name": "",
          "type": "address"
        }
      ],
      "name": "revenues",
      "outputs": [
        {
          "internalType": "uint256",
          "name": "",
          "type": "uint256"
        }
      ],
      "stateMutability": "view",
      "type": "function"
    },
    {
      "inputs": [],
      "name": "salePrice",
      "outputs": [
        {
          "internalType": "uint256",
          "name": "",
          "type": "uint256"
        }
      ],
      "stateMutability": "view",
      "type": "function"
    },
    {
      "inputs": [
        {
          "internalType": "uint256",
          "name": "_noOfTokens",
          "type": "uint256"
        },
        {
          "internalType": "uint256",
          "name": "_priceOfToken",
          "type": "uint256"
        }
      ],
      "name": "sellStake",
      "outputs": [
        {
          "internalType": "bool",
          "name": "",
          "type": "bool"
        }
      ],
      "stateMutability": "nonpayable",
      "type": "function"
    },
    {
      "inputs": [
        {
          "internalType": "uint256",
          "name": "",
          "type": "uint256"
        }
      ],
      "name": "stakeSales",
      "outputs": [
        {
          "internalType": "address",
          "name": "stakeholder",
          "type": "address"
        },
        {
          "internalType": "uint256",
          "name": "noOfTokens",
          "type": "uint256"
        },
        {
          "internalType": "uint256",
          "name": "priceOfToken",
          "type": "uint256"
        }
      ],
      "stateMutability": "view",
      "type": "function"
    },
    {
      "inputs": [
        {
          "internalType": "uint256",
          "name": "",
          "type": "uint256"
        }
      ],
      "name": "stakeholders",
      "outputs": [
        {
          "internalType": "address",
          "name": "",
          "type": "address"
        }
      ],
      "stateMutability": "view",
      "type": "function"
    },
    {
      "inputs": [],
      "name": "status",
      "outputs": [
        {
          "internalType": "uint256",
          "name": "",
          "type": "uint256"
        }
      ],
      "stateMutability": "view",
      "type": "function"
    },
    {
      "inputs": [
        {
          "internalType": "uint256",
          "name": "_value",
          "type": "uint256"
        }
      ],
      "name": "submitProposalToBuy",
      "outputs": [],
      "stateMutability": "nonpayable",
      "type": "function"
    },
    {
      "inputs": [],
      "name": "symbol",
      "outputs": [
        {
          "internalType": "string",
          "name": "",
          "type": "string"
        }
      ],
      "stateMutability": "view",
      "type": "function"
    },
    {
      "inputs": [
        {
          "internalType": "uint256",
          "name": "",
          "type": "uint256"
        }
      ],
      "name": "tenantRequests",
      "outputs": [
        {
          "internalType": "address",
          "name": "",
          "type": "address"
        }
      ],
      "stateMutability": "view",
      "type": "function"
    },
    {
      "inputs": [
        {
          "internalType": "uint256",
          "name": "",
          "type": "uint256"
        }
      ],
      "name": "tenants",
      "outputs": [
        {
          "internalType": "address",
          "name": "tenantAddress",
          "type": "address"
        },
        {
          "internalType": "uint256",
          "name": "rent",
          "type": "uint256"
        }
      ],
      "stateMutability": "view",
      "type": "function"
    },
    {
      "inputs": [],
      "name": "tokenId",
      "outputs": [
        {
          "internalType": "uint256",
          "name": "",
          "type": "uint256"
        }
      ],
      "stateMutability": "view",
      "type": "function"
    },
    {
      "inputs": [],
      "name": "totalSupply",
      "outputs": [
        {
          "internalType": "uint256",
          "name": "",
          "type": "uint256"
        }
      ],
      "stateMutability": "view",
      "type": "function"
    },
    {
      "inputs": [
        {
          "internalType": "address",
          "name": "to",
          "type": "address"
        },
        {
          "internalType": "uint256",
          "name": "amount",
          "type": "uint256"
        }
      ],
      "name": "transfer",
      "outputs": [
        {
          "internalType": "bool",
          "name": "",
          "type": "bool"
        }
      ],
      "stateMutability": "nonpayable",
      "type": "function"
    },
    {
      "inputs": [
        {
          "internalType": "address",
          "name": "from",
          "type": "address"
        },
        {
          "internalType": "address",
          "name": "to",
          "type": "address"
        },
        {
          "internalType": "uint256",
          "name": "amount",
          "type": "uint256"
        }
      ],
      "name": "transferFrom",
      "outputs": [
        {
          "internalType": "bool",
          "name": "",
          "type": "bool"
        }
      ],
      "stateMutability": "nonpayable",
      "type": "function"
    },
    {
      "inputs": [
        {
          "internalType": "address",
          "name": "newOwner",
          "type": "address"
        }
      ],
      "name": "transferOwnership",
      "outputs": [],
      "stateMutability": "nonpayable",
      "type": "function"
    }
  ],
  "bytecode": "0x60806040526000600d60006101000a81548160ff0219169083151502179055506000600d60016101000a81548160ff0219169083151502179055506000600f60006101000a81548160ff0219169083151502179055506000601560006101000a81548160ff0219169083151502179055503480156200007d57600080fd5b5060405162005eb838038062005eb88339818101604052810190620000a391906200041d565b81818160039081620000b6919062000702565b508060049081620000c8919062000702565b505050620000eb620000df6200015760201b60201c565b6200015f60201b60201c565b6007839080600181540180825580915050600190039060005260206000200160009091909190916101000a81548173ffffffffffffffffffffffffffffffffffffffff021916908373ffffffffffffffffffffffffffffffffffffffff160217905550505050620007e9565b600033905090565b6000600560009054906101000a900473ffffffffffffffffffffffffffffffffffffffff16905081600560006101000a81548173ffffffffffffffffffffffffffffffffffffffff021916908373ffffffffffffffffffffffffffffffffffffffff1602179055508173ffffffffffffffffffffffffffffffffffffffff168173ffffffffffffffffffffffffffffffffffffffff167f8be0079c531659141344cd1fd0a4f28419497f9722a3daafe3b4186f6b6457e060405160405180910390a35050565b6000604051905090565b600080fd5b600080fd5b600073ffffffffffffffffffffffffffffffffffffffff82169050919050565b6000620002668262000239565b9050919050565b620002788162000259565b81146200028457600080fd5b50565b60008151905062000298816200026d565b92915050565b600080fd5b600080fd5b6000601f19601f8301169050919050565b7f4e487b7100000000000000000000000000000000000000000000000000000000600052604160045260246000fd5b620002f382620002a8565b810181811067ffffffffffffffff82111715620003155762000314620002b9565b5b80604052505050565b60006200032a62000225565b9050620003388282620002e8565b919050565b600067ffffffffffffffff8211156200035b576200035a620002b9565b5b6200036682620002a8565b9050602081019050919050565b60005b838110156200039357808201518184015260208101905062000376565b60008484015250505050565b6000620003b6620003b0846200033d565b6200031e565b905082815260208101848484011115620003d557620003d4620002a3565b5b620003e284828562000373565b509392505050565b600082601f8301126200040257620004016200029e565b5b8151620004148482602086016200039f565b91505092915050565b6000806000606084860312156200043957620004386200022f565b5b6000620004498682870162000287565b935050602084015167ffffffffffffffff8111156200046d576200046c62000234565b5b6200047b86828701620003ea565b925050604084015167ffffffffffffffff8111156200049f576200049e62000234565b5b620004ad86828701620003ea565b9150509250925092565b600081519050919050565b7f4e487b7100000000000000000000000000000000000000000000000000000000600052602260045260246000fd5b600060028204905060018216806200050a57607f821691505b60208210810362000520576200051f620004c2565b5b50919050565b60008190508160005260206000209050919050565b60006020601f8301049050919050565b600082821b905092915050565b6000600883026200058a7fffffffffffffffffffffffffffffffffffffffffffffffffffffffffffffffff826200054b565b6200059686836200054b565b95508019841693508086168417925050509392505050565b6000819050919050565b6000819050919050565b6000620005e3620005dd620005d784620005ae565b620005b8565b620005ae565b9050919050565b6000819050919050565b620005ff83620005c2565b620006176200060e82620005ea565b84845462000558565b825550505050565b600090565b6200062e6200061f565b6200063b818484620005f4565b505050565b5b8181101562000663576200065760008262000624565b60018101905062000641565b5050565b601f821115620006b2576200067c8162000526565b62000687846200053b565b8101602085101562000697578190505b620006af620006a6856200053b565b83018262000640565b50505b505050565b600082821c905092915050565b6000620006d760001984600802620006b7565b1980831691505092915050565b6000620006f28383620006c4565b9150826002028217905092915050565b6200070d82620004b7565b67ffffffffffffffff811115620007295762000728620002b9565b5b620007358254620004f1565b6200074282828562000667565b600060209050601f8311600181146200077a576000841562000765578287015190505b620007718582620006e4565b865550620007e1565b601f1984166200078a8662000526565b60005b82811015620007b4578489015182556001820191506020850194506020810190506200078d565b86831015620007d45784890151620007d0601f891682620006c4565b8355505b6001600288020188555050505b505050505050565b6156bf80620007f96000396000f3fe6080604052600436106102ae5760003560e01c80637a04432311610175578063d0e30db0116100dc578063f2fde38b11610095578063f97ed5091161006f578063f97ed50914610b1b578063fdb5866a14610b46578063fe4b84df14610b50578063ff4c848214610b79576102ae565b8063f2fde38b14610a9e578063f4a4f4d214610ac7578063f51f96dd14610af0576102ae565b8063d0e30db01461099c578063dd62ed3e146109a6578063de673888146109e3578063e4fc6b6d14610a20578063ea0cb51e14610a37578063ef037b9014610a60576102ae565b806398951b561161012e57806398951b5614610865578063a457c2d71461088e578063a9059cbb146108cb578063b6b6dd8f14610908578063bd2ba85d14610947578063be040fb014610985576102ae565b80637a044323146107515780637de1e5361461077c57806380f59a65146107a75780638da5cb5b146107e45780638e499bcf1461080f57806395d89b411461083a576102ae565b80632d7788db116102195780634cc1eba5116101d25780634cc1eba51461064e578063581162271461067957806364edfbf0146106b657806370a08231146106c0578063715018a6146106fd57806378ae98c814610714576102ae565b80632d7788db14610523578063313ce56714610560578063395093511461058b5780633ab26198146105c85780633fb95e27146105f8578063466ccac014610623576102ae565b806317d70f7c1161026b57806317d70f7c146103ff57806318160ddd1461042a5780631d6b8b72146104555780631f078ced14610492578063200d2ed2146104bb57806323b872dd146104e6576102ae565b8063013cf08b146102b357806306fdde03146102f2578063095ea7b31461031d5780630e62bbae1461035a578063150b7a0214610397578063158ef93e146103d4575b600080fd5b3480156102bf57600080fd5b506102da60048036038101906102d59190613c7f565b610b83565b6040516102e993929190613cfc565b60405180910390f35b3480156102fe57600080fd5b50610307610bdd565b6040516103149190613dc3565b60405180910390f35b34801561032957600080fd5b50610344600480360381019061033f9190613e11565b610c6f565b6040516103519190613e6c565b60405180910390f35b34801561036657600080fd5b50610381600480360381019061037c9190613c7f565b610c92565b60405161038e9190613e87565b60405180910390f35b3480156103a357600080fd5b506103be60048036038101906103b99190613fd7565b610cd1565b6040516103cb9190614095565b60405180910390f35b3480156103e057600080fd5b506103e9610ce5565b6040516103f69190613e6c565b60405180910390f35b34801561040b57600080fd5b50610414610cf8565b60405161042191906140b0565b60405180910390f35b34801561043657600080fd5b5061043f610cfe565b60405161044c91906140b0565b60405180910390f35b34801561046157600080fd5b5061047c60048036038101906104779190613c7f565b610d08565b6040516104899190613e87565b60405180910390f35b34801561049e57600080fd5b506104b960048036038101906104b49190613c7f565b610d47565b005b3480156104c757600080fd5b506104d0610d87565b6040516104dd91906140b0565b60405180910390f35b3480156104f257600080fd5b5061050d600480360381019061050891906140cb565b610d8d565b60405161051a9190613e6c565b60405180910390f35b34801561052f57600080fd5b5061054a60048036038101906105459190613c7f565b610dbc565b6040516105579190613e6c565b60405180910390f35b34801561056c57600080fd5b50610575610f09565b604051610582919061413a565b60405180910390f35b34801561059757600080fd5b506105b260048036038101906105ad9190613e11565b610f12565b6040516105bf9190613e6c565b60405180910390f35b6105e260048036038101906105dd9190613c7f565b610f49565b6040516105ef9190613e6c565b60405180910390f35b34801561060457600080fd5b5061060d61132f565b60405161061a9190614264565b60405180910390f35b34801561062f57600080fd5b506106386113f8565b6040516106459190613e6c565b60405180910390f35b34801561065a57600080fd5b5061066361140b565b6040516106709190613e6c565b60405180910390f35b34801561068557600080fd5b506106a0600480360381019061069b9190614286565b611477565b6040516106ad9190613e6c565b60405180910390f35b6106be61160c565b005b3480156106cc57600080fd5b506106e760048036038101906106e291906142c6565b611977565b6040516106f491906140b0565b60405180910390f35b34801561070957600080fd5b506107126119bf565b005b34801561072057600080fd5b5061073b600480360381019061073691906142c6565b6119d3565b60405161074891906140b0565b60405180910390f35b34801561075d57600080fd5b506107666119eb565b60405161077391906140b0565b60405180910390f35b34801561078857600080fd5b506107916119f1565b60405161079e9190614352565b60405180910390f35b3480156107b357600080fd5b506107ce60048036038101906107c9919061436d565b611a17565b6040516107db9190613e6c565b60405180910390f35b3480156107f057600080fd5b506107f9611a46565b6040516108069190613e87565b60405180910390f35b34801561081b57600080fd5b50610824611a70565b60405161083191906140b0565b60405180910390f35b34801561084657600080fd5b5061084f611a76565b60405161085c9190613dc3565b60405180910390f35b34801561087157600080fd5b5061088c60048036038101906108879190613c7f565b611b08565b005b34801561089a57600080fd5b506108b560048036038101906108b09190613e11565b611cc2565b6040516108c29190613e6c565b60405180910390f35b3480156108d757600080fd5b506108f260048036038101906108ed9190613e11565b611d39565b6040516108ff9190613e6c565b60405180910390f35b34801561091457600080fd5b5061092f600480360381019061092a9190613c7f565b611d5c565b60405161093e93929190613cfc565b60405180910390f35b34801561095357600080fd5b5061096e60048036038101906109699190613c7f565b611db6565b60405161097c9291906143ad565b60405180910390f35b34801561099157600080fd5b5061099a611e0a565b005b6109a4612062565b005b3480156109b257600080fd5b506109cd60048036038101906109c891906143d6565b6121f5565b6040516109da91906140b0565b60405180910390f35b3480156109ef57600080fd5b50610a0a6004803603810190610a059190614286565b61227c565b604051610a179190613e6c565b60405180910390f35b348015610a2c57600080fd5b50610a356124b1565b005b348015610a4357600080fd5b50610a5e6004803603810190610a599190613c7f565b61271e565b005b348015610a6c57600080fd5b50610a876004803603810190610a8291906142c6565b6128b3565b604051610a95929190614416565b60405180910390f35b348015610aaa57600080fd5b50610ac56004803603810190610ac091906142c6565b612966565b005b348015610ad357600080fd5b50610aee6004803603810190610ae99190613c7f565b6129e9565b005b348015610afc57600080fd5b50610b05612c22565b604051610b1291906140b0565b60405180910390f35b348015610b2757600080fd5b50610b30612c28565b604051610b3d9190613e6c565b60405180910390f35b610b4e612c3b565b005b348015610b5c57600080fd5b50610b776004803603810190610b729190613c7f565b61308d565b005b610b8161315f565b005b60168181548110610b9357600080fd5b90600052602060002090600302016000915090508060000160009054906101000a900473ffffffffffffffffffffffffffffffffffffffff16908060010154908060020154905083565b606060038054610bec9061446e565b80601f0160208091040260200160405190810160405280929190818152602001828054610c189061446e565b8015610c655780601f10610c3a57610100808354040283529160200191610c65565b820191906000526020600020905b815481529060010190602001808311610c4857829003601f168201915b5050505050905090565b600080610c7a6132db565b9050610c878185856132e3565b600191505092915050565b60128181548110610ca257600080fd5b906000526020600020016000915054906101000a900473ffffffffffffffffffffffffffffffffffffffff1681565b600063150b7a0260e01b9050949350505050565b600d60009054906101000a900460ff1681565b600c5481565b6000600254905090565b60078181548110610d1857600080fd5b906000526020600020016000915054906101000a900473ffffffffffffffffffffffffffffffffffffffff1681565b610d4f6134ac565b670de0b6b3a764000081610d6391906144ce565b600e819055506001600d60016101000a81548160ff02191690831515021790555050565b60085481565b600080610d986132db565b9050610da585828561352a565b610db08585856135b6565b60019150509392505050565b6000610dc66134ac565b6012805490508210610e0d576040517f08c379a0000000000000000000000000000000000000000000000000000000008152600401610e049061455c565b60405180910390fd5b60126001601280549050610e21919061457c565b81548110610e3257610e316145b0565b5b9060005260206000200160009054906101000a900473ffffffffffffffffffffffffffffffffffffffff1660128381548110610e7157610e706145b0565b5b9060005260206000200160006101000a81548173ffffffffffffffffffffffffffffffffffffffff021916908373ffffffffffffffffffffffffffffffffffffffff1602179055506012805480610ecb57610eca6145df565b5b6001900381819060005260206000200160006101000a81549073ffffffffffffffffffffffffffffffffffffffff0219169055905560019050919050565b60006012905090565b600080610f1d6132db565b9050610f3e818585610f2f85896121f5565b610f39919061460e565b6132e3565b600191505092915050565b60006011805490508210610f92576040517f08c379a0000000000000000000000000000000000000000000000000000000008152600401610f899061455c565b60405180910390fd5b60118281548110610fa657610fa56145b0565b5b90600052602060002090600302016001015460118381548110610fcc57610fcb6145b0565b5b906000526020600020906003020160020154610fe891906144ce565b34101561102a576040517f08c379a00000000000000000000000000000000000000000000000000000000081526004016110219061468e565b60405180910390fd5b6011828154811061103e5761103d6145b0565b5b90600052602060002090600302016001015461109e60118481548110611067576110666145b0565b5b906000526020600020906003020160000160009054906101000a900473ffffffffffffffffffffffffffffffffffffffff16611977565b10156110df576040517f08c379a00000000000000000000000000000000000000000000000000000000081526004016110d6906146fa565b60405180910390fd5b611154601183815481106110f6576110f56145b0565b5b906000526020600020906003020160000160009054906101000a900473ffffffffffffffffffffffffffffffffffffffff16336011858154811061113d5761113c6145b0565b5b9060005260206000209060030201600101546135b6565b60006011838154811061116a576111696145b0565b5b906000526020600020906003020160000160009054906101000a900473ffffffffffffffffffffffffffffffffffffffff16905060008173ffffffffffffffffffffffffffffffffffffffff16346040516111c49061474b565b60006040518083038185875af1925050503d8060008114611201576040519150601f19603f3d011682016040523d82523d6000602084013e611206565b606091505b505090508061124a576040517f08c379a0000000000000000000000000000000000000000000000000000000008152600401611241906147ac565b60405180910390fd5b601180548061125c5761125b6145df565b5b6001900381819060005260206000209060030201600080820160006101000a81549073ffffffffffffffffffffffffffffffffffffffff0219169055600182016000905560028201600090555050905560006112b7336128b3565b50905080611323576007339080600181540180825580915050600190039060005260206000200160009091909190916101000a81548173ffffffffffffffffffffffffffffffffffffffff021916908373ffffffffffffffffffffffffffffffffffffffff1602179055505b60019350505050919050565b60606011805480602002602001604051908101604052809291908181526020016000905b828210156113ef57838290600052602060002090600302016040518060600160405290816000820160009054906101000a900473ffffffffffffffffffffffffffffffffffffffff1673ffffffffffffffffffffffffffffffffffffffff1673ffffffffffffffffffffffffffffffffffffffff1681526020016001820154815260200160028201548152505081526020019060010190611353565b50505050905090565b600d60019054906101000a900460ff1681565b60006012339080600181540180825580915050600190039060005260206000200160009091909190916101000a81548173ffffffffffffffffffffffffffffffffffffffff021916908373ffffffffffffffffffffffffffffffffffffffff1602179055506001905090565b60008083116114bb576040517f08c379a00000000000000000000000000000000000000000000000000000000081526004016114b290614818565b60405180910390fd5b600082116114fe576040517f08c379a00000000000000000000000000000000000000000000000000000000081526004016114f590614884565b60405180910390fd5b8261150833611977565b1015611549576040517f08c379a0000000000000000000000000000000000000000000000000000000008152600401611540906146fa565b60405180910390fd5b601160405180606001604052803373ffffffffffffffffffffffffffffffffffffffff16815260200185815260200184815250908060018154018082558091505060019003906000526020600020906003020160009091909190915060008201518160000160006101000a81548173ffffffffffffffffffffffffffffffffffffffff021916908373ffffffffffffffffffffffffffffffffffffffff160217905550602082015181600101556040820151816002015550506001905092915050565b600d60019054906101000a900460ff1661165b576040517f08c379a0000000000000000000000000000000000000000000000000000000008152600401611652906148f0565b60405180910390fd5b600e543410156116a0576040517f08c379a00000000000000000000000000000000000000000000000000000000081526004016116979061495c565b60405180910390fd5b6116a8610cfe565b6116f060076000815481106116c0576116bf6145b0565b5b9060005260206000200160009054906101000a900473ffffffffffffffffffffffffffffffffffffffff16611977565b14611730576040517f08c379a0000000000000000000000000000000000000000000000000000000008152600401611727906149ee565b60405180910390fd5b600b60009054906101000a900473ffffffffffffffffffffffffffffffffffffffff1673ffffffffffffffffffffffffffffffffffffffff166323b872dd3033600c546040518463ffffffff1660e01b815260040161179193929190614a0e565b600060405180830381600087803b1580156117ab57600080fd5b505af11580156117bf573d6000803e3d6000fd5b5050505061185360076000815481106117db576117da6145b0565b5b9060005260206000200160009054906101000a900473ffffffffffffffffffffffffffffffffffffffff1661184e600760008154811061181e5761181d6145b0565b5b9060005260206000200160009054906101000a900473ffffffffffffffffffffffffffffffffffffffff16611977565b61382c565b6000600760008154811061186a576118696145b0565b5b9060005260206000200160009054906101000a900473ffffffffffffffffffffffffffffffffffffffff1673ffffffffffffffffffffffffffffffffffffffff16346040516118b89061474b565b60006040518083038185875af1925050503d80600081146118f5576040519150601f19603f3d011682016040523d82523d6000602084013e6118fa565b606091505b505090508061193e576040517f08c379a0000000000000000000000000000000000000000000000000000000008152600401611935906147ac565b60405180910390fd5b6000600d60016101000a81548160ff0219169083151502179055506000600f60006101000a81548160ff02191690831515021790555050565b60008060008373ffffffffffffffffffffffffffffffffffffffff1673ffffffffffffffffffffffffffffffffffffffff168152602001908152602001600020549050919050565b6119c76134ac565b6119d160006139f9565b565b60096020528060005260406000206000915090505481565b600a5481565b600b60009054906101000a900473ffffffffffffffffffffffffffffffffffffffff1681565b60176020528160005260406000206020528060005260406000206000915091509054906101000a900460ff1681565b6000600560009054906101000a900473ffffffffffffffffffffffffffffffffffffffff16905090565b60065481565b606060048054611a859061446e565b80601f0160208091040260200160405190810160405280929190818152602001828054611ab19061446e565b8015611afe5780601f10611ad357610100808354040283529160200191611afe565b820191906000526020600020905b815481529060010190602001808311611ae157829003601f168201915b5050505050905090565b611b106134ac565b600d60019054906101000a900460ff16611b5f576040517f08c379a0000000000000000000000000000000000000000000000000000000008152600401611b5690614a91565b60405180910390fd5b6016805490508110611ba6576040517f08c379a0000000000000000000000000000000000000000000000000000000008152600401611b9d90614afd565b60405180910390fd5b600060168281548110611bbc57611bbb6145b0565b5b9060005260206000209060030201905060078054905081600201541015611c18576040517f08c379a0000000000000000000000000000000000000000000000000000000008152600401611c0f90614b69565b60405180910390fd5b6001601560006101000a81548160ff0219169083151502179055506000600d60016101000a81548160ff02191690831515021790555080600101546014819055508060000160009054906101000a900473ffffffffffffffffffffffffffffffffffffffff16601360006101000a81548173ffffffffffffffffffffffffffffffffffffffff021916908373ffffffffffffffffffffffffffffffffffffffff1602179055505050565b600080611ccd6132db565b90506000611cdb82866121f5565b905083811015611d20576040517f08c379a0000000000000000000000000000000000000000000000000000000008152600401611d1790614bfb565b60405180910390fd5b611d2d82868684036132e3565b60019250505092915050565b600080611d446132db565b9050611d518185856135b6565b600191505092915050565b60118181548110611d6c57600080fd5b90600052602060002090600302016000915090508060000160009054906101000a900473ffffffffffffffffffffffffffffffffffffffff16908060010154908060020154905083565b60108181548110611dc657600080fd5b90600052602060002090600202016000915090508060000160009054906101000a900473ffffffffffffffffffffffffffffffffffffffff16908060010154905082565b600f60009054906101000a900460ff16611e59576040517f08c379a0000000000000000000000000000000000000000000000000000000008152600401611e5090614c67565b60405180910390fd5b600080600090505b600780549050811015611ef7573373ffffffffffffffffffffffffffffffffffffffff1660078281548110611e9957611e986145b0565b5b9060005260206000200160009054906101000a900473ffffffffffffffffffffffffffffffffffffffff1673ffffffffffffffffffffffffffffffffffffffff1603611ee3578091505b600181611ef0919061460e565b9050611e61565b50600060078281548110611f0e57611f0d6145b0565b5b9060005260206000200160009054906101000a900473ffffffffffffffffffffffffffffffffffffffff1690506000600960008373ffffffffffffffffffffffffffffffffffffffff1673ffffffffffffffffffffffffffffffffffffffff1681526020019081526020016000205490506000600960008473ffffffffffffffffffffffffffffffffffffffff1673ffffffffffffffffffffffffffffffffffffffff168152602001908152602001600020819055508173ffffffffffffffffffffffffffffffffffffffff166108fc829081150290604051600060405180830381858888f1935050505015801561200a573d6000803e3d6000fd5b5061205d336007600081548110612024576120236145b0565b5b9060005260206000200160009054906101000a900473ffffffffffffffffffffffffffffffffffffffff1661205885611977565b6135b6565b505050565b61206a6134ac565b600e543410156120af576040517f08c379a00000000000000000000000000000000000000000000000000000000081526004016120a69061495c565b60405180910390fd5b60005b6007805490508110156121d7576000600782815481106120d5576120d46145b0565b5b9060005260206000200160009054906101000a900473ffffffffffffffffffffffffffffffffffffffff169050600061210c610cfe565b61211583611977565b4761212091906144ce565b61212a9190614cb6565b905061217e81600960008573ffffffffffffffffffffffffffffffffffffffff1673ffffffffffffffffffffffffffffffffffffffff16815260200190815260200160002054613abf90919063ffffffff16565b600960008473ffffffffffffffffffffffffffffffffffffffff1673ffffffffffffffffffffffffffffffffffffffff1681526020019081526020016000208190555050506001816121d0919061460e565b90506120b2565b506001600f60006101000a81548160ff021916908315150217905550565b6000600160008473ffffffffffffffffffffffffffffffffffffffff1673ffffffffffffffffffffffffffffffffffffffff16815260200190815260200160002060008373ffffffffffffffffffffffffffffffffffffffff1673ffffffffffffffffffffffffffffffffffffffff16815260200190815260200160002054905092915050565b60006122866134ac565b60128054905083106122cd576040517f08c379a00000000000000000000000000000000000000000000000000000000081526004016122c49061455c565b60405180910390fd5b60106040518060400160405280601286815481106122ee576122ed6145b0565b5b9060005260206000200160009054906101000a900473ffffffffffffffffffffffffffffffffffffffff1673ffffffffffffffffffffffffffffffffffffffff16815260200184815250908060018154018082558091505060019003906000526020600020906002020160009091909190915060008201518160000160006101000a81548173ffffffffffffffffffffffffffffffffffffffff021916908373ffffffffffffffffffffffffffffffffffffffff160217905550602082015181600101555050601260016012805490506123c8919061457c565b815481106123d9576123d86145b0565b5b9060005260206000200160009054906101000a900473ffffffffffffffffffffffffffffffffffffffff1660128481548110612418576124176145b0565b5b9060005260206000200160006101000a81548173ffffffffffffffffffffffffffffffffffffffff021916908373ffffffffffffffffffffffffffffffffffffffff1602179055506012805480612472576124716145df565b5b6001900381819060005260206000200160006101000a81549073ffffffffffffffffffffffffffffffffffffffff021916905590556001905092915050565b6124b96134ac565b60005b6007805490508110156125e1576000600782815481106124df576124de6145b0565b5b9060005260206000200160009054906101000a900473ffffffffffffffffffffffffffffffffffffffff1690506000612516610cfe565b61251f83611977565b4761252a91906144ce565b6125349190614cb6565b905061258881600960008573ffffffffffffffffffffffffffffffffffffffff1673ffffffffffffffffffffffffffffffffffffffff16815260200190815260200160002054613abf90919063ffffffff16565b600960008473ffffffffffffffffffffffffffffffffffffffff1673ffffffffffffffffffffffffffffffffffffffff1681526020019081526020016000208190555050506001816125da919061460e565b90506124bc565b5060005b60078054905081101561271b57600060078281548110612608576126076145b0565b5b9060005260206000200160009054906101000a900473ffffffffffffffffffffffffffffffffffffffff1690506000600960008373ffffffffffffffffffffffffffffffffffffffff1673ffffffffffffffffffffffffffffffffffffffff1681526020019081526020016000205490506000600960008473ffffffffffffffffffffffffffffffffffffffff1673ffffffffffffffffffffffffffffffffffffffff168152602001908152602001600020819055508173ffffffffffffffffffffffffffffffffffffffff166108fc829081150290604051600060405180830381858888f19350505050158015612704573d6000803e3d6000fd5b505050600181612714919061460e565b90506125e5565b50565b600d60019054906101000a900460ff1661276d576040517f08c379a0000000000000000000000000000000000000000000000000000000008152600401612764906148f0565b60405180910390fd5b6000670de0b6b3a76400008261278391906144ce565b9050600e548110156127ca576040517f08c379a00000000000000000000000000000000000000000000000000000000081526004016127c190614d59565b60405180910390fd5b60011515600d60019054906101000a900460ff1615151480156127ef5750600e548110155b156128af57601660405180606001604052803373ffffffffffffffffffffffffffffffffffffffff1681526020018381526020016000815250908060018154018082558091505060019003906000526020600020906003020160009091909190915060008201518160000160006101000a81548173ffffffffffffffffffffffffffffffffffffffff021916908373ffffffffffffffffffffffffffffffffffffffff160217905550602082015181600101556040820151816002015550505b5050565b60008060005b60078054905081101561295857600781815481106128da576128d96145b0565b5b9060005260206000200160009054906101000a900473ffffffffffffffffffffffffffffffffffffffff1673ffffffffffffffffffffffffffffffffffffffff168473ffffffffffffffffffffffffffffffffffffffff1603612944576001819250925050612961565b600181612951919061460e565b90506128b9565b50600080915091505b915091565b61296e6134ac565b600073ffffffffffffffffffffffffffffffffffffffff168173ffffffffffffffffffffffffffffffffffffffff16036129dd576040517f08c379a00000000000000000000000000000000000000000000000000000000081526004016129d490614deb565b60405180910390fd5b6129e6816139f9565b50565b600d60019054906101000a900460ff16612a38576040517f08c379a0000000000000000000000000000000000000000000000000000000008152600401612a2f90614a91565b60405180910390fd5b6016805490508110612a7f576040517f08c379a0000000000000000000000000000000000000000000000000000000008152600401612a7690614afd565b60405180910390fd5b600080612a8b336128b3565b9150915081612acf576040517f08c379a0000000000000000000000000000000000000000000000000000000008152600401612ac690614e57565b60405180910390fd5b600015156017600085815260200190815260200160002060003373ffffffffffffffffffffffffffffffffffffffff1673ffffffffffffffffffffffffffffffffffffffff16815260200190815260200160002060009054906101000a900460ff16151514612b73576040517f08c379a0000000000000000000000000000000000000000000000000000000008152600401612b6a90614ec3565b60405180910390fd5b600060168481548110612b8957612b886145b0565b5b9060005260206000209060030201905060016017600086815260200190815260200160002060003373ffffffffffffffffffffffffffffffffffffffff1673ffffffffffffffffffffffffffffffffffffffff16815260200190815260200160002060006101000a81548160ff021916908315150217905550806002016000815480929190612c1790614ee3565b919050555050505050565b600e5481565b600f60009054906101000a900460ff1681565b601560009054906101000a900460ff16612c8a576040517f08c379a0000000000000000000000000000000000000000000000000000000008152600401612c8190614f77565b60405180910390fd5b601360009054906101000a900473ffffffffffffffffffffffffffffffffffffffff1673ffffffffffffffffffffffffffffffffffffffff163373ffffffffffffffffffffffffffffffffffffffff1614612d1a576040517f08c379a0000000000000000000000000000000000000000000000000000000008152600401612d1190614fe3565b60405180910390fd5b601454341015612d5f576040517f08c379a0000000000000000000000000000000000000000000000000000000008152600401612d569061495c565b60405180910390fd5b600b60009054906101000a900473ffffffffffffffffffffffffffffffffffffffff1673ffffffffffffffffffffffffffffffffffffffff166323b872dd3033600c546040518463ffffffff1660e01b8152600401612dc093929190614a0e565b600060405180830381600087803b158015612dda57600080fd5b505af1158015612dee573d6000803e3d6000fd5b5050505060005b600780549050811015612f1a57600060078281548110612e1857612e176145b0565b5b9060005260206000200160009054906101000a900473ffffffffffffffffffffffffffffffffffffffff1690506000612e4f610cfe565b612e5883611977565b47612e6391906144ce565b612e6d9190614cb6565b9050612ec181600960008573ffffffffffffffffffffffffffffffffffffffff1673ffffffffffffffffffffffffffffffffffffffff16815260200190815260200160002054613abf90919063ffffffff16565b600960008473ffffffffffffffffffffffffffffffffffffffff1673ffffffffffffffffffffffffffffffffffffffff168152602001908152602001600020819055505050600181612f13919061460e565b9050612df5565b5060005b60078054905081101561305457600060078281548110612f4157612f406145b0565b5b9060005260206000200160009054906101000a900473ffffffffffffffffffffffffffffffffffffffff1690506000600960008373ffffffffffffffffffffffffffffffffffffffff1673ffffffffffffffffffffffffffffffffffffffff1681526020019081526020016000205490506000600960008473ffffffffffffffffffffffffffffffffffffffff1673ffffffffffffffffffffffffffffffffffffffff168152602001908152602001600020819055508173ffffffffffffffffffffffffffffffffffffffff166108fc829081150290604051600060405180830381858888f1935050505015801561303d573d6000803e3d6000fd5b50505060018161304d919061460e565b9050612f1e565b506000600d60016101000a81548160ff0219169083151502179055506001600f60006101000a81548160ff021916908315150217905550565b6130956134ac565b600d60009054906101000a900460ff16156130e5576040517f08c379a00000000000000000000000000000000000000000000000000000000081526004016130dc9061504f565b60405180910390fd5b60008111613128576040517f08c379a000000000000000000000000000000000000000000000000000000000815260040161311f90614818565b60405180910390fd5b6001600d60006101000a81548160ff02191690831515021790555060006008819055508060068190555061315c3382613ad5565b50565b60003490506000806000905060005b601080549050811015613233576010818154811061318f5761318e6145b0565b5b906000526020600020906002020160000160009054906101000a900473ffffffffffffffffffffffffffffffffffffffff1673ffffffffffffffffffffffffffffffffffffffff163373ffffffffffffffffffffffffffffffffffffffff160361322057600191506010818154811061320b5761320a6145b0565b5b90600052602060002090600202016001015492505b808061322b90614ee3565b91505061316e565b50600115158115151461327b576040517f08c379a0000000000000000000000000000000000000000000000000000000008152600401613272906150bb565b60405180910390fd5b8183146132bd576040517f08c379a00000000000000000000000000000000000000000000000000000000081526004016132b490615127565b60405180910390fd5b82600a60008282546132cf919061460e565b92505081905550505050565b600033905090565b600073ffffffffffffffffffffffffffffffffffffffff168373ffffffffffffffffffffffffffffffffffffffff1603613352576040517f08c379a0000000000000000000000000000000000000000000000000000000008152600401613349906151b9565b60405180910390fd5b600073ffffffffffffffffffffffffffffffffffffffff168273ffffffffffffffffffffffffffffffffffffffff16036133c1576040517f08c379a00000000000000000000000000000000000000000000000000000000081526004016133b89061524b565b60405180910390fd5b80600160008573ffffffffffffffffffffffffffffffffffffffff1673ffffffffffffffffffffffffffffffffffffffff16815260200190815260200160002060008473ffffffffffffffffffffffffffffffffffffffff1673ffffffffffffffffffffffffffffffffffffffff168152602001908152602001600020819055508173ffffffffffffffffffffffffffffffffffffffff168373ffffffffffffffffffffffffffffffffffffffff167f8c5be1e5ebec7d5bd14f71427d1e84f3dd0314c0f7b2291e5b200ac8c7c3b9258360405161349f91906140b0565b60405180910390a3505050565b6134b46132db565b73ffffffffffffffffffffffffffffffffffffffff166134d2611a46565b73ffffffffffffffffffffffffffffffffffffffff1614613528576040517f08c379a000000000000000000000000000000000000000000000000000000000815260040161351f906152b7565b60405180910390fd5b565b600061353684846121f5565b90507fffffffffffffffffffffffffffffffffffffffffffffffffffffffffffffffff81146135b057818110156135a2576040517f08c379a000000000000000000000000000000000000000000000000000000000815260040161359990615323565b60405180910390fd5b6135af84848484036132e3565b5b50505050565b600073ffffffffffffffffffffffffffffffffffffffff168373ffffffffffffffffffffffffffffffffffffffff1603613625576040517f08c379a000000000000000000000000000000000000000000000000000000000815260040161361c906153b5565b60405180910390fd5b600073ffffffffffffffffffffffffffffffffffffffff168273ffffffffffffffffffffffffffffffffffffffff1603613694576040517f08c379a000000000000000000000000000000000000000000000000000000000815260040161368b90615447565b60405180910390fd5b61369f838383613c2b565b60008060008573ffffffffffffffffffffffffffffffffffffffff1673ffffffffffffffffffffffffffffffffffffffff16815260200190815260200160002054905081811015613725576040517f08c379a000000000000000000000000000000000000000000000000000000000815260040161371c906154d9565b60405180910390fd5b8181036000808673ffffffffffffffffffffffffffffffffffffffff1673ffffffffffffffffffffffffffffffffffffffff16815260200190815260200160002081905550816000808573ffffffffffffffffffffffffffffffffffffffff1673ffffffffffffffffffffffffffffffffffffffff168152602001908152602001600020600082825401925050819055508273ffffffffffffffffffffffffffffffffffffffff168473ffffffffffffffffffffffffffffffffffffffff167fddf252ad1be2c89b69c2b068fc378daa952ba7f163c4a11628f55a4df523b3ef8460405161381391906140b0565b60405180910390a3613826848484613c30565b50505050565b600073ffffffffffffffffffffffffffffffffffffffff168273ffffffffffffffffffffffffffffffffffffffff160361389b576040517f08c379a00000000000000000000000000000000000000000000000000000000081526004016138929061556b565b60405180910390fd5b6138a782600083613c2b565b60008060008473ffffffffffffffffffffffffffffffffffffffff1673ffffffffffffffffffffffffffffffffffffffff1681526020019081526020016000205490508181101561392d576040517f08c379a0000000000000000000000000000000000000000000000000000000008152600401613924906155fd565b60405180910390fd5b8181036000808573ffffffffffffffffffffffffffffffffffffffff1673ffffffffffffffffffffffffffffffffffffffff1681526020019081526020016000208190555081600260008282540392505081905550600073ffffffffffffffffffffffffffffffffffffffff168373ffffffffffffffffffffffffffffffffffffffff167fddf252ad1be2c89b69c2b068fc378daa952ba7f163c4a11628f55a4df523b3ef846040516139e091906140b0565b60405180910390a36139f483600084613c30565b505050565b6000600560009054906101000a900473ffffffffffffffffffffffffffffffffffffffff16905081600560006101000a81548173ffffffffffffffffffffffffffffffffffffffff021916908373ffffffffffffffffffffffffffffffffffffffff1602179055508173ffffffffffffffffffffffffffffffffffffffff168173ffffffffffffffffffffffffffffffffffffffff167f8be0079c531659141344cd1fd0a4f28419497f9722a3daafe3b4186f6b6457e060405160405180910390a35050565b60008183613acd919061460e565b905092915050565b600073ffffffffffffffffffffffffffffffffffffffff168273ffffffffffffffffffffffffffffffffffffffff1603613b44576040517f08c379a0000000000000000000000000000000000000000000000000000000008152600401613b3b90615669565b60405180910390fd5b613b5060008383613c2b565b8060026000828254613b62919061460e565b92505081905550806000808473ffffffffffffffffffffffffffffffffffffffff1673ffffffffffffffffffffffffffffffffffffffff168152602001908152602001600020600082825401925050819055508173ffffffffffffffffffffffffffffffffffffffff16600073ffffffffffffffffffffffffffffffffffffffff167fddf252ad1be2c89b69c2b068fc378daa952ba7f163c4a11628f55a4df523b3ef83604051613c1391906140b0565b60405180910390a3613c2760008383613c30565b5050565b505050565b505050565b6000604051905090565b600080fd5b600080fd5b6000819050919050565b613c5c81613c49565b8114613c6757600080fd5b50565b600081359050613c7981613c53565b92915050565b600060208284031215613c9557613c94613c3f565b5b6000613ca384828501613c6a565b91505092915050565b600073ffffffffffffffffffffffffffffffffffffffff82169050919050565b6000613cd782613cac565b9050919050565b613ce781613ccc565b82525050565b613cf681613c49565b82525050565b6000606082019050613d116000830186613cde565b613d1e6020830185613ced565b613d2b6040830184613ced565b949350505050565b600081519050919050565b600082825260208201905092915050565b60005b83811015613d6d578082015181840152602081019050613d52565b60008484015250505050565b6000601f19601f8301169050919050565b6000613d9582613d33565b613d9f8185613d3e565b9350613daf818560208601613d4f565b613db881613d79565b840191505092915050565b60006020820190508181036000830152613ddd8184613d8a565b905092915050565b613dee81613ccc565b8114613df957600080fd5b50565b600081359050613e0b81613de5565b92915050565b60008060408385031215613e2857613e27613c3f565b5b6000613e3685828601613dfc565b9250506020613e4785828601613c6a565b9150509250929050565b60008115159050919050565b613e6681613e51565b82525050565b6000602082019050613e816000830184613e5d565b92915050565b6000602082019050613e9c6000830184613cde565b92915050565b600080fd5b600080fd5b7f4e487b7100000000000000000000000000000000000000000000000000000000600052604160045260246000fd5b613ee482613d79565b810181811067ffffffffffffffff82111715613f0357613f02613eac565b5b80604052505050565b6000613f16613c35565b9050613f228282613edb565b919050565b600067ffffffffffffffff821115613f4257613f41613eac565b5b613f4b82613d79565b9050602081019050919050565b82818337600083830152505050565b6000613f7a613f7584613f27565b613f0c565b905082815260208101848484011115613f9657613f95613ea7565b5b613fa1848285613f58565b509392505050565b600082601f830112613fbe57613fbd613ea2565b5b8135613fce848260208601613f67565b91505092915050565b60008060008060808587031215613ff157613ff0613c3f565b5b6000613fff87828801613dfc565b945050602061401087828801613dfc565b935050604061402187828801613c6a565b925050606085013567ffffffffffffffff81111561404257614041613c44565b5b61404e87828801613fa9565b91505092959194509250565b60007fffffffff0000000000000000000000000000000000000000000000000000000082169050919050565b61408f8161405a565b82525050565b60006020820190506140aa6000830184614086565b92915050565b60006020820190506140c56000830184613ced565b92915050565b6000806000606084860312156140e4576140e3613c3f565b5b60006140f286828701613dfc565b935050602061410386828701613dfc565b925050604061411486828701613c6a565b9150509250925092565b600060ff82169050919050565b6141348161411e565b82525050565b600060208201905061414f600083018461412b565b92915050565b600081519050919050565b600082825260208201905092915050565b6000819050602082019050919050565b61418a81613ccc565b82525050565b61419981613c49565b82525050565b6060820160008201516141b56000850182614181565b5060208201516141c86020850182614190565b5060408201516141db6040850182614190565b50505050565b60006141ed838361419f565b60608301905092915050565b6000602082019050919050565b600061421182614155565b61421b8185614160565b935061422683614171565b8060005b8381101561425757815161423e88826141e1565b9750614249836141f9565b92505060018101905061422a565b5085935050505092915050565b6000602082019050818103600083015261427e8184614206565b905092915050565b6000806040838503121561429d5761429c613c3f565b5b60006142ab85828601613c6a565b92505060206142bc85828601613c6a565b9150509250929050565b6000602082840312156142dc576142db613c3f565b5b60006142ea84828501613dfc565b91505092915050565b6000819050919050565b600061431861431361430e84613cac565b6142f3565b613cac565b9050919050565b600061432a826142fd565b9050919050565b600061433c8261431f565b9050919050565b61434c81614331565b82525050565b60006020820190506143676000830184614343565b92915050565b6000806040838503121561438457614383613c3f565b5b600061439285828601613c6a565b92505060206143a385828601613dfc565b9150509250929050565b60006040820190506143c26000830185613cde565b6143cf6020830184613ced565b9392505050565b600080604083850312156143ed576143ec613c3f565b5b60006143fb85828601613dfc565b925050602061440c85828601613dfc565b9150509250929050565b600060408201905061442b6000830185613e5d565b6144386020830184613ced565b9392505050565b7f4e487b7100000000000000000000000000000000000000000000000000000000600052602260045260246000fd5b6000600282049050600182168061448657607f821691505b6020821081036144995761449861443f565b5b50919050565b7f4e487b7100000000000000000000000000000000000000000000000000000000600052601160045260246000fd5b60006144d982613c49565b91506144e483613c49565b92508282026144f281613c49565b915082820484148315176145095761450861449f565b5b5092915050565b7f496e646578206f7574206f6620626f756e647300000000000000000000000000600082015250565b6000614546601383613d3e565b915061455182614510565b602082019050919050565b6000602082019050818103600083015261457581614539565b9050919050565b600061458782613c49565b915061459283613c49565b92508282039050818111156145aa576145a961449f565b5b92915050565b7f4e487b7100000000000000000000000000000000000000000000000000000000600052603260045260246000fd5b7f4e487b7100000000000000000000000000000000000000000000000000000000600052603160045260246000fd5b600061461982613c49565b915061462483613c49565b925082820190508082111561463c5761463b61449f565b5b92915050565b7f4e6f7420656e6f756768206d6f6e657900000000000000000000000000000000600082015250565b6000614678601083613d3e565b915061468382614642565b602082019050919050565b600060208201905081810360008301526146a78161466b565b9050919050565b7f4e6f7420656e6f75676820746f6b656e7320746f2073656c6c00000000000000600082015250565b60006146e4601983613d3e565b91506146ef826146ae565b602082019050919050565b60006020820190508181036000830152614713816146d7565b9050919050565b600081905092915050565b50565b600061473560008361471a565b915061474082614725565b600082019050919050565b600061475682614728565b9150819050919050565b7f4661696c656420746f2073656e64204574686572000000000000000000000000600082015250565b6000614796601483613d3e565b91506147a182614760565b602082019050919050565b600060208201905081810360008301526147c581614789565b9050919050565b7f416d6f756e74206e6565647320746f206265206d6f7265207468616e20300000600082015250565b6000614802601e83613d3e565b915061480d826147cc565b602082019050919050565b60006020820190508181036000830152614831816147f5565b9050919050565b7f5072696365206e6565647320746f206265206d6f7265207468616e2030000000600082015250565b600061486e601d83613d3e565b915061487982614838565b602082019050919050565b6000602082019050818103600083015261489d81614861565b9050919050565b7f4e6f7420666f722073616c650000000000000000000000000000000000000000600082015250565b60006148da600c83613d3e565b91506148e5826148a4565b602082019050919050565b60006020820190508181036000830152614909816148cd565b9050919050565b7f4e6f7420656e6f7567682065746865722073656e740000000000000000000000600082015250565b6000614946601583613d3e565b915061495182614910565b602082019050919050565b6000602082019050818103600083015261497581614939565b9050919050565b7f4f776e6572207374696c6c20646f6573206e6f74206861766520616c6c20746f60008201527f6b656e7300000000000000000000000000000000000000000000000000000000602082015250565b60006149d8602483613d3e565b91506149e38261497c565b604082019050919050565b60006020820190508181036000830152614a07816149cb565b9050919050565b6000606082019050614a236000830186613cde565b614a306020830185613cde565b614a3d6040830184613ced565b949350505050565b7f4e6f7420666f722053616c650000000000000000000000000000000000000000600082015250565b6000614a7b600c83613d3e565b9150614a8682614a45565b602082019050919050565b60006020820190508181036000830152614aaa81614a6e565b9050919050565b7f496e76616c6964205472616e73616374696f6e20496e64657800000000000000600082015250565b6000614ae7601983613d3e565b9150614af282614ab1565b602082019050919050565b60006020820190508181036000830152614b1681614ada565b9050919050565b7f4e6f7420656e6f75676820636f6e6669726d6174696f6e730000000000000000600082015250565b6000614b53601883613d3e565b9150614b5e82614b1d565b602082019050919050565b60006020820190508181036000830152614b8281614b46565b9050919050565b7f45524332303a2064656372656173656420616c6c6f77616e63652062656c6f7760008201527f207a65726f000000000000000000000000000000000000000000000000000000602082015250565b6000614be5602583613d3e565b9150614bf082614b89565b604082019050919050565b60006020820190508181036000830152614c1481614bd8565b9050919050565b7f526564656d7074696f6e206e6f7420617661696c61626c650000000000000000600082015250565b6000614c51601883613d3e565b9150614c5c82614c1b565b602082019050919050565b60006020820190508181036000830152614c8081614c44565b9050919050565b7f4e487b7100000000000000000000000000000000000000000000000000000000600052601260045260246000fd5b6000614cc182613c49565b9150614ccc83613c49565b925082614cdc57614cdb614c87565b5b828204905092915050565b7f50726f706f736564207072696365206c65737320746861742073616c6520707260008201527f6963650000000000000000000000000000000000000000000000000000000000602082015250565b6000614d43602383613d3e565b9150614d4e82614ce7565b604082019050919050565b60006020820190508181036000830152614d7281614d36565b9050919050565b7f4f776e61626c653a206e6577206f776e657220697320746865207a65726f206160008201527f6464726573730000000000000000000000000000000000000000000000000000602082015250565b6000614dd5602683613d3e565b9150614de082614d79565b604082019050919050565b60006020820190508181036000830152614e0481614dc8565b9050919050565b7f4e6f742061207374616b65686f6c646572000000000000000000000000000000600082015250565b6000614e41601183613d3e565b9150614e4c82614e0b565b602082019050919050565b60006020820190508181036000830152614e7081614e34565b9050919050565b7f416c726561647920436f6e6669726d6564000000000000000000000000000000600082015250565b6000614ead601183613d3e565b9150614eb882614e77565b602082019050919050565b60006020820190508181036000830152614edc81614ea0565b9050919050565b6000614eee82613c49565b91507fffffffffffffffffffffffffffffffffffffffffffffffffffffffffffffffff8203614f2057614f1f61449f565b5b600182019050919050565b7f4e6f7420536f6c64205965740000000000000000000000000000000000000000600082015250565b6000614f61600c83613d3e565b9150614f6c82614f2b565b602082019050919050565b60006020820190508181036000830152614f9081614f54565b9050919050565b7f4e6f74207468652066696e616c20627579657200000000000000000000000000600082015250565b6000614fcd601383613d3e565b9150614fd882614f97565b602082019050919050565b60006020820190508181036000830152614ffc81614fc0565b9050919050565b7f416c726561647920696e697469616c697a656400000000000000000000000000600082015250565b6000615039601383613d3e565b915061504482615003565b602082019050919050565b600060208201905081810360008301526150688161502c565b9050919050565b7f4f6e6c792054656e616e742063616e207061792072656e740000000000000000600082015250565b60006150a5601883613d3e565b91506150b08261506f565b602082019050919050565b600060208201905081810360008301526150d481615098565b9050919050565b7f53656e642045786163742052656e740000000000000000000000000000000000600082015250565b6000615111600f83613d3e565b915061511c826150db565b602082019050919050565b6000602082019050818103600083015261514081615104565b9050919050565b7f45524332303a20617070726f76652066726f6d20746865207a65726f2061646460008201527f7265737300000000000000000000000000000000000000000000000000000000602082015250565b60006151a3602483613d3e565b91506151ae82615147565b604082019050919050565b600060208201905081810360008301526151d281615196565b9050919050565b7f45524332303a20617070726f766520746f20746865207a65726f20616464726560008201527f7373000000000000000000000000000000000000000000000000000000000000602082015250565b6000615235602283613d3e565b9150615240826151d9565b604082019050919050565b6000602082019050818103600083015261526481615228565b9050919050565b7f4f776e61626c653a2063616c6c6572206973206e6f7420746865206f776e6572600082015250565b60006152a1602083613d3e565b91506152ac8261526b565b602082019050919050565b600060208201905081810360008301526152d081615294565b9050919050565b7f45524332303a20696e73756666696369656e7420616c6c6f77616e6365000000600082015250565b600061530d601d83613d3e565b9150615318826152d7565b602082019050919050565b6000602082019050818103600083015261533c81615300565b9050919050565b7f45524332303a207472616e736665722066726f6d20746865207a65726f20616460008201527f6472657373000000000000000000000000000000000000000000000000000000602082015250565b600061539f602583613d3e565b91506153aa82615343565b604082019050919050565b600060208201905081810360008301526153ce81615392565b9050919050565b7f45524332303a207472616e7366657220746f20746865207a65726f206164647260008201527f6573730000000000000000000000000000000000000000000000000000000000602082015250565b6000615431602383613d3e565b915061543c826153d5565b604082019050919050565b6000602082019050818103600083015261546081615424565b9050919050565b7f45524332303a207472616e7366657220616d6f756e742065786365656473206260008201527f616c616e63650000000000000000000000000000000000000000000000000000602082015250565b60006154c3602683613d3e565b91506154ce82615467565b604082019050919050565b600060208201905081810360008301526154f2816154b6565b9050919050565b7f45524332303a206275726e2066726f6d20746865207a65726f2061646472657360008201527f7300000000000000000000000000000000000000000000000000000000000000602082015250565b6000615555602183613d3e565b9150615560826154f9565b604082019050919050565b6000602082019050818103600083015261558481615548565b9050919050565b7f45524332303a206275726e20616d6f756e7420657863656564732062616c616e60008201527f6365000000000000000000000000000000000000000000000000000000000000602082015250565b60006155e7602283613d3e565b91506155f28261558b565b604082019050919050565b60006020820190508181036000830152615616816155da565b9050919050565b7f45524332303a206d696e7420746f20746865207a65726f206164647265737300600082015250565b6000615653601f83613d3e565b915061565e8261561d565b602082019050919050565b6000602082019050818103600083015261568281615646565b905091905056fea264697066735822122077ca16732c3346d992ed91a33098dab82a5833d5a06deb91cc327407d5e63be264736f6c63430008110033",
  "linkReferences": {},
  "deployedLinkReferences": {}
}