{
  "_format": "hh-sol-artifact-1",
  "contractName": "fractionalReal",
  "sourceName": "contracts/fractionalReal.sol",
  "abi": [
    {
      "inputs": [
        {
          "internalType": "address",
          "name": "_owner",
          "type": "address"
        },
        {
          "internalType": "string",
          "name": "name_",
          "type": "string"
        },
        {
          "internalType": "string",
          "name": "symbol_",
          "type": "string"
        }
      ],
      "stateMutability": "nonpayable",
      "type": "constructor"
    },
    {
      "anonymous": false,
      "inputs": [
        {
          "indexed": true,
          "internalType": "address",
          "name": "owner",
          "type": "address"
        },
        {
          "indexed": true,
          "internalType": "address",
          "name": "spender",
          "type": "address"
        },
        {
          "indexed": false,
          "internalType": "uint256",
          "name": "value",
          "type": "uint256"
        }
      ],
      "name": "Approval",
      "type": "event"
    },
    {
      "anonymous": false,
      "inputs": [
        {
          "indexed": true,
          "internalType": "address",
          "name": "previousOwner",
          "type": "address"
        },
        {
          "indexed": true,
          "internalType": "address",
          "name": "newOwner",
          "type": "address"
        }
      ],
      "name": "OwnershipTransferred",
      "type": "event"
    },
    {
      "anonymous": false,
      "inputs": [
        {
          "indexed": true,
          "internalType": "address",
          "name": "from",
          "type": "address"
        },
        {
          "indexed": true,
          "internalType": "address",
          "name": "to",
          "type": "address"
        },
        {
          "indexed": false,
          "internalType": "uint256",
          "name": "value",
          "type": "uint256"
        }
      ],
      "name": "Transfer",
      "type": "event"
    },
    {
      "inputs": [
        {
          "internalType": "uint256",
          "name": "_index",
          "type": "uint256"
        },
        {
          "internalType": "uint256",
          "name": "_rent",
          "type": "uint256"
        }
      ],
      "name": "acceptRequest",
      "outputs": [
        {
          "internalType": "bool",
          "name": "",
          "type": "bool"
        }
      ],
      "stateMutability": "nonpayable",
      "type": "function"
    },
    {
      "inputs": [],
      "name": "accumulated",
      "outputs": [
        {
          "internalType": "uint256",
          "name": "",
          "type": "uint256"
        }
      ],
      "stateMutability": "view",
      "type": "function"
    },
    {
      "inputs": [
        {
          "internalType": "address",
          "name": "owner",
          "type": "address"
        },
        {
          "internalType": "address",
          "name": "spender",
          "type": "address"
        }
      ],
      "name": "allowance",
      "outputs": [
        {
          "internalType": "uint256",
          "name": "",
          "type": "uint256"
        }
      ],
      "stateMutability": "view",
      "type": "function"
    },
    {
      "inputs": [
        {
          "internalType": "address",
          "name": "spender",
          "type": "address"
        },
        {
          "internalType": "uint256",
          "name": "amount",
          "type": "uint256"
        }
      ],
      "name": "approve",
      "outputs": [
        {
          "internalType": "bool",
          "name": "",
          "type": "bool"
        }
      ],
      "stateMutability": "nonpayable",
      "type": "function"
    },
    {
      "inputs": [
        {
          "internalType": "uint256",
          "name": "_txIndex",
          "type": "uint256"
        }
      ],
      "name": "approveProposal",
      "outputs": [],
      "stateMutability": "nonpayable",
      "type": "function"
    },
    {
      "inputs": [
        {
          "internalType": "address",
          "name": "account",
          "type": "address"
        }
      ],
      "name": "balanceOf",
      "outputs": [
        {
          "internalType": "uint256",
          "name": "",
          "type": "uint256"
        }
      ],
      "stateMutability": "view",
      "type": "function"
    },
    {
      "inputs": [
        {
          "internalType": "uint256",
          "name": "_index",
          "type": "uint256"
        }
      ],
      "name": "buyStakeFromStakeholder",
      "outputs": [
        {
          "internalType": "bool",
          "name": "",
          "type": "bool"
        }
      ],
      "stateMutability": "payable",
      "type": "function"
    },
    {
      "inputs": [],
      "name": "canRedeem",
      "outputs": [
        {
          "internalType": "bool",
          "name": "",
          "type": "bool"
        }
      ],
      "stateMutability": "view",
      "type": "function"
    },
    {
      "inputs": [],
      "name": "collection",
      "outputs": [
        {
          "internalType": "contract IERC721",
          "name": "",
          "type": "address"
        }
      ],
      "stateMutability": "view",
      "type": "function"
    },
    {
      "inputs": [
        {
          "internalType": "uint256",
          "name": "_txIndex",
          "type": "uint256"
        }
      ],
      "name": "confirmProposal",
      "outputs": [],
      "stateMutability": "nonpayable",
      "type": "function"
    },
    {
      "inputs": [],
      "name": "decimals",
      "outputs": [
        {
          "internalType": "uint8",
          "name": "",
          "type": "uint8"
        }
      ],
      "stateMutability": "view",
      "type": "function"
    },
    {
      "inputs": [
        {
          "internalType": "address",
          "name": "spender",
          "type": "address"
        },
        {
          "internalType": "uint256",
          "name": "subtractedValue",
          "type": "uint256"
        }
      ],
      "name": "decreaseAllowance",
      "outputs": [
        {
          "internalType": "bool",
          "name": "",
          "type": "bool"
        }
      ],
      "stateMutability": "nonpayable",
      "type": "function"
    },
    {
      "inputs": [],
      "name": "deposit",
      "outputs": [],
      "stateMutability": "payable",
      "type": "function"
    },
    {
      "inputs": [],
      "name": "distribute",
      "outputs": [],
      "stateMutability": "nonpayable",
      "type": "function"
    },
    {
      "inputs": [],
      "name": "forSale",
      "outputs": [
        {
          "internalType": "bool",
          "name": "",
          "type": "bool"
        }
      ],
      "stateMutability": "view",
      "type": "function"
    },
    {
      "inputs": [],
      "name": "getStakeSales",
      "outputs": [
        {
          "components": [
            {
              "internalType": "address",
              "name": "stakeholder",
              "type": "address"
            },
            {
              "internalType": "uint256",
              "name": "noOfTokens",
              "type": "uint256"
            },
            {
              "internalType": "uint256",
              "name": "priceOfToken",
              "type": "uint256"
            }
          ],
          "internalType": "struct fractionalReal.stakeSale[]",
          "name": "",
          "type": "tuple[]"
        }
      ],
      "stateMutability": "view",
      "type": "function"
    },
    {
      "inputs": [],
      "name": "getTenantRequests",
      "outputs": [
        {
          "internalType": "address[]",
          "name": "",
          "type": "address[]"
        }
      ],
      "stateMutability": "view",
      "type": "function"
    },
    {
      "inputs": [],
      "name": "getTenants",
      "outputs": [
        {
          "components": [
            {
              "internalType": "address",
              "name": "tenantAddress",
              "type": "address"
            },
            {
              "internalType": "uint256",
              "name": "rent",
              "type": "uint256"
            }
          ],
          "internalType": "struct fractionalReal.tenant[]",
          "name": "",
          "type": "tuple[]"
        }
      ],
      "stateMutability": "view",
      "type": "function"
    },
    {
      "inputs": [
        {
          "internalType": "address",
          "name": "spender",
          "type": "address"
        },
        {
          "internalType": "uint256",
          "name": "addedValue",
          "type": "uint256"
        }
      ],
      "name": "increaseAllowance",
      "outputs": [
        {
          "internalType": "bool",
          "name": "",
          "type": "bool"
        }
      ],
      "stateMutability": "nonpayable",
      "type": "function"
    },
    {
      "inputs": [
        {
          "internalType": "uint256",
          "name": "_noOfTokens",
          "type": "uint256"
        }
      ],
      "name": "initialize",
      "outputs": [],
      "stateMutability": "nonpayable",
      "type": "function"
    },
    {
      "inputs": [],
      "name": "initialized",
      "outputs": [
        {
          "internalType": "bool",
          "name": "",
          "type": "bool"
        }
      ],
      "stateMutability": "view",
      "type": "function"
    },
    {
      "inputs": [
        {
          "internalType": "uint256",
          "name": "",
          "type": "uint256"
        },
        {
          "internalType": "address",
          "name": "",
          "type": "address"
        }
      ],
      "name": "isConfirmed",
      "outputs": [
        {
          "internalType": "bool",
          "name": "",
          "type": "bool"
        }
      ],
      "stateMutability": "view",
      "type": "function"
    },
    {
      "inputs": [
        {
          "internalType": "address",
          "name": "_address",
          "type": "address"
        }
      ],
      "name": "isStakeholder",
      "outputs": [
        {
          "internalType": "bool",
          "name": "",
          "type": "bool"
        },
        {
          "internalType": "uint256",
          "name": "",
          "type": "uint256"
        }
      ],
      "stateMutability": "view",
      "type": "function"
    },
    {
      "inputs": [],
      "name": "name",
      "outputs": [
        {
          "internalType": "string",
          "name": "",
          "type": "string"
        }
      ],
      "stateMutability": "view",
      "type": "function"
    },
    {
      "inputs": [],
      "name": "numTokens",
      "outputs": [
        {
          "internalType": "uint256",
          "name": "",
          "type": "uint256"
        }
      ],
      "stateMutability": "view",
      "type": "function"
    },
    {
      "inputs": [
        {
          "internalType": "address",
          "name": "",
          "type": "address"
        },
        {
          "internalType": "address",
          "name": "",
          "type": "address"
        },
        {
          "internalType": "uint256",
          "name": "",
          "type": "uint256"
        },
        {
          "internalType": "bytes",
          "name": "",
          "type": "bytes"
        }
      ],
      "name": "onERC721Received",
      "outputs": [
        {
          "internalType": "bytes4",
          "name": "",
          "type": "bytes4"
        }
      ],
      "stateMutability": "nonpayable",
      "type": "function"
    },
    {
      "inputs": [],
      "name": "owner",
      "outputs": [
        {
          "internalType": "address",
          "name": "",
          "type": "address"
        }
      ],
      "stateMutability": "view",
      "type": "function"
    },
    {
      "inputs": [
        {
          "internalType": "uint256",
          "name": "",
          "type": "uint256"
        }
      ],
      "name": "proposals",
      "outputs": [
        {
          "internalType": "address",
          "name": "buyer",
          "type": "address"
        },
        {
          "internalType": "uint256",
          "name": "proposedPrice",
          "type": "uint256"
        },
        {
          "internalType": "uint256",
          "name": "noOfConfirmations",
          "type": "uint256"
        }
      ],
      "stateMutability": "view",
      "type": "function"
    },
    {
      "inputs": [],
      "name": "purchase",
      "outputs": [],
      "stateMutability": "payable",
      "type": "function"
    },
    {
      "inputs": [],
      "name": "purchaseBuyer",
      "outputs": [],
      "stateMutability": "payable",
      "type": "function"
    },
    {
      "inputs": [
        {
          "internalType": "uint256",
          "name": "price",
          "type": "uint256"
        }
      ],
      "name": "putForSale",
      "outputs": [],
      "stateMutability": "nonpayable",
      "type": "function"
    },
    {
      "inputs": [],
      "name": "redeem",
      "outputs": [],
      "stateMutability": "nonpayable",
      "type": "function"
    },
    {
      "inputs": [
        {
          "internalType": "uint256",
          "name": "_index",
          "type": "uint256"
        }
      ],
      "name": "rejectRequest",
      "outputs": [
        {
          "internalType": "bool",
          "name": "",
          "type": "bool"
        }
      ],
      "stateMutability": "nonpayable",
      "type": "function"
    },
    {
      "inputs": [],
      "name": "renounceOwnership",
      "outputs": [],
      "stateMutability": "nonpayable",
      "type": "function"
    },
    {
      "inputs": [],
      "name": "rentPayment",
      "outputs": [],
      "stateMutability": "payable",
      "type": "function"
    },
    {
      "inputs": [],
      "name": "requestToRent",
      "outputs": [
        {
          "internalType": "bool",
          "name": "",
          "type": "bool"
        }
      ],
      "stateMutability": "nonpayable",
      "type": "function"
    },
    {
      "inputs": [
        {
          "internalType": "address",
          "name": "",
          "type": "address"
        }
      ],
      "name": "revenues",
      "outputs": [
        {
          "internalType": "uint256",
          "name": "",
          "type": "uint256"
        }
      ],
      "stateMutability": "view",
      "type": "function"
    },
    {
      "inputs": [],
      "name": "salePrice",
      "outputs": [
        {
          "internalType": "uint256",
          "name": "",
          "type": "uint256"
        }
      ],
      "stateMutability": "view",
      "type": "function"
    },
    {
      "inputs": [
        {
          "internalType": "uint256",
          "name": "_noOfTokens",
          "type": "uint256"
        },
        {
          "internalType": "uint256",
          "name": "_priceOfToken",
          "type": "uint256"
        }
      ],
      "name": "sellStake",
      "outputs": [
        {
          "internalType": "bool",
          "name": "",
          "type": "bool"
        }
      ],
      "stateMutability": "nonpayable",
      "type": "function"
    },
    {
      "inputs": [
        {
          "internalType": "uint256",
          "name": "",
          "type": "uint256"
        }
      ],
      "name": "stakeSales",
      "outputs": [
        {
          "internalType": "address",
          "name": "stakeholder",
          "type": "address"
        },
        {
          "internalType": "uint256",
          "name": "noOfTokens",
          "type": "uint256"
        },
        {
          "internalType": "uint256",
          "name": "priceOfToken",
          "type": "uint256"
        }
      ],
      "stateMutability": "view",
      "type": "function"
    },
    {
      "inputs": [
        {
          "internalType": "uint256",
          "name": "",
          "type": "uint256"
        }
      ],
      "name": "stakeholders",
      "outputs": [
        {
          "internalType": "address",
          "name": "",
          "type": "address"
        }
      ],
      "stateMutability": "view",
      "type": "function"
    },
    {
      "inputs": [],
      "name": "status",
      "outputs": [
        {
          "internalType": "uint256",
          "name": "",
          "type": "uint256"
        }
      ],
      "stateMutability": "view",
      "type": "function"
    },
    {
      "inputs": [
        {
          "internalType": "uint256",
          "name": "_value",
          "type": "uint256"
        }
      ],
      "name": "submitProposalToBuy",
      "outputs": [],
      "stateMutability": "nonpayable",
      "type": "function"
    },
    {
      "inputs": [],
      "name": "symbol",
      "outputs": [
        {
          "internalType": "string",
          "name": "",
          "type": "string"
        }
      ],
      "stateMutability": "view",
      "type": "function"
    },
    {
      "inputs": [
        {
          "internalType": "uint256",
          "name": "",
          "type": "uint256"
        }
      ],
      "name": "tenantRequests",
      "outputs": [
        {
          "internalType": "address",
          "name": "",
          "type": "address"
        }
      ],
      "stateMutability": "view",
      "type": "function"
    },
    {
      "inputs": [
        {
          "internalType": "uint256",
          "name": "",
          "type": "uint256"
        }
      ],
      "name": "tenants",
      "outputs": [
        {
          "internalType": "address",
          "name": "tenantAddress",
          "type": "address"
        },
        {
          "internalType": "uint256",
          "name": "rent",
          "type": "uint256"
        }
      ],
      "stateMutability": "view",
      "type": "function"
    },
    {
      "inputs": [],
      "name": "tokenId",
      "outputs": [
        {
          "internalType": "uint256",
          "name": "",
          "type": "uint256"
        }
      ],
      "stateMutability": "view",
      "type": "function"
    },
    {
      "inputs": [],
      "name": "totalSupply",
      "outputs": [
        {
          "internalType": "uint256",
          "name": "",
          "type": "uint256"
        }
      ],
      "stateMutability": "view",
      "type": "function"
    },
    {
      "inputs": [
        {
          "internalType": "address",
          "name": "to",
          "type": "address"
        },
        {
          "internalType": "uint256",
          "name": "amount",
          "type": "uint256"
        }
      ],
      "name": "transfer",
      "outputs": [
        {
          "internalType": "bool",
          "name": "",
          "type": "bool"
        }
      ],
      "stateMutability": "nonpayable",
      "type": "function"
    },
    {
      "inputs": [
        {
          "internalType": "address",
          "name": "from",
          "type": "address"
        },
        {
          "internalType": "address",
          "name": "to",
          "type": "address"
        },
        {
          "internalType": "uint256",
          "name": "amount",
          "type": "uint256"
        }
      ],
      "name": "transferFrom",
      "outputs": [
        {
          "internalType": "bool",
          "name": "",
          "type": "bool"
        }
      ],
      "stateMutability": "nonpayable",
      "type": "function"
    },
    {
      "inputs": [
        {
          "internalType": "address",
          "name": "newOwner",
          "type": "address"
        }
      ],
      "name": "transferOwnership",
      "outputs": [],
      "stateMutability": "nonpayable",
      "type": "function"
    }
  ],
  "bytecode": "0x60806040526000600d60006101000a81548160ff0219169083151502179055506000600d60016101000a81548160ff0219169083151502179055506000600f60006101000a81548160ff0219169083151502179055506000601560006101000a81548160ff0219169083151502179055503480156200007d57600080fd5b5060405162006335380380620063358339818101604052810190620000a391906200041d565b81818160039081620000b6919062000702565b508060049081620000c8919062000702565b505050620000eb620000df6200015760201b60201c565b6200015f60201b60201c565b6007839080600181540180825580915050600190039060005260206000200160009091909190916101000a81548173ffffffffffffffffffffffffffffffffffffffff021916908373ffffffffffffffffffffffffffffffffffffffff160217905550505050620007e9565b600033905090565b6000600560009054906101000a900473ffffffffffffffffffffffffffffffffffffffff16905081600560006101000a81548173ffffffffffffffffffffffffffffffffffffffff021916908373ffffffffffffffffffffffffffffffffffffffff1602179055508173ffffffffffffffffffffffffffffffffffffffff168173ffffffffffffffffffffffffffffffffffffffff167f8be0079c531659141344cd1fd0a4f28419497f9722a3daafe3b4186f6b6457e060405160405180910390a35050565b6000604051905090565b600080fd5b600080fd5b600073ffffffffffffffffffffffffffffffffffffffff82169050919050565b6000620002668262000239565b9050919050565b620002788162000259565b81146200028457600080fd5b50565b60008151905062000298816200026d565b92915050565b600080fd5b600080fd5b6000601f19601f8301169050919050565b7f4e487b7100000000000000000000000000000000000000000000000000000000600052604160045260246000fd5b620002f382620002a8565b810181811067ffffffffffffffff82111715620003155762000314620002b9565b5b80604052505050565b60006200032a62000225565b9050620003388282620002e8565b919050565b600067ffffffffffffffff8211156200035b576200035a620002b9565b5b6200036682620002a8565b9050602081019050919050565b60005b838110156200039357808201518184015260208101905062000376565b60008484015250505050565b6000620003b6620003b0846200033d565b6200031e565b905082815260208101848484011115620003d557620003d4620002a3565b5b620003e284828562000373565b509392505050565b600082601f8301126200040257620004016200029e565b5b8151620004148482602086016200039f565b91505092915050565b6000806000606084860312156200043957620004386200022f565b5b6000620004498682870162000287565b935050602084015167ffffffffffffffff8111156200046d576200046c62000234565b5b6200047b86828701620003ea565b925050604084015167ffffffffffffffff8111156200049f576200049e62000234565b5b620004ad86828701620003ea565b9150509250925092565b600081519050919050565b7f4e487b7100000000000000000000000000000000000000000000000000000000600052602260045260246000fd5b600060028204905060018216806200050a57607f821691505b60208210810362000520576200051f620004c2565b5b50919050565b60008190508160005260206000209050919050565b60006020601f8301049050919050565b600082821b905092915050565b6000600883026200058a7fffffffffffffffffffffffffffffffffffffffffffffffffffffffffffffffff826200054b565b6200059686836200054b565b95508019841693508086168417925050509392505050565b6000819050919050565b6000819050919050565b6000620005e3620005dd620005d784620005ae565b620005b8565b620005ae565b9050919050565b6000819050919050565b620005ff83620005c2565b620006176200060e82620005ea565b84845462000558565b825550505050565b600090565b6200062e6200061f565b6200063b818484620005f4565b505050565b5b8181101562000663576200065760008262000624565b60018101905062000641565b5050565b601f821115620006b2576200067c8162000526565b62000687846200053b565b8101602085101562000697578190505b620006af620006a6856200053b565b83018262000640565b50505b505050565b600082821c905092915050565b6000620006d760001984600802620006b7565b1980831691505092915050565b6000620006f28383620006c4565b9150826002028217905092915050565b6200070d82620004b7565b67ffffffffffffffff811115620007295762000728620002b9565b5b620007358254620004f1565b6200074282828562000667565b600060209050601f8311600181146200077a576000841562000765578287015190505b620007718582620006e4565b865550620007e1565b601f1984166200078a8662000526565b60005b82811015620007b4578489015182556001820191506020850194506020810190506200078d565b86831015620007d45784890151620007d0601f891682620006c4565b8355505b6001600288020188555050505b505050505050565b615b3c80620007f96000396000f3fe6080604052600436106102e45760003560e01c806378ae98c811610190578063d0e30db0116100dc578063f2fde38b11610095578063f97ed5091161006f578063f97ed50914610ba7578063fdb5866a14610bd2578063fe4b84df14610bdc578063ff4c848214610c05576102e4565b8063f2fde38b14610b2a578063f4a4f4d214610b53578063f51f96dd14610b7c576102e4565b8063d0e30db014610a28578063dd62ed3e14610a32578063de67388814610a6f578063e4fc6b6d14610aac578063ea0cb51e14610ac3578063ef037b9014610aec576102e4565b806395d89b4111610149578063a9059cbb11610123578063a9059cbb14610957578063b6b6dd8f14610994578063bd2ba85d146109d3578063be040fb014610a11576102e4565b806395d89b41146108c657806398951b56146108f1578063a457c2d71461091a576102e4565b806378ae98c8146107a05780637a044323146107dd5780637de1e5361461080857806380f59a65146108335780638da5cb5b146108705780638e499bcf1461089b576102e4565b80632d7788db1161024f578063466ccac01161020857806358116227116101e2578063581162271461070557806364edfbf01461074257806370a082311461074c578063715018a614610789576102e4565b8063466ccac0146106845780634cc1eba5146106af57806353be7ded146106da576102e4565b80632d7788db14610559578063313ce5671461059657806339509351146105c15780633ab26198146105fe5780633e39a6a51461062e5780633fb95e2714610659576102e4565b806317d70f7c116102a157806317d70f7c1461043557806318160ddd146104605780631d6b8b721461048b5780631f078ced146104c8578063200d2ed2146104f157806323b872dd1461051c576102e4565b8063013cf08b146102e957806306fdde0314610328578063095ea7b3146103535780630e62bbae14610390578063150b7a02146103cd578063158ef93e1461040a575b600080fd5b3480156102f557600080fd5b50610310600480360381019061030b9190613f2b565b610c0f565b60405161031f93929190613fa8565b60405180910390f35b34801561033457600080fd5b5061033d610c69565b60405161034a919061406f565b60405180910390f35b34801561035f57600080fd5b5061037a600480360381019061037591906140bd565b610cfb565b6040516103879190614118565b60405180910390f35b34801561039c57600080fd5b506103b760048036038101906103b29190613f2b565b610d1e565b6040516103c49190614133565b60405180910390f35b3480156103d957600080fd5b506103f460048036038101906103ef9190614283565b610d5d565b6040516104019190614341565b60405180910390f35b34801561041657600080fd5b5061041f610d71565b60405161042c9190614118565b60405180910390f35b34801561044157600080fd5b5061044a610d84565b604051610457919061435c565b60405180910390f35b34801561046c57600080fd5b50610475610d8a565b604051610482919061435c565b60405180910390f35b34801561049757600080fd5b506104b260048036038101906104ad9190613f2b565b610d94565b6040516104bf9190614133565b60405180910390f35b3480156104d457600080fd5b506104ef60048036038101906104ea9190613f2b565b610dd3565b005b3480156104fd57600080fd5b50610506610e13565b604051610513919061435c565b60405180910390f35b34801561052857600080fd5b50610543600480360381019061053e9190614377565b610e19565b6040516105509190614118565b60405180910390f35b34801561056557600080fd5b50610580600480360381019061057b9190613f2b565b610e48565b60405161058d9190614118565b60405180910390f35b3480156105a257600080fd5b506105ab610f95565b6040516105b891906143e6565b60405180910390f35b3480156105cd57600080fd5b506105e860048036038101906105e391906140bd565b610f9e565b6040516105f59190614118565b60405180910390f35b61061860048036038101906106139190613f2b565b610fd5565b6040516106259190614118565b60405180910390f35b34801561063a57600080fd5b5061064361148e565b60405161065091906144bf565b60405180910390f35b34801561066557600080fd5b5061066e61151c565b60405161067b91906145e1565b60405180910390f35b34801561069057600080fd5b506106996115e5565b6040516106a69190614118565b60405180910390f35b3480156106bb57600080fd5b506106c46115f8565b6040516106d19190614118565b60405180910390f35b3480156106e657600080fd5b506106ef611664565b6040516106fc91906146e1565b60405180910390f35b34801561071157600080fd5b5061072c60048036038101906107279190614703565b611723565b6040516107399190614118565b60405180910390f35b61074a6118b8565b005b34801561075857600080fd5b50610773600480360381019061076e9190614743565b611c23565b604051610780919061435c565b60405180910390f35b34801561079557600080fd5b5061079e611c6b565b005b3480156107ac57600080fd5b506107c760048036038101906107c29190614743565b611c7f565b6040516107d4919061435c565b60405180910390f35b3480156107e957600080fd5b506107f2611c97565b6040516107ff919061435c565b60405180910390f35b34801561081457600080fd5b5061081d611c9d565b60405161082a91906147cf565b60405180910390f35b34801561083f57600080fd5b5061085a600480360381019061085591906147ea565b611cc3565b6040516108679190614118565b60405180910390f35b34801561087c57600080fd5b50610885611cf2565b6040516108929190614133565b60405180910390f35b3480156108a757600080fd5b506108b0611d1c565b6040516108bd919061435c565b60405180910390f35b3480156108d257600080fd5b506108db611d22565b6040516108e8919061406f565b60405180910390f35b3480156108fd57600080fd5b5061091860048036038101906109139190613f2b565b611db4565b005b34801561092657600080fd5b50610941600480360381019061093c91906140bd565b611f6e565b60405161094e9190614118565b60405180910390f35b34801561096357600080fd5b5061097e600480360381019061097991906140bd565b611fe5565b60405161098b9190614118565b60405180910390f35b3480156109a057600080fd5b506109bb60048036038101906109b69190613f2b565b612008565b6040516109ca93929190613fa8565b60405180910390f35b3480156109df57600080fd5b506109fa60048036038101906109f59190613f2b565b612062565b604051610a0892919061482a565b60405180910390f35b348015610a1d57600080fd5b50610a266120b6565b005b610a3061230e565b005b348015610a3e57600080fd5b50610a596004803603810190610a549190614853565b6124a1565b604051610a66919061435c565b60405180910390f35b348015610a7b57600080fd5b50610a966004803603810190610a919190614703565b612528565b604051610aa39190614118565b60405180910390f35b348015610ab857600080fd5b50610ac161275d565b005b348015610acf57600080fd5b50610aea6004803603810190610ae59190613f2b565b6129ca565b005b348015610af857600080fd5b50610b136004803603810190610b0e9190614743565b612b5f565b604051610b21929190614893565b60405180910390f35b348015610b3657600080fd5b50610b516004803603810190610b4c9190614743565b612c12565b005b348015610b5f57600080fd5b50610b7a6004803603810190610b759190613f2b565b612c95565b005b348015610b8857600080fd5b50610b91612ece565b604051610b9e919061435c565b60405180910390f35b348015610bb357600080fd5b50610bbc612ed4565b604051610bc99190614118565b60405180910390f35b610bda612ee7565b005b348015610be857600080fd5b50610c036004803603810190610bfe9190613f2b565b613339565b005b610c0d61340b565b005b60168181548110610c1f57600080fd5b90600052602060002090600302016000915090508060000160009054906101000a900473ffffffffffffffffffffffffffffffffffffffff16908060010154908060020154905083565b606060038054610c78906148eb565b80601f0160208091040260200160405190810160405280929190818152602001828054610ca4906148eb565b8015610cf15780601f10610cc657610100808354040283529160200191610cf1565b820191906000526020600020905b815481529060010190602001808311610cd457829003601f168201915b5050505050905090565b600080610d06613587565b9050610d1381858561358f565b600191505092915050565b60128181548110610d2e57600080fd5b906000526020600020016000915054906101000a900473ffffffffffffffffffffffffffffffffffffffff1681565b600063150b7a0260e01b9050949350505050565b600d60009054906101000a900460ff1681565b600c5481565b6000600254905090565b60078181548110610da457600080fd5b906000526020600020016000915054906101000a900473ffffffffffffffffffffffffffffffffffffffff1681565b610ddb613758565b670de0b6b3a764000081610def919061494b565b600e819055506001600d60016101000a81548160ff02191690831515021790555050565b60085481565b600080610e24613587565b9050610e318582856137d6565b610e3c858585613862565b60019150509392505050565b6000610e52613758565b6012805490508210610e99576040517f08c379a0000000000000000000000000000000000000000000000000000000008152600401610e90906149d9565b60405180910390fd5b60126001601280549050610ead91906149f9565b81548110610ebe57610ebd614a2d565b5b9060005260206000200160009054906101000a900473ffffffffffffffffffffffffffffffffffffffff1660128381548110610efd57610efc614a2d565b5b9060005260206000200160006101000a81548173ffffffffffffffffffffffffffffffffffffffff021916908373ffffffffffffffffffffffffffffffffffffffff1602179055506012805480610f5757610f56614a5c565b5b6001900381819060005260206000200160006101000a81549073ffffffffffffffffffffffffffffffffffffffff0219169055905560019050919050565b60006012905090565b600080610fa9613587565b9050610fca818585610fbb85896124a1565b610fc59190614a8b565b61358f565b600191505092915050565b6000601180549050821061101e576040517f08c379a0000000000000000000000000000000000000000000000000000000008152600401611015906149d9565b60405180910390fd5b6011828154811061103257611031614a2d565b5b9060005260206000209060030201600101546011838154811061105857611057614a2d565b5b906000526020600020906003020160020154611074919061494b565b3410156110b6576040517f08c379a00000000000000000000000000000000000000000000000000000000081526004016110ad90614b0b565b60405180910390fd5b601182815481106110ca576110c9614a2d565b5b90600052602060002090600302016001015461112a601184815481106110f3576110f2614a2d565b5b906000526020600020906003020160000160009054906101000a900473ffffffffffffffffffffffffffffffffffffffff16611c23565b101561116b576040517f08c379a000000000000000000000000000000000000000000000000000000000815260040161116290614b77565b60405180910390fd5b6111e06011838154811061118257611181614a2d565b5b906000526020600020906003020160000160009054906101000a900473ffffffffffffffffffffffffffffffffffffffff1633601185815481106111c9576111c8614a2d565b5b906000526020600020906003020160010154613862565b6000601183815481106111f6576111f5614a2d565b5b906000526020600020906003020160000160009054906101000a900473ffffffffffffffffffffffffffffffffffffffff16905060008173ffffffffffffffffffffffffffffffffffffffff163460405161125090614bc8565b60006040518083038185875af1925050503d806000811461128d576040519150601f19603f3d011682016040523d82523d6000602084013e611292565b606091505b50509050806112d6576040517f08c379a00000000000000000000000000000000000000000000000000000000081526004016112cd90614c29565b60405180910390fd5b601160016011805490506112ea91906149f9565b815481106112fb576112fa614a2d565b5b90600052602060002090600302016011858154811061131d5761131c614a2d565b5b90600052602060002090600302016000820160009054906101000a900473ffffffffffffffffffffffffffffffffffffffff168160000160006101000a81548173ffffffffffffffffffffffffffffffffffffffff021916908373ffffffffffffffffffffffffffffffffffffffff160217905550600182015481600101556002820154816002015590505060118054806113bb576113ba614a5c565b5b6001900381819060005260206000209060030201600080820160006101000a81549073ffffffffffffffffffffffffffffffffffffffff02191690556001820160009055600282016000905550509055600061141633612b5f565b50905080611482576007339080600181540180825580915050600190039060005260206000200160009091909190916101000a81548173ffffffffffffffffffffffffffffffffffffffff021916908373ffffffffffffffffffffffffffffffffffffffff1602179055505b60019350505050919050565b6060601280548060200260200160405190810160405280929190818152602001828054801561151257602002820191906000526020600020905b8160009054906101000a900473ffffffffffffffffffffffffffffffffffffffff1673ffffffffffffffffffffffffffffffffffffffff16815260200190600101908083116114c8575b5050505050905090565b60606011805480602002602001604051908101604052809291908181526020016000905b828210156115dc57838290600052602060002090600302016040518060600160405290816000820160009054906101000a900473ffffffffffffffffffffffffffffffffffffffff1673ffffffffffffffffffffffffffffffffffffffff1673ffffffffffffffffffffffffffffffffffffffff1681526020016001820154815260200160028201548152505081526020019060010190611540565b50505050905090565b600d60019054906101000a900460ff1681565b60006012339080600181540180825580915050600190039060005260206000200160009091909190916101000a81548173ffffffffffffffffffffffffffffffffffffffff021916908373ffffffffffffffffffffffffffffffffffffffff1602179055506001905090565b60606010805480602002602001604051908101604052809291908181526020016000905b8282101561171a57838290600052602060002090600202016040518060400160405290816000820160009054906101000a900473ffffffffffffffffffffffffffffffffffffffff1673ffffffffffffffffffffffffffffffffffffffff1673ffffffffffffffffffffffffffffffffffffffff16815260200160018201548152505081526020019060010190611688565b50505050905090565b6000808311611767576040517f08c379a000000000000000000000000000000000000000000000000000000000815260040161175e90614c95565b60405180910390fd5b600082116117aa576040517f08c379a00000000000000000000000000000000000000000000000000000000081526004016117a190614d01565b60405180910390fd5b826117b433611c23565b10156117f5576040517f08c379a00000000000000000000000000000000000000000000000000000000081526004016117ec90614b77565b60405180910390fd5b601160405180606001604052803373ffffffffffffffffffffffffffffffffffffffff16815260200185815260200184815250908060018154018082558091505060019003906000526020600020906003020160009091909190915060008201518160000160006101000a81548173ffffffffffffffffffffffffffffffffffffffff021916908373ffffffffffffffffffffffffffffffffffffffff160217905550602082015181600101556040820151816002015550506001905092915050565b600d60019054906101000a900460ff16611907576040517f08c379a00000000000000000000000000000000000000000000000000000000081526004016118fe90614d6d565b60405180910390fd5b600e5434101561194c576040517f08c379a000000000000000000000000000000000000000000000000000000000815260040161194390614dd9565b60405180910390fd5b611954610d8a565b61199c600760008154811061196c5761196b614a2d565b5b9060005260206000200160009054906101000a900473ffffffffffffffffffffffffffffffffffffffff16611c23565b146119dc576040517f08c379a00000000000000000000000000000000000000000000000000000000081526004016119d390614e6b565b60405180910390fd5b600b60009054906101000a900473ffffffffffffffffffffffffffffffffffffffff1673ffffffffffffffffffffffffffffffffffffffff166323b872dd3033600c546040518463ffffffff1660e01b8152600401611a3d93929190614e8b565b600060405180830381600087803b158015611a5757600080fd5b505af1158015611a6b573d6000803e3d6000fd5b50505050611aff6007600081548110611a8757611a86614a2d565b5b9060005260206000200160009054906101000a900473ffffffffffffffffffffffffffffffffffffffff16611afa6007600081548110611aca57611ac9614a2d565b5b9060005260206000200160009054906101000a900473ffffffffffffffffffffffffffffffffffffffff16611c23565b613ad8565b60006007600081548110611b1657611b15614a2d565b5b9060005260206000200160009054906101000a900473ffffffffffffffffffffffffffffffffffffffff1673ffffffffffffffffffffffffffffffffffffffff1634604051611b6490614bc8565b60006040518083038185875af1925050503d8060008114611ba1576040519150601f19603f3d011682016040523d82523d6000602084013e611ba6565b606091505b5050905080611bea576040517f08c379a0000000000000000000000000000000000000000000000000000000008152600401611be190614c29565b60405180910390fd5b6000600d60016101000a81548160ff0219169083151502179055506000600f60006101000a81548160ff02191690831515021790555050565b60008060008373ffffffffffffffffffffffffffffffffffffffff1673ffffffffffffffffffffffffffffffffffffffff168152602001908152602001600020549050919050565b611c73613758565b611c7d6000613ca5565b565b60096020528060005260406000206000915090505481565b600a5481565b600b60009054906101000a900473ffffffffffffffffffffffffffffffffffffffff1681565b60176020528160005260406000206020528060005260406000206000915091509054906101000a900460ff1681565b6000600560009054906101000a900473ffffffffffffffffffffffffffffffffffffffff16905090565b60065481565b606060048054611d31906148eb565b80601f0160208091040260200160405190810160405280929190818152602001828054611d5d906148eb565b8015611daa5780601f10611d7f57610100808354040283529160200191611daa565b820191906000526020600020905b815481529060010190602001808311611d8d57829003601f168201915b5050505050905090565b611dbc613758565b600d60019054906101000a900460ff16611e0b576040517f08c379a0000000000000000000000000000000000000000000000000000000008152600401611e0290614f0e565b60405180910390fd5b6016805490508110611e52576040517f08c379a0000000000000000000000000000000000000000000000000000000008152600401611e4990614f7a565b60405180910390fd5b600060168281548110611e6857611e67614a2d565b5b9060005260206000209060030201905060078054905081600201541015611ec4576040517f08c379a0000000000000000000000000000000000000000000000000000000008152600401611ebb90614fe6565b60405180910390fd5b6001601560006101000a81548160ff0219169083151502179055506000600d60016101000a81548160ff02191690831515021790555080600101546014819055508060000160009054906101000a900473ffffffffffffffffffffffffffffffffffffffff16601360006101000a81548173ffffffffffffffffffffffffffffffffffffffff021916908373ffffffffffffffffffffffffffffffffffffffff1602179055505050565b600080611f79613587565b90506000611f8782866124a1565b905083811015611fcc576040517f08c379a0000000000000000000000000000000000000000000000000000000008152600401611fc390615078565b60405180910390fd5b611fd9828686840361358f565b60019250505092915050565b600080611ff0613587565b9050611ffd818585613862565b600191505092915050565b6011818154811061201857600080fd5b90600052602060002090600302016000915090508060000160009054906101000a900473ffffffffffffffffffffffffffffffffffffffff16908060010154908060020154905083565b6010818154811061207257600080fd5b90600052602060002090600202016000915090508060000160009054906101000a900473ffffffffffffffffffffffffffffffffffffffff16908060010154905082565b600f60009054906101000a900460ff16612105576040517f08c379a00000000000000000000000000000000000000000000000000000000081526004016120fc906150e4565b60405180910390fd5b600080600090505b6007805490508110156121a3573373ffffffffffffffffffffffffffffffffffffffff166007828154811061214557612144614a2d565b5b9060005260206000200160009054906101000a900473ffffffffffffffffffffffffffffffffffffffff1673ffffffffffffffffffffffffffffffffffffffff160361218f578091505b60018161219c9190614a8b565b905061210d565b506000600782815481106121ba576121b9614a2d565b5b9060005260206000200160009054906101000a900473ffffffffffffffffffffffffffffffffffffffff1690506000600960008373ffffffffffffffffffffffffffffffffffffffff1673ffffffffffffffffffffffffffffffffffffffff1681526020019081526020016000205490506000600960008473ffffffffffffffffffffffffffffffffffffffff1673ffffffffffffffffffffffffffffffffffffffff168152602001908152602001600020819055508173ffffffffffffffffffffffffffffffffffffffff166108fc829081150290604051600060405180830381858888f193505050501580156122b6573d6000803e3d6000fd5b506123093360076000815481106122d0576122cf614a2d565b5b9060005260206000200160009054906101000a900473ffffffffffffffffffffffffffffffffffffffff1661230485611c23565b613862565b505050565b612316613758565b600e5434101561235b576040517f08c379a000000000000000000000000000000000000000000000000000000000815260040161235290614dd9565b60405180910390fd5b60005b6007805490508110156124835760006007828154811061238157612380614a2d565b5b9060005260206000200160009054906101000a900473ffffffffffffffffffffffffffffffffffffffff16905060006123b8610d8a565b6123c183611c23565b476123cc919061494b565b6123d69190615133565b905061242a81600960008573ffffffffffffffffffffffffffffffffffffffff1673ffffffffffffffffffffffffffffffffffffffff16815260200190815260200160002054613d6b90919063ffffffff16565b600960008473ffffffffffffffffffffffffffffffffffffffff1673ffffffffffffffffffffffffffffffffffffffff16815260200190815260200160002081905550505060018161247c9190614a8b565b905061235e565b506001600f60006101000a81548160ff021916908315150217905550565b6000600160008473ffffffffffffffffffffffffffffffffffffffff1673ffffffffffffffffffffffffffffffffffffffff16815260200190815260200160002060008373ffffffffffffffffffffffffffffffffffffffff1673ffffffffffffffffffffffffffffffffffffffff16815260200190815260200160002054905092915050565b6000612532613758565b6012805490508310612579576040517f08c379a0000000000000000000000000000000000000000000000000000000008152600401612570906149d9565b60405180910390fd5b601060405180604001604052806012868154811061259a57612599614a2d565b5b9060005260206000200160009054906101000a900473ffffffffffffffffffffffffffffffffffffffff1673ffffffffffffffffffffffffffffffffffffffff16815260200184815250908060018154018082558091505060019003906000526020600020906002020160009091909190915060008201518160000160006101000a81548173ffffffffffffffffffffffffffffffffffffffff021916908373ffffffffffffffffffffffffffffffffffffffff1602179055506020820151816001015550506012600160128054905061267491906149f9565b8154811061268557612684614a2d565b5b9060005260206000200160009054906101000a900473ffffffffffffffffffffffffffffffffffffffff16601284815481106126c4576126c3614a2d565b5b9060005260206000200160006101000a81548173ffffffffffffffffffffffffffffffffffffffff021916908373ffffffffffffffffffffffffffffffffffffffff160217905550601280548061271e5761271d614a5c565b5b6001900381819060005260206000200160006101000a81549073ffffffffffffffffffffffffffffffffffffffff021916905590556001905092915050565b612765613758565b60005b60078054905081101561288d5760006007828154811061278b5761278a614a2d565b5b9060005260206000200160009054906101000a900473ffffffffffffffffffffffffffffffffffffffff16905060006127c2610d8a565b6127cb83611c23565b476127d6919061494b565b6127e09190615133565b905061283481600960008573ffffffffffffffffffffffffffffffffffffffff1673ffffffffffffffffffffffffffffffffffffffff16815260200190815260200160002054613d6b90919063ffffffff16565b600960008473ffffffffffffffffffffffffffffffffffffffff1673ffffffffffffffffffffffffffffffffffffffff1681526020019081526020016000208190555050506001816128869190614a8b565b9050612768565b5060005b6007805490508110156129c7576000600782815481106128b4576128b3614a2d565b5b9060005260206000200160009054906101000a900473ffffffffffffffffffffffffffffffffffffffff1690506000600960008373ffffffffffffffffffffffffffffffffffffffff1673ffffffffffffffffffffffffffffffffffffffff1681526020019081526020016000205490506000600960008473ffffffffffffffffffffffffffffffffffffffff1673ffffffffffffffffffffffffffffffffffffffff168152602001908152602001600020819055508173ffffffffffffffffffffffffffffffffffffffff166108fc829081150290604051600060405180830381858888f193505050501580156129b0573d6000803e3d6000fd5b5050506001816129c09190614a8b565b9050612891565b50565b600d60019054906101000a900460ff16612a19576040517f08c379a0000000000000000000000000000000000000000000000000000000008152600401612a1090614d6d565b60405180910390fd5b6000670de0b6b3a764000082612a2f919061494b565b9050600e54811015612a76576040517f08c379a0000000000000000000000000000000000000000000000000000000008152600401612a6d906151d6565b60405180910390fd5b60011515600d60019054906101000a900460ff161515148015612a9b5750600e548110155b15612b5b57601660405180606001604052803373ffffffffffffffffffffffffffffffffffffffff1681526020018381526020016000815250908060018154018082558091505060019003906000526020600020906003020160009091909190915060008201518160000160006101000a81548173ffffffffffffffffffffffffffffffffffffffff021916908373ffffffffffffffffffffffffffffffffffffffff160217905550602082015181600101556040820151816002015550505b5050565b60008060005b600780549050811015612c045760078181548110612b8657612b85614a2d565b5b9060005260206000200160009054906101000a900473ffffffffffffffffffffffffffffffffffffffff1673ffffffffffffffffffffffffffffffffffffffff168473ffffffffffffffffffffffffffffffffffffffff1603612bf0576001819250925050612c0d565b600181612bfd9190614a8b565b9050612b65565b50600080915091505b915091565b612c1a613758565b600073ffffffffffffffffffffffffffffffffffffffff168173ffffffffffffffffffffffffffffffffffffffff1603612c89576040517f08c379a0000000000000000000000000000000000000000000000000000000008152600401612c8090615268565b60405180910390fd5b612c9281613ca5565b50565b600d60019054906101000a900460ff16612ce4576040517f08c379a0000000000000000000000000000000000000000000000000000000008152600401612cdb90614f0e565b60405180910390fd5b6016805490508110612d2b576040517f08c379a0000000000000000000000000000000000000000000000000000000008152600401612d2290614f7a565b60405180910390fd5b600080612d3733612b5f565b9150915081612d7b576040517f08c379a0000000000000000000000000000000000000000000000000000000008152600401612d72906152d4565b60405180910390fd5b600015156017600085815260200190815260200160002060003373ffffffffffffffffffffffffffffffffffffffff1673ffffffffffffffffffffffffffffffffffffffff16815260200190815260200160002060009054906101000a900460ff16151514612e1f576040517f08c379a0000000000000000000000000000000000000000000000000000000008152600401612e1690615340565b60405180910390fd5b600060168481548110612e3557612e34614a2d565b5b9060005260206000209060030201905060016017600086815260200190815260200160002060003373ffffffffffffffffffffffffffffffffffffffff1673ffffffffffffffffffffffffffffffffffffffff16815260200190815260200160002060006101000a81548160ff021916908315150217905550806002016000815480929190612ec390615360565b919050555050505050565b600e5481565b600f60009054906101000a900460ff1681565b601560009054906101000a900460ff16612f36576040517f08c379a0000000000000000000000000000000000000000000000000000000008152600401612f2d906153f4565b60405180910390fd5b601360009054906101000a900473ffffffffffffffffffffffffffffffffffffffff1673ffffffffffffffffffffffffffffffffffffffff163373ffffffffffffffffffffffffffffffffffffffff1614612fc6576040517f08c379a0000000000000000000000000000000000000000000000000000000008152600401612fbd90615460565b60405180910390fd5b60145434101561300b576040517f08c379a000000000000000000000000000000000000000000000000000000000815260040161300290614dd9565b60405180910390fd5b600b60009054906101000a900473ffffffffffffffffffffffffffffffffffffffff1673ffffffffffffffffffffffffffffffffffffffff166323b872dd3033600c546040518463ffffffff1660e01b815260040161306c93929190614e8b565b600060405180830381600087803b15801561308657600080fd5b505af115801561309a573d6000803e3d6000fd5b5050505060005b6007805490508110156131c6576000600782815481106130c4576130c3614a2d565b5b9060005260206000200160009054906101000a900473ffffffffffffffffffffffffffffffffffffffff16905060006130fb610d8a565b61310483611c23565b4761310f919061494b565b6131199190615133565b905061316d81600960008573ffffffffffffffffffffffffffffffffffffffff1673ffffffffffffffffffffffffffffffffffffffff16815260200190815260200160002054613d6b90919063ffffffff16565b600960008473ffffffffffffffffffffffffffffffffffffffff1673ffffffffffffffffffffffffffffffffffffffff1681526020019081526020016000208190555050506001816131bf9190614a8b565b90506130a1565b5060005b600780549050811015613300576000600782815481106131ed576131ec614a2d565b5b9060005260206000200160009054906101000a900473ffffffffffffffffffffffffffffffffffffffff1690506000600960008373ffffffffffffffffffffffffffffffffffffffff1673ffffffffffffffffffffffffffffffffffffffff1681526020019081526020016000205490506000600960008473ffffffffffffffffffffffffffffffffffffffff1673ffffffffffffffffffffffffffffffffffffffff168152602001908152602001600020819055508173ffffffffffffffffffffffffffffffffffffffff166108fc829081150290604051600060405180830381858888f193505050501580156132e9573d6000803e3d6000fd5b5050506001816132f99190614a8b565b90506131ca565b506000600d60016101000a81548160ff0219169083151502179055506001600f60006101000a81548160ff021916908315150217905550565b613341613758565b600d60009054906101000a900460ff1615613391576040517f08c379a0000000000000000000000000000000000000000000000000000000008152600401613388906154cc565b60405180910390fd5b600081116133d4576040517f08c379a00000000000000000000000000000000000000000000000000000000081526004016133cb90614c95565b60405180910390fd5b6001600d60006101000a81548160ff0219169083151502179055506000600881905550806006819055506134083382613d81565b50565b60003490506000806000905060005b6010805490508110156134df576010818154811061343b5761343a614a2d565b5b906000526020600020906002020160000160009054906101000a900473ffffffffffffffffffffffffffffffffffffffff1673ffffffffffffffffffffffffffffffffffffffff163373ffffffffffffffffffffffffffffffffffffffff16036134cc5760019150601081815481106134b7576134b6614a2d565b5b90600052602060002090600202016001015492505b80806134d790615360565b91505061341a565b506001151581151514613527576040517f08c379a000000000000000000000000000000000000000000000000000000000815260040161351e90615538565b60405180910390fd5b818314613569576040517f08c379a0000000000000000000000000000000000000000000000000000000008152600401613560906155a4565b60405180910390fd5b82600a600082825461357b9190614a8b565b92505081905550505050565b600033905090565b600073ffffffffffffffffffffffffffffffffffffffff168373ffffffffffffffffffffffffffffffffffffffff16036135fe576040517f08c379a00000000000000000000000000000000000000000000000000000000081526004016135f590615636565b60405180910390fd5b600073ffffffffffffffffffffffffffffffffffffffff168273ffffffffffffffffffffffffffffffffffffffff160361366d576040517f08c379a0000000000000000000000000000000000000000000000000000000008152600401613664906156c8565b60405180910390fd5b80600160008573ffffffffffffffffffffffffffffffffffffffff1673ffffffffffffffffffffffffffffffffffffffff16815260200190815260200160002060008473ffffffffffffffffffffffffffffffffffffffff1673ffffffffffffffffffffffffffffffffffffffff168152602001908152602001600020819055508173ffffffffffffffffffffffffffffffffffffffff168373ffffffffffffffffffffffffffffffffffffffff167f8c5be1e5ebec7d5bd14f71427d1e84f3dd0314c0f7b2291e5b200ac8c7c3b9258360405161374b919061435c565b60405180910390a3505050565b613760613587565b73ffffffffffffffffffffffffffffffffffffffff1661377e611cf2565b73ffffffffffffffffffffffffffffffffffffffff16146137d4576040517f08c379a00000000000000000000000000000000000000000000000000000000081526004016137cb90615734565b60405180910390fd5b565b60006137e284846124a1565b90507fffffffffffffffffffffffffffffffffffffffffffffffffffffffffffffffff811461385c578181101561384e576040517f08c379a0000000000000000000000000000000000000000000000000000000008152600401613845906157a0565b60405180910390fd5b61385b848484840361358f565b5b50505050565b600073ffffffffffffffffffffffffffffffffffffffff168373ffffffffffffffffffffffffffffffffffffffff16036138d1576040517f08c379a00000000000000000000000000000000000000000000000000000000081526004016138c890615832565b60405180910390fd5b600073ffffffffffffffffffffffffffffffffffffffff168273ffffffffffffffffffffffffffffffffffffffff1603613940576040517f08c379a0000000000000000000000000000000000000000000000000000000008152600401613937906158c4565b60405180910390fd5b61394b838383613ed7565b60008060008573ffffffffffffffffffffffffffffffffffffffff1673ffffffffffffffffffffffffffffffffffffffff168152602001908152602001600020549050818110156139d1576040517f08c379a00000000000000000000000000000000000000000000000000000000081526004016139c890615956565b60405180910390fd5b8181036000808673ffffffffffffffffffffffffffffffffffffffff1673ffffffffffffffffffffffffffffffffffffffff16815260200190815260200160002081905550816000808573ffffffffffffffffffffffffffffffffffffffff1673ffffffffffffffffffffffffffffffffffffffff168152602001908152602001600020600082825401925050819055508273ffffffffffffffffffffffffffffffffffffffff168473ffffffffffffffffffffffffffffffffffffffff167fddf252ad1be2c89b69c2b068fc378daa952ba7f163c4a11628f55a4df523b3ef84604051613abf919061435c565b60405180910390a3613ad2848484613edc565b50505050565b600073ffffffffffffffffffffffffffffffffffffffff168273ffffffffffffffffffffffffffffffffffffffff1603613b47576040517f08c379a0000000000000000000000000000000000000000000000000000000008152600401613b3e906159e8565b60405180910390fd5b613b5382600083613ed7565b60008060008473ffffffffffffffffffffffffffffffffffffffff1673ffffffffffffffffffffffffffffffffffffffff16815260200190815260200160002054905081811015613bd9576040517f08c379a0000000000000000000000000000000000000000000000000000000008152600401613bd090615a7a565b60405180910390fd5b8181036000808573ffffffffffffffffffffffffffffffffffffffff1673ffffffffffffffffffffffffffffffffffffffff1681526020019081526020016000208190555081600260008282540392505081905550600073ffffffffffffffffffffffffffffffffffffffff168373ffffffffffffffffffffffffffffffffffffffff167fddf252ad1be2c89b69c2b068fc378daa952ba7f163c4a11628f55a4df523b3ef84604051613c8c919061435c565b60405180910390a3613ca083600084613edc565b505050565b6000600560009054906101000a900473ffffffffffffffffffffffffffffffffffffffff16905081600560006101000a81548173ffffffffffffffffffffffffffffffffffffffff021916908373ffffffffffffffffffffffffffffffffffffffff1602179055508173ffffffffffffffffffffffffffffffffffffffff168173ffffffffffffffffffffffffffffffffffffffff167f8be0079c531659141344cd1fd0a4f28419497f9722a3daafe3b4186f6b6457e060405160405180910390a35050565b60008183613d799190614a8b565b905092915050565b600073ffffffffffffffffffffffffffffffffffffffff168273ffffffffffffffffffffffffffffffffffffffff1603613df0576040517f08c379a0000000000000000000000000000000000000000000000000000000008152600401613de790615ae6565b60405180910390fd5b613dfc60008383613ed7565b8060026000828254613e0e9190614a8b565b92505081905550806000808473ffffffffffffffffffffffffffffffffffffffff1673ffffffffffffffffffffffffffffffffffffffff168152602001908152602001600020600082825401925050819055508173ffffffffffffffffffffffffffffffffffffffff16600073ffffffffffffffffffffffffffffffffffffffff167fddf252ad1be2c89b69c2b068fc378daa952ba7f163c4a11628f55a4df523b3ef83604051613ebf919061435c565b60405180910390a3613ed360008383613edc565b5050565b505050565b505050565b6000604051905090565b600080fd5b600080fd5b6000819050919050565b613f0881613ef5565b8114613f1357600080fd5b50565b600081359050613f2581613eff565b92915050565b600060208284031215613f4157613f40613eeb565b5b6000613f4f84828501613f16565b91505092915050565b600073ffffffffffffffffffffffffffffffffffffffff82169050919050565b6000613f8382613f58565b9050919050565b613f9381613f78565b82525050565b613fa281613ef5565b82525050565b6000606082019050613fbd6000830186613f8a565b613fca6020830185613f99565b613fd76040830184613f99565b949350505050565b600081519050919050565b600082825260208201905092915050565b60005b83811015614019578082015181840152602081019050613ffe565b60008484015250505050565b6000601f19601f8301169050919050565b600061404182613fdf565b61404b8185613fea565b935061405b818560208601613ffb565b61406481614025565b840191505092915050565b600060208201905081810360008301526140898184614036565b905092915050565b61409a81613f78565b81146140a557600080fd5b50565b6000813590506140b781614091565b92915050565b600080604083850312156140d4576140d3613eeb565b5b60006140e2858286016140a8565b92505060206140f385828601613f16565b9150509250929050565b60008115159050919050565b614112816140fd565b82525050565b600060208201905061412d6000830184614109565b92915050565b60006020820190506141486000830184613f8a565b92915050565b600080fd5b600080fd5b7f4e487b7100000000000000000000000000000000000000000000000000000000600052604160045260246000fd5b61419082614025565b810181811067ffffffffffffffff821117156141af576141ae614158565b5b80604052505050565b60006141c2613ee1565b90506141ce8282614187565b919050565b600067ffffffffffffffff8211156141ee576141ed614158565b5b6141f782614025565b9050602081019050919050565b82818337600083830152505050565b6000614226614221846141d3565b6141b8565b90508281526020810184848401111561424257614241614153565b5b61424d848285614204565b509392505050565b600082601f83011261426a5761426961414e565b5b813561427a848260208601614213565b91505092915050565b6000806000806080858703121561429d5761429c613eeb565b5b60006142ab878288016140a8565b94505060206142bc878288016140a8565b93505060406142cd87828801613f16565b925050606085013567ffffffffffffffff8111156142ee576142ed613ef0565b5b6142fa87828801614255565b91505092959194509250565b60007fffffffff0000000000000000000000000000000000000000000000000000000082169050919050565b61433b81614306565b82525050565b60006020820190506143566000830184614332565b92915050565b60006020820190506143716000830184613f99565b92915050565b6000806000606084860312156143905761438f613eeb565b5b600061439e868287016140a8565b93505060206143af868287016140a8565b92505060406143c086828701613f16565b9150509250925092565b600060ff82169050919050565b6143e0816143ca565b82525050565b60006020820190506143fb60008301846143d7565b92915050565b600081519050919050565b600082825260208201905092915050565b6000819050602082019050919050565b61443681613f78565b82525050565b6000614448838361442d565b60208301905092915050565b6000602082019050919050565b600061446c82614401565b614476818561440c565b93506144818361441d565b8060005b838110156144b2578151614499888261443c565b97506144a483614454565b925050600181019050614485565b5085935050505092915050565b600060208201905081810360008301526144d98184614461565b905092915050565b600081519050919050565b600082825260208201905092915050565b6000819050602082019050919050565b61451681613ef5565b82525050565b606082016000820151614532600085018261442d565b506020820151614545602085018261450d565b506040820151614558604085018261450d565b50505050565b600061456a838361451c565b60608301905092915050565b6000602082019050919050565b600061458e826144e1565b61459881856144ec565b93506145a3836144fd565b8060005b838110156145d45781516145bb888261455e565b97506145c683614576565b9250506001810190506145a7565b5085935050505092915050565b600060208201905081810360008301526145fb8184614583565b905092915050565b600081519050919050565b600082825260208201905092915050565b6000819050602082019050919050565b604082016000820151614645600085018261442d565b506020820151614658602085018261450d565b50505050565b600061466a838361462f565b60408301905092915050565b6000602082019050919050565b600061468e82614603565b614698818561460e565b93506146a38361461f565b8060005b838110156146d45781516146bb888261465e565b97506146c683614676565b9250506001810190506146a7565b5085935050505092915050565b600060208201905081810360008301526146fb8184614683565b905092915050565b6000806040838503121561471a57614719613eeb565b5b600061472885828601613f16565b925050602061473985828601613f16565b9150509250929050565b60006020828403121561475957614758613eeb565b5b6000614767848285016140a8565b91505092915050565b6000819050919050565b600061479561479061478b84613f58565b614770565b613f58565b9050919050565b60006147a78261477a565b9050919050565b60006147b98261479c565b9050919050565b6147c9816147ae565b82525050565b60006020820190506147e460008301846147c0565b92915050565b6000806040838503121561480157614800613eeb565b5b600061480f85828601613f16565b9250506020614820858286016140a8565b9150509250929050565b600060408201905061483f6000830185613f8a565b61484c6020830184613f99565b9392505050565b6000806040838503121561486a57614869613eeb565b5b6000614878858286016140a8565b9250506020614889858286016140a8565b9150509250929050565b60006040820190506148a86000830185614109565b6148b56020830184613f99565b9392505050565b7f4e487b7100000000000000000000000000000000000000000000000000000000600052602260045260246000fd5b6000600282049050600182168061490357607f821691505b602082108103614916576149156148bc565b5b50919050565b7f4e487b7100000000000000000000000000000000000000000000000000000000600052601160045260246000fd5b600061495682613ef5565b915061496183613ef5565b925082820261496f81613ef5565b915082820484148315176149865761498561491c565b5b5092915050565b7f496e646578206f7574206f6620626f756e647300000000000000000000000000600082015250565b60006149c3601383613fea565b91506149ce8261498d565b602082019050919050565b600060208201905081810360008301526149f2816149b6565b9050919050565b6000614a0482613ef5565b9150614a0f83613ef5565b9250828203905081811115614a2757614a2661491c565b5b92915050565b7f4e487b7100000000000000000000000000000000000000000000000000000000600052603260045260246000fd5b7f4e487b7100000000000000000000000000000000000000000000000000000000600052603160045260246000fd5b6000614a9682613ef5565b9150614aa183613ef5565b9250828201905080821115614ab957614ab861491c565b5b92915050565b7f4e6f7420656e6f756768206d6f6e657900000000000000000000000000000000600082015250565b6000614af5601083613fea565b9150614b0082614abf565b602082019050919050565b60006020820190508181036000830152614b2481614ae8565b9050919050565b7f4e6f7420656e6f75676820746f6b656e7320746f2073656c6c00000000000000600082015250565b6000614b61601983613fea565b9150614b6c82614b2b565b602082019050919050565b60006020820190508181036000830152614b9081614b54565b9050919050565b600081905092915050565b50565b6000614bb2600083614b97565b9150614bbd82614ba2565b600082019050919050565b6000614bd382614ba5565b9150819050919050565b7f4661696c656420746f2073656e64204574686572000000000000000000000000600082015250565b6000614c13601483613fea565b9150614c1e82614bdd565b602082019050919050565b60006020820190508181036000830152614c4281614c06565b9050919050565b7f416d6f756e74206e6565647320746f206265206d6f7265207468616e20300000600082015250565b6000614c7f601e83613fea565b9150614c8a82614c49565b602082019050919050565b60006020820190508181036000830152614cae81614c72565b9050919050565b7f5072696365206e6565647320746f206265206d6f7265207468616e2030000000600082015250565b6000614ceb601d83613fea565b9150614cf682614cb5565b602082019050919050565b60006020820190508181036000830152614d1a81614cde565b9050919050565b7f4e6f7420666f722073616c650000000000000000000000000000000000000000600082015250565b6000614d57600c83613fea565b9150614d6282614d21565b602082019050919050565b60006020820190508181036000830152614d8681614d4a565b9050919050565b7f4e6f7420656e6f7567682065746865722073656e740000000000000000000000600082015250565b6000614dc3601583613fea565b9150614dce82614d8d565b602082019050919050565b60006020820190508181036000830152614df281614db6565b9050919050565b7f4f776e6572207374696c6c20646f6573206e6f74206861766520616c6c20746f60008201527f6b656e7300000000000000000000000000000000000000000000000000000000602082015250565b6000614e55602483613fea565b9150614e6082614df9565b604082019050919050565b60006020820190508181036000830152614e8481614e48565b9050919050565b6000606082019050614ea06000830186613f8a565b614ead6020830185613f8a565b614eba6040830184613f99565b949350505050565b7f4e6f7420666f722053616c650000000000000000000000000000000000000000600082015250565b6000614ef8600c83613fea565b9150614f0382614ec2565b602082019050919050565b60006020820190508181036000830152614f2781614eeb565b9050919050565b7f496e76616c6964205472616e73616374696f6e20496e64657800000000000000600082015250565b6000614f64601983613fea565b9150614f6f82614f2e565b602082019050919050565b60006020820190508181036000830152614f9381614f57565b9050919050565b7f4e6f7420656e6f75676820636f6e6669726d6174696f6e730000000000000000600082015250565b6000614fd0601883613fea565b9150614fdb82614f9a565b602082019050919050565b60006020820190508181036000830152614fff81614fc3565b9050919050565b7f45524332303a2064656372656173656420616c6c6f77616e63652062656c6f7760008201527f207a65726f000000000000000000000000000000000000000000000000000000602082015250565b6000615062602583613fea565b915061506d82615006565b604082019050919050565b6000602082019050818103600083015261509181615055565b9050919050565b7f526564656d7074696f6e206e6f7420617661696c61626c650000000000000000600082015250565b60006150ce601883613fea565b91506150d982615098565b602082019050919050565b600060208201905081810360008301526150fd816150c1565b9050919050565b7f4e487b7100000000000000000000000000000000000000000000000000000000600052601260045260246000fd5b600061513e82613ef5565b915061514983613ef5565b92508261515957615158615104565b5b828204905092915050565b7f50726f706f736564207072696365206c65737320746861742073616c6520707260008201527f6963650000000000000000000000000000000000000000000000000000000000602082015250565b60006151c0602383613fea565b91506151cb82615164565b604082019050919050565b600060208201905081810360008301526151ef816151b3565b9050919050565b7f4f776e61626c653a206e6577206f776e657220697320746865207a65726f206160008201527f6464726573730000000000000000000000000000000000000000000000000000602082015250565b6000615252602683613fea565b915061525d826151f6565b604082019050919050565b6000602082019050818103600083015261528181615245565b9050919050565b7f4e6f742061207374616b65686f6c646572000000000000000000000000000000600082015250565b60006152be601183613fea565b91506152c982615288565b602082019050919050565b600060208201905081810360008301526152ed816152b1565b9050919050565b7f416c726561647920436f6e6669726d6564000000000000000000000000000000600082015250565b600061532a601183613fea565b9150615335826152f4565b602082019050919050565b600060208201905081810360008301526153598161531d565b9050919050565b600061536b82613ef5565b91507fffffffffffffffffffffffffffffffffffffffffffffffffffffffffffffffff820361539d5761539c61491c565b5b600182019050919050565b7f4e6f7420536f6c64205965740000000000000000000000000000000000000000600082015250565b60006153de600c83613fea565b91506153e9826153a8565b602082019050919050565b6000602082019050818103600083015261540d816153d1565b9050919050565b7f4e6f74207468652066696e616c20627579657200000000000000000000000000600082015250565b600061544a601383613fea565b915061545582615414565b602082019050919050565b600060208201905081810360008301526154798161543d565b9050919050565b7f416c726561647920696e697469616c697a656400000000000000000000000000600082015250565b60006154b6601383613fea565b91506154c182615480565b602082019050919050565b600060208201905081810360008301526154e5816154a9565b9050919050565b7f4f6e6c792054656e616e742063616e207061792072656e740000000000000000600082015250565b6000615522601883613fea565b915061552d826154ec565b602082019050919050565b6000602082019050818103600083015261555181615515565b9050919050565b7f53656e642045786163742052656e740000000000000000000000000000000000600082015250565b600061558e600f83613fea565b915061559982615558565b602082019050919050565b600060208201905081810360008301526155bd81615581565b9050919050565b7f45524332303a20617070726f76652066726f6d20746865207a65726f2061646460008201527f7265737300000000000000000000000000000000000000000000000000000000602082015250565b6000615620602483613fea565b915061562b826155c4565b604082019050919050565b6000602082019050818103600083015261564f81615613565b9050919050565b7f45524332303a20617070726f766520746f20746865207a65726f20616464726560008201527f7373000000000000000000000000000000000000000000000000000000000000602082015250565b60006156b2602283613fea565b91506156bd82615656565b604082019050919050565b600060208201905081810360008301526156e1816156a5565b9050919050565b7f4f776e61626c653a2063616c6c6572206973206e6f7420746865206f776e6572600082015250565b600061571e602083613fea565b9150615729826156e8565b602082019050919050565b6000602082019050818103600083015261574d81615711565b9050919050565b7f45524332303a20696e73756666696369656e7420616c6c6f77616e6365000000600082015250565b600061578a601d83613fea565b915061579582615754565b602082019050919050565b600060208201905081810360008301526157b98161577d565b9050919050565b7f45524332303a207472616e736665722066726f6d20746865207a65726f20616460008201527f6472657373000000000000000000000000000000000000000000000000000000602082015250565b600061581c602583613fea565b9150615827826157c0565b604082019050919050565b6000602082019050818103600083015261584b8161580f565b9050919050565b7f45524332303a207472616e7366657220746f20746865207a65726f206164647260008201527f6573730000000000000000000000000000000000000000000000000000000000602082015250565b60006158ae602383613fea565b91506158b982615852565b604082019050919050565b600060208201905081810360008301526158dd816158a1565b9050919050565b7f45524332303a207472616e7366657220616d6f756e742065786365656473206260008201527f616c616e63650000000000000000000000000000000000000000000000000000602082015250565b6000615940602683613fea565b915061594b826158e4565b604082019050919050565b6000602082019050818103600083015261596f81615933565b9050919050565b7f45524332303a206275726e2066726f6d20746865207a65726f2061646472657360008201527f7300000000000000000000000000000000000000000000000000000000000000602082015250565b60006159d2602183613fea565b91506159dd82615976565b604082019050919050565b60006020820190508181036000830152615a01816159c5565b9050919050565b7f45524332303a206275726e20616d6f756e7420657863656564732062616c616e60008201527f6365000000000000000000000000000000000000000000000000000000000000602082015250565b6000615a64602283613fea565b9150615a6f82615a08565b604082019050919050565b60006020820190508181036000830152615a9381615a57565b9050919050565b7f45524332303a206d696e7420746f20746865207a65726f206164647265737300600082015250565b6000615ad0601f83613fea565b9150615adb82615a9a565b602082019050919050565b60006020820190508181036000830152615aff81615ac3565b905091905056fea26469706673582212203338bdf167f73052ae5668241de76896d21f0f54d62207c8994875e1fa39a4aa64736f6c63430008110033",
  "linkReferences": {},
  "deployedLinkReferences": {}
}