{
  "_format": "hh-sol-artifact-1",
  "contractName": "fractionalReal",
  "sourceName": "contracts/fractionalReal.sol",
  "abi": [
    {
      "inputs": [
        {
          "internalType": "address",
          "name": "_owner",
          "type": "address"
        },
        {
          "internalType": "string",
          "name": "name_",
          "type": "string"
        },
        {
          "internalType": "string",
          "name": "symbol_",
          "type": "string"
        }
      ],
      "stateMutability": "nonpayable",
      "type": "constructor"
    },
    {
      "anonymous": false,
      "inputs": [
        {
          "indexed": true,
          "internalType": "address",
          "name": "owner",
          "type": "address"
        },
        {
          "indexed": true,
          "internalType": "address",
          "name": "spender",
          "type": "address"
        },
        {
          "indexed": false,
          "internalType": "uint256",
          "name": "value",
          "type": "uint256"
        }
      ],
      "name": "Approval",
      "type": "event"
    },
    {
      "anonymous": false,
      "inputs": [
        {
          "indexed": true,
          "internalType": "address",
          "name": "previousOwner",
          "type": "address"
        },
        {
          "indexed": true,
          "internalType": "address",
          "name": "newOwner",
          "type": "address"
        }
      ],
      "name": "OwnershipTransferred",
      "type": "event"
    },
    {
      "anonymous": false,
      "inputs": [
        {
          "indexed": true,
          "internalType": "address",
          "name": "from",
          "type": "address"
        },
        {
          "indexed": true,
          "internalType": "address",
          "name": "to",
          "type": "address"
        },
        {
          "indexed": false,
          "internalType": "uint256",
          "name": "value",
          "type": "uint256"
        }
      ],
      "name": "Transfer",
      "type": "event"
    },
    {
      "inputs": [
        {
          "internalType": "uint256",
          "name": "_index",
          "type": "uint256"
        },
        {
          "internalType": "uint256",
          "name": "_rent",
          "type": "uint256"
        }
      ],
      "name": "acceptRequest",
      "outputs": [
        {
          "internalType": "bool",
          "name": "",
          "type": "bool"
        }
      ],
      "stateMutability": "nonpayable",
      "type": "function"
    },
    {
      "inputs": [],
      "name": "accumulated",
      "outputs": [
        {
          "internalType": "uint256",
          "name": "",
          "type": "uint256"
        }
      ],
      "stateMutability": "view",
      "type": "function"
    },
    {
      "inputs": [
        {
          "internalType": "address",
          "name": "owner",
          "type": "address"
        },
        {
          "internalType": "address",
          "name": "spender",
          "type": "address"
        }
      ],
      "name": "allowance",
      "outputs": [
        {
          "internalType": "uint256",
          "name": "",
          "type": "uint256"
        }
      ],
      "stateMutability": "view",
      "type": "function"
    },
    {
      "inputs": [
        {
          "internalType": "address",
          "name": "spender",
          "type": "address"
        },
        {
          "internalType": "uint256",
          "name": "amount",
          "type": "uint256"
        }
      ],
      "name": "approve",
      "outputs": [
        {
          "internalType": "bool",
          "name": "",
          "type": "bool"
        }
      ],
      "stateMutability": "nonpayable",
      "type": "function"
    },
    {
      "inputs": [
        {
          "internalType": "uint256",
          "name": "_txIndex",
          "type": "uint256"
        }
      ],
      "name": "approveProposal",
      "outputs": [],
      "stateMutability": "nonpayable",
      "type": "function"
    },
    {
      "inputs": [
        {
          "internalType": "address",
          "name": "account",
          "type": "address"
        }
      ],
      "name": "balanceOf",
      "outputs": [
        {
          "internalType": "uint256",
          "name": "",
          "type": "uint256"
        }
      ],
      "stateMutability": "view",
      "type": "function"
    },
    {
      "inputs": [
        {
          "internalType": "uint256",
          "name": "_index",
          "type": "uint256"
        }
      ],
      "name": "buyStakeFromStakeholder",
      "outputs": [
        {
          "internalType": "bool",
          "name": "",
          "type": "bool"
        }
      ],
      "stateMutability": "payable",
      "type": "function"
    },
    {
      "inputs": [],
      "name": "canRedeem",
      "outputs": [
        {
          "internalType": "bool",
          "name": "",
          "type": "bool"
        }
      ],
      "stateMutability": "view",
      "type": "function"
    },
    {
      "inputs": [],
      "name": "collection",
      "outputs": [
        {
          "internalType": "contract IERC721",
          "name": "",
          "type": "address"
        }
      ],
      "stateMutability": "view",
      "type": "function"
    },
    {
      "inputs": [
        {
          "internalType": "uint256",
          "name": "_txIndex",
          "type": "uint256"
        }
      ],
      "name": "confirmProposal",
      "outputs": [],
      "stateMutability": "nonpayable",
      "type": "function"
    },
    {
      "inputs": [],
      "name": "decimals",
      "outputs": [
        {
          "internalType": "uint8",
          "name": "",
          "type": "uint8"
        }
      ],
      "stateMutability": "view",
      "type": "function"
    },
    {
      "inputs": [
        {
          "internalType": "address",
          "name": "spender",
          "type": "address"
        },
        {
          "internalType": "uint256",
          "name": "subtractedValue",
          "type": "uint256"
        }
      ],
      "name": "decreaseAllowance",
      "outputs": [
        {
          "internalType": "bool",
          "name": "",
          "type": "bool"
        }
      ],
      "stateMutability": "nonpayable",
      "type": "function"
    },
    {
      "inputs": [],
      "name": "deposit",
      "outputs": [],
      "stateMutability": "payable",
      "type": "function"
    },
    {
      "inputs": [],
      "name": "distribute",
      "outputs": [],
      "stateMutability": "nonpayable",
      "type": "function"
    },
    {
      "inputs": [],
      "name": "forSale",
      "outputs": [
        {
          "internalType": "bool",
          "name": "",
          "type": "bool"
        }
      ],
      "stateMutability": "view",
      "type": "function"
    },
    {
      "inputs": [],
      "name": "getStakeSales",
      "outputs": [
        {
          "components": [
            {
              "internalType": "address",
              "name": "stakeholder",
              "type": "address"
            },
            {
              "internalType": "uint256",
              "name": "noOfTokens",
              "type": "uint256"
            },
            {
              "internalType": "uint256",
              "name": "priceOfToken",
              "type": "uint256"
            }
          ],
          "internalType": "struct fractionalReal.stakeSale[]",
          "name": "",
          "type": "tuple[]"
        }
      ],
      "stateMutability": "view",
      "type": "function"
    },
    {
      "inputs": [],
      "name": "getStakeSellsLength",
      "outputs": [
        {
          "internalType": "uint256",
          "name": "",
          "type": "uint256"
        }
      ],
      "stateMutability": "view",
      "type": "function"
    },
    {
      "inputs": [],
      "name": "getTenantRequests",
      "outputs": [
        {
          "internalType": "address[]",
          "name": "",
          "type": "address[]"
        }
      ],
      "stateMutability": "view",
      "type": "function"
    },
    {
      "inputs": [],
      "name": "getTenantRequestsLength",
      "outputs": [
        {
          "internalType": "uint256",
          "name": "",
          "type": "uint256"
        }
      ],
      "stateMutability": "view",
      "type": "function"
    },
    {
      "inputs": [],
      "name": "getTenants",
      "outputs": [
        {
          "components": [
            {
              "internalType": "address",
              "name": "tenantAddress",
              "type": "address"
            },
            {
              "internalType": "uint256",
              "name": "rent",
              "type": "uint256"
            }
          ],
          "internalType": "struct fractionalReal.tenant[]",
          "name": "",
          "type": "tuple[]"
        }
      ],
      "stateMutability": "view",
      "type": "function"
    },
    {
      "inputs": [],
      "name": "getTenantsLength",
      "outputs": [
        {
          "internalType": "uint256",
          "name": "",
          "type": "uint256"
        }
      ],
      "stateMutability": "view",
      "type": "function"
    },
    {
      "inputs": [
        {
          "internalType": "address",
          "name": "spender",
          "type": "address"
        },
        {
          "internalType": "uint256",
          "name": "addedValue",
          "type": "uint256"
        }
      ],
      "name": "increaseAllowance",
      "outputs": [
        {
          "internalType": "bool",
          "name": "",
          "type": "bool"
        }
      ],
      "stateMutability": "nonpayable",
      "type": "function"
    },
    {
      "inputs": [
        {
          "internalType": "uint256",
          "name": "_noOfTokens",
          "type": "uint256"
        }
      ],
      "name": "initialize",
      "outputs": [],
      "stateMutability": "nonpayable",
      "type": "function"
    },
    {
      "inputs": [],
      "name": "initialized",
      "outputs": [
        {
          "internalType": "bool",
          "name": "",
          "type": "bool"
        }
      ],
      "stateMutability": "view",
      "type": "function"
    },
    {
      "inputs": [
        {
          "internalType": "uint256",
          "name": "",
          "type": "uint256"
        },
        {
          "internalType": "address",
          "name": "",
          "type": "address"
        }
      ],
      "name": "isConfirmed",
      "outputs": [
        {
          "internalType": "bool",
          "name": "",
          "type": "bool"
        }
      ],
      "stateMutability": "view",
      "type": "function"
    },
    {
      "inputs": [
        {
          "internalType": "address",
          "name": "_address",
          "type": "address"
        }
      ],
      "name": "isStakeholder",
      "outputs": [
        {
          "internalType": "bool",
          "name": "",
          "type": "bool"
        },
        {
          "internalType": "uint256",
          "name": "",
          "type": "uint256"
        }
      ],
      "stateMutability": "view",
      "type": "function"
    },
    {
      "inputs": [],
      "name": "name",
      "outputs": [
        {
          "internalType": "string",
          "name": "",
          "type": "string"
        }
      ],
      "stateMutability": "view",
      "type": "function"
    },
    {
      "inputs": [],
      "name": "numTokens",
      "outputs": [
        {
          "internalType": "uint256",
          "name": "",
          "type": "uint256"
        }
      ],
      "stateMutability": "view",
      "type": "function"
    },
    {
      "inputs": [
        {
          "internalType": "address",
          "name": "",
          "type": "address"
        },
        {
          "internalType": "address",
          "name": "",
          "type": "address"
        },
        {
          "internalType": "uint256",
          "name": "",
          "type": "uint256"
        },
        {
          "internalType": "bytes",
          "name": "",
          "type": "bytes"
        }
      ],
      "name": "onERC721Received",
      "outputs": [
        {
          "internalType": "bytes4",
          "name": "",
          "type": "bytes4"
        }
      ],
      "stateMutability": "nonpayable",
      "type": "function"
    },
    {
      "inputs": [],
      "name": "owner",
      "outputs": [
        {
          "internalType": "address",
          "name": "",
          "type": "address"
        }
      ],
      "stateMutability": "view",
      "type": "function"
    },
    {
      "inputs": [
        {
          "internalType": "uint256",
          "name": "",
          "type": "uint256"
        }
      ],
      "name": "proposals",
      "outputs": [
        {
          "internalType": "address",
          "name": "buyer",
          "type": "address"
        },
        {
          "internalType": "uint256",
          "name": "proposedPrice",
          "type": "uint256"
        },
        {
          "internalType": "uint256",
          "name": "noOfConfirmations",
          "type": "uint256"
        }
      ],
      "stateMutability": "view",
      "type": "function"
    },
    {
      "inputs": [],
      "name": "purchase",
      "outputs": [],
      "stateMutability": "payable",
      "type": "function"
    },
    {
      "inputs": [],
      "name": "purchaseBuyer",
      "outputs": [],
      "stateMutability": "payable",
      "type": "function"
    },
    {
      "inputs": [
        {
          "internalType": "uint256",
          "name": "price",
          "type": "uint256"
        }
      ],
      "name": "putForSale",
      "outputs": [],
      "stateMutability": "nonpayable",
      "type": "function"
    },
    {
      "inputs": [],
      "name": "redeem",
      "outputs": [],
      "stateMutability": "nonpayable",
      "type": "function"
    },
    {
      "inputs": [
        {
          "internalType": "uint256",
          "name": "_index",
          "type": "uint256"
        }
      ],
      "name": "rejectRequest",
      "outputs": [
        {
          "internalType": "bool",
          "name": "",
          "type": "bool"
        }
      ],
      "stateMutability": "nonpayable",
      "type": "function"
    },
    {
      "inputs": [],
      "name": "renounceOwnership",
      "outputs": [],
      "stateMutability": "nonpayable",
      "type": "function"
    },
    {
      "inputs": [],
      "name": "rentPayment",
      "outputs": [],
      "stateMutability": "payable",
      "type": "function"
    },
    {
      "inputs": [],
      "name": "requestToRent",
      "outputs": [
        {
          "internalType": "bool",
          "name": "",
          "type": "bool"
        }
      ],
      "stateMutability": "nonpayable",
      "type": "function"
    },
    {
      "inputs": [
        {
          "internalType": "address",
          "name": "",
          "type": "address"
        }
      ],
      "name": "revenues",
      "outputs": [
        {
          "internalType": "uint256",
          "name": "",
          "type": "uint256"
        }
      ],
      "stateMutability": "view",
      "type": "function"
    },
    {
      "inputs": [],
      "name": "salePrice",
      "outputs": [
        {
          "internalType": "uint256",
          "name": "",
          "type": "uint256"
        }
      ],
      "stateMutability": "view",
      "type": "function"
    },
    {
      "inputs": [
        {
          "internalType": "uint256",
          "name": "_noOfTokens",
          "type": "uint256"
        },
        {
          "internalType": "uint256",
          "name": "_priceOfToken",
          "type": "uint256"
        }
      ],
      "name": "sellStake",
      "outputs": [
        {
          "internalType": "bool",
          "name": "",
          "type": "bool"
        }
      ],
      "stateMutability": "nonpayable",
      "type": "function"
    },
    {
      "inputs": [
        {
          "internalType": "uint256",
          "name": "",
          "type": "uint256"
        }
      ],
      "name": "stakeSales",
      "outputs": [
        {
          "internalType": "address",
          "name": "stakeholder",
          "type": "address"
        },
        {
          "internalType": "uint256",
          "name": "noOfTokens",
          "type": "uint256"
        },
        {
          "internalType": "uint256",
          "name": "priceOfToken",
          "type": "uint256"
        }
      ],
      "stateMutability": "view",
      "type": "function"
    },
    {
      "inputs": [
        {
          "internalType": "uint256",
          "name": "",
          "type": "uint256"
        }
      ],
      "name": "stakeholders",
      "outputs": [
        {
          "internalType": "address",
          "name": "",
          "type": "address"
        }
      ],
      "stateMutability": "view",
      "type": "function"
    },
    {
      "inputs": [],
      "name": "status",
      "outputs": [
        {
          "internalType": "uint256",
          "name": "",
          "type": "uint256"
        }
      ],
      "stateMutability": "view",
      "type": "function"
    },
    {
      "inputs": [
        {
          "internalType": "uint256",
          "name": "_value",
          "type": "uint256"
        }
      ],
      "name": "submitProposalToBuy",
      "outputs": [],
      "stateMutability": "nonpayable",
      "type": "function"
    },
    {
      "inputs": [],
      "name": "symbol",
      "outputs": [
        {
          "internalType": "string",
          "name": "",
          "type": "string"
        }
      ],
      "stateMutability": "view",
      "type": "function"
    },
    {
      "inputs": [
        {
          "internalType": "uint256",
          "name": "",
          "type": "uint256"
        }
      ],
      "name": "tenantRequests",
      "outputs": [
        {
          "internalType": "address",
          "name": "",
          "type": "address"
        }
      ],
      "stateMutability": "view",
      "type": "function"
    },
    {
      "inputs": [
        {
          "internalType": "uint256",
          "name": "",
          "type": "uint256"
        }
      ],
      "name": "tenants",
      "outputs": [
        {
          "internalType": "address",
          "name": "tenantAddress",
          "type": "address"
        },
        {
          "internalType": "uint256",
          "name": "rent",
          "type": "uint256"
        }
      ],
      "stateMutability": "view",
      "type": "function"
    },
    {
      "inputs": [],
      "name": "tokenId",
      "outputs": [
        {
          "internalType": "uint256",
          "name": "",
          "type": "uint256"
        }
      ],
      "stateMutability": "view",
      "type": "function"
    },
    {
      "inputs": [],
      "name": "totalSupply",
      "outputs": [
        {
          "internalType": "uint256",
          "name": "",
          "type": "uint256"
        }
      ],
      "stateMutability": "view",
      "type": "function"
    },
    {
      "inputs": [
        {
          "internalType": "address",
          "name": "to",
          "type": "address"
        },
        {
          "internalType": "uint256",
          "name": "amount",
          "type": "uint256"
        }
      ],
      "name": "transfer",
      "outputs": [
        {
          "internalType": "bool",
          "name": "",
          "type": "bool"
        }
      ],
      "stateMutability": "nonpayable",
      "type": "function"
    },
    {
      "inputs": [
        {
          "internalType": "address",
          "name": "from",
          "type": "address"
        },
        {
          "internalType": "address",
          "name": "to",
          "type": "address"
        },
        {
          "internalType": "uint256",
          "name": "amount",
          "type": "uint256"
        }
      ],
      "name": "transferFrom",
      "outputs": [
        {
          "internalType": "bool",
          "name": "",
          "type": "bool"
        }
      ],
      "stateMutability": "nonpayable",
      "type": "function"
    },
    {
      "inputs": [
        {
          "internalType": "address",
          "name": "newOwner",
          "type": "address"
        }
      ],
      "name": "transferOwnership",
      "outputs": [],
      "stateMutability": "nonpayable",
      "type": "function"
    }
  ],
  "bytecode": "0x60806040526000600d60006101000a81548160ff0219169083151502179055506000600d60016101000a81548160ff0219169083151502179055506000600f60006101000a81548160ff0219169083151502179055506000601560006101000a81548160ff0219169083151502179055503480156200007d57600080fd5b506040516200642e3803806200642e8339818101604052810190620000a391906200041d565b81818160039081620000b6919062000702565b508060049081620000c8919062000702565b505050620000eb620000df6200015760201b60201c565b6200015f60201b60201c565b6007839080600181540180825580915050600190039060005260206000200160009091909190916101000a81548173ffffffffffffffffffffffffffffffffffffffff021916908373ffffffffffffffffffffffffffffffffffffffff160217905550505050620007e9565b600033905090565b6000600560009054906101000a900473ffffffffffffffffffffffffffffffffffffffff16905081600560006101000a81548173ffffffffffffffffffffffffffffffffffffffff021916908373ffffffffffffffffffffffffffffffffffffffff1602179055508173ffffffffffffffffffffffffffffffffffffffff168173ffffffffffffffffffffffffffffffffffffffff167f8be0079c531659141344cd1fd0a4f28419497f9722a3daafe3b4186f6b6457e060405160405180910390a35050565b6000604051905090565b600080fd5b600080fd5b600073ffffffffffffffffffffffffffffffffffffffff82169050919050565b6000620002668262000239565b9050919050565b620002788162000259565b81146200028457600080fd5b50565b60008151905062000298816200026d565b92915050565b600080fd5b600080fd5b6000601f19601f8301169050919050565b7f4e487b7100000000000000000000000000000000000000000000000000000000600052604160045260246000fd5b620002f382620002a8565b810181811067ffffffffffffffff82111715620003155762000314620002b9565b5b80604052505050565b60006200032a62000225565b9050620003388282620002e8565b919050565b600067ffffffffffffffff8211156200035b576200035a620002b9565b5b6200036682620002a8565b9050602081019050919050565b60005b838110156200039357808201518184015260208101905062000376565b60008484015250505050565b6000620003b6620003b0846200033d565b6200031e565b905082815260208101848484011115620003d557620003d4620002a3565b5b620003e284828562000373565b509392505050565b600082601f8301126200040257620004016200029e565b5b8151620004148482602086016200039f565b91505092915050565b6000806000606084860312156200043957620004386200022f565b5b6000620004498682870162000287565b935050602084015167ffffffffffffffff8111156200046d576200046c62000234565b5b6200047b86828701620003ea565b925050604084015167ffffffffffffffff8111156200049f576200049e62000234565b5b620004ad86828701620003ea565b9150509250925092565b600081519050919050565b7f4e487b7100000000000000000000000000000000000000000000000000000000600052602260045260246000fd5b600060028204905060018216806200050a57607f821691505b60208210810362000520576200051f620004c2565b5b50919050565b60008190508160005260206000209050919050565b60006020601f8301049050919050565b600082821b905092915050565b6000600883026200058a7fffffffffffffffffffffffffffffffffffffffffffffffffffffffffffffffff826200054b565b6200059686836200054b565b95508019841693508086168417925050509392505050565b6000819050919050565b6000819050919050565b6000620005e3620005dd620005d784620005ae565b620005b8565b620005ae565b9050919050565b6000819050919050565b620005ff83620005c2565b620006176200060e82620005ea565b84845462000558565b825550505050565b600090565b6200062e6200061f565b6200063b818484620005f4565b505050565b5b8181101562000663576200065760008262000624565b60018101905062000641565b5050565b601f821115620006b2576200067c8162000526565b62000687846200053b565b8101602085101562000697578190505b620006af620006a6856200053b565b83018262000640565b50505b505050565b600082821c905092915050565b6000620006d760001984600802620006b7565b1980831691505092915050565b6000620006f28383620006c4565b9150826002028217905092915050565b6200070d82620004b7565b67ffffffffffffffff811115620007295762000728620002b9565b5b620007358254620004f1565b6200074282828562000667565b600060209050601f8311600181146200077a576000841562000765578287015190505b620007718582620006e4565b865550620007e1565b601f1984166200078a8662000526565b60005b82811015620007b4578489015182556001820191506020850194506020810190506200078d565b86831015620007d45784890151620007d0601f891682620006c4565b8355505b6001600288020188555050505b505050505050565b615c3580620007f96000396000f3fe6080604052600436106103355760003560e01c806378ae98c8116101ab578063d0e30db0116100f7578063f2fde38b11610095578063f97ed5091161006f578063f97ed50914610c79578063fdb5866a14610ca4578063fe4b84df14610cae578063ff4c848214610cd757610335565b8063f2fde38b14610bfc578063f4a4f4d214610c25578063f51f96dd14610c4e57610335565b8063de673888116100d1578063de67388814610b41578063e4fc6b6d14610b7e578063ea0cb51e14610b95578063ef037b9014610bbe57610335565b8063d0e30db014610acf578063d43eb05d14610ad9578063dd62ed3e14610b0457610335565b806395d89b4111610164578063a9059cbb1161013e578063a9059cbb146109fe578063b6b6dd8f14610a3b578063bd2ba85d14610a7a578063be040fb014610ab857610335565b806395d89b411461096d57806398951b5614610998578063a457c2d7146109c157610335565b806378ae98c8146108475780637a044323146108845780637de1e536146108af57806380f59a65146108da5780638da5cb5b146109175780638e499bcf1461094257610335565b80632d7788db116102855780634cc1eba51161022357806358116227116101fd57806358116227146107ac57806364edfbf0146107e957806370a08231146107f3578063715018a61461083057610335565b80634cc1eba51461072b5780634dea979e1461075657806353be7ded1461078157610335565b80633ab261981161025f5780633ab261981461067a5780633e39a6a5146106aa5780633fb95e27146106d5578063466ccac01461070057610335565b80632d7788db146105d5578063313ce56714610612578063395093511461063d57610335565b8063158ef93e116102f25780631d6b8b72116102cc5780631d6b8b72146105075780631f078ced14610544578063200d2ed21461056d57806323b872dd1461059857610335565b8063158ef93e1461048657806317d70f7c146104b157806318160ddd146104dc57610335565b8063013cf08b1461033a57806306fdde0314610379578063095ea7b3146103a45780630e62bbae146103e15780631185aacb1461041e578063150b7a0214610449575b600080fd5b34801561034657600080fd5b50610361600480360381019061035c9190614024565b610ce1565b604051610370939291906140a1565b60405180910390f35b34801561038557600080fd5b5061038e610d3b565b60405161039b9190614168565b60405180910390f35b3480156103b057600080fd5b506103cb60048036038101906103c691906141b6565b610dcd565b6040516103d89190614211565b60405180910390f35b3480156103ed57600080fd5b5061040860048036038101906104039190614024565b610df0565b604051610415919061422c565b60405180910390f35b34801561042a57600080fd5b50610433610e2f565b6040516104409190614247565b60405180910390f35b34801561045557600080fd5b50610470600480360381019061046b9190614397565b610e3c565b60405161047d9190614455565b60405180910390f35b34801561049257600080fd5b5061049b610e50565b6040516104a89190614211565b60405180910390f35b3480156104bd57600080fd5b506104c6610e63565b6040516104d39190614247565b60405180910390f35b3480156104e857600080fd5b506104f1610e69565b6040516104fe9190614247565b60405180910390f35b34801561051357600080fd5b5061052e60048036038101906105299190614024565b610e73565b60405161053b919061422c565b60405180910390f35b34801561055057600080fd5b5061056b60048036038101906105669190614024565b610eb2565b005b34801561057957600080fd5b50610582610ef2565b60405161058f9190614247565b60405180910390f35b3480156105a457600080fd5b506105bf60048036038101906105ba9190614470565b610ef8565b6040516105cc9190614211565b60405180910390f35b3480156105e157600080fd5b506105fc60048036038101906105f79190614024565b610f27565b6040516106099190614211565b60405180910390f35b34801561061e57600080fd5b50610627611074565b60405161063491906144df565b60405180910390f35b34801561064957600080fd5b50610664600480360381019061065f91906141b6565b61107d565b6040516106719190614211565b60405180910390f35b610694600480360381019061068f9190614024565b6110b4565b6040516106a19190614211565b60405180910390f35b3480156106b657600080fd5b506106bf61156d565b6040516106cc91906145b8565b60405180910390f35b3480156106e157600080fd5b506106ea6115fb565b6040516106f791906146da565b60405180910390f35b34801561070c57600080fd5b506107156116c4565b6040516107229190614211565b60405180910390f35b34801561073757600080fd5b506107406116d7565b60405161074d9190614211565b60405180910390f35b34801561076257600080fd5b5061076b611743565b6040516107789190614247565b60405180910390f35b34801561078d57600080fd5b50610796611750565b6040516107a391906147da565b60405180910390f35b3480156107b857600080fd5b506107d360048036038101906107ce91906147fc565b61180f565b6040516107e09190614211565b60405180910390f35b6107f16119a4565b005b3480156107ff57600080fd5b5061081a6004803603810190610815919061483c565b611d0f565b6040516108279190614247565b60405180910390f35b34801561083c57600080fd5b50610845611d57565b005b34801561085357600080fd5b5061086e6004803603810190610869919061483c565b611d6b565b60405161087b9190614247565b60405180910390f35b34801561089057600080fd5b50610899611d83565b6040516108a69190614247565b60405180910390f35b3480156108bb57600080fd5b506108c4611d89565b6040516108d191906148c8565b60405180910390f35b3480156108e657600080fd5b5061090160048036038101906108fc91906148e3565b611daf565b60405161090e9190614211565b60405180910390f35b34801561092357600080fd5b5061092c611dde565b604051610939919061422c565b60405180910390f35b34801561094e57600080fd5b50610957611e08565b6040516109649190614247565b60405180910390f35b34801561097957600080fd5b50610982611e0e565b60405161098f9190614168565b60405180910390f35b3480156109a457600080fd5b506109bf60048036038101906109ba9190614024565b611ea0565b005b3480156109cd57600080fd5b506109e860048036038101906109e391906141b6565b61205a565b6040516109f59190614211565b60405180910390f35b348015610a0a57600080fd5b50610a256004803603810190610a2091906141b6565b6120d1565b604051610a329190614211565b60405180910390f35b348015610a4757600080fd5b50610a626004803603810190610a5d9190614024565b6120f4565b604051610a71939291906140a1565b60405180910390f35b348015610a8657600080fd5b50610aa16004803603810190610a9c9190614024565b61214e565b604051610aaf929190614923565b60405180910390f35b348015610ac457600080fd5b50610acd6121a2565b005b610ad76123fa565b005b348015610ae557600080fd5b50610aee61258d565b604051610afb9190614247565b60405180910390f35b348015610b1057600080fd5b50610b2b6004803603810190610b26919061494c565b61259a565b604051610b389190614247565b60405180910390f35b348015610b4d57600080fd5b50610b686004803603810190610b6391906147fc565b612621565b604051610b759190614211565b60405180910390f35b348015610b8a57600080fd5b50610b93612856565b005b348015610ba157600080fd5b50610bbc6004803603810190610bb79190614024565b612ac3565b005b348015610bca57600080fd5b50610be56004803603810190610be0919061483c565b612c58565b604051610bf392919061498c565b60405180910390f35b348015610c0857600080fd5b50610c236004803603810190610c1e919061483c565b612d0b565b005b348015610c3157600080fd5b50610c4c6004803603810190610c479190614024565b612d8e565b005b348015610c5a57600080fd5b50610c63612fc7565b604051610c709190614247565b60405180910390f35b348015610c8557600080fd5b50610c8e612fcd565b604051610c9b9190614211565b60405180910390f35b610cac612fe0565b005b348015610cba57600080fd5b50610cd56004803603810190610cd09190614024565b613432565b005b610cdf613504565b005b60168181548110610cf157600080fd5b90600052602060002090600302016000915090508060000160009054906101000a900473ffffffffffffffffffffffffffffffffffffffff16908060010154908060020154905083565b606060038054610d4a906149e4565b80601f0160208091040260200160405190810160405280929190818152602001828054610d76906149e4565b8015610dc35780601f10610d9857610100808354040283529160200191610dc3565b820191906000526020600020905b815481529060010190602001808311610da657829003601f168201915b5050505050905090565b600080610dd8613680565b9050610de5818585613688565b600191505092915050565b60128181548110610e0057600080fd5b906000526020600020016000915054906101000a900473ffffffffffffffffffffffffffffffffffffffff1681565b6000601080549050905090565b600063150b7a0260e01b9050949350505050565b600d60009054906101000a900460ff1681565b600c5481565b6000600254905090565b60078181548110610e8357600080fd5b906000526020600020016000915054906101000a900473ffffffffffffffffffffffffffffffffffffffff1681565b610eba613851565b670de0b6b3a764000081610ece9190614a44565b600e819055506001600d60016101000a81548160ff02191690831515021790555050565b60085481565b600080610f03613680565b9050610f108582856138cf565b610f1b85858561395b565b60019150509392505050565b6000610f31613851565b6012805490508210610f78576040517f08c379a0000000000000000000000000000000000000000000000000000000008152600401610f6f90614ad2565b60405180910390fd5b60126001601280549050610f8c9190614af2565b81548110610f9d57610f9c614b26565b5b9060005260206000200160009054906101000a900473ffffffffffffffffffffffffffffffffffffffff1660128381548110610fdc57610fdb614b26565b5b9060005260206000200160006101000a81548173ffffffffffffffffffffffffffffffffffffffff021916908373ffffffffffffffffffffffffffffffffffffffff160217905550601280548061103657611035614b55565b5b6001900381819060005260206000200160006101000a81549073ffffffffffffffffffffffffffffffffffffffff0219169055905560019050919050565b60006012905090565b600080611088613680565b90506110a981858561109a858961259a565b6110a49190614b84565b613688565b600191505092915050565b600060118054905082106110fd576040517f08c379a00000000000000000000000000000000000000000000000000000000081526004016110f490614ad2565b60405180910390fd5b6011828154811061111157611110614b26565b5b9060005260206000209060030201600101546011838154811061113757611136614b26565b5b9060005260206000209060030201600201546111539190614a44565b341015611195576040517f08c379a000000000000000000000000000000000000000000000000000000000815260040161118c90614c04565b60405180910390fd5b601182815481106111a9576111a8614b26565b5b906000526020600020906003020160010154611209601184815481106111d2576111d1614b26565b5b906000526020600020906003020160000160009054906101000a900473ffffffffffffffffffffffffffffffffffffffff16611d0f565b101561124a576040517f08c379a000000000000000000000000000000000000000000000000000000000815260040161124190614c70565b60405180910390fd5b6112bf6011838154811061126157611260614b26565b5b906000526020600020906003020160000160009054906101000a900473ffffffffffffffffffffffffffffffffffffffff1633601185815481106112a8576112a7614b26565b5b90600052602060002090600302016001015461395b565b6000601183815481106112d5576112d4614b26565b5b906000526020600020906003020160000160009054906101000a900473ffffffffffffffffffffffffffffffffffffffff16905060008173ffffffffffffffffffffffffffffffffffffffff163460405161132f90614cc1565b60006040518083038185875af1925050503d806000811461136c576040519150601f19603f3d011682016040523d82523d6000602084013e611371565b606091505b50509050806113b5576040517f08c379a00000000000000000000000000000000000000000000000000000000081526004016113ac90614d22565b60405180910390fd5b601160016011805490506113c99190614af2565b815481106113da576113d9614b26565b5b9060005260206000209060030201601185815481106113fc576113fb614b26565b5b90600052602060002090600302016000820160009054906101000a900473ffffffffffffffffffffffffffffffffffffffff168160000160006101000a81548173ffffffffffffffffffffffffffffffffffffffff021916908373ffffffffffffffffffffffffffffffffffffffff1602179055506001820154816001015560028201548160020155905050601180548061149a57611499614b55565b5b6001900381819060005260206000209060030201600080820160006101000a81549073ffffffffffffffffffffffffffffffffffffffff0219169055600182016000905560028201600090555050905560006114f533612c58565b50905080611561576007339080600181540180825580915050600190039060005260206000200160009091909190916101000a81548173ffffffffffffffffffffffffffffffffffffffff021916908373ffffffffffffffffffffffffffffffffffffffff1602179055505b60019350505050919050565b606060128054806020026020016040519081016040528092919081815260200182805480156115f157602002820191906000526020600020905b8160009054906101000a900473ffffffffffffffffffffffffffffffffffffffff1673ffffffffffffffffffffffffffffffffffffffff16815260200190600101908083116115a7575b5050505050905090565b60606011805480602002602001604051908101604052809291908181526020016000905b828210156116bb57838290600052602060002090600302016040518060600160405290816000820160009054906101000a900473ffffffffffffffffffffffffffffffffffffffff1673ffffffffffffffffffffffffffffffffffffffff1673ffffffffffffffffffffffffffffffffffffffff168152602001600182015481526020016002820154815250508152602001906001019061161f565b50505050905090565b600d60019054906101000a900460ff1681565b60006012339080600181540180825580915050600190039060005260206000200160009091909190916101000a81548173ffffffffffffffffffffffffffffffffffffffff021916908373ffffffffffffffffffffffffffffffffffffffff1602179055506001905090565b6000601280549050905090565b60606010805480602002602001604051908101604052809291908181526020016000905b8282101561180657838290600052602060002090600202016040518060400160405290816000820160009054906101000a900473ffffffffffffffffffffffffffffffffffffffff1673ffffffffffffffffffffffffffffffffffffffff1673ffffffffffffffffffffffffffffffffffffffff16815260200160018201548152505081526020019060010190611774565b50505050905090565b6000808311611853576040517f08c379a000000000000000000000000000000000000000000000000000000000815260040161184a90614d8e565b60405180910390fd5b60008211611896576040517f08c379a000000000000000000000000000000000000000000000000000000000815260040161188d90614dfa565b60405180910390fd5b826118a033611d0f565b10156118e1576040517f08c379a00000000000000000000000000000000000000000000000000000000081526004016118d890614c70565b60405180910390fd5b601160405180606001604052803373ffffffffffffffffffffffffffffffffffffffff16815260200185815260200184815250908060018154018082558091505060019003906000526020600020906003020160009091909190915060008201518160000160006101000a81548173ffffffffffffffffffffffffffffffffffffffff021916908373ffffffffffffffffffffffffffffffffffffffff160217905550602082015181600101556040820151816002015550506001905092915050565b600d60019054906101000a900460ff166119f3576040517f08c379a00000000000000000000000000000000000000000000000000000000081526004016119ea90614e66565b60405180910390fd5b600e54341015611a38576040517f08c379a0000000000000000000000000000000000000000000000000000000008152600401611a2f90614ed2565b60405180910390fd5b611a40610e69565b611a886007600081548110611a5857611a57614b26565b5b9060005260206000200160009054906101000a900473ffffffffffffffffffffffffffffffffffffffff16611d0f565b14611ac8576040517f08c379a0000000000000000000000000000000000000000000000000000000008152600401611abf90614f64565b60405180910390fd5b600b60009054906101000a900473ffffffffffffffffffffffffffffffffffffffff1673ffffffffffffffffffffffffffffffffffffffff166323b872dd3033600c546040518463ffffffff1660e01b8152600401611b2993929190614f84565b600060405180830381600087803b158015611b4357600080fd5b505af1158015611b57573d6000803e3d6000fd5b50505050611beb6007600081548110611b7357611b72614b26565b5b9060005260206000200160009054906101000a900473ffffffffffffffffffffffffffffffffffffffff16611be66007600081548110611bb657611bb5614b26565b5b9060005260206000200160009054906101000a900473ffffffffffffffffffffffffffffffffffffffff16611d0f565b613bd1565b60006007600081548110611c0257611c01614b26565b5b9060005260206000200160009054906101000a900473ffffffffffffffffffffffffffffffffffffffff1673ffffffffffffffffffffffffffffffffffffffff1634604051611c5090614cc1565b60006040518083038185875af1925050503d8060008114611c8d576040519150601f19603f3d011682016040523d82523d6000602084013e611c92565b606091505b5050905080611cd6576040517f08c379a0000000000000000000000000000000000000000000000000000000008152600401611ccd90614d22565b60405180910390fd5b6000600d60016101000a81548160ff0219169083151502179055506000600f60006101000a81548160ff02191690831515021790555050565b60008060008373ffffffffffffffffffffffffffffffffffffffff1673ffffffffffffffffffffffffffffffffffffffff168152602001908152602001600020549050919050565b611d5f613851565b611d696000613d9e565b565b60096020528060005260406000206000915090505481565b600a5481565b600b60009054906101000a900473ffffffffffffffffffffffffffffffffffffffff1681565b60176020528160005260406000206020528060005260406000206000915091509054906101000a900460ff1681565b6000600560009054906101000a900473ffffffffffffffffffffffffffffffffffffffff16905090565b60065481565b606060048054611e1d906149e4565b80601f0160208091040260200160405190810160405280929190818152602001828054611e49906149e4565b8015611e965780601f10611e6b57610100808354040283529160200191611e96565b820191906000526020600020905b815481529060010190602001808311611e7957829003601f168201915b5050505050905090565b611ea8613851565b600d60019054906101000a900460ff16611ef7576040517f08c379a0000000000000000000000000000000000000000000000000000000008152600401611eee90615007565b60405180910390fd5b6016805490508110611f3e576040517f08c379a0000000000000000000000000000000000000000000000000000000008152600401611f3590615073565b60405180910390fd5b600060168281548110611f5457611f53614b26565b5b9060005260206000209060030201905060078054905081600201541015611fb0576040517f08c379a0000000000000000000000000000000000000000000000000000000008152600401611fa7906150df565b60405180910390fd5b6001601560006101000a81548160ff0219169083151502179055506000600d60016101000a81548160ff02191690831515021790555080600101546014819055508060000160009054906101000a900473ffffffffffffffffffffffffffffffffffffffff16601360006101000a81548173ffffffffffffffffffffffffffffffffffffffff021916908373ffffffffffffffffffffffffffffffffffffffff1602179055505050565b600080612065613680565b90506000612073828661259a565b9050838110156120b8576040517f08c379a00000000000000000000000000000000000000000000000000000000081526004016120af90615171565b60405180910390fd5b6120c58286868403613688565b60019250505092915050565b6000806120dc613680565b90506120e981858561395b565b600191505092915050565b6011818154811061210457600080fd5b90600052602060002090600302016000915090508060000160009054906101000a900473ffffffffffffffffffffffffffffffffffffffff16908060010154908060020154905083565b6010818154811061215e57600080fd5b90600052602060002090600202016000915090508060000160009054906101000a900473ffffffffffffffffffffffffffffffffffffffff16908060010154905082565b600f60009054906101000a900460ff166121f1576040517f08c379a00000000000000000000000000000000000000000000000000000000081526004016121e8906151dd565b60405180910390fd5b600080600090505b60078054905081101561228f573373ffffffffffffffffffffffffffffffffffffffff166007828154811061223157612230614b26565b5b9060005260206000200160009054906101000a900473ffffffffffffffffffffffffffffffffffffffff1673ffffffffffffffffffffffffffffffffffffffff160361227b578091505b6001816122889190614b84565b90506121f9565b506000600782815481106122a6576122a5614b26565b5b9060005260206000200160009054906101000a900473ffffffffffffffffffffffffffffffffffffffff1690506000600960008373ffffffffffffffffffffffffffffffffffffffff1673ffffffffffffffffffffffffffffffffffffffff1681526020019081526020016000205490506000600960008473ffffffffffffffffffffffffffffffffffffffff1673ffffffffffffffffffffffffffffffffffffffff168152602001908152602001600020819055508173ffffffffffffffffffffffffffffffffffffffff166108fc829081150290604051600060405180830381858888f193505050501580156123a2573d6000803e3d6000fd5b506123f53360076000815481106123bc576123bb614b26565b5b9060005260206000200160009054906101000a900473ffffffffffffffffffffffffffffffffffffffff166123f085611d0f565b61395b565b505050565b612402613851565b600e54341015612447576040517f08c379a000000000000000000000000000000000000000000000000000000000815260040161243e90614ed2565b60405180910390fd5b60005b60078054905081101561256f5760006007828154811061246d5761246c614b26565b5b9060005260206000200160009054906101000a900473ffffffffffffffffffffffffffffffffffffffff16905060006124a4610e69565b6124ad83611d0f565b476124b89190614a44565b6124c2919061522c565b905061251681600960008573ffffffffffffffffffffffffffffffffffffffff1673ffffffffffffffffffffffffffffffffffffffff16815260200190815260200160002054613e6490919063ffffffff16565b600960008473ffffffffffffffffffffffffffffffffffffffff1673ffffffffffffffffffffffffffffffffffffffff1681526020019081526020016000208190555050506001816125689190614b84565b905061244a565b506001600f60006101000a81548160ff021916908315150217905550565b6000601180549050905090565b6000600160008473ffffffffffffffffffffffffffffffffffffffff1673ffffffffffffffffffffffffffffffffffffffff16815260200190815260200160002060008373ffffffffffffffffffffffffffffffffffffffff1673ffffffffffffffffffffffffffffffffffffffff16815260200190815260200160002054905092915050565b600061262b613851565b6012805490508310612672576040517f08c379a000000000000000000000000000000000000000000000000000000000815260040161266990614ad2565b60405180910390fd5b601060405180604001604052806012868154811061269357612692614b26565b5b9060005260206000200160009054906101000a900473ffffffffffffffffffffffffffffffffffffffff1673ffffffffffffffffffffffffffffffffffffffff16815260200184815250908060018154018082558091505060019003906000526020600020906002020160009091909190915060008201518160000160006101000a81548173ffffffffffffffffffffffffffffffffffffffff021916908373ffffffffffffffffffffffffffffffffffffffff1602179055506020820151816001015550506012600160128054905061276d9190614af2565b8154811061277e5761277d614b26565b5b9060005260206000200160009054906101000a900473ffffffffffffffffffffffffffffffffffffffff16601284815481106127bd576127bc614b26565b5b9060005260206000200160006101000a81548173ffffffffffffffffffffffffffffffffffffffff021916908373ffffffffffffffffffffffffffffffffffffffff160217905550601280548061281757612816614b55565b5b6001900381819060005260206000200160006101000a81549073ffffffffffffffffffffffffffffffffffffffff021916905590556001905092915050565b61285e613851565b60005b6007805490508110156129865760006007828154811061288457612883614b26565b5b9060005260206000200160009054906101000a900473ffffffffffffffffffffffffffffffffffffffff16905060006128bb610e69565b6128c483611d0f565b476128cf9190614a44565b6128d9919061522c565b905061292d81600960008573ffffffffffffffffffffffffffffffffffffffff1673ffffffffffffffffffffffffffffffffffffffff16815260200190815260200160002054613e6490919063ffffffff16565b600960008473ffffffffffffffffffffffffffffffffffffffff1673ffffffffffffffffffffffffffffffffffffffff16815260200190815260200160002081905550505060018161297f9190614b84565b9050612861565b5060005b600780549050811015612ac0576000600782815481106129ad576129ac614b26565b5b9060005260206000200160009054906101000a900473ffffffffffffffffffffffffffffffffffffffff1690506000600960008373ffffffffffffffffffffffffffffffffffffffff1673ffffffffffffffffffffffffffffffffffffffff1681526020019081526020016000205490506000600960008473ffffffffffffffffffffffffffffffffffffffff1673ffffffffffffffffffffffffffffffffffffffff168152602001908152602001600020819055508173ffffffffffffffffffffffffffffffffffffffff166108fc829081150290604051600060405180830381858888f19350505050158015612aa9573d6000803e3d6000fd5b505050600181612ab99190614b84565b905061298a565b50565b600d60019054906101000a900460ff16612b12576040517f08c379a0000000000000000000000000000000000000000000000000000000008152600401612b0990614e66565b60405180910390fd5b6000670de0b6b3a764000082612b289190614a44565b9050600e54811015612b6f576040517f08c379a0000000000000000000000000000000000000000000000000000000008152600401612b66906152cf565b60405180910390fd5b60011515600d60019054906101000a900460ff161515148015612b945750600e548110155b15612c5457601660405180606001604052803373ffffffffffffffffffffffffffffffffffffffff1681526020018381526020016000815250908060018154018082558091505060019003906000526020600020906003020160009091909190915060008201518160000160006101000a81548173ffffffffffffffffffffffffffffffffffffffff021916908373ffffffffffffffffffffffffffffffffffffffff160217905550602082015181600101556040820151816002015550505b5050565b60008060005b600780549050811015612cfd5760078181548110612c7f57612c7e614b26565b5b9060005260206000200160009054906101000a900473ffffffffffffffffffffffffffffffffffffffff1673ffffffffffffffffffffffffffffffffffffffff168473ffffffffffffffffffffffffffffffffffffffff1603612ce9576001819250925050612d06565b600181612cf69190614b84565b9050612c5e565b50600080915091505b915091565b612d13613851565b600073ffffffffffffffffffffffffffffffffffffffff168173ffffffffffffffffffffffffffffffffffffffff1603612d82576040517f08c379a0000000000000000000000000000000000000000000000000000000008152600401612d7990615361565b60405180910390fd5b612d8b81613d9e565b50565b600d60019054906101000a900460ff16612ddd576040517f08c379a0000000000000000000000000000000000000000000000000000000008152600401612dd490615007565b60405180910390fd5b6016805490508110612e24576040517f08c379a0000000000000000000000000000000000000000000000000000000008152600401612e1b90615073565b60405180910390fd5b600080612e3033612c58565b9150915081612e74576040517f08c379a0000000000000000000000000000000000000000000000000000000008152600401612e6b906153cd565b60405180910390fd5b600015156017600085815260200190815260200160002060003373ffffffffffffffffffffffffffffffffffffffff1673ffffffffffffffffffffffffffffffffffffffff16815260200190815260200160002060009054906101000a900460ff16151514612f18576040517f08c379a0000000000000000000000000000000000000000000000000000000008152600401612f0f90615439565b60405180910390fd5b600060168481548110612f2e57612f2d614b26565b5b9060005260206000209060030201905060016017600086815260200190815260200160002060003373ffffffffffffffffffffffffffffffffffffffff1673ffffffffffffffffffffffffffffffffffffffff16815260200190815260200160002060006101000a81548160ff021916908315150217905550806002016000815480929190612fbc90615459565b919050555050505050565b600e5481565b600f60009054906101000a900460ff1681565b601560009054906101000a900460ff1661302f576040517f08c379a0000000000000000000000000000000000000000000000000000000008152600401613026906154ed565b60405180910390fd5b601360009054906101000a900473ffffffffffffffffffffffffffffffffffffffff1673ffffffffffffffffffffffffffffffffffffffff163373ffffffffffffffffffffffffffffffffffffffff16146130bf576040517f08c379a00000000000000000000000000000000000000000000000000000000081526004016130b690615559565b60405180910390fd5b601454341015613104576040517f08c379a00000000000000000000000000000000000000000000000000000000081526004016130fb90614ed2565b60405180910390fd5b600b60009054906101000a900473ffffffffffffffffffffffffffffffffffffffff1673ffffffffffffffffffffffffffffffffffffffff166323b872dd3033600c546040518463ffffffff1660e01b815260040161316593929190614f84565b600060405180830381600087803b15801561317f57600080fd5b505af1158015613193573d6000803e3d6000fd5b5050505060005b6007805490508110156132bf576000600782815481106131bd576131bc614b26565b5b9060005260206000200160009054906101000a900473ffffffffffffffffffffffffffffffffffffffff16905060006131f4610e69565b6131fd83611d0f565b476132089190614a44565b613212919061522c565b905061326681600960008573ffffffffffffffffffffffffffffffffffffffff1673ffffffffffffffffffffffffffffffffffffffff16815260200190815260200160002054613e6490919063ffffffff16565b600960008473ffffffffffffffffffffffffffffffffffffffff1673ffffffffffffffffffffffffffffffffffffffff1681526020019081526020016000208190555050506001816132b89190614b84565b905061319a565b5060005b6007805490508110156133f9576000600782815481106132e6576132e5614b26565b5b9060005260206000200160009054906101000a900473ffffffffffffffffffffffffffffffffffffffff1690506000600960008373ffffffffffffffffffffffffffffffffffffffff1673ffffffffffffffffffffffffffffffffffffffff1681526020019081526020016000205490506000600960008473ffffffffffffffffffffffffffffffffffffffff1673ffffffffffffffffffffffffffffffffffffffff168152602001908152602001600020819055508173ffffffffffffffffffffffffffffffffffffffff166108fc829081150290604051600060405180830381858888f193505050501580156133e2573d6000803e3d6000fd5b5050506001816133f29190614b84565b90506132c3565b506000600d60016101000a81548160ff0219169083151502179055506001600f60006101000a81548160ff021916908315150217905550565b61343a613851565b600d60009054906101000a900460ff161561348a576040517f08c379a0000000000000000000000000000000000000000000000000000000008152600401613481906155c5565b60405180910390fd5b600081116134cd576040517f08c379a00000000000000000000000000000000000000000000000000000000081526004016134c490614d8e565b60405180910390fd5b6001600d60006101000a81548160ff0219169083151502179055506000600881905550806006819055506135013382613e7a565b50565b60003490506000806000905060005b6010805490508110156135d8576010818154811061353457613533614b26565b5b906000526020600020906002020160000160009054906101000a900473ffffffffffffffffffffffffffffffffffffffff1673ffffffffffffffffffffffffffffffffffffffff163373ffffffffffffffffffffffffffffffffffffffff16036135c55760019150601081815481106135b0576135af614b26565b5b90600052602060002090600202016001015492505b80806135d090615459565b915050613513565b506001151581151514613620576040517f08c379a000000000000000000000000000000000000000000000000000000000815260040161361790615631565b60405180910390fd5b818314613662576040517f08c379a00000000000000000000000000000000000000000000000000000000081526004016136599061569d565b60405180910390fd5b82600a60008282546136749190614b84565b92505081905550505050565b600033905090565b600073ffffffffffffffffffffffffffffffffffffffff168373ffffffffffffffffffffffffffffffffffffffff16036136f7576040517f08c379a00000000000000000000000000000000000000000000000000000000081526004016136ee9061572f565b60405180910390fd5b600073ffffffffffffffffffffffffffffffffffffffff168273ffffffffffffffffffffffffffffffffffffffff1603613766576040517f08c379a000000000000000000000000000000000000000000000000000000000815260040161375d906157c1565b60405180910390fd5b80600160008573ffffffffffffffffffffffffffffffffffffffff1673ffffffffffffffffffffffffffffffffffffffff16815260200190815260200160002060008473ffffffffffffffffffffffffffffffffffffffff1673ffffffffffffffffffffffffffffffffffffffff168152602001908152602001600020819055508173ffffffffffffffffffffffffffffffffffffffff168373ffffffffffffffffffffffffffffffffffffffff167f8c5be1e5ebec7d5bd14f71427d1e84f3dd0314c0f7b2291e5b200ac8c7c3b925836040516138449190614247565b60405180910390a3505050565b613859613680565b73ffffffffffffffffffffffffffffffffffffffff16613877611dde565b73ffffffffffffffffffffffffffffffffffffffff16146138cd576040517f08c379a00000000000000000000000000000000000000000000000000000000081526004016138c49061582d565b60405180910390fd5b565b60006138db848461259a565b90507fffffffffffffffffffffffffffffffffffffffffffffffffffffffffffffffff81146139555781811015613947576040517f08c379a000000000000000000000000000000000000000000000000000000000815260040161393e90615899565b60405180910390fd5b6139548484848403613688565b5b50505050565b600073ffffffffffffffffffffffffffffffffffffffff168373ffffffffffffffffffffffffffffffffffffffff16036139ca576040517f08c379a00000000000000000000000000000000000000000000000000000000081526004016139c19061592b565b60405180910390fd5b600073ffffffffffffffffffffffffffffffffffffffff168273ffffffffffffffffffffffffffffffffffffffff1603613a39576040517f08c379a0000000000000000000000000000000000000000000000000000000008152600401613a30906159bd565b60405180910390fd5b613a44838383613fd0565b60008060008573ffffffffffffffffffffffffffffffffffffffff1673ffffffffffffffffffffffffffffffffffffffff16815260200190815260200160002054905081811015613aca576040517f08c379a0000000000000000000000000000000000000000000000000000000008152600401613ac190615a4f565b60405180910390fd5b8181036000808673ffffffffffffffffffffffffffffffffffffffff1673ffffffffffffffffffffffffffffffffffffffff16815260200190815260200160002081905550816000808573ffffffffffffffffffffffffffffffffffffffff1673ffffffffffffffffffffffffffffffffffffffff168152602001908152602001600020600082825401925050819055508273ffffffffffffffffffffffffffffffffffffffff168473ffffffffffffffffffffffffffffffffffffffff167fddf252ad1be2c89b69c2b068fc378daa952ba7f163c4a11628f55a4df523b3ef84604051613bb89190614247565b60405180910390a3613bcb848484613fd5565b50505050565b600073ffffffffffffffffffffffffffffffffffffffff168273ffffffffffffffffffffffffffffffffffffffff1603613c40576040517f08c379a0000000000000000000000000000000000000000000000000000000008152600401613c3790615ae1565b60405180910390fd5b613c4c82600083613fd0565b60008060008473ffffffffffffffffffffffffffffffffffffffff1673ffffffffffffffffffffffffffffffffffffffff16815260200190815260200160002054905081811015613cd2576040517f08c379a0000000000000000000000000000000000000000000000000000000008152600401613cc990615b73565b60405180910390fd5b8181036000808573ffffffffffffffffffffffffffffffffffffffff1673ffffffffffffffffffffffffffffffffffffffff1681526020019081526020016000208190555081600260008282540392505081905550600073ffffffffffffffffffffffffffffffffffffffff168373ffffffffffffffffffffffffffffffffffffffff167fddf252ad1be2c89b69c2b068fc378daa952ba7f163c4a11628f55a4df523b3ef84604051613d859190614247565b60405180910390a3613d9983600084613fd5565b505050565b6000600560009054906101000a900473ffffffffffffffffffffffffffffffffffffffff16905081600560006101000a81548173ffffffffffffffffffffffffffffffffffffffff021916908373ffffffffffffffffffffffffffffffffffffffff1602179055508173ffffffffffffffffffffffffffffffffffffffff168173ffffffffffffffffffffffffffffffffffffffff167f8be0079c531659141344cd1fd0a4f28419497f9722a3daafe3b4186f6b6457e060405160405180910390a35050565b60008183613e729190614b84565b905092915050565b600073ffffffffffffffffffffffffffffffffffffffff168273ffffffffffffffffffffffffffffffffffffffff1603613ee9576040517f08c379a0000000000000000000000000000000000000000000000000000000008152600401613ee090615bdf565b60405180910390fd5b613ef560008383613fd0565b8060026000828254613f079190614b84565b92505081905550806000808473ffffffffffffffffffffffffffffffffffffffff1673ffffffffffffffffffffffffffffffffffffffff168152602001908152602001600020600082825401925050819055508173ffffffffffffffffffffffffffffffffffffffff16600073ffffffffffffffffffffffffffffffffffffffff167fddf252ad1be2c89b69c2b068fc378daa952ba7f163c4a11628f55a4df523b3ef83604051613fb89190614247565b60405180910390a3613fcc60008383613fd5565b5050565b505050565b505050565b6000604051905090565b600080fd5b600080fd5b6000819050919050565b61400181613fee565b811461400c57600080fd5b50565b60008135905061401e81613ff8565b92915050565b60006020828403121561403a57614039613fe4565b5b60006140488482850161400f565b91505092915050565b600073ffffffffffffffffffffffffffffffffffffffff82169050919050565b600061407c82614051565b9050919050565b61408c81614071565b82525050565b61409b81613fee565b82525050565b60006060820190506140b66000830186614083565b6140c36020830185614092565b6140d06040830184614092565b949350505050565b600081519050919050565b600082825260208201905092915050565b60005b838110156141125780820151818401526020810190506140f7565b60008484015250505050565b6000601f19601f8301169050919050565b600061413a826140d8565b61414481856140e3565b93506141548185602086016140f4565b61415d8161411e565b840191505092915050565b60006020820190508181036000830152614182818461412f565b905092915050565b61419381614071565b811461419e57600080fd5b50565b6000813590506141b08161418a565b92915050565b600080604083850312156141cd576141cc613fe4565b5b60006141db858286016141a1565b92505060206141ec8582860161400f565b9150509250929050565b60008115159050919050565b61420b816141f6565b82525050565b60006020820190506142266000830184614202565b92915050565b60006020820190506142416000830184614083565b92915050565b600060208201905061425c6000830184614092565b92915050565b600080fd5b600080fd5b7f4e487b7100000000000000000000000000000000000000000000000000000000600052604160045260246000fd5b6142a48261411e565b810181811067ffffffffffffffff821117156142c3576142c261426c565b5b80604052505050565b60006142d6613fda565b90506142e2828261429b565b919050565b600067ffffffffffffffff8211156143025761430161426c565b5b61430b8261411e565b9050602081019050919050565b82818337600083830152505050565b600061433a614335846142e7565b6142cc565b90508281526020810184848401111561435657614355614267565b5b614361848285614318565b509392505050565b600082601f83011261437e5761437d614262565b5b813561438e848260208601614327565b91505092915050565b600080600080608085870312156143b1576143b0613fe4565b5b60006143bf878288016141a1565b94505060206143d0878288016141a1565b93505060406143e18782880161400f565b925050606085013567ffffffffffffffff81111561440257614401613fe9565b5b61440e87828801614369565b91505092959194509250565b60007fffffffff0000000000000000000000000000000000000000000000000000000082169050919050565b61444f8161441a565b82525050565b600060208201905061446a6000830184614446565b92915050565b60008060006060848603121561448957614488613fe4565b5b6000614497868287016141a1565b93505060206144a8868287016141a1565b92505060406144b98682870161400f565b9150509250925092565b600060ff82169050919050565b6144d9816144c3565b82525050565b60006020820190506144f460008301846144d0565b92915050565b600081519050919050565b600082825260208201905092915050565b6000819050602082019050919050565b61452f81614071565b82525050565b60006145418383614526565b60208301905092915050565b6000602082019050919050565b6000614565826144fa565b61456f8185614505565b935061457a83614516565b8060005b838110156145ab5781516145928882614535565b975061459d8361454d565b92505060018101905061457e565b5085935050505092915050565b600060208201905081810360008301526145d2818461455a565b905092915050565b600081519050919050565b600082825260208201905092915050565b6000819050602082019050919050565b61460f81613fee565b82525050565b60608201600082015161462b6000850182614526565b50602082015161463e6020850182614606565b5060408201516146516040850182614606565b50505050565b60006146638383614615565b60608301905092915050565b6000602082019050919050565b6000614687826145da565b61469181856145e5565b935061469c836145f6565b8060005b838110156146cd5781516146b48882614657565b97506146bf8361466f565b9250506001810190506146a0565b5085935050505092915050565b600060208201905081810360008301526146f4818461467c565b905092915050565b600081519050919050565b600082825260208201905092915050565b6000819050602082019050919050565b60408201600082015161473e6000850182614526565b5060208201516147516020850182614606565b50505050565b60006147638383614728565b60408301905092915050565b6000602082019050919050565b6000614787826146fc565b6147918185614707565b935061479c83614718565b8060005b838110156147cd5781516147b48882614757565b97506147bf8361476f565b9250506001810190506147a0565b5085935050505092915050565b600060208201905081810360008301526147f4818461477c565b905092915050565b6000806040838503121561481357614812613fe4565b5b60006148218582860161400f565b92505060206148328582860161400f565b9150509250929050565b60006020828403121561485257614851613fe4565b5b6000614860848285016141a1565b91505092915050565b6000819050919050565b600061488e61488961488484614051565b614869565b614051565b9050919050565b60006148a082614873565b9050919050565b60006148b282614895565b9050919050565b6148c2816148a7565b82525050565b60006020820190506148dd60008301846148b9565b92915050565b600080604083850312156148fa576148f9613fe4565b5b60006149088582860161400f565b9250506020614919858286016141a1565b9150509250929050565b60006040820190506149386000830185614083565b6149456020830184614092565b9392505050565b6000806040838503121561496357614962613fe4565b5b6000614971858286016141a1565b9250506020614982858286016141a1565b9150509250929050565b60006040820190506149a16000830185614202565b6149ae6020830184614092565b9392505050565b7f4e487b7100000000000000000000000000000000000000000000000000000000600052602260045260246000fd5b600060028204905060018216806149fc57607f821691505b602082108103614a0f57614a0e6149b5565b5b50919050565b7f4e487b7100000000000000000000000000000000000000000000000000000000600052601160045260246000fd5b6000614a4f82613fee565b9150614a5a83613fee565b9250828202614a6881613fee565b91508282048414831517614a7f57614a7e614a15565b5b5092915050565b7f496e646578206f7574206f6620626f756e647300000000000000000000000000600082015250565b6000614abc6013836140e3565b9150614ac782614a86565b602082019050919050565b60006020820190508181036000830152614aeb81614aaf565b9050919050565b6000614afd82613fee565b9150614b0883613fee565b9250828203905081811115614b2057614b1f614a15565b5b92915050565b7f4e487b7100000000000000000000000000000000000000000000000000000000600052603260045260246000fd5b7f4e487b7100000000000000000000000000000000000000000000000000000000600052603160045260246000fd5b6000614b8f82613fee565b9150614b9a83613fee565b9250828201905080821115614bb257614bb1614a15565b5b92915050565b7f4e6f7420656e6f756768206d6f6e657900000000000000000000000000000000600082015250565b6000614bee6010836140e3565b9150614bf982614bb8565b602082019050919050565b60006020820190508181036000830152614c1d81614be1565b9050919050565b7f4e6f7420656e6f75676820746f6b656e7320746f2073656c6c00000000000000600082015250565b6000614c5a6019836140e3565b9150614c6582614c24565b602082019050919050565b60006020820190508181036000830152614c8981614c4d565b9050919050565b600081905092915050565b50565b6000614cab600083614c90565b9150614cb682614c9b565b600082019050919050565b6000614ccc82614c9e565b9150819050919050565b7f4661696c656420746f2073656e64204574686572000000000000000000000000600082015250565b6000614d0c6014836140e3565b9150614d1782614cd6565b602082019050919050565b60006020820190508181036000830152614d3b81614cff565b9050919050565b7f416d6f756e74206e6565647320746f206265206d6f7265207468616e20300000600082015250565b6000614d78601e836140e3565b9150614d8382614d42565b602082019050919050565b60006020820190508181036000830152614da781614d6b565b9050919050565b7f5072696365206e6565647320746f206265206d6f7265207468616e2030000000600082015250565b6000614de4601d836140e3565b9150614def82614dae565b602082019050919050565b60006020820190508181036000830152614e1381614dd7565b9050919050565b7f4e6f7420666f722073616c650000000000000000000000000000000000000000600082015250565b6000614e50600c836140e3565b9150614e5b82614e1a565b602082019050919050565b60006020820190508181036000830152614e7f81614e43565b9050919050565b7f4e6f7420656e6f7567682065746865722073656e740000000000000000000000600082015250565b6000614ebc6015836140e3565b9150614ec782614e86565b602082019050919050565b60006020820190508181036000830152614eeb81614eaf565b9050919050565b7f4f776e6572207374696c6c20646f6573206e6f74206861766520616c6c20746f60008201527f6b656e7300000000000000000000000000000000000000000000000000000000602082015250565b6000614f4e6024836140e3565b9150614f5982614ef2565b604082019050919050565b60006020820190508181036000830152614f7d81614f41565b9050919050565b6000606082019050614f996000830186614083565b614fa66020830185614083565b614fb36040830184614092565b949350505050565b7f4e6f7420666f722053616c650000000000000000000000000000000000000000600082015250565b6000614ff1600c836140e3565b9150614ffc82614fbb565b602082019050919050565b6000602082019050818103600083015261502081614fe4565b9050919050565b7f496e76616c6964205472616e73616374696f6e20496e64657800000000000000600082015250565b600061505d6019836140e3565b915061506882615027565b602082019050919050565b6000602082019050818103600083015261508c81615050565b9050919050565b7f4e6f7420656e6f75676820636f6e6669726d6174696f6e730000000000000000600082015250565b60006150c96018836140e3565b91506150d482615093565b602082019050919050565b600060208201905081810360008301526150f8816150bc565b9050919050565b7f45524332303a2064656372656173656420616c6c6f77616e63652062656c6f7760008201527f207a65726f000000000000000000000000000000000000000000000000000000602082015250565b600061515b6025836140e3565b9150615166826150ff565b604082019050919050565b6000602082019050818103600083015261518a8161514e565b9050919050565b7f526564656d7074696f6e206e6f7420617661696c61626c650000000000000000600082015250565b60006151c76018836140e3565b91506151d282615191565b602082019050919050565b600060208201905081810360008301526151f6816151ba565b9050919050565b7f4e487b7100000000000000000000000000000000000000000000000000000000600052601260045260246000fd5b600061523782613fee565b915061524283613fee565b925082615252576152516151fd565b5b828204905092915050565b7f50726f706f736564207072696365206c65737320746861742073616c6520707260008201527f6963650000000000000000000000000000000000000000000000000000000000602082015250565b60006152b96023836140e3565b91506152c48261525d565b604082019050919050565b600060208201905081810360008301526152e8816152ac565b9050919050565b7f4f776e61626c653a206e6577206f776e657220697320746865207a65726f206160008201527f6464726573730000000000000000000000000000000000000000000000000000602082015250565b600061534b6026836140e3565b9150615356826152ef565b604082019050919050565b6000602082019050818103600083015261537a8161533e565b9050919050565b7f4e6f742061207374616b65686f6c646572000000000000000000000000000000600082015250565b60006153b76011836140e3565b91506153c282615381565b602082019050919050565b600060208201905081810360008301526153e6816153aa565b9050919050565b7f416c726561647920436f6e6669726d6564000000000000000000000000000000600082015250565b60006154236011836140e3565b915061542e826153ed565b602082019050919050565b6000602082019050818103600083015261545281615416565b9050919050565b600061546482613fee565b91507fffffffffffffffffffffffffffffffffffffffffffffffffffffffffffffffff820361549657615495614a15565b5b600182019050919050565b7f4e6f7420536f6c64205965740000000000000000000000000000000000000000600082015250565b60006154d7600c836140e3565b91506154e2826154a1565b602082019050919050565b60006020820190508181036000830152615506816154ca565b9050919050565b7f4e6f74207468652066696e616c20627579657200000000000000000000000000600082015250565b60006155436013836140e3565b915061554e8261550d565b602082019050919050565b6000602082019050818103600083015261557281615536565b9050919050565b7f416c726561647920696e697469616c697a656400000000000000000000000000600082015250565b60006155af6013836140e3565b91506155ba82615579565b602082019050919050565b600060208201905081810360008301526155de816155a2565b9050919050565b7f4f6e6c792054656e616e742063616e207061792072656e740000000000000000600082015250565b600061561b6018836140e3565b9150615626826155e5565b602082019050919050565b6000602082019050818103600083015261564a8161560e565b9050919050565b7f53656e642045786163742052656e740000000000000000000000000000000000600082015250565b6000615687600f836140e3565b915061569282615651565b602082019050919050565b600060208201905081810360008301526156b68161567a565b9050919050565b7f45524332303a20617070726f76652066726f6d20746865207a65726f2061646460008201527f7265737300000000000000000000000000000000000000000000000000000000602082015250565b60006157196024836140e3565b9150615724826156bd565b604082019050919050565b600060208201905081810360008301526157488161570c565b9050919050565b7f45524332303a20617070726f766520746f20746865207a65726f20616464726560008201527f7373000000000000000000000000000000000000000000000000000000000000602082015250565b60006157ab6022836140e3565b91506157b68261574f565b604082019050919050565b600060208201905081810360008301526157da8161579e565b9050919050565b7f4f776e61626c653a2063616c6c6572206973206e6f7420746865206f776e6572600082015250565b60006158176020836140e3565b9150615822826157e1565b602082019050919050565b600060208201905081810360008301526158468161580a565b9050919050565b7f45524332303a20696e73756666696369656e7420616c6c6f77616e6365000000600082015250565b6000615883601d836140e3565b915061588e8261584d565b602082019050919050565b600060208201905081810360008301526158b281615876565b9050919050565b7f45524332303a207472616e736665722066726f6d20746865207a65726f20616460008201527f6472657373000000000000000000000000000000000000000000000000000000602082015250565b60006159156025836140e3565b9150615920826158b9565b604082019050919050565b6000602082019050818103600083015261594481615908565b9050919050565b7f45524332303a207472616e7366657220746f20746865207a65726f206164647260008201527f6573730000000000000000000000000000000000000000000000000000000000602082015250565b60006159a76023836140e3565b91506159b28261594b565b604082019050919050565b600060208201905081810360008301526159d68161599a565b9050919050565b7f45524332303a207472616e7366657220616d6f756e742065786365656473206260008201527f616c616e63650000000000000000000000000000000000000000000000000000602082015250565b6000615a396026836140e3565b9150615a44826159dd565b604082019050919050565b60006020820190508181036000830152615a6881615a2c565b9050919050565b7f45524332303a206275726e2066726f6d20746865207a65726f2061646472657360008201527f7300000000000000000000000000000000000000000000000000000000000000602082015250565b6000615acb6021836140e3565b9150615ad682615a6f565b604082019050919050565b60006020820190508181036000830152615afa81615abe565b9050919050565b7f45524332303a206275726e20616d6f756e7420657863656564732062616c616e60008201527f6365000000000000000000000000000000000000000000000000000000000000602082015250565b6000615b5d6022836140e3565b9150615b6882615b01565b604082019050919050565b60006020820190508181036000830152615b8c81615b50565b9050919050565b7f45524332303a206d696e7420746f20746865207a65726f206164647265737300600082015250565b6000615bc9601f836140e3565b9150615bd482615b93565b602082019050919050565b60006020820190508181036000830152615bf881615bbc565b905091905056fea264697066735822122020fdc661394de0ce8232619b2a1113f7e28d292891a94efcdc05688c5b14453d64736f6c63430008110033",
  "linkReferences": {},
  "deployedLinkReferences": {}
}